:020000040000FA
:10000000280B0010E1000000E5000000E700000000
:10001000E9000000EB000000ED000000000000001F
:10002000000000000000000000000000EF000000E1
:10003000F100000000000000F30000000554000083
:10004000F700000085020000B1020000F700000088
:10005000F7000000F7000000F7000000F7000000C4
:10006000F7000000F7000000F7000000F7000000B4
:10007000F7000000F7000000F7000000F7000000A4
:10008000F7000000F7000000F7000000F700000094
:10009000F7000000F7000000FD0E0000F700000070
:1000A000F7000000F7000000F7000000F700000074
:1000B000F7000000F7000000F7000000F700000064
:1000C000F7000000F7000000F7000000DFF80CD098
:1000D00007F0AEF80048004721550000280B00103B
:1000E00005480047FEE7FEE7FEE7FEE7FEE7FEE71E
:1000F000FEE7FEE7FEE7FEE7CD00000030B500209A
:10010000354BA3F1140202F10A04115C51B1255CD4
:10011000A94207D1195C29B1491EC9B2195409B9BC
:1001200000211154115C2154401CC0B20A28ECD3A8
:1001300030BD70B50024284E143E641CE4B2355D19
:100140001DB1854201D00A2CF7D3305522480C301E
:1001500040F82410283040F824203438035570BD6E
:1001600000211D4A143A491CC9B2535C834201D094
:100170000A29F8D3535C834210D117480C3050F849
:10018000213016480360144B343353F82130436058
:1001900000205054104A50540120704700207047EE
:1001A00000210D4A143A491CC9B2535C834201D064
:1001B0000A29F8D3525C82420CD107480C3050F81F
:1001C000212006480260044A343252F8211041606E
:1001D000012070470020704788C5072028C00720ED
:1001E000114A9060117070470F4A9068002807D03C
:1001F000401E906004D11078002140B200F05FBA38
:1002000070470949C88070470749B1F906000028BE
:1002100008D0401E00B2C880002803D10021084643
:1002200000F04DBA7047000030C0072090F9003050
:100230008B4200DA027090F90030934200DD0170C9
:10024000704790F900308B4200DA017090F900108D
:10025000914200DD02707047B0F900308B4200DA45
:100260000180B0F90010914200DD02807047B0F9C2
:1002700000308B4200DA0280B0F90030934200DD9A
:10028000018070474FF04021012008600C48016850
:10029000491C01600B49002008700B48016821F0DF
:1002A000FF01091D0160016841F080710160704724
:1002B00006490120086002484168491C41607047B6
:1002C0001003001000C007200040034000800040E1
:1002D00030B50B46014600202022012409E021FA16
:1002E00002F59D4205D303FA02F5491B04FA02F513
:1002F0002844151EA2F10102F1DC30BDFFFFFFFF13
:100300000020F84A20211154401CC0B2C828FAD35A
:10031000704701460020F34A401CC0B2135C8B4278
:1003200001D0C828F8D3704710B50021EE4C0A223E
:100330000346B0FBF2F002FB10336354491CC9B210
:100340000529F5D310BDF0B5E84D0121297005212F
:100350002026E54B00272A7842B15A1812F8014CA2
:1003600024B9814202D902F8016C05E05A1812F84A
:10037000014D303414702F70491EC9B20029EAD1E2
:10038000F0BDFEB503462B27002B02DA584203B21C
:100390002D2700200A246D4693FBF4F604FB163348
:1003A0002B5433B2401C40B20A28F5DB0123002451
:1003B0000920202643B115F800C0BCF1000F03D17D
:1003C000904201DD2E5405E02B5C30332B5400238A
:1003D000641CE4B2401E40B20028EBDA2D2F03D19A
:1003E0002046641CE4B22F546AB160B205E02B18B9
:1003F00013F8013C2B54401E40B29042F7DC2E20F3
:10040000A854641CE4B20846FFF783FF0021B54AF4
:1004100004E0461A6B5C9355491C49B2A142F8DBD3
:10042000FEBD2DE9FE414FF02B0C002802DA4042C0
:100430004FF02D0C00240A256F46064690FBF5F080
:1004400005FB10663E55641C64B20A2CF5DB0125E1
:1004500000240920202645B117F80080B8F1000FCC
:1004600003D1984201DD3E5405E03D5C30353D54FA
:100470000025641CE4B2401E40B20028EBDABCF157
:100480002D0F04D12046641CE4B207F800C06BB104
:1004900060B205E03D1815F8015C3D54401E40B2C5
:1004A0009842F7DC2E20F854641CE4B201EB810082
:1004B00002EB8000C1B200208A4A04E00D1A3B5CC6
:1004C0005355401C40B2A042F8DBBDE8FE8170B538
:1004D0000D4616461C46FFF727FF601CC0B2FFF70B
:1004E00032FF05EB850006EB8000C1B200207E4B99
:1004F0007C4DA04201D21A5C6A5406D31A5C202AB1
:1005000003D04CB16E1806F8012C491EC9B2401C2C
:10051000C0B20528EDD370BD6A54F6E730B5044685
:1005200008461546FFF7F5FEFF2809D06D4A04E09E
:100530004319641CD154401CC0B221780029F7D162
:1005400030BD70B50D461446FFF7EEFE601CC0B21C
:10055000FFF7F9FE2846FFF7DCFE0021624A614DF5
:1005600024B9535C202B01D02B5414E0A14202D2B9
:10057000535C2B540FE008D14FF02E032B5405EBA6
:100580000006535C06F8013C05E0535C202B02D0CA
:100590002E1806F8013C401EC0B2491CC9B20529FC
:1005A000DED370BD17B501EB810002EB8000C2B253
:1005B0009DF800304E4803F00F01445C49498C54CB
:1005C000521ED2B200EB13131B788B54521ED2B2C0
:1005D0009DF8013003F00F04045D8C54521ED2B21A
:1005E00000EB13131B788B54521ED2B29DF80230CD
:1005F00003F00F04045D8C54521ED2B200EB1313AF
:100600001B788B54521ED3B29DF8032002F00F04C6
:10061000045DCC545B1EDBB200EB12100078C854B2
:100620001EBD30B5334901242E4B91F9012091F9BB
:1006300004108A4204D100EB800003F8204030BD52
:100640004D1CAA4205D1401C00EB800003F820405D
:1006500030BD8D1CAA4205D1801C00EB800003F840
:10066000204030BDCD1CAA4205D1C01C00EB80004B
:1006700003F8204030BD0D1DAA4205D1001D00EB3E
:10068000800003F8204030BD4D1DAA4205D1401D19
:1006900000EB800003F8204030BD8D1DAA4205D13B
:1006A000801D00EB800003F8204030BDC91D8A4248
:1006B000FBD1C01D00EB800003F8204030BD0E4B85
:1006C0001A88521E104400B218800C4A00EB8000B9
:1006D0000244084813680360127902714278114499
:1006E00041707047FC000010FCC0072001C10720CA
:1006F000A77C0000E00000103C0000107BCA07202F
:1007000070B5674DB5F90040661C2E80654D04EB51
:1007100084042544644C26682E6026792E7120704E
:1007200061702271A37070BD2DE9F04180460F46C3
:100730001646FFF7E5FD5D4C002518F8010B04F89F
:10074000010B6D1CEDB2142DF7D3002017F8011B1F
:1007500004F8011B401CC0B21428F7D3002016F87F
:10076000011B04F8011B401CC0B21428F7D3002061
:1007700013F8011B04F8011B401CC0B21428F7D366
:10078000BDE8F08110B5029CFFF7CEFF4648C37864
:10079000827841784720FFF7B3FF642094FBF0F0A4
:1007A000BDE81040C0B2FFF72CBD2DE9FE430D4659
:1007B000400100F5806402A9204606F0ACFB01A9C7
:1007C00004F1080006F0A7FB694604F10C0006F0EE
:1007D000A2FB2846FFF79DFD2026344C411CC9B2E0
:1007E00026543027481CC0B267544FF02108411CE2
:1007F000C9B204F800804FF04009481CC0B204F8A8
:100800000190411CC9B22654481CC0B26654411C18
:10081000C9B227542322481CC5B262549DF8060071
:1008200000222121FFF78DFE9DF8040000222321E4
:10083000FFF787FE9DF80500401E0C2802D301201B
:100840008DF805009DF805001949002201EB800094
:100850004021FFF763FE681CC0B26655411CC9B257
:100860002754481CC0B204F801803A22411CC9B286
:100870002254481CC0B26754411CCDB204F8009009
:100880009DF8000000222121FFF75BFE9DF801008A
:1008900000224021FFF755FE6655BDE8FE830000AB
:1008A0003C0000107BCA0720E0000010FC00001094
:1008B0001C7C000070B5FF4C608A401C00B2608256
:1008C000B0F5E16F01DB00206082B4F91200B0F5F1
:1008D000DF6F11D90F2301226421D220FFF729FCF9
:1008E0000F230022D821D720FFF723FC0F2300225B
:1008F000D821DC20FFF71DFCB4F91200A0F5E0615F
:10090000073918D1EC4EED4CED4D308821888842E6
:1009100005D0B4F90010B5F9000006F03BFB708873
:100920006188884207D0B4F90210B5F90200BDE829
:10093000704006F02FBB70BDF0B5E24BB3F9040078
:10094000E149B1F9001041434FF4FA6291FBF2F131
:10095000DE4A1180B3F90210DD4AB2F9002051439A
:100960004FF4FA7491FBF4F1DA4A1180DA4AB2F9E1
:100970000020424392FBF4F2D84D2A80891AD84ACB
:100980001180D849B1F900104843D7490988A1F529
:10099000AA42FA3A04D14FF4C87190FBF1F001E099
:1009A00090FBF4F0D1490880B3F90A1040F6B7344F
:1009B000A1F2213001260025CD4AA04201D21570B6
:1009C00000E01670CB48B0F90000414344F6206CBB
:1009D00091FBFCF1A1F21111C74F3980B3F90C1052
:1009E000A1F22133A34201D2157000E016704843F2
:1009F00090FBFCF0A0F211103880C0490880DFF8AD
:100A000000C3BCF80010BF4EB6F9000048434FF4D5
:100A10007A6490FBF4F0BC4B80B21880BB49642828
:100A200001D2088002E0BA4800880880BCF80210B1
:100A3000B6F90200484390FBF4F05880B548B0F98D
:100A40000010B54BB3F900404C4341F2707194FB78
:100A5000F1F6B24C2680B0F902C0B3F9026006FB91
:100A60000CF696FBF1F66680B0F90460B3F9043039
:100A7000734393FBF1F3A380B0F90640A84BB3F99D
:100A80000060664396FBF1F6A64C2680B0F908C0DC
:100A9000B3F9026006FB0CF696FBF1F66680B0F93E
:100AA0000A60B3F90400704390FBF1F0A0807888ED
:100AB0009D4E00F2111003B23380B88800F211107D
:100AC00004B274805178317290787072974A01B98B
:100AD00010B1012909D009E0181900EBD0706FF4AA
:100AE000887101EB600010801BE008B121B105E0C6
:100AF000A4F21114148014E0012802D0012904D0BA
:100B00000FE0A3F2111313800BE0012809D18848EC
:100B10000078052803D287480088108001E014205F
:100B200010808548058085480580F0BD844841686F
:100B300021F4402141F480214160416821F4403199
:100B400041F480314160416821F4404141F48041E9
:100B50004160416C21F4402141F400214164416C29
:100B600021F4403141F400314164416C21F44041B1
:100B700041F4004141647348016821F0E061016083
:100B8000016841F400110160016821F480310160C5
:100B9000016821F47F4141F4807101608115C160D9
:100BA00069488903016070472DE9F041414C1434D4
:100BB00060882188401A00B200F040F9A61D3080FC
:100BC000A0886188401A00B200F038F97080A088CF
:100BD0002188401A00B200F031F9B0804FF49671CC
:100BE000344D884202DAA08828810CE0B6F9020070
:100BF000884202DA6088288105E0B6F90000884260
:100C000001DA208828816F7800261FB32D48B5F9B6
:100C10000810203002680A44026042680A444260B8
:100C200082680A448260C2681144C160298A491CF2
:100C300009B22982B1F5805F00DB2E82B5F9101070
:100C40008A052AD1891250F821201212EA8040F830
:100C5000216022E03D48AC78EA7800EB8413B5F9D6
:100C6000081043F8221090070BD1002153F820C040
:100C70006144401CC0B21028F8D30811114921F872
:100C80001400641CE0B2A870102806D3AE70521C89
:100C9000D0B2E870102800D3EE702E707F1C07F0E1
:100CA00001006870274A20B1106820F0FF00001D85
:100CB0004EE04FE000C0072044C007202203001090
:100CC0001876000034C507204CC00720940000109F
:100CD0004A0200109800001052C007209C0000102B
:100CE000F002001050C0072092C0072096000010AC
:100CF000C300001040020010EA0000109E00001027
:100D000004C107203A020010F2020010F80200109D
:100D1000A2000010AECA07200CC10720F00000108E
:100D2000FC020010F60000104ACA0720B0000010B4
:100D300031000010FA020010FAC0072002C107209B
:100D400000C002400040034000E100E034C1072041
:100D500010603BE0A978080705D4106820F0FF0078
:100D6000401C106004E0106820F0FF00801C106040
:100D70002348036843F080530360036A43F08043D1
:100D80000362036E43F080630366CB070AD04369B6
:100D900043F0805343618B0709D4436B23F08043B6
:100DA000436308E0436923F080534361F3E7436BF7
:100DB00043F080434363490704D4416F21F08061CD
:100DC000416703E0416F41F080614167106840F086
:100DD00080701060BDE8F0810948016841F48071BD
:100DE0000160084909780C2904D0416941F48071F7
:100DF00041617047416921F48071416170477047DA
:100E000000C00920E000001010B50A2803D0BDE89A
:100E1000104006F0B7B90D2006F0B4F9BDE8104057
:100E20000A2006F0AFB910B50446E0B2FFF7ECFFB8
:100E3000204610BDFF49112008727047002801DAD2
:100E4000404200B2704770B5FB4E40F6B835012104
:100E5000B6F90040F94800224FF47A73AC4201DD44
:100E6000017002E09C4200DA0270B6F90E40AC421A
:100E700001DD417002E09C4200DA4270B6F9104098
:100E8000AC4201DD817002E09C4200DA8270B6F96A
:100E90000240AC4201DDC17002E09C4200DAC27047
:100EA000B6F90840AC4201DD017102E09C4200DA73
:100EB0000271B6F90640AC4201DD417102E09C428C
:100EC00000DA4271B6F90440AC4201DD817102E002
:100ED0009C4200DA8271B6F90C40AC4201DDC1716E
:100EE00002E09C4200DAC271B6F90A40AC4201DD70
:100EF000017270BD9C42FCDA027270BD10B5D0491F
:100F0000086820F0E06008604868CF4AC0F30B131F
:100F1000CC4C107824F81030401CC0B2107003285C
:100F200003D2086840F08070086010BD1FB5C74844
:100F3000007808B3C54A0023D43A5179491CC9B294
:100F4000092821D003284BD004287ED001287DD049
:100F500002287CD005287BD006287AD0072879D0B3
:100F6000082878D00A2877D00B2877D104B0B8A009
:100F7000BDE8104006F08CB904B00722BDE810406F
:100F80001921B6A006F084B95171052900D3537117
:100F9000507938B100210022AC481A380378012B6F
:100FA00008D009E004B00B22BDE810402621ABA018
:100FB00006F06EB9012101224378012B03D141F0E3
:100FC0000201521CD2B28078012803D141F0040101
:100FD000521CD2B204B0A4A0BDE8104006F058B92B
:100FE0005171052900D353715079B0B3A24C218BB4
:100FF0004FF06400B1FBF0F200FB1212217DB1FB57
:10100000F0F300FB131383EA0203217AB1FBF0F241
:1010100000FB121282EA0302217BB1FBF0F300FB1A
:10102000131383EA02032179B1FBF0F200FB1212E1
:1010300082EA03022178B1FBF0F300FB131383EA89
:10104000020322782179207B09E01BE024E037E0CD
:1010500040E053E05CE061E066E00BE009E000F1B5
:1010600001008DE80F00237A227D218B83A006F0FA
:101070000FF91FBD04B00222BDE810400B2177A07C
:1010800006F006B95171052900D3537104B084A04C
:10109000BDE8104006F0FCB85171052900D353712A
:1010A000507928B104B081A0BDE8104006F0F0B836
:1010B00004B00222BDE810400C2168A006F0E8B898
:1010C0005171052900D3537104B07AA0BDE81040D6
:1010D00006F0DEB85171052900D35371507928B15B
:1010E00004B077A0BDE8104006F0D2B804B00222E8
:1010F000BDE81040112159A006F0CAB85171052968
:1011000000D3537104B070A0BDE8104006F0C0B821
:1011100004B06FA0BDE8104006F0BAB804B06EA0ED
:10112000BDE8104006F0B4B804B06EA0BDE81040B1
:1011300006F0AEB810B5454C1820B43CE0712078EC
:10114000401C40B204F82009182802DDFB2084F876
:10115000200094F92000002810DB18280EDC212044
:10116000FFF71EF8002808D061480088222804D123
:10117000364894F9201090F9020010BD411CFCD0B3
:10118000811CFAD0C01CF8D1E078401CE07010BD82
:101190002DE9F0410020574B00214FF4F47219540F
:1011A000401C00B29042FADB00224FF0140C7A216E
:1011B00002FB01F002EB8201890009B202EB82041A
:1011C0000CEB84071DE0214C4B4E1C34645C04EB9B
:1011D0004405441C16F8158003F8008006EB450012
:1011E000661C45781D558478751C9C55C4786E1C0A
:1011F0005C550579741C9D554579601C1D55491C2D
:1012000009B28F42DFDC521C12B2042ACFDBBDE8E8
:10121000F0812DE9F04FC9B0DFF83090DFF818A069
:1012200009F11C0799F800100DACA7F1F00548462C
:1012300064E000000040024034C5072072CA072065
:101240000040034014C0072000C00720E000001049
:1012500044454641554C540A000000004F4B25645C
:1012600043524325640A00004F50545225644352B0
:101270004325640A000000002440024044415441D8
:1012800025303264253032642530326425303264B2
:10129000253032642530326443524325640A00000D
:1012A00054494D4553544152540A00005741544546
:1012B000520A00005741545F5245540A0000000092
:1012C0004149520A0000000041495F5245540A005A
:1012D000494E5445520A0000494E54455F52455408
:1012E0000A00000050524F4245534D530A0000007F
:1012F00028C00720FCC507201C76000090F90400D8
:1013000051B107297ED009297DD001297CD005293A
:101310007BD00A297AD03CE1CDA10D91D2A10E91CA
:10132000D7A10F91DCA11091E1A11191E6A1129139
:10133000EBA11391F0A11491F5A11591FAA11691C9
:10134000FFA1179199F901100A1A012A03DD491E1C
:1013500089F8041003E0814201DA89F8041099F950
:101360000400C11C801C54F8213054F82020DDE911
:101370000D01FFF7D9F9F84E307A4FF000024FF027
:101380002501FFF7DEF8307900225E21FFF7D9F85A
:10139000307800222621FFF7D4F8307B00223C2150
:1013A000FFF7CFF8B08B00227B21FFF7CAF8317E20
:1013B000EA48002200EB81003E21FFF7AFF8A87C4D
:1013C00060B13A20FEF7A5FF20263E543A20FEF7F2
:1013D000A0FF3E543A20FEF79CFF3E540220FFF748
:1013E00020F9DF480088A0F5FE405838002800DAD0
:1013F000002000EB80004000FF2190FBF1F0002373
:10140000062204E016E01FE0A6E0AFE0B8E001210C
:1014100080B2FFF75CF8BAF91400022300EB8000F9
:1014200041003E2091FBF0F080B210220121FFF735
:101430004EF8AEE0CBA3D1A2D6A1DCA0FFF774F9A1
:101440000320FFF7EEF8A4E00A216976DDA10191FF
:10145000E2A10291E7A10391C04961310491821C8C
:1014600001A951F82230421C51F8222051F82010D5
:10147000E6A0FFF759F999F9010099F90410421A09
:10148000022A03DD801E89F8040003E0884201DAA5
:1014900089F804000120FFF7C4F8E24E6FF003085A
:1014A000B078012843D042462121DFA0FFF736F86B
:1014B0007078012842D042462521DBA0FFF72EF8A4
:1014C0003078012841D042462821D7A0FFF726F8DE
:1014D000D74E00224021B079FFF733F8F07900228F
:1014E0002321FFF72EF8307A00222421FFF729F874
:1014F000F07800225E21FFF724F8307900222621BF
:10150000FFF71FF8707900222A21FFF71AF83078C8
:1015100000222921FFF715F8707800222D21FFF70E
:1015200010F8B07800223D21FFF70BF831E06FF0A2
:1015300002022121BFA0FEF7F1FFB9E76FF002021E
:101540002521BCA0FEF7EAFFBAE76FF002022821CE
:10155000B8A0FEF7E3FFBBE782A3B8A2BDA1C3A07A
:10156000FFF7E2F80320FFF75CF812E07DA3C5A2C5
:10157000B8A1BEA0FFF7D8F80320FFF752F808E0A3
:1015800078A3C6A2CBA1D1A0FFF7CEF80320FFF726
:1015900048F899F800000C2808D172A3D1A2D7A16D
:1015A000DCA0FFF7C1F80320FFF73BF899F8000033
:1015B0000D2805D1DDA3E3A2E8A1EEA0FFF7B4F862
:1015C000984E99F800003A3E4FF000080B2830D0B2
:1015D0004F282FD0DFF858B24128ABF1660B2AD044
:1015E000432829D006F1340B0F2826D0102824D008
:1015F000392822D0222820D0311D30281ED0312871
:101600001DD003281CD004281BD0062819D002287E
:1016100017D0082815D0122814D0132813D04FF44F
:101620007A77162810D014280FD015280ED02B2822
:10163000ACE1BDE1C4E10FE26FE2C8E2ECE219E324
:1016400019E319E319E319E319E319E319E30000B6
:101650002030253A305E3A302620303C2F3E202084
:101660002F307B200000000020202020202020ECB4
:10167000C020202020202E2020C22020000000009A
:1016800020CFEEEBEDE0FF20EFF0EEE2E5F0EAE058
:10169000202020200000000020D3F1F2E0EDEEE257
:1016A000EAE020E2F0E5ECE5EDE8202000000000B3
:1016B00020CAEEEDF2F0EEEBFC20E8EDF2E5F0F4FE
:1016C000E5E9F1E00000000020CAEEEDF2F0EEEBFB
:1016D000FC20EEEFF2F0EEEDEEE220200000000044
:1016E00020C4E0F2F7E8EA20E2EEE7E4F3F5E020D8
:1016F000202020200000000020C4E0F2F7E8EA20CB
:10170000E2EEE4FB2020202020202020000000002A
:1017100020CFF0EEE1EDE0FF20F1ECF120202020E1
:10172000202020200000000020D2E5F1F220E2FB82
:10173000EAEBFEF7E5EDE8FF2020202000000000A6
:1017400020C7E0E2EEE4F1EAE8E520F3F1F2E0EDB3
:10175000EEE2EAE800000000204002401C7C0000AD
:101760001A03001020C2FBF5EEE4202020202020E8
:1017700020202020202020200000000020202020E9
:101780002020C1C8CFCFC5D0C020202020202020BD
:1017900000000000202020202020CACDCECFCECABD
:1017A00020202020202020200000000020CFD0CEAC
:1017B000C2C5D0CAC020C8CDC4C8CAC0D6C8C820F7
:1017C0000000000020CEEFF2F03320202020202166
:1017D00020202020402324200000000020CEEFF213
:1017E000F032202020202025202020205E262A20C4
:1017F0000000000020CEEFF2F03120202020202831
:1018000020202020292D3D200000000020CACECD20
:10181000D2D0CECBDC20CECFD2D0CECDCEC22020E7
:1018200000000000C6000010C2DBCACB2E00000082
:1018300072CA0720C2CACB2E000000002020202040
:10184000C4C0D2D7C8CAC020C2CEC4DB202020204A
:101850000000000020202020D2C5CCCFC5D0C0D2AF
:10186000D3D0C020202020200000000020CDC020A8
:10187000CBC5C2CECC20C8CDC4C8CAC0D2CED0C57C
:10188000000000002020C4C0D2D7C8CAC020C2CEE9
:10189000C7C4D3D5C0202020000000002020202075
:1018A000202020D1CCD1202020202020202020202A
:1018B000000000002020202020CFD0CEC1CDCEC9F6
:1018C0002020202020202020000000002020202098
:1018D00020CED2CFD0C0C2CAC020202020202020BD
:1018E0000000000020202020202020D1C5D2C820C8
:1018F000202020202020202000000000202020CDBB
:10190000C020CFD0CECFC0C4C0CDC8C5202020209D
:10191000000000002020CFD0CEC2C5D0CAC020D049
:10192000C5C0CAD6C8C82020000000002020202042
:1019300020202020202020202020202020202020A7
:101940000000000020202020202020D7C0D1CEC2BF
:101950002020202020202020000000002020202007
:101960002020CDC020D5CEC4202020202020202023
:101970000000000020CEC1D0C0D2C8D2DC20C2CD31
:10198000C8CCC0CDC8C520200000000072D02C28D3
:1019900071D02A2870D001F1330B01F15A073B288E
:1019A0006BD03D286AD0282869D04E2868D0A8E29C
:1019B000AFF28803B3A2B9A1BEA0FEF7B5FEA0E2C4
:1019C000C2A00D90C7A00E90CCA00F90D1A01090F7
:1019D000D6A01190DBA01290E0A01390E5A0149087
:1019E000EAA01590EFA01690F4A01790F9A0189017
:1019F000FEA01990AFF29422B5F96A00411C44F898
:101A00002120AFF2D802811C44F82120AFF2E4017A
:101A1000C01C44F8201099F90400C11C54F821306E
:101A2000811C401C54F8212054F820100D98FEF71A
:101A30007BFE99F9010099F90410421A022A03DD8C
:101A4000801E89F8040003E0884201DA89F8040066
:101A50000120FEF7E6FD54E2B6F9141089B1012920
:101A60001DD099F9010099F90420904223DA89F8F0
:101A7000040026E0FDE3FDE3FDE3FDE3FDE3FDE31C
:101A8000FDE3E04BE0A2E6A1EBA0FEF74DFE89F8F6
:101A9000018089F804800320FEF7C3FD26E0D94BBE
:101AA000EBA2DFA1E4A0FEF73FFE89F8048002204C
:101AB000FEF7B7FD1AE0821A012A02DD401E89F8FE
:101AC000040099F90400491E884206D1CD4BE0A2DA
:101AD000D3A1D9A0FEF728FE05E0E3A3DCA2D0A1A4
:101AE000D5A0FEF721FE0220FEF79BFD99F902002A
:101AF0000022401C80B22121FEF723FD99F9041039
:101B0000DF48405C2821FEF750FE99F904005B2174
:101B100010F80B00FEF749FEF3E1B6F9141051B1CD
:101B2000012916D099F9010099F9042090421CDA94
:101B300089F804001FE0B34BB3A2B9A1D1A0FEF70E
:101B4000F3FD89F8018089F804800320FEF769FD20
:101B500026E0AC4BBEA2B2A1CAA0FEF7E5FD89F813
:101B600004800220FEF75DFD1AE0821A012A02DDE0
:101B7000401E89F8040099F90400491E884206D1E4
:101B8000A04BB3A2A6A1BFA0FEF7CEFD05E0B6A371
:101B9000AFA2A3A1BBA0FEF7C7FD0220FEF741FD47
:101BA00099F902000022401C80B22121FEF7C9FCF5
:101BB00099F90410B248405C2821FEF7F6FD99F926
:101BC00004005B2110F80B00FEF7EFFD99E18D4B4F
:101BD000B2A0153B1A461146FEF7A6FD9BF9000080
:101BE000002380B208220121FEF771FC9BF901005D
:101BF000002380B209220121FEF769FC9BF9020053
:101C0000002380B20A220121FEF761FC99F901202C
:101C1000A849A420505474E199F90200085C5528A1
:101C200027D0A5A00D90774BA9A1153B1A460D987A
:101C3000FEF77AFD9BF90000002380B20822022102
:101C4000FEF745FC9BF90100002380B20922022126
:101C5000FEF73DFC9BF90200002380B20A2202211C
:101C6000FEF735FC9349A42099F901201431505412
:101C700047E139E13BE145E1C1E1C8E121E270E240
:101C8000D7E2FDE2202020202020D3D1D2C0CDCE2B
:101C9000C2CECA20202020200000000020202020CA
:101CA0002020C7C0C2CEC4D1CAC8D5202020202041
:101CB0000000000020202020202020C7C0CFC8D155
:101CC000DC20202020202020000000002020C0C296
:101CD000D2CECCC0D2DB20CDC0C3D0D3C7CECA2099
:101CE0000000000020C0E2F2EEECE0F220B931206A
:101CF00020202020202021200000000020C0E2F22F
:101D0000EEECE0F220B932202020202020204020DC
:101D10000000000020C0E2F2EEECE0F220B9332037
:101D200020202020202023200000000020C0E2F2FC
:101D3000EEECE0F220B934202020202020202420C6
:101D40000000000020C0E2F2EEECE0F220B9352005
:101D500020202020202025200000000020C0E2F2CA
:101D6000EEECE0F220B936202020202020205E205A
:101D70000000000020C0E2F2EEECE0F220B93720D3
:101D800020202020202026200000000020C0E2F299
:101D9000EEECE0F220B938202020202020202A205C
:101DA0000000000020C0E2F2EEECE0F220B93920A1
:101DB00020202020202028200000000020C0E2F267
:101DC000EEECE0F220B93130202020202020292024
:101DD0000000000020C0E2F2EEECE0F220B9313168
:101DE0002020202020202B200000000020C0E2F234
:101DF000EEECE0F220B931322020202020203D20DE
:101E0000000000007D7C000020C6F3F0EDE0EB2038
:101E1000EFF3F1F2202020202020202000000000FD
:101E20002020202020C1C0D2C0D0C5C8204E2120F3
:101E30002020202000000000C2DBD0C0C2CDC8C2DC
:101E4000C0DED9C8C520C7C0D0DFC4DB0000000099
:101E5000202820202020202020202020202020207A
:101E60002020202000000000205B202020202020B7
:101E700020202020202020202020202000000000E2
:101E80000BCA0720202020202020D0C0C7D0DFC4CC
:101E9000DB20202020202020000000002020C2E2A3
:101EA000E5E4E8F2E52020EFE0F0EEEBFC20202076
:101EB000000000002C010010C4EBFF20E2E2E5E48A
:101EC000E5EDE8FF20E1E0F2E0F0E5E800000000E9
:101ED0002020EDE0E1E5F0E8F2E520EFE0F0EEEBC8
:101EE000FC20202000000000E6A00D909BE6EBA364
:101EF000F0A2F6A1AFF24000FEF716FC0220FEF7BA
:101F000090FB95E1A879401CC0B2A8710F2809D3B5
:101F100085F80680287E401CC0B22876032801D3AD
:101F200085F81880EF480D902A380E90287E08B961
:101F3000EDA10F91012801D1F1A10F91022801D14A
:101F4000F5A00F900DA9FAA00EC9FEF7EDFB99F9C7
:101F500001005E2150B101280BD002280CD00328CB
:101F60000DD004280ED005280FD010E087F82A10D5
:101F70000DE087F82D100AE087F8301007E087F8A9
:101F8000331004E087F8371001E087F83B10DFF8E2
:101F9000B8B39BF8240000225E21FEF7D2FA9BF82A
:101FA000280000222521FEF7CCFA9BF82C00002205
:101FB0003C21FEF7C6FA9BF83810CA480022763852
:101FC00000EB81003E21FEF7A9FABBF83C0000229D
:101FD0007B21FEF7B6FAA87C20B13A20FEF799F9EA
:101FE000202139549BF830004FF0FF3200EB4001C4
:101FF000BC48423808442621FEF790FA18E1B94B54
:102000002A3B1A4611460846FEF78EFB10E1CFA187
:1020100001200D91B5F8601011B1D2A102200E91EE
:10202000B5F8641029B10146D4A2401CC0B244F8EE
:102030002120B5F8661029B10146D6A2401CC0B2D5
:1020400044F82120D9A2411CC9B244F82020DDA0C7
:102050004A1CD2B244F82100E0A1501CC0B244F89E
:102060002210AFF60012411CC9B244F82020AFF292
:102070004472481CC0B244F82120AFF2507144F8B9
:10208000201099F9010099F90410421A022A03DD7F
:10209000801E89F8040003E0884201DA89F8040010
:1020A00099F90400811C54F82130411C54F8212076
:1020B00054F82010CFA0FEF737FB0120FEF7B1FA4D
:1020C000B6E0A2A101200D91B5F8601011B1A5A153
:1020D00002200E91B5F8641029B10146A7A2401C58
:1020E000C0B244F82120C9A2411CC9B244F8202042
:1020F000B5F8680028B10846B2A2491CC9B244F834
:102100002020AFF6A012481CC0B244F82120AFF244
:10211000E472411CC9B244F82020AFF2F07044F8D8
:10212000210099F9010099F90410421A022A03DDED
:10213000801E89F8040003E0884201DA89F804006F
:1021400099F90400811C54F82130411C54F82120D5
:1021500054F82010A7A0FEF7E7FA0120FEF761FA75
:1021600066E0B0A00D90B5A102200E91B5F8641004
:1021700011B182A103200F91B6A2411CC9B244F84B
:102180002020BAA04A1CD2B244F82100AFF62C217C
:10219000501CC0B244F82210AFF67002411CC9B204
:1021A00044F82020AFF67C0044F8210099F90100A2
:1021B00099F90410421A022A03DD801E89F80400EE
:1021C00003E0884201DA89F8040099F90400811CCF
:1021D00054F82130411C54F8212054F8201085A0D7
:1021E000FEF7A2FA0120FEF71CFAB0890122212194
:1021F00080B2FEF7A6F9F0890022402180B2FEF7F6
:10220000A0F9308A0122232180B2FEF79AF9708A60
:1022100000225E2180B2FEF794F999F9010008B11D
:10222000032805D10A233A46E521E120FDF781FF85
:102230009EE346A00D9093A002210E90B5F8640095
:1022400010B14EA003210F9070A2481CC0B244F8F8
:102250002120B5F8681029B101465AA2401CC0B22D
:1022600044F82120AFF60432411CC9B244F82020C2
:1022700014E194E1C1E1FBE134E290E2F2E229E30E
:1022800037E10000C4EBFF20E2FBE2E5E4E5EDE826
:10229000FF20E1E0F22E2DE8000000002047594623
:1022A0005034383735542020202020202020202072
:1022B0000000000020D1E2E8EDF6EEE2EE2DEAE8C3
:1022C000F1EBEEF2EDE0FF2000000000202020E224
:1022D000FBE1E5E8F2E520E5E520F2E8EF2020204B
:1022E00000000000927C000020202020203C3E20A6
:1022F0002D20E2FBE1EEF020202020200000000055
:102300002020205E76202D20F3F1F2E0EDEEE2EACF
:10231000E0202020000000002020202020A42020F9
:102320002D20E2FBF5EEE42020202020000000001C
:1023300020D3D1D2C0CDCEC2CAC02020C2D0C5CCFD
:10234000C5CDC820000000000040024020D1E5F2C9
:10235000FC202020202020202020202020202020A1
:102360000000000020C1E0F2E0F0E5E8202020209D
:1023700020202020202020200000000020C1CFD1DC
:10238000202020202020202020202020202020204D
:102390000000000020C8EDE2E5F0F2EEF0FB2020A6
:1023A00020202020202020200000000020CDE0E37D
:1023B000F0F3E7EAE0202020202020202020202029
:1023C0000000000020C2EDE5F8EDE8E520E4E0F2D1
:1023D000F7E8EAE8202020200000000020D1E8EB08
:1023E000EEE2FBE520E2E2EEE4FB202020202020CC
:1023F000000000002020202020CAC0CBC8C1D0CEC1
:10240000C2CAC020202020200000000020C2FBF50E
:10241000EEE4EDFBE520EFE0F0E0ECE5F2F0FB2090
:10242000000000002055E2FBF52E20202020202077
:1024300020202021C2202020000000002049E2FBB3
:10244000F52E20202020202020202040C0202020E9
:10245000000000002055E22EE42E20202020202025
:1024600020202023C2202020000000002054F1E87A
:10247000F1F2E5ECFB20203D2020205EB04320203F
:102480000000000020C1E0F2E0F0E5FF2020202065
:10249000202020202020202000000000AFF67432F1
:1024A000481CC0B244F82120AFF6803144F8201017
:1024B00099F9010099F90410421A022A03DD801EDD
:1024C00089F8040003E0884201DA89F8040099F9E8
:1024D0000400811C54F82130411C54F8212054F888
:1024E0002010AFF2F000FEF71FF90120FEF799F877
:1024F0003EE2AFF2A81101200D91B5F8621019B1BA
:10250000AFF2A01102200E91B5F8641031B1AFF214
:1025100094120146401CC0B244F82120AFF274125C
:10252000411CC9B244F82020B5F8680030B1AFF2C0
:102530006C120846491CC9B244F82020AFF6DC52A0
:10254000481CC0B244F82120AFF62042411CC9B259
:1025500044F82020AFF62C4044F8210099F90100FE
:1025600099F90410421A022A03DD801E89F804003A
:1025700003E0884201DA89F8040099F90400811C1B
:1025800054F82130411C54F8212054F82010AFF2A7
:102590009C10FEF7C9F80120FEF743F8E8E1FFA020
:1025A0000D90AFF640600E90AFF680400F9099F915
:1025B000010099F90410421A022A03DD801E89F8ED
:1025C000040003E0884201DA89F8040099F9040064
:1025D000811C54F82130411C54F8212054F820105B
:1025E000F4A0FEF7A1F80120FEF71BF8F08A002204
:1025F000402180B2FDF7A5FFBAE1F4A00D90F9A04B
:102600000E90FEA00F90AFF6A460109099F9040010
:10261000811C54F82130411C54F8212054F820101A
:10262000E4A0FEF781F899F9010099F90410421A23
:10263000022A03DD801E89F8040003E0884201DAE3
:1026400089F804000120FDF7ECFF308B00222121E6
:1026500080B2FDF776FF708B0022402180B2FDF73B
:1026600070FFB08B0022232180B2FDF76AFF7FE16B
:10267000CAA00D90AFF614700E90AFF650500F90A8
:1026800099F9010099F90410421A022A03DD801E0B
:1026900089F8040003E0884201DA89F8040099F916
:1026A0000400811C54F82130411C54F8212054F8B6
:1026B0002010D8A0FEF738F80120FDF7B2FFB6F9D8
:1026C0000800B84208DD0A2190FBF1F080B2002238
:1026D0004021FDF736FF4BE10122402180B2FDF79A
:1026E00030FF45E1D1A00D90D6A00E90DBA00F9059
:1026F000AFF690701090AFF6CC501190AFF6D4506A
:10270000129099F9010099F90410421A012A03DD87
:10271000401E89F8040003E0884201DA89F80400C9
:1027200099F90400411C54F8202054F82130D1A11B
:10273000D6A0FDF7F9FF0220FDF773FF9BF800001C
:1027400030B16FF002022121D6A0FDF7E7FE05E0CF
:10275000B7F9000000222121FDF713FE9BF80100CC
:1027600030B16FF002024021CEA0FDF7D7FE05E0A8
:10277000B7F9020000224021FDF703FE9BF802009A
:1027800030B16FF002022321C6A0FDF7C7FEEFE0D3
:10279000B7F9040000222321FDF7F3FDE8E0C3A010
:1027A0000D90C8A00E90CDA00F90B5F96800D1494A
:1027B00044F82010AFF68C61421C44F82210AFF6AA
:1027C0009461801C44F8201099F9010099F90410D3
:1027D000421A012A03DD401E89F8040003E0884202
:1027E00001DA89F8040099F90400411C54F820200A
:1027F00054F821309FA1A5A0FDF796FF0220FDF718
:1028000010FF9BF8000030B16FF002022121A5A05B
:10281000FDF784FE05E0B7F9000000222121FDF755
:10282000B0FD9BF8010030B16FF0020240219DA085
:10283000FDF774FE05E0B7F9020000224021FDF724
:10284000A0FD9BF8020030B16FF00202232195A099
:10285000FDF764FE8CE0B7F9040000222321FDF7A8
:1028600090FD85E0A4A00D90A9A00E9008785528B1
:1028700001D0A7A00D90B5F960009E4944F8201042
:10288000AFF65872411C44F82120AFF66071801CED
:1028900044F8201099F9010099F90410421A022A0B
:1028A00003DD801E89F8040003E0884201DA89F81C
:1028B000040099F90400811C54F82130411C54F89B
:1028C000212054F8201098A0FDF72EFF0120FDF7DD
:1028D000A8FE4DE09AA00D909FA00E90A4A00F908E
:1028E000A9A01090AEA01190B3A0129081481390AF
:1028F000AFF6C870149099F9010099F90410421AC2
:10290000012A03DD401E89F8040003E0884201DA51
:1029100089F8040099F90400411C54F8202054F867
:102920002130ABA1B0A0FDF7FFFE0220FDF779FE3C
:10293000B34F002221213888FDF703FE788800225A
:102940004021FDF7FEFDB88800222321FDF7F9FDA7
:10295000BF1D002238882621FDF7F3FD788800226C
:102960002A21FDF7EEFDB88800222821FDF7E9FDB8
:1029700099F800002F280AD0552809D0562808D0E9
:10298000582807D0592806D05B2805D13AE156E1EE
:10299000E8E3E8E3E8E3E8E3D8E100002055203D80
:1029A000202020202040C220202020202020202065
:1029B00000000000202020CAC0CBC8C1D0CEC2CAAF
:1029C000C020D1C5D2C82020000000002055F4410D
:1029D000202020202020202020202021C220202054
:1029E000000000002055F44220202020202020203C
:1029F00020202040C2202020000000002055F44369
:102A0000202020202020202020202023C220202021
:102A10000000000020CAC0CBC8C1D0CEC2CAC020AE
:102A2000CDC0C3D0D3C7CAC8000000002074E2EDF7
:102A3000E5F82EE2EEE7E42E2020202021B0D12080
:102A4000000000002074EEF2F1E5EA20DDCFD32093
:102A50002020202040B0D120000000002074EEF2A1
:102A6000F1E5EA204D53414E2020202023B0D12013
:102A70000000000020C4C0D2D7C8CACEC220D2C530
:102A8000CCCFC5D0C0D2D3D00000000020CAC0CB6C
:102A9000C8C1D0CEC2CAC020C2CDC5D8CDC8D520ED
:102AA00000000000EDE5E8F1EFF02E002074312089
:102AB00020202020202020202020202021B0D120D4
:102AC0000000000020743220202020202020202020
:102AD0002020202040B0D1200000000020743320AE
:102AE00020202020202020202020202023B0D120A2
:102AF000000000006417000020C1E0F2E0F0E5FFF4
:102B0000204E312020202020202020200000000006
:102B100020C1E0F2E0F0E5FF204E3220202020200E
:102B2000202020200000000020CAC0CBC8C1D0CE89
:102B3000C2CAC020C1C0D2C0D0C5C9200000000098
:102B400020C2E2EEE420F42E412020202021C220E9
:102B5000202020200000000020C2E2EEE420F42E1D
:102B6000422020202040C220202020200000000001
:102B700020C2E2EEE420F42E432020202023C220B5
:102B8000202020200000000020CFDDD12020F42EC6
:102B9000412020202026C2202020202000000000EC
:102BA00020CFDDD12020F42E42202020202AC22058
:102BB000202020200000000020CFDDD12020F42E96
:102BC000432020202028C2202020202000000000B8
:102BD000202020D1C8CBCEC2DBD520C2C2CEC4CEED
:102BE000C220202000000000202020202020CAC079
:102BF000CBC8C1D0CEC2CAC0202020200000000017
:102C0000F0000010B5F87400F0B3EEA00D90B5F828
:102C10007600D0B3F1A00E90F6A00F90FBA010901C
:102C200004206876697EFF4844F8210099F9010084
:102C300099F9041088427EDA89F80400F9E399F9D9
:102C40000100F0B3012877D0022876D0032875D090
:102C5000042874D0052873D0062872D0072871D0B4
:102C6000082870D00A286FD00B286ED00C286DD1A0
:102C7000ED4BEEA01A461146FDF756FDF08D0023F0
:102C80000422012180B201E0F2E3F2E3FDF71FFC30
:102C9000308E00230422022180B2FDF718FC0023AD
:102CA0000E22012195F82900FDF711FCE54C0023C7
:102CB0000F2220781946FDF70AFC002360780F22C6
:102CC00000E04CE00121FDF702FCA07800230F2278
:102CD0000221FDF7FCFBE07800230F220321FDF722
:102CE000F6FB0023207913221946FDF7F0FB6079EB
:102CF000002313220121FDF7EAFBA0790023132210
:102D00000221FDF7E4FBE079002313220321FDF704
:102D1000DEFB708E002332300A22194680B2FDF7A6
:102D2000D6FBF08C00230A22012180B2FDF7CFFBF5
:102D300000230A220BE0FCE34BE06DE0ADE0B5E0E0
:102D4000DBE028E230E293E2F7E209E3F2E37089A4
:102D500049B00221BDE8F04F80B2FDF7B8BBB24ADE
:102D6000B9A31146BEA0FDF7DFFC002304221946DB
:102D700040F21B40FDF7ABFB00230B22194645F246
:102D80007820FDF74EFBBC4D002305220121287859
:102D9000FDF79DFBB94C00230A222088012180B257
:102DA000FDF795FBB64800230F2201210078FDF7BF
:102DB0008EFB0023042202212878FDF788FB20885F
:102DC00049B00023BDE8F04F0922022180B2FDF78F
:102DD0007EBB954BABA01A461146FDF7A5FC99F9B1
:102DE0000200002380B21A460121FDF770FB99F919
:102DF00002000023401C80B21A460221FDF767FB47
:102E000099F9020049B0801CBDE8F04F002380B260
:102E10001A460321FDF75BBB834BA0A01A4611465F
:102E2000FDF782FC05F1300500230522012115F88C
:102E3000080CFDF74CFB688A00230522022180B2B2
:102E4000FDF745FBB06C00230522032180B2FDF79E
:102E50003EFBA88F00231322194680B2FDF737FBF3
:102E6000308900231322012180B2FDF730FBE88F67
:102E700000231322022180B2FDF729FBB08D00232D
:102E80001322032180B2FDF722FB49B00E22BDE8D8
:102E9000F04F01218748FDF785BB49B086A3BDE807
:102EA000F04F8BA2604990A0FDF73EBC94A39AA27C
:102EB0005D499FA0FDF738FC05F144050023E88B30
:102EC0000122194680B2FDF702FB9F48002313221E
:102ED00019460078FDF7FBFA3089002313220121FF
:102EE00080B2FDF7F4FA288849B00023BDE8F04F1E
:102EF0000D22194680B2FDF7EABA4B4B93A01A4651
:102F00001146FDF711FC0023BAF80000042219460F
:102F1000FDF7DDFABAF80200002304220121FDF7D3
:102F2000D6FABAF80400002304220221FDF7CFFAF2
:102F3000BAF80600002304220321FDF7C8FA002393
:102F4000BAF8080009221946FDF7C1FABAF80A00D2
:102F5000002309220121FDF7BAFABAF80C00002378
:102F600009220221FDF7B3FABAF80E000023092264
:102F70000321FDF7ACFA0023BAF810000E2219461F
:102F8000FDF7A5FABAF8120000230E220121FDF781
:102F90009EFABAF8140000230E220221FDF797FAD8
:102FA000BAF8160000230E220321FDF790FA002341
:102FB000BAF8180013221946FDF789FABAF81A0070
:102FC0000023D3E020C2EAEBFEF7E5EDEE2020205F
:102FD00020202020202020200000000020CAC0CD7A
:102FE000C0CB2020204D4F444255532D54435020F8
:102FF00000000000204950203030402E3030232E79
:103000003030242E303025200000000020C0C4D0F5
:10301000C5D120C2C5C4CECCCEC3CE2020205E20D8
:1030200000000000641700002C1900006963612093
:103030002020202020202020202020202020202090
:103040000000000068CA07202020202020202A2A13
:103050002A2A2A2A2A2A20202020202000000000B4
:103060002A303030302A3030303030302A202020A2
:10307000202020200000000023C0072024C00720BB
:1030800008000010C1202020202020202020202007
:10309000202020202020202000000000462020208A
:1030A0002020202020202020202020202020202020
:1030B00000000000785634122020202020202020FC
:1030C000202020202020202020202026000000007A
:1030D00020202020202020202020202020202020F0
:1030E0002020205E00000000CAC5202020202020D3
:1030F0002020202020202020202020200000000050
:10310000202020202020402020202420202020209B
:10311000202020200000000020202020202021202E
:10312000202023202020202020202020000000001C
:103130004C42202020202020202020202020202041
:10314000202020200000000022C007202A2020206C
:10315000202020202020202020202020202020206F
:103160000000000035E17AE130E36DE31322012134
:10317000FDF7ADF9BAF81C00002313220221FDF778
:10318000A6F9BAF81E0049B00023BDE8F04F13229B
:103190000321FDF79CB949B0E7A3BDE8F04FECA2CD
:1031A000F1A1F7A0FDF7C0BAFB4BFCA01A461146EF
:1031B000FDF7BAFAFF4C00231322207819463AF89B
:1031C0001000FDF784F96078002313223AF810000C
:1031D0000121FDF77CF9A078002313223AF81000B2
:1031E0000221FDF774F9E078002313223AF8100069
:1031F0000321FDF76CF9F04C00230E2294F9000036
:10320000194680B2FDF763F994F90100002380B2FA
:103210000E220121FDF75BF994F90200002380B230
:103220000E220221FDF753F994F90300002380B226
:103230000E220321FDF74BF9241F002320780A22D8
:103240001946FDF744F9607800230A220121FDF7B1
:103250003EF9A07800230A220221FDF738F9E07830
:1032600049B00023BDE8F04F0A220321FDF72FB932
:10327000C94B1A4611460846FDF756FACF4C0023B3
:10328000022220881946FDF722F9608800230222D5
:103290000121FDF71CF90222A08800231146FDF749
:1032A00016F9E088002302220321FDF710F900231C
:1032B000207A04221946FDF70AF9607A00230422D5
:1032C0000121FDF704F9A07A002304220221FDF771
:1032D000FEF8E07A002304220321FDF7F8F800232A
:1032E000A08907221946FDF7F2F8E089002307229A
:1032F0000121FDF7ECF8208A002307220221FDF7C7
:10330000E6F8608A002307220321FDF7E0F8002396
:10331000208B13221946FDF7DAF8207D00231322B3
:103320000121FDF7D4F8B08C49B00023BDE8F04F7F
:103330001322032180B2FDF7CAB8974B1A461146F3
:10334000AFF21420FDF7F0F999F9020049B0401CE2
:10335000BDE8F04F002380B203221946FDF7B7B84D
:103360008D4B1A461146AFF23820FDF7DDF999F979
:103370000100002380B201221946FDF7A8F8F08C65
:1033800000230522194680B2FDF7A1F830890023F9
:103390000B22194680B2FDF79AF8894C00230522CA
:1033A000608A0221FDF793F8207D00230822022184
:1033B000FDF78DF8E08A002305220321FDF787F849
:1033C000607D49B00023BDE8F04F08220321FDF7DE
:1033D0007EB87CA00D9081A00E9086A00F908BA04F
:1033E000109090A0119095A012909AA013909FA079
:1033F0001490A4A01590A9A01690AEA01790B3A009
:103400001890B5F96400B74944F82010411C624A8D
:1034100044F82120801C114644F8201099F901003D
:1034200099F90410421A012A04DD401E89F80400AB
:1034300004E04CE2884201DA89F8040099F90400BA
:10344000411C54F8202054F82130A7A1ACA0FDF76E
:103450006BF949B00220BDE8F04FFDF7E2B8AEA02D
:103460000D90287D30B1B2A00E90B7A00F9005E06E
:103470001AE21FE2BAA00E90BFA00F90C4481090AD
:1034800015381190129099F9010048B3012827D0FE
:10349000022825D0032089F8040099F90400811C32
:1034A00054F82130411C54F8212054F82010B9A0C0
:1034B000FDF73AF90120FDF7B4F899F9020000226E
:1034C000401C80B22121FDF73CF8B5F846000122EE
:1034D000242180B2FDF735F899F8010018B11FE0FA
:1034E00089F80480D9E799F802100120884002B2D7
:1034F0000A23D021CD20FCF71CFE28230022C9215D
:10350000C820FCF716FE0A23B5F94620BF21BE20CD
:10351000FCF70FFE0A230022E621E120FCF709FE5A
:10352000D720FCF71DFE002804D09F480088D9282A
:103530003CE1C6E147E1000020202020202020209F
:10354000202020205E2020202020202000000000BD
:103550002020202040202020202025202020202046
:1035600020202020000000002020202021202020DA
:1035700020202420202020202020202000000000C7
:103580003620202020202020202020202020202025
:1035900020202020000000002C19000037202020CF
:1035A000202020202020202020202020202020201B
:1035B0000000000014760000CD0000104ACA072069
:1035C000E4C5072020C1CFD1204E3120202020206B
:1035D00020202020202020200000000020C1CFD16A
:1035E000204E32202020202020202020202020209B
:1035F0000000000020C1CFD1204E33202020202009
:1036000020202020202020200000000020C1CFD139
:10361000204E342020202020202020202020202068
:103620000000000020C1CFD1204E352020202020D6
:1036300020202020202020200000000020C1CFD109
:10364000204E362020202020202020202020202036
:103650000000000020C1CFD1204E372020202020A4
:1036600020202020202020200000000020C1CFD1D9
:10367000204E382020202020202020202020202004
:103680000000000020C1CFD1204E39202020202072
:1036900020202020202020200000000020C1CFD1A9
:1036A000204E3130202020202020202020202020CB
:1036B0000000000020C1CFD1204E31312020202039
:1036C00020202020202020200000000020C1CFD179
:1036D000204E313220202020202020202020202099
:1036E000000000006417000020C0C2D2CECDCECCB6
:1036F000CDCEC920D0C0C1CED2DB2020000000003A
:10370000D3D1D2C0CDCEC2CAC020CDC0CFD0DFC6AB
:10371000C5CDC8DF000000002055E0E2F2EEED204C
:103720003D20202024C22020202020200000000056
:1037300020F3F1F2E0EDEEE2E8F2E52055E0E2F20E
:10374000EEED2020000000002020EDE0E6E0F2E8B1
:10375000E5EC209A20E8EBE8209C20200000000007
:1037600020F3E4E5F0E6E8E2E0E9F2E520A420E475
:10377000EBFF20200000000020202020E7E0EFEEFB
:10378000ECE8EDE0EDE8FF20202020200000000024
:103790007D7C000020202020202020C1CFD1204E81
:1037A000212020202020200028C007200BD103202A
:1037B00089F8010040F6B8330093DCA3E1A2E7A149
:1037C000ECA0FCF7DFFF49B0BDE8F08FEFA00D9053
:1037D000F4A00E90F9A00F90FE48109015381190AB
:1037E000129099F9010099F90410421A012A03DD97
:1037F000401E89F8040003E0884201DA89F80400D9
:1038000099F90400411C54F8202054F82130F2A109
:10381000F6A0FCF789FF0220FCF703FF35F86C0FD8
:103820000122212180B2FCF78CFE68880122402110
:1038300080B2FCF786FEA88849B00022BDE8F04FB0
:10384000232180B2FCF77DBEB5F8720090B1ECA0E8
:103850000D90F1A00E90F6480F9000F5E4701090D6
:1038600099F9010099F90410421A012A07DD89F833
:10387000040008E0E2A00D90EEA00E90EBE7884275
:1038800001DA89F8040099F90400411C54F8202059
:1038900054F82130EDA1F3A0FCF746FF49B0022017
:1038A000BDE8F04FFCF7BDBEF4A00D900120687696
:1038B000FFF7B8B9F7A00E90FCA00F900320687630
:1038C000F6E7411A012902DD401E89F8040099F942
:1038D0000400411C54F8202054F82130F9A1FFA025
:1038E000FCF722FF0220FCF79CFEB5F878000022CE
:1038F000212180B2FCF725FE99F801006FF0010448
:1039000002280AD199F8020038B9A87C28B12246C9
:103910004021B5A0FCF702FE06E0B5F87A000022CF
:10392000402180B2FCF70DFE99F8010002280BD16E
:1039300099F80200012807D1A87C28B1224623214A
:10394000A9A0FCF7EBFD06E0B5F87C0000222321DE
:1039500080B2FCF7F6FD99F8010002280BD199F826
:103960000200022807D1A87C28B1224624219EA06B
:10397000FCF7D4FD06E0B5F87E000022242180B2D9
:10398000FCF7DFFD99F8010002280BD199F802003D
:10399000032807D1A87C28B12246252192A0FCF754
:1039A000BDFD05E030880022252180B2FCF7C9FD6D
:1039B000708849B00022BDE8F04F5E2180B2FCF76C
:1039C000C0BD2DE9F043CB49086A40F400100862FD
:1039D000486B20F400104863086A20F0F860086221
:1039E000C548C26CC54B1A40C264086C40F4807074
:1039F0000864486D20F480704865002000BF00BF57
:103A000000BF00BF00BF00BF00BF00BF401CC0B26E
:103A1000C828F3D3086C40F480700864486D40F403
:103A200080704865486BB64F60F0F860820DFA64AC
:103A3000A7F1800338465C7F056D987FD97FA2F59A
:103A4000407905F07F064FF0010C4FF00008B9F106
:103A5000FF0901D0AA4218D083F82180042C00D29B
:103A600028B193F8224014B983F823C01D77884207
:103A700002D383F823C01E7783F822801420D877DE
:103A800083F81D8083F81E801BE0641CE4B25C7721
:103A9000042C16D383F81D80401CC0B2987788424E
:103AA0000FD31E7783F81E8083F823C083F822C0CB
:103AB00093F8210028B14808D877022801D80220BD
:103AC000D8773A65BDE8F0832DE9F84F8C4E803EFB
:103AD00096F82300002827D0DFF824820025A8F8D4
:103AE0002850A8F82A50B8F80600307035713146D1
:103AF000B6F92E00097F0A2817DAFD2911D07D2991
:103B00000FD0FB290DD07B290BD0F72909D07729BD
:103B100007D0EF2905D06F2903D0FE2901D07E29D7
:103B200003D178480580EFE0EFE3EFE0202020208C
:103B3000EFF0EEE8E7E2E5E4E5EDE02020202020EC
:103B40000000000020E0E2F2EEEDEEECEDEEE92008
:103B5000F0E0E1EEF2FB2020000000002020202019
:103B6000EDE0EFF0FFE6E5EDE8FF2020202020204B
:103B7000000000002020202020D3F1F2E0EDEEE252
:103B8000EAE0202020202020000000002055E2FB59
:103B9000F56D617820202020202020202021C220C7
:103BA000000000002055E2FBF56D696E202020200A
:103BB000202020202040C220000000002054E7E404
:103BC000F0E62EE0E22E2020202020202023F12EDF
:103BD000000000007D7C000020202020CDC0CFD040
:103BE000DFC6C5CDC8DF202020202000CACECDD220
:103BF000D0CECBDC20C2DBD5CEC4CDCEC3CE200010
:103C000020C8EDE4E8EAE0F6E8FF202020202020AC
:103C1000202020200000000020F0E0E7F0FFE6E593
:103C2000EDEDEEE920E1E0F2E0F0E5E80000000073
:103C30006417000020F3F1EAEEF0E5EDEDEEE3EEBF
:103C400020E7E0F0FFE4E020000000002020D4D3D3
:103C5000CDCAD6C8CECDC0CBDCCDCED1D2DC2020D3
:103C600000000000C4CECFCECFCBCDC8D2C5CBDCB8
:103C7000CDCEC520D0C5CBC50000000020C2FBEAD8
:103C8000EBFEF7E5EDEE2020202020202020202054
:103C90000000000020CAC0CDC0CB20204D4F4442C0
:103CA00055532D52545520200000000020C0C4D090
:103CB000C5D120C2C5C4CECCCEC3CE202020212069
:103CC000000000002020202020202020C8CFD1206C
:103CD00020202020202020200000000020C2DBD057
:103CE000C0C2CDC8C2C0CDC8C520D2CECACEC220A7
:103CF0000000000000C0092000C00240FF0FC0FF0C
:103D00008C00001004000010FE480570FE48F929E0
:103D100002783ED00124E72952D0792938D07A2977
:103D200055D084462F2A9CF901B09CF902A00BF1D2
:103D30000103ABF10107AAF1010C5BB27FB24FFAAC
:103D40008CFC4FD0B2B3072A70D081464FF47A7002
:103D5000092A6CD0012A6BD0052A6AD00A2A69D0B8
:103D60000C2A68D0032A67D04FF0030B372A7ED085
:103D7000482A7DD0492A7CD0512A7BD0522A7AD039
:103D8000552A79D0582A78D0592A77D05B2A76D00C
:103D90007BE02F2A0FD0D8F85400C8F8590098F8C3
:103DA000580088F85D0000231A4605212F20FCF7F3
:103DB000A7FC6AE07FE000210846FCF780FC64E095
:103DC000C8F848405321002002F036FC5DE096F828
:103DD000260020B186F8265086F8215055E086F856
:103DE0002640F9E7EF2911D0F72917D00446BBF197
:103DF000010F22D0BBF1050F48D02046C24AFD2951
:103E000092F9042047D0FB294DD03EE04370057164
:103E10000C220021401CFCF709FA36E047700571BE
:103E20000C220021401CFCF701FA2EE0C7E0D3E091
:103E300019E125E131E137E143E1FD2907D12046D0
:103E400084F802C01E220021801CFCF7FAF9307FA2
:103E5000FB2807D1A078401CA0701E220021A01CC6
:103E6000FCF7EFF9307FFE280FD1358608E077E2C6
:103E7000DCE2FDE3FDE3FDE3FDE3FDE3FDE3FDE364
:103E800025706570A570E570257103E07E2901D16C
:103E9000FCF7B5FF56E0521E027104220021001DFE
:103EA000FCF7CFF94EE0521C027104220021001DE4
:103EB000FCF7C7F946E0FB290CD0FD2911D0EF290A
:103EC00016D0F72916D07B2916D0672916D0FE29DF
:103ED0001DD037E0437008220021401CFCF7B1F9E7
:103EE00030E0477008220021401CFCF7AAF929E0C5
:103EF000457027E0457025E0457023E096F82A00DC
:103F000010B186F82A501DE086F82A401AE0BBF16D
:103F1000000F17D0BBF1010F15D0BBF1020F19D064
:103F2000BBF1030F1DD0BBF1040F21D0BBF1050F76
:103F300025D0BBF1060F29D0BBF1070F2DD0BBF167
:103F4000080F31D047E000231A460A210320FCF76E
:103F5000D7FB40E000231A4619460720FCF7D0FBA8
:103F600039E000231A4619460920FCF7C9FB32E064
:103F700000231A4619460520FCF7C2FB2BE000235C
:103F80001A4619460120FCF7BBFB24E000231A4621
:103F900019460A20FCF7B4FB1DE000231A46194617
:103FA0000C20FCF7ADFB16E000231A4619460B2047
:103FB000FCF7A6FB00211420FCF712F90BE0FE2908
:103FC00009D100231A4619460820FCF799FBFF2166
:103FD0000A20FCF705F945E0FCF713F9317FFD29CC
:103FE0000DD0FB2917D0484A99F901001A3AF0B1CF
:103FF000012822D0022826D003282AD032E099F8BE
:104000000100401E89F801000322002109F101008E
:10401000FCF717F926E099F80100401C89F8010027
:104020000322002109F10100FCF70BF91AE0907856
:1040300008B1957016E0947014E0507808B155708E
:1040400010E054700EE0107808B115700AE014709A
:1040500008E0FE2906D100210846FCF730FB0020CD
:10406000FCF7CFF80BE0FE2909D100231A461946C8
:104070000220FCF745FBFF210A20FCF7B1F80BE01A
:10408000FE2909D100231A4619460620FCF738FB01
:10409000FF210A20FCF7A4F805E0FE2903D1002146
:1040A0000846FCF70CFB0BE0FE2909D100231A4659
:1040B00019460D20FCF724FBFF211420FCF790F893
:1040C00071E1EF290DD1BBF1000F0ADB4846BBF1CE
:1040D000050F06DC437005220021401CFCF7B1F8F7
:1040E00061E1F72912D1BBF1000F0FDB4846BBF1AC
:1040F000050F0BDC477005220021401CFCF7A1F8DE
:1041000051E1000001000010E0000010FE2915D070
:1041100067291ED0F94FBBF1000F26D0BBF1010F6C
:104120004DD0BBF1020F78D0BBF1030F72D0BBF1C1
:10413000040F70D0BBF1050F6ED034E100231A4696
:1041400019460420FCF7DCFAFF210A20FCF748F8A6
:1041500029E1BBF1050F03D80A2089F8010001E02D
:1041600089F8015086F821501DE197F82800009049
:10417000FD2906D07D2904D0FB2910D07B290ED043
:104180001AE09DF80000401C0090172200216846AC
:10419000FCF74CF89DF8000087F828000CE09DF82B
:1041A0000000401E0090172200216846FCF73EF8F0
:1041B0009DF8000087F8280086F82140F3E097F882
:1041C00024000090FD2906D07D2904D0FB2910D0C1
:1041D0007B290ED01AE09DF80000401C00903B2285
:1041E00000216846FCF722F89DF8000087F82400BB
:1041F0000CE09DF80000401E00903B220021684624
:10420000FCF714F89DF8000087F8240086F8214098
:10421000C9E002E02BE054E078E097F82C00009031
:10422000FD2906D07D2904D0FB2910D07B290ED092
:104230001AE09DF80000401C00901F2201216846F2
:10424000FBF7F4FF9DF8000087F82C000CE09DF8C8
:104250000000401E00901F2201216846FBF7E6FF88
:104260009DF8000087F82C0086F821409BE097F825
:1042700038000090FD2906D07D2904D0FB2910D0FC
:104280007B290ED01AE09DF80000401C00900C2203
:1042900001216846FBF7CAFF9DF8000087F8380047
:1042A0000CE09DF80000401E00900C2201216846A1
:1042B000FBF7BCFF9DF8000087F8380086F8214026
:1042C00071E0B88F40B20090FD2906D07D2904D05E
:1042D000FB290DD07B290BD014E0401C00906322F9
:1042E00000216846FBF7A2FF9DF90000B88709E0AE
:1042F000401E0090632200216846FBF797FF9DF95E
:104300000000B88786F821404DE0EFE397F83000D1
:104310000090FD2906D07D2904D0FB2910D07B29EF
:104320000ED01AE09DF80000401C009006220021EB
:104330006846FBF77BFF9DF8000087F830000CE033
:104340009DF80000401E0090062200216846FBF701
:104350006DFF9DF8000087F8300086F8214022E0CC
:10436000FBF74FFF307F664FFB2809D0FD281BD09D
:1043700099F9011061B301293BD003294CD012E017
:1043800099F80100401C89F801000322002109F17D
:104390000100FBF756FF7C71BD7199F801000228FE
:1043A00001D189F801B012E099F80100401E89F8A6
:1043B00001000322002109F10100FBF742FF7C719B
:1043C000BD7199F80100022801D189F801402CE063
:1043D000EF2802D0F72806D027E0787908B17D7160
:1043E00023E07C7121E0787908B17D711DE07C715A
:1043F0001BE0FE2804D0EF2802D0F72806D014E0F6
:10440000B87908B1BD7110E0BC710EE0B87908B19F
:10441000BD710AE0BC7108E0FE2806D10021084603
:10442000FCF74DF90020FBF7ECFE93E1FBF7E9FE0A
:10443000307FFB2813D0FD281DD099F9011031B32E
:10444000012951D0022958D003296FD004296ED0F8
:1044500005296DD006296CD007296BD07AE199F82F
:104460000100401C89F801000722002109F1010028
:10447000FBF7E7FE6EE199F80100401E89F80100A4
:104480000722002109F10100FBF7DBFE62E1EF28C2
:1044900006D06F280AD0F7280ED0772812D016E061
:1044A000B6F84800401CA6F8480010E0B6F84800EE
:1044B000801CA6F848000AE0B6F84800401EA6F89E
:1044C000480004E0B6F84800801EA6F848005022D4
:1044D00032210C48FBF7C0FEB6F94810D02002F09C
:1044E00059FD86F8214035E1EF280DD06F2811D015
:1044F000F72815D077281ED022E02EE00040024099
:10450000FCC9072054000010B6F84C00401CA6F867
:104510004C0015E0B6F84C00801CA6F84C000FE0EB
:10452000B6F84C00401EA6F84C0009E043E070E0ED
:10453000A8E0D5E005E1B6F84C00801EA6F84C00D6
:1045400051223121FE48FBF787FEB6F94C10D420EA
:1045500002F020FD86F82140FCE0EF2806D06F280D
:104560000AD0F7280ED0772812D016E0B6F84A0005
:10457000401CA6F84A0010E0B6F84A00801CA6F8D5
:104580004A000AE0B6F84A00401EA6F84A0004E0D5
:10459000B6F84A00801EA6F84A00E9481E22052106
:1045A000801EFBF759FEB6F94A10D22002F0F2FC49
:1045B00086F82140CEE0EF2806D06F280AD0F728F1
:1045C0000ED0772812D016E0B6F84E00401CA6F8A0
:1045D0004E0010E0B6F84E00801CA6F84E000AE02F
:1045E000B6F84E00401EA6F84E0004E0B6F84E00A5
:1045F000801EA6F84E00D24851223121801CFBF7C4
:104600002BFEB6F94E10D62002F0C4FC86F82140ED
:10461000A0E0EF2806D06F280AD0F7280ED0772820
:1046200012D016E0B6F85000401CA6F8500010E07A
:10463000B6F85000801CA6F850000AE0B6F850000A
:10464000401EA6F8500004E0B6F85000801EA6F800
:104650005000B6F84E002C21401F02B2B848001D91
:10466000FBF7FAFDB6F95010D82002F093FC06E0F3
:1046700071E05CE249E392E3D2E3F3E3F3E386F82B
:10468000214067E0EF2806D06F280AD0F7280ED027
:10469000772812D016E0B6F85200401CA6F8520057
:1046A00010E0B6F85200801CA6F852000AE0B6F8F6
:1046B0005200401EA6F8520004E0B6F85200801ED8
:1046C000A6F852009E485B223121801DFBF7C4FDF5
:1046D000B6F95210DA2002F05DFC86F8214039E08C
:1046E000EF2806D06F280AD0F7280ED0772812D0EE
:1046F00016E0B6F85400401CA6F8540010E0B6F8D6
:104700005400801CA6F854000AE0B6F85400401E7D
:10471000A6F8540004E0B6F85400801EA6F8540031
:10472000B6F852002C21401F02B285480830FBF732
:1047300093FDB6F95410DC2002F02CFC86F82140E1
:1047400008E0FE2806D100210846FBF7B8FF00204C
:10475000FBF757FDEAE1FBF754FD307FFB2819D04A
:10476000FD2823D099F9012062B3012A58D0022AEA
:1047700071D06FF03101032A6ED0042A6DD0052A62
:104780006CD0062A6BD0072A6AD0082A69D0092A79
:1047900068D0CBE199F80100401C89F8010009229A
:1047A000002109F10100FBF74CFDBFE199F8010080
:1047B000401E89F801000922002109F10100FBF7E0
:1047C00040FDB3E1EF2806D06F280AD0F7280ED0BD
:1047D000772812D016E0B6F84800401CA6F848002A
:1047E00010E0B6F84800801CA6F848000AE0B6F8C9
:1047F0004800401EA6F8480004E0B6F84800801EB5
:10480000A6F848004E4850223221001FFBF724FD35
:10481000B6F94810D02002F0BDFB86F8214085E1B2
:10482000EF2806D06F280AD0F7280ED077281AD0A4
:104830001EE0B6F84C00401CA6F84C0018E0B6F894
:104840004C00801CA6F84C0012E0B6F84C00401E4C
:10485000A6F84C000CE018E045E073E09EE0CBE0E9
:10486000FBE028E159E1B6F84C00801EA6F84C00A8
:10487000512231213248FBF7EFFCB6F94C10D4201D
:1048800002F088FB86F8214050E1EF2806D06F281F
:104890000AD0F7280ED0772812D016E0B6F84A00D2
:1048A000401CA6F84A0010E0B6F84A00801CA6F8A2
:1048B0004A000AE0B6F84A00401EA6F84A0004E0A2
:1048C000B6F84A00801EA6F84A001D483222002190
:1048D000801EFBF7C1FCB6F94A10D22002F05AFB49
:1048E00086F8214022E1EF2806D06F280AD0F72869
:1048F0000ED0772812D016E0B6F85C00401CA6F85F
:104900005C0010E0B6F85C00801CA6F85C000AE0D1
:10491000B6F85C00401EA6F85C0004E0B6F85C0047
:10492000801EA6F85C00064832221030FBF794FC8B
:10493000B6F95C10F82002F02DFB86F82140F5E076
:1049400058000010EF2806D06F280AD0F7280ED0A4
:10495000772812D016E0B6F85E00401CA6F85E007C
:1049600010E0B6F85E00801CA6F85E000AE0B6F81B
:104970005E00401EA6F85E0004E0B6F85E00801EF1
:10498000A6F85E003222FA48FBF766FCB6F95E1024
:10499000FA2002F0FFFA86F82140C7E0EF2806D09F
:1049A0006F280AD0F7280ED0772812D016E0B6F874
:1049B0004E00401CA6F84E0010E0B6F84E00801CD9
:1049C000A6F84E000AE0B6F84E00401EA6F84E00CB
:1049D00004E0B6F84E00801EA6F84E00E4485122CE
:1049E00031211038FBF738FCB6F94E10D62002F012
:1049F000D1FA86F8214099E0EF2806D06F280AD036
:104A0000F7280ED0772812D016E0B6F85000401CD8
:104A1000A6F8500010E0B6F85000801CA6F8500030
:104A20000AE0B6F85000401EA6F8500004E0B6F8C0
:104A30005000801EA6F85000B6F84E002C21401FF2
:104A400002B2CB480E38FBF707FCB6F95010D8205D
:104A500002F0A0FA86F8214068E0EF2806D06F281F
:104A60000AD0F7280ED0772812D016E0B6F85200F8
:104A7000401CA6F8520010E0B6F85200801CA6F8C0
:104A800052000AE0B6F85200401EA6F8520004E0B8
:104A9000B6F85200801EA6F85200B5485B223121BC
:104AA0000C38FBF7D9FBB6F95210DA2002F072FA93
:104AB00086F821403AE0EF2806D06F280AD0F72880
:104AC0000ED0772813D017E0B6F85400401CA6F893
:104AD000540011E0B6F85400801CA6F854000BE016
:104AE000B6F85400401EA6F8540005E0F2E3B6F80C
:104AF0005400801EA6F85400B6F852002C21401F26
:104B000002B29B480A38FBF7A7FBB6F95410DC2029
:104B100002F040FA86F8214008E0FE2806D1002184
:104B20000846FBF7CCFD0020FBF76BFB54E0FBF7DE
:104B300068FB307FFB2811D0FD281CD099F90110AB
:104B400031B340F6C412012932D0022969D00329B9
:104B500070D004296FD005296ED03DE099F801008E
:104B6000401C89F80100707E002142B209F1010069
:104B7000FBF767FB30E099F80100401E89F801005F
:104B8000707E002142B209F10100FBF75AFB23E0DD
:104B9000B07D012807D0022808D0B475B17DE82087
:104BA00002F0F8F918E00220B075F7E7B575F5E7FF
:104BB000B17D41B1EF2810D06F2814D0F72818D05C
:104BC00077281CD020E0FE2806D100210846FBF7FC
:104BD00076FD0020FBF715FBFEE3B6F85800401CFD
:104BE000A6F8580010E0B6F85800801CA6F8580047
:104BF0000AE0B6F85800401EA6F8580004E0B6F8DF
:104C00005800801EA6F8580059486421801FFBF701
:104C100023FBB6F95810EC2002F0BCF986F82140CD
:104C2000DAE3EF2809D06F280DD0F72811D07728C4
:104C300015D019E025E052E05BE0B6F85A00401CC0
:104C4000A6F85A0010E0B6F85A00801CA6F85A00E0
:104C50000AE0B6F85A00401EA6F85A0004E0B6F87A
:104C60005A00801EA6F85A0041486421001FFBF735
:104C7000F3FAB6F95A10EE2002F08CF986F82140CA
:104C8000AAE3EF2806D06F280AD0F7280ED077289D
:104C900012D016E0B6F85600401CA6F8560010E0F8
:104CA000B6F85600801CA6F856000AE0B6F8560082
:104CB000401EA6F8560004E0B6F85600801EA6F87E
:104CC00056002B483C220A210838FBF7C5FAB6F9F2
:104CD0005610F02002F05EF986F821407CE3FE28B1
:104CE00006D100210846FBF7EAFC0020FBF789FA11
:104CF00072E3F17D29BBFE2823D100210846FBF792
:104D0000DEFC0020FBF77DFA66E319485E38B0F858
:104D10006400801E42B2FD290CD0FB2912D07B29F1
:104D20001AD0EF291BD0F72924D0FE292BD07E29B9
:104D30002ED051E3484689F802C00021801CFBF7C1
:104D400080FA49E30AF1010A484689F802A00021E5
:104D5000801CFBF776FA3FE389F802203CE34846E3
:104D600089F8013003220021401CFBF76AFA33E383
:104D70006A000010484689F8017003220021401C97
:104D8000FBF75FFA28E300210846FBF798FC23E3D2
:104D9000FF48017809B105701EE304701CE3FBF7BE
:104DA00030FA307FFD280CD0FB2818D099F901107B
:104DB00000292ADBB6F96420914226DAFE281CD0AD
:104DC0000AE399F80100401E89F80100B6F8640072
:104DD000002142B209F10100FBF733FAFCE299F835
:104DE0000100401C89F80100B6F86400002142B2BD
:104DF00009F10100FBF725FAEEE2002299F80130F3
:104E000011465620FBF77CFCE6E2B6F9642091429D
:104E100005D1FE2803D100210846FBF750FCDBE258
:104E2000FBF7EFF9307FFB2810D0FD281CD07B2842
:104E300026D099F90110032925D0052340F6B83270
:104E400059B301295ED0022975D0C5E299F8010055
:104E5000401C89F801000322002109F10100FBF741
:104E6000F0F9B9E2B4E009E199F80100401E89F8CF
:104E700001000322002109F10100FBF7E2F9ABE296
:104E800089F801B0A8E2FE2806D100210846FBF708
:104E900016FC0020FBF7B5F99EE2EF2806D06F283C
:104EA0000AD0F72812D0772816D01EE0B6F86C008A
:104EB000401CA6F86C0018E0B6F96C0090FBF3F00B
:104EC000401C00EB8000A6F86C000EE0B6F86C0009
:104ED000401EA6F86C0008E0B6F96C0090FBF3F0F9
:104EE000401E00EB8000A6F86C000A21A948FBF7E1
:104EF000B3F9B6F96C104FF4957002F04BF886F8E0
:104F0000214069E2EF2806D06F280AD0F72813D095
:104F1000772817D01FE0B6F86E00401CA6F86E0088
:104F200019E0B6F96E0090FBF3F0401C00EB800036
:104F3000A6F86E000FE01CE0B6F86E00401EA6F862
:104F40006E0008E0B6F96E0090FBF3F0401E00EB37
:104F50008000A6F86E008F480A21801CFBF77CF9C0
:104F6000B6F96E104FF4967002F014F886F82140EE
:104F700032E2EF2806D06F280AD0F7280ED0772823
:104F800012D016E0B6F87000401CA6F8700010E0D1
:104F9000B6F87000801CA6F870000AE0B6F8700041
:104FA000401EA6F8700004E0B6F87000801EA6F857
:104FB0007000784864220521001DFBF74DF9B6F911
:104FC00070104FF4977001F0E5FF86F8214003E27E
:104FD000FBF717F9307FFB2809D0FD2813D07B2879
:104FE0001DD099F9011002291DD031B3F4E199F8CF
:104FF0000100801C89F801000222002109F1010052
:10500000FBF71FF9E8E199F80100801E89F801001B
:105010000222002109F10100FBF713F9DCE1022073
:1050200089F80100D8E1FE2806D100210846FBF7E7
:1050300046FB0020FBF7E5F8CEE1EF2801D06F2812
:1050400004D1B6F87210491CA6F87210F72801D0E6
:10505000772804D1B6F87200401EA6F872004D48B9
:1050600001220021801DFBF7F7F8B6F972104FF40A
:10507000987001F08FFF86F82140ADE1FBF7C1F891
:10508000317FFB290BD0FD2918D07B2925D099F938
:105090000100727E904229D1FE2922D09CE199F82C
:1050A0000100401C89F8010089F80250707E00213F
:1050B00042B209F10100FBF7C4F88DE199F8010053
:1050C000401E89F8010089F80250707E002142B22A
:1050D00009F10100FBF7B5F87EE1707E89F8010067
:1050E0007AE100210846FBF7EAFA75E150B1B6F81B
:1050F000742042B3012816D0B6F9762022B3012AD3
:1051000059D069E1FE291ED1B6F8740010B1A6F895
:10511000745001E0A6F87440B6F974104FF4BA70F8
:1051200001F038FF58E1FE290DD1B6F8760010B134
:10513000A6F8765001E0A6F87640B6F976104FF45E
:10514000B97001F027FF47E1022833D14FF4BB7754
:10515000EF2901D06F2911D1B6F87800401CA6F8CC
:1051600078000C48FE2201210C30FBF775F8B6F9E7
:105170007810384601F00EFF86F82140317FF7297C
:1051800001D0772916D1B6F87800401E04E000005F
:105190000000001078000010A6F87800FE2201211F
:1051A000FF48FBF759F8B6F97810384601F0F2FEDF
:1051B00086F8214010E102280CD1FE290BD07E296F
:1051C00009D099F9020090B1012840D002286ED090
:1051D00003287ED0CDE099F80200401C89F8020037
:1051E0000322002109F10200FBF720F8C1E04FF48F
:1051F000BC77EF2901D06F2911D1B6F87A00401C95
:10520000A6F87A00E648FF220021801CFBF72FF861
:10521000B6F97A10384601F0BDFE86F82140307F9D
:10522000F72801D0772811D1B6F87A00401EA6F8E9
:105230007A00DB48FF220021801CFBF70DF8B6F94D
:105240007A10384601F0A6FE86F8214091E04FF42E
:10525000BD77EF2901D06F2911D1B6F87C00401C31
:10526000A6F87C00CE48FF220021001DFAF7FFFFC0
:10527000B6F97C10384601F08DFE86F82140307F6B
:10528000F72801D0772874D1B6F87C00401EA6F824
:105290007C00C348FF220021001DFAF7DDFFB6F9AC
:1052A0007C10384601F076FE86F8214061E04FF42C
:1052B000BE77EF2901D06F2914D1B6F87E00401CCB
:1052C000A6F87E00B648FF220021801DFAF7CFFF26
:1052D00001E01FE082E0B6F97E10384601F05AFE88
:1052E00086F82140307FF72801D0772841D1B6F8E1
:1052F0007E00401EA6F87E00A948FF220021801DE6
:10530000FAF7AAFFB6F97E10384601F043FE86F898
:1053100021402EE04FF4BF77EF2901D06F2911D142
:10532000B8F80000401CA8F800009D48FF220021AA
:105330000830FAF79CFFB8F90010384601F02AFE51
:1053400086F82140307FF72801D0772811D1B8F8AE
:105350000000401EA8F800009148FF2200210830FC
:10536000FAF77AFFB8F90010384601F013FE86F814
:10537000214099F8010003282ED1317FC701EF2980
:1053800001D06F2911D1B8F80200401CA8F8020022
:105390008348FE2201210A30FAF75EFFB8F90210B5
:1053A000384601F0F7FD86F82140317FF72901D01A
:1053B000772911D1B8F80200401EA8F802007848F9
:1053C000FE2201210A30FAF747FFB8F902103846E9
:1053D00001F0E0FD86F8214086F82350BDE8F88F03
:1053E0007049C80541600021016103210170AA21B3
:1053F0000172552101727047AA2148070172552197
:10540000017270472DE9F041654E0125783E7572B5
:10541000707D654938B1086A40F080600862486B69
:1054200080F080604863B08F401C00B2B0870228D3
:1054300074DB0024B48735724869C0F3C060B0766D
:105440005749F27E0831904202D00A8C521C0A84DD
:10545000F076F08F401C00B2F087142801DBF4874F
:10546000F572708E401C00B270860A2856DB748676
:10547000B572488C401C00B24884B0F5FA7F03DB5B
:105480004C84088CC8830C84B08E42F21077401C88
:1054900000B2B0860A2809DBB486357301F0A8F89B
:1054A000B6F92C00B84201DA401CB085F08E401CE1
:1054B00000B2F086142806DBF4867573707C08B1A0
:1054C000747400E07574308F401C00B2308732284D
:1054D00006DB3487B573B07C08B1B47400E0B574F2
:1054E000708F401C00B27087642817DB7487F573D7
:1054F000B6F92E00B84201DA401CF085F07C08B104
:10550000F47400E0F574B6F84000401C00B2A6F850
:1055100040003C2802DBA6F840403574BDE8F0812D
:10552000002500F09FFF1E4F0120783F78751F482F
:105530004FF4FA610068B0FBF1F14FF0E020491E32
:10554000416107210161184E306820F00060306031
:10555000306C40F080003064306C40F48070306417
:1055600001F0ABF81248401E0028FCD1212001F0C8
:10557000B6F80D2001F0B3F8112001F0B0F8442086
:1055800001F0ADF80B4947F6FF7048808880C8806D
:10559000088148818881C8810882488288820BE01E
:1055A0008400001080841E0000C009200C0300103D
:1055B00080A90300C2CA0720C88208834883888361
:1055C000C88348848884C884088548858885C885B8
:1055D000088648868886C886088748878887C88757
:1055E0004D490880488001F037FB01F07BFB01F05A
:1055F00061FBFBF71FFC494800240470FBF796FA97
:10560000306840F400603060B06940F40060B06120
:105610008621642001F0BEFC00F086F8FFF7E0FE72
:105620004FF4165001F082FDDFF8F480F87900B1F4
:10563000FC71787A48B1B8F90000C82802DA401C39
:10564000A8F800007C72FBF7AFFA387A10B13C7210
:1056500001F0A4FDB87A40B1BC727878B9780843FB
:1056600001D1FEF7AEF9FEF72FFAF87A10B1FC720D
:10567000FBF760FD387B98B13C73FBF7CAFDFBF785
:1056800087FDB87810B9274801F034FBA8F800402E
:10569000FAF7BAFDFAF7A8FDFAF730FDFBF7D3FBEE
:1056A000787B70B17C7301F08CF800F03DF8306AC3
:1056B00040F080603062FBF73FF9FBF78DFBFBF7B2
:1056C00035FCB87B00B1BC73F87BF8B1FC7378781B
:1056D00008B9FFF791FEFBF7EDF800F0C7FF97F868
:1056E0002400401C87F824006D1CEDB23C2D06D32D
:1056F000002501F0B1FA01F0F5FA01F0DBFA97F8B4
:1057000025000A2802D2401C87F82500387C002892
:105710008CD03C748AE7000022030010E0000010E7
:105720000EC00720FCC507202DE9F047102001F02E
:1057300076FBFF4C2080122001F071FB60802C2052
:1057400001F06DFBFB4C20802E2001F068FB608097
:10575000142001F064FBF84C2080162001F05FFB60
:105760006080182001F05BFBF44C20801A2001F0CF
:1057700056FB60801C2001F052FBF14C20801E2063
:1057800001F04DFB6080202001F049FBED490880CD
:10579000242001F044FBEC490880262001F03FFB67
:1057A000EA4C2080282001F03AFB60802A2001F09A
:1057B00036FBA080302001F032FBE54C2080322007
:1057C00001F02DFB6080342001F029FBA080362001
:1057D00001F025FBDF4C2080382001F020FB6080A9
:1057E0003A2001F01CFBA0803C2001F018FBDA49B4
:1057F00008803E2001F013FBD8490880402001F0CA
:105800000EFBD7490880422001F009FBD5490880EA
:10581000442001F004FBD4490880462001F0FFFA3F
:10582000D2490880C22001F0FAFAD1490880A620A6
:1058300001F0F5FACF4C2080A82001F0F0FA60804A
:10584000AA2001F0ECFAA080762001F0E8FACA491B
:105850000880782001F0E3FAC84908807A2001F036
:10586000DEFAC74908807C2001F0D9FAC5490880D2
:105870007E2001F0D4FAC4490880C62001F0CFFA96
:10588000C2490880C82001F0CAFAC14908808220B4
:1058900001F0C5FABF490880842001F0C0FABE4972
:1058A0000880862001F0BBFABC4908804FF4827062
:1058B00001F0B5FABA4908804FF4837001F0AFFAED
:1058C000B84908804FF4847001F0A9FAB6490880FD
:1058D0004FF4857001F0A3FAB4490880882001F0E4
:1058E0009EFAB3490880DE2001F099FAB149088098
:1058F0008C2001F094FAB04908808E2001F08FFAD4
:10590000AE490880902001F08AFAAD4908809220C3
:1059100001F085FAAB490880942001F080FAAA4989
:105920000880962001F07BFAA8490880982001F0B1
:1059300076FAA74908804FF49B7001F070FAA549E8
:1059400008809A2001F06BFAA34908800F220021F9
:10595000A148FAF781FC4FF4177001F060FA9F4CF0
:10596000208040F25E2001F05AFA9D4D288040F2DE
:10597000662001F054FA9B4908804FF41A7001F038
:105980004EFA994908802088298808449749088058
:10599000802001F044FA96490880BC2001F03FFACB
:1059A00094490870BE2001F03AFA93490880C42057
:1059B00001F035FA91490880CC2001F030FA904985
:1059C0000880CE2001F02BFA8E4908804FF4197020
:1059D00001F025FA8C49088040F26A2001F01FFA94
:1059E0008A490880D02001F01AFA89490880D2201B
:1059F00001F015FA87490880D42001F010FA864991
:105A00000880D62001F00BFA84490880D82001F0E4
:105A100006FA83490880DA2001F001FA81490880FA
:105A2000DC2001F0FCF980490880E22001F0F7F960
:105A30007E490880E42001F0F2F97D490880FE20CB
:105A400001F0EDF97B4908804FF4807001F0E7F92F
:105A500079490880E62001F0E2F978490870E820E9
:105A600001F0DDF976490870EA2001F0D8F97549AE
:105A70000870EC2001F0D3F973490880EE2001F0A2
:105A8000CEF972490880F02001F0C9F97049088008
:105A9000F22001F0C4F96F490880F42001F0BFF949
:105AA0006D490880F62001F0BAF96C490880F820A9
:105AB00001F0B5F96A490880FA2001F0B0F96949A6
:105AC0000880FC2001F0ABF9674908804FF4817031
:105AD00001F0A5F9654908804FF48B7001F09FF93A
