:020000040000FA
:10000000300B0010E1000000E5000000E7000000F8
:10001000E9000000EB000000ED000000000000001F
:10002000000000000000000000000000EF000000E1
:10003000F100000000000000F300000075C20000A5
:10004000F700000075020000A1020000F7000000A8
:10005000F7000000F7000000F7000000F7000000C4
:10006000F7000000F7000000F7000000F7000000B4
:10007000F7000000F7000000F7000000F7000000A4
:10008000F7000000F7000000F7000000F700000094
:10009000F7000000F70000002D1C0000F700000032
:1000A000F7000000F7000000F7000000F700000074
:1000B000F7000000F7000000F7000000F700000064
:1000C000F7000000F7000000F7000000DFF80CD098
:1000D0000EF038F800480047B7C30000300B00109E
:1000E00005480047FEE7FEE7FEE7FEE7FEE7FEE71E
:1000F000FEE7FEE7FEE7FEE7CD00000030B500209A
:10010000354BA3F1140202F10A04115C51B1255CD4
:10011000A94207D1195C29B1491EC9B2195409B9BC
:1001200000211154115C2154401CC0B20A28ECD3A8
:1001300030BD70B50024284E143E641CE4B2355D19
:100140001DB1854201D00A2CF7D3305522480C301E
:1001500040F82410283040F824203438035570BD6E
:1001600000211D4A143A491CC9B2535C834201D094
:100170000A29F8D3535C834210D117480C3050F849
:10018000213016480360144B343353F82130436058
:1001900000205054104A50540120704700207047EE
:1001A00000210D4A143A491CC9B2535C834201D064
:1001B0000A29F8D3525C82420CD107480C3050F81F
:1001C000212006480260044A343252F8211041606E
:1001D000012070470020704798C507202CC00720D9
:1001E0000D4BDA601870597070470B4A11619070AE
:1001F00070470949088170470749B1F9080000288C
:1002000008D0401E00B20881002803D10021084612
:1002100001F0FAB87047000034C0072090F90030B0
:100220008B4200DA027090F90030934200DD0170D9
:10023000704790F900308B4200DA017090F900109D
:10024000914200DD02707047B0F900308B4200DA55
:100250000180B0F90010914200DD02807047B0F9D2
:1002600000308B4200DA0280B0F90030934200DDAA
:10027000018070474FF04021012008600C48016860
:10028000491C01600B49002008700B48016821F0EF
:10029000FF01091D0160016841F080710160704734
:1002A00006490120086002484168491C41607047C6
:1002B00018C1072001C00720004003400080004013
:1002C00030B50B46014600202022012409E021FA26
:1002D00002F59D4205D303FA02F5491B04FA02F523
:1002E0002844151EA2F10102F1DC30BD02E008C86D
:1002F000121F08C1002AFAD170477047FFFFFFFFA5
:1003000000202021FF4A1154401CC0B2C828FAD353
:10031000704701460020FB4A401CC0B2135C8B4270
:1003200001D0C828F8D3704710B50021F64C0A2236
:100330000346B0FBF2F002FB10336354491CC9B210
:100340000529F5D310BDF0B5F04D01212970052127
:100350002026ED4B00272A7842B15A1812F8014C9A
:1003600024B9814202D902F8016C05E05A1812F84A
:10037000014D303414702F70491EC9B20029EAD1E2
:10038000F0BDFEB503462B27002B02DA584203B21C
:100390002D2700200A246D4693FBF4F604FB163348
:1003A0002B5433B2401C40B20A28F5DB0123002451
:1003B0000920202643B115F800C0BCF1000F03D17D
:1003C000904201DD2E5405E02B5C30332B5400238A
:1003D000641CE4B2401E40B20028EBDA2D2F03D19A
:1003E0002046641CE4B22F546AB160B205E02B18B9
:1003F00013F8013C2B54401E40B29042F7DC2E20F3
:10040000A854641CE4B20846FFF783FF0021BD4AEC
:1004100004E0461A6B5C9355491C49B2A142F8DBD3
:10042000FEBDFEB503462B27002B01DA5B422D27CC
:1004300000200A246D461E4693FBF4F304FB13666A
:100440002E54401C40B20A28F5DB01230024092069
:10045000202643B115F800C0BCF1000F03D1904233
:1004600001DD2E5405E02B5C30332B540023641C3B
:10047000E4B2401E40B20028EBDA2D2F03D1204613
:10048000641CE4B22F546AB160B205E02B1813F873
:10049000013C2B54401E40B29042F7DC2E20A85461
:1004A000641CE4B20846FFF734FF0021954A04E0DB
:1004B000461A6B5C9355491C49B2A142F8DBFEBD5C
:1004C0002DE9FE414FF02B0C002802DA40424FF09C
:1004D0002D0C00240A256F46064690FBF5F005FB1F
:1004E00010663E55641C64B20A2CF5DB012500241D
:1004F0000920202645B117F80080B8F1000F03D17C
:10050000984201DD3E5405E03D5C30353D54002508
:10051000641CE4B2401E40B20028EBDABCF12D0F9F
:1005200004D12046641CE4B207F800C06BB160B28D
:1005300005E03D1815F8015C3D54401E40B298425C
:10054000F7DC2E20F854641CE4B201EB810002EBCE
:100550008000C1B200206B4A04E00D1A3B5C535589
:10056000401C40B2A042F8DBBDE8FE8170B50D46EC
:1005700016461C46FFF7D8FE601CC0B2FFF7E3FE2C
:1005800005EB850006EB8000C1B200205E4B5D4D9F
:10059000A04201D21A5C6A5406D31A5C202A03D006
:1005A0004CB16E1806F8012C491EC9B2401CC0B2ED
:1005B0000528EDD370BD6A54F6E730B50446084609
:1005C0001546FFF7A6FEFF2809D04E4A04E043195E
:1005D000641CD154401CC0B221780029F7D130BD31
:1005E00070B50D461446FFF79FFE601CC0B2FFF7C2
:1005F000AAFE2846FFF78DFE0021434A414D24B94B
:10060000535C202B01D02B5414E0A14202D2535C46
:100610002B540FE008D14FF02E032B5405EB0006AE
:10062000535C06F8013C05E0535C202B02D02E18E9
:1006300006F8013C401EC0B2491CC9B20529DED3F0
:1006400070BD1044002801DA084402E0884200DB53
:10065000401AC0B270472DE9FF5F04460D464FF4C3
:1006600060600DF030FB62424021FFF7EAFF40017D
:1006700000F5806402A920460DF0A1FB01A904F158
:1006800008000DF09CFB694604F10C000DF097FB8F
:100690002846FFF73EFE9DF808E040223021212346
:1006A00023240127DFF86880164E1A4D4FF0C20947
:1006B0004FF03A0C4FF0200ABEF1550F11D04FF019
:1006C000C00BBEF1500F7ED0BEF1510F7CD0BEF1F9
:1006D000530F7AD0BEF1420F78D0BEF1560F76D0CC
:1006E00027E39DF80AB0BBF1520F1ED100F1010BB8
:1006F0000BF0FF0B06F800900BF10109EA2009F05E
:10070000FF0909E084010010F4C007200E03001067
:1007100064EB00000040024006F80B004FF0EB0BCA
:1007200009F10100C0B206F809B000F1010909F0B1
:10073000FF0906F800A009F1010B0BF0FF0006F815
:1007400009A000F1010909F0FF0906F800A009F16C
:100750000100C0B206F809A000F1010909F0FF0983
:1007600006F800A09DF80400B5F83CB0584540D10B
:100770009DF8050095F838B058453AD19DF8060027
:1007800095F82C50A84234D109F10100C0B206F806
:100790000910451CEDB23354681CC0B206F805C000
:1007A000431CDBB231541D465B1CD8B27255421C4F
:1007B000D2B206F800C0501CC0B2B15434549DF8F7
:1007C0000000002204E04AE0ECE091E16FE2A6E2E2
:1007D0002121FFF705FF9DF8010000224021FFF7CE
:1007E000FFFE9DF8020000222321FFF7F9FEBDE87D
:1007F000FF9F09F10100C0B206F809A0451CEDB247
:100800003154681CC0B27355431CDBB23254581CBF
:10081000C0B206F803A0421CD2B206F800A0501CD9
:10082000C0B2B15434549DF8060000222121FFF7D4
:10083000D7FE9DF8040000222321FFF7D1FE9DF88A
:100840000500401E0C2801D38DF805709DF80500A9
:10085000002208EB80004021FFF7AFFEC7E700F160
:10086000010E0EF0FF0E06F800B00EF10100C0B24E
:1008700006F80E904FF02E0B00F1010909F0FF0968
:1008800006F800B0CF2009F1010B0BF0FF0B06F8C2
:100890000900D1200BF1010909F0FF0906F80B004E
:1008A00009F10100C0B206F809A000F1010909F040
:1008B000FF0906F800A009F10100C0B206F809A07E
:1008C0009DF80490B5F83CB0D94536D19DF8059017
:1008D00095F838B0D94530D19DF8069095F82C5050
:1008E000A9452AD1451CEDB23154681CC0B27355DC
:1008F000431CDBB206F800C0581CC0B2F154431CC4
:10090000DBB23254581CC0B206F803C0421CD2B24B
:100910003154B4549DF8000000222121FFF760FEFD
:100920009DF8010000224021FFF75AFE9DF80200C9
:1009300000222321FFF754FE59E7451CEDB206F8CB
:1009400000A0681CC0B27155451CEDB23354681C40
:10095000C0B27255421CD2B206F800A0501CC0B200
:1009600006F802A0421CD2B23154B4549DF80600DD
:1009700000222121FFF734FE9DF8040000222321EC
:10098000FFF72EFE9DF80500401E0C2801D38DF8C0
:1009900005709DF80500002208EB80004021FFF75C
:1009A0000CFE24E700F1010E0EF0FF0E06F800B079
:1009B0000EF10100C0B206F80E904FF02E0900F1C2
:1009C000010B0BF0FF0B06F8009055200BF101090D
:1009D00009F0FF0906F80B00E22009F1010B0BF00A
:1009E000FF0B06F80900FB200BF1010909F0FF09D4
:1009F00006F80B00F52009F1010B0BF0FF0B06F8D0
:100A000009000BF10100C0B206F80BA09DF804909C
:100A1000B5F83CB0D94536D19DF8059095F838B079
:100A2000D94530D19DF8069095F82C50A9452AD18A
:100A3000451CEDB23154681CC0B27355431CDBB287
:100A400006F800C0581CC0B2F154431CDBB232544B
:100A5000581CC0B206F803C0421CD2B23154B45480
:100A60009DF8000000222121FFF7BAFD9DF801004A
:100A700000224021FFF7B4FD9DF80200002223214F
:100A8000FFF7AEFDB3E6451CEDB206F800A0681C0A
:100A9000C0B27155451CEDB23354681CC0B27255DA
:100AA000421CD2B206F800A0501CC0B206F802A048
:100AB000421CD2B23154B4549DF8060000222121C8
:100AC000FFF78EFD9DF8040000222321FFF788FD2B
:100AD0009DF80500401E0C2801D38DF805709DF887
:100AE0000500002208EB80004021FFF766FD7EE64E
:100AF00000F1010E0EF0FF0E06F800B00EF101003D
:100B0000C0B206F80E904FF02E0B00F1010909F06B
:100B1000FF0906F800B0C12009F1010B0BF0FF0B33
:100B200006F809004FF0CF090BF10100C0B206F83A
:100B30000B904FF0D10900F1010B0BF0FF0B06F801
:100B400000909DF80990B9F1090F0DD209F1310912
:100B50000BF10100C0B206F80B9000F1010909F099
:100B6000FF0906F800A02BE0A9F109005A281CD2C1
:100B700009F101090A20B9FBF0FECDF80CE00EF1F5
:100B8000300E0BF10100C0B206F80BE0DDF80CE00E
:100B90004FF00A0B0BFB1E9B0BF1300B00F1010910
:100BA00009F0FF0906F800B00AE00BF10100C0B23D
:100BB00006F80BA000F1010909F0FF0906F800A0F2
:100BC00009F10100C0B206F809A09DF80490B5F83B
:100BD0003CB0D94536D19DF8059095F838B0D94547
:100BE00030D19DF8069095F82C50A9452AD1451C86
:100BF000EDB23154681CC0B27355431CDBB206F829
:100C000000C0581CC0B2F154431CDBB23254581C13
:100C1000C0B206F803C0421CD2B23154B4549DF89D
:100C2000000000222121FFF7DBFC9DF801000022DB
:100C30004021FFF7D5FC9DF8020000222321FFF799
:100C4000CFFCD4E5451CEDB206F800A0681CC0B28C
:100C50007155451CEDB23354681CC0B27255421C2C
:100C6000D2B206F800A0501CC0B206F802A0421C86
:100C7000D2B23154B4549DF8060000222121FFF76E
:100C8000AFFC9DF8040000222321FFF7A9FC9DF88A
:100C90000500401E0C2801D38DF805709DF8050055
:100CA000002208EB80004021FFF787FC9FE5C1226E
:100CB000411CC9B23254E023481CC2B27354F22121
:100CC000501CC0B2B1549DF80910092908D2313125
:100CD000421CD2B23154501CC0B206F802A01BE034
:100CE000A1F109025A2A0FD2491C0A25B1FBF5F3DA
:100CF00003F13004421CD2B2345405FB13113031DD
:100D0000501CC0B2B15407E0411CC9B206F800A0A3
:100D1000481CC0B206F801A006F800A067E59DF8DF
:100D20000990B9F1490F04D19DF80A90B9F14E0F1D
:100D300003D0BEF1560F75D0BAE000F1010909F0F9
:100D4000FF0906F800B0E22009F1010E0EF0FF0BDA
:100D500006F809004FF02E0E0BF1010909F0FF090A
:100D600006F80BE04FF0550E09F1010B0BF0FF0BED
:100D700006F809E00BF1010909F0FF0E06F80B0077
:100D80004FF0F50B0EF1010000F0FF0906F80EB070
:100D900009F10100C0B206F809A000F1010909F04B
:100DA000FF0906F800A09DF80400B5F83CB05845CE
:100DB00039D19DF8050095F838B0584533D19DF8E4
:100DC000060095F82C50A8422DD109F10100C0B2BF
:100DD00006F80910451CEDB23354681CC0B206F881
:100DE00005C0431CDBB23154581CC0B2F254421C43
:100DF000D2B206F800C0501CC0B2B15434549DF8B1
:100E0000000000222121FFF7EBFB9DF801000022EA
:100E10004021FFF7E5FB9DF8020000222321FFF7A8
:100E2000DFFBE4E435E009F10100C0B206F809A0F7
:100E3000451CEDB23154681CC0B27355431CDBB283
:100E40003254581CC0B206F803A0421CD2B206F8B5
:100E500000A0501CC0B2B15434549DF806000022CA
:100E60002121FFF7BDFB9DF8040000222321FFF79D
:100E7000B7FB9DF80500401E0C2801D38DF80570C6
:100E80009DF80500002208EB80004021FFF795FB4C
:100E9000ADE49DF80990B9F14F0F09D19DF80A9082
:100EA000B9F1550F04D19DF80B90B9F1540F03D04F
:100EB000BEF14F0F73D0B2E000F1010909F0FF0954
:100EC00006F800B0E22009F1010E0EF0FF0B06F863
:100ED00009004FF02E0E0BF1010909F0FF0906F889
:100EE0000BE04FF0550E09F1010B0BF0FF0B06F86C
:100EF00009E00BF1010909F0FF0906F80B00FB20DE
:100F000009F1010B0BF0FF0B06F80900F5200BF1BE
:100F1000010909F0FF0906F80B0009F10100C0B250
:100F200006F809A09DF80490B5F83CB0D94537D132
:100F30009DF8059095F838B0D94531D19DF80690C7
:100F400095F82C50A9452BD1451CEDB23154681CA5
:100F5000C0B27355431CDBB206F800C0581CC0B2C7
:100F6000F154431CDBB23254581CC0B206F803C023
:100F7000421CD2B23154B4549DF800000022212109
:100F8000FFF72EFB9DF8010000224021FFF728FB10
:100F90009DF8020000222321FFF722FB27E434E022
:100FA000451CEDB206F800A0681CC0B27155451C86
:100FB000EDB23354681CC0B27255421CD2B206F86E
:100FC00000A0501CC0B206F802A0421CD2B231549C
:100FD000B4549DF8060000222121FFF701FB9DF883
:100FE000040000222321FFF7FBFA9DF80500401EB4
:100FF0000C2801D38DF805709DF80500002208EB40
:1010000080004021FFF7D9FA28E49DF80990B9F152
:10101000560F04D19DF80A90B9F14C0F7ED0BEF165
:10102000540FF1D19DF80990B9F1530FECD19DF80F
:101030000A90B9F1590FE7D19DF80B90B9F1530F10
:10104000E2D100F1010909F0FF0906F800B04FF004
:10105000E20B09F10100C0B206F809B04FF02E0909
:1010600000F1010B0BF0FF0B06F8009054200BF180
:10107000010909F0FF0906F80B004FF0F10B09F127
:101080000100C0B206F809B04FF0E80E00F1010906
:1010900009F0FF0906F800E009F10100C0B206F806
:1010A00009B000F1010909F0FF0906F800A09DF858
:1010B0000400B5F83CB058457ED19DF8050095F880
:1010C00038B0584578D19DF8060095F82C50A842C4
:1010D00072D109F10100C0B206F80910451CEDB249
:1010E0003354681CC0B206F805C0431CDBB231544F
:1010F000581CC0B2F254421CD2B206F800C0501CB8
:10110000C0B2B15434549DF8000000222121FFF7F1
:1011100067FA00229DF80100402100E008E0FFF797
:101120005FFA9DF8020000222321FFF759FA03E439
:101130004FF0CF0B00F1010909F0FF0906F800B0EC
:10114000D02009F1010E0EF0FF0B06F809004FF058
:10115000C30E0BF1010909F0FF0906F80BE009F1D4
:10116000010B0BF0FF0B06F809004FF0C70E0BF157
:10117000010000F0FF0906F80BE009F10100C0B220
:1011800006F809A000F1010909F0FF0906F800A01E
:1011900009F10100C0B206F809A09DF80490B5F865
:1011A0003CB0D94538D19DF8059095F838B0D9456F
:1011B00032D19DF8069000E063E095F82C50A945E7
:1011C0002AD1451CEDB23154681CC0B27355431C82
:1011D000DBB206F800C0581CC0B2F154431CDBB2AD
:1011E0003254581CC0B206F803C0421CD2B231546B
:1011F000B4549DF8000000222121FFF7F1F99DF879
:10120000010000224021FFF7EBF99DF802000022C7
:101210002321FFF7E5F935E4451CEDB206F800A0FF
:10122000681CC0B27155451CEDB23354681CC0B285
:101230007255421CD2B206F800A0501CC0B206F88B
:1012400002A0421CD2B23154B4549DF806000022D0
:101250002121FFF7C5F99DF8040000222321FFF7A3
:10126000BFF99DF80500401E0C2801D38DF80570CC
:101270009DF80500002208EB80004021FFF79DF952
:1012800035E409F10100C0B206F809A0451CEDB231
:101290003154681CC0B27355431CDBB23254581C25
:1012A000C0B206F803A0421CD2B206F800A0501C3F
:1012B000C0B2B15434549DF8060000222121FFF73A
:1012C0008FF99DF8040000222321FFF789F99DF88A
:1012D0000500401E0C2801D38DF805709DF805000F
:1012E000002208EB80004021FFF767F9A9E417B559
:1012F00001EB810002EB8000C2B29DF80030B348E0
:1013000003F00F01445CB2498C54521ED2B200EB80
:1013100013131B788B54521ED2B29DF8013003F088
:101320000F04045D8C54521ED2B200EB13131B78D1
:101330008B54521ED2B29DF8023003F00F04045DAC
:101340008C54521ED2B200EB13131B788B54521ED6
:10135000D3B29DF8032002F00F04045DCC545B1E51
:10136000DBB200EB12100078C8541EBD30B59949AD
:101370000124974B91F9012091F904108A4204D17C
:1013800000EB800003F8204030BD4D1CAA4205D17F
:10139000401C00EB800003F8204030BD8D1CAA42A9
:1013A00005D1801C00EB800003F8204030BDCD1C2F
:1013B000AA4205D1C01C00EB800003F8204030BDDC
:1013C0000D1DAA4205D1001D00EB800003F820404E
:1013D00030BD4D1DAA4205D1401D00EB800003F831
:1013E000204030BD8D1DAA4205D1801D00EB80003C
:1013F00003F8204030BDC91D8A42FBD1C01D00EB5F
:10140000800003F8204030BD734B1A88521E1044F0
:1014100000B21880714A00EB800002446D481368E6
:10142000036012790271427811444170704770B5BF
:10143000694DB5F90040661C2E80684D04EB8404AC
:101440002544644C26682E6026792E7120706170C8
:101450002271A37070BD2DE9F04180460F461646FB
:10146000FEF74EFF5A4C002518F8010B04F8010B4B
:101470006D1CEDB2142DF7D3002017F8011B04F8F2
:10148000011B401CC0B21428F7D3002016F8011B22
:1014900004F8011B401CC0B21428F7D3002013F835
:1014A000011B04F8011B401CC0B21428F7D3BDE88F
:1014B000F08110B5029CFFF7CEFF4648C3788278D2
:1014C00041785D20FFF7B3FF642094FBF0F0BDE8A6
:1014D0001040C0B2FEF78DBE2DE9FE430D4640011F
:1014E00000F5806402A920460CF069FC01A904F112
:1014F00008000CF064FC694604F10C000CF05FFC81
:101500002846FEF706FF2026314C411CC9B226545E
:101510003027481CC0B267544FF02108411CC9B2A3
:1015200004F800804FF04009481CC0B204F8019054
:10153000411CC9B22654481CC0B26654411CC9B2F1
:1015400027542322481CC5B262549DF8060000228D
:101550002121FFF745F89DF8040000222321FFF721
:101560003FF89DF80500401E0C2802D301208DF89D
:1015700005009DF805001A49002201EB800040217A
:10158000FFF71BF8681CC0B26655411CC9B227544E
:10159000481CC0B204F801803A22411CC9B222544E
:1015A000481CC0B26754411CCDB204F800909DF8AD
:1015B000000000222121FFF713F89DF8010000220E
:1015C0004021FFF70DF86655BDE8FE83EFEB000004
:1015D0008401001050010010400000108BCA072049
:1015E00064EB000070B5FF4C608A401C00B2608262
:1015F000B0F5E16F01DB00206082B4F91200B0F5B4
:10160000DF6F11D90F2301226421D220FEF791FD53
:101610000F230022D821D720FEF78BFD0F230022B5
:10162000D821DC20FEF785FDB4F91200A0F5E061B9
:10163000073918D1EC4EED4CED4D308821888842A9
:1016400005D0B4F90010B5F900000CF02DFC70883D
:101650006188884207D0B4F90210B5F90200BDE8EC
:1016600070400CF021BC70BDF0B5E24BB3F9040042
:10167000E149B1F9001041434FF4FA6291FBF2F1F4
:10168000DE4A1180B3F90210DD4AB2F9002051435D
:101690004FF4FA7491FBF4F1DA4A1180DA4AB2F9A4
:1016A0000020424392FBF4F2D84D2A80891AD84A8E
:1016B0001180D849B1F900104843D7490988A1F5EC
:1016C000AA42FA3A04D14FF4C87190FBF1F001E05C
:1016D00090FBF4F0D1490880B3F90A1040F6B73412
:1016E000A1F2213001260025CD4AA04201D2157079
:1016F00000E01670CB48B0F90000414344F6206C7E
:1017000091FBFCF1A1F21111C74F3980B3F90C1014
:10171000A1F22133A34201D2157000E016704843B4
:1017200090FBFCF0A0F211103880C0490880DFF86F
:1017300000C3BCF80010BF4EB6F9000048434FF498
:101740007A6490FBF4F0BC4B80B21880BB496428EB
:1017500001D2088002E0BA4800880880BCF8021074
:10176000B6F90200484390FBF4F05880B548B0F950
:101770000010B54BB3F900404C4341F2707194FB3B
:10178000F1F6B24C2680B0F902C0B3F9026006FB54
:101790000CF696FBF1F66680B0F90460B3F90430FC
:1017A000734393FBF1F3A380B0F90640A84BB3F960
:1017B0000060664396FBF1F6A64C2680B0F908C09F
:1017C000B3F9026006FB0CF696FBF1F66680B0F901
:1017D0000A60B3F90400704390FBF1F0A0807888B0
:1017E0009D4E00F2111003B23380B88800F2111040
:1017F00004B274805178317290787072974A01B94E
:1018000010B1012909D009E0181900EBD0706FF46C
:10181000887101EB600010801BE008B121B105E088
:10182000A4F21114148014E0012802D0012904D07C
:101830000FE0A3F2111313800BE0012809D18848AF
:101840000078052803D287480088108001E0142022
:1018500010808548058085480580F0BD8448416832
:1018600021F4402141F480214160416821F440315C
:1018700041F480314160416821F4404141F48041AC
:101880004160416C21F4402141F400214164416CEC
:1018900021F4403141F400314164416C21F4404174
:1018A00041F4004141647348016821F0E061016046
:1018B000016841F400110160016821F48031016088
:1018C000016821F47F4141F4807101608115C1609C
:1018D00069488903016070472DE9F041414C143497
:1018E00060882188401A00B200F040F9A61D3080BF
:1018F000A0886188401A00B200F038F97080A08892
:101900002188401A00B200F031F9B0804FF496718E
:10191000344D884202DAA08828810CE0B6F9020032
:10192000884202DA6088288105E0B6F90000884222
:1019300001DA20882881AF7800261FB32D48B5F939
:101940000810203002680A44026042680A4442607B
:1019500082680A448260C2681144C160298A491CB5
:1019600009B22982B1F5805F00DB2E82B5F9101033
:101970008A052AD1891250F821201212EA8040F8F3
:10198000216022E03D48EC782A7900EB8413B5F918
:10199000081043F8221090070BD1002153F820C003
:1019A0006144401CC0B21028F8D30811114921F835
:1019B0001400641CE0B2E870102806D3EE70521CCC
:1019C000D0B22871102800D32E716E707F1C07F0E2
:1019D0000100A870274A20B1106820F0FF00001D08
:1019E0004EE04FE000C00720B402001036C10720CF
:1019F0003CE5000044C5072064C00720DE0000105D
:101A0000C2020010E40000106AC00720E8000010C5
:101A10000C03001068C00720DA020010E20000107A
:101A2000170100105EC007205A010010EA000010E4
:101A3000FCC0072058C00720100300101603001038
:101A4000EE000010BECA072004C10720600100108C
:101A500018030010660100105ACA0720FE0000108B
:101A60003200001002C10720E0000010FAC0072079
:101A700000C002400040034000E100E044C10720F4
:101A800010603BE0E978080705D4106820F0FF00FB
:101A9000401C106004E0106820F0FF00801C106003
:101AA0002348036843F080530360036A43F0804394
:101AB0000362036E43F080630366CB070AD0436979
:101AC00043F0805343618B0709D4436B23F0804379
:101AD000436308E0436923F080534361F3E7436BBA
:101AE00043F080434363490704D4416F21F0806190
:101AF000416703E0416F41F080614167106840F049
:101B000080701060BDE8F0810948016841F480717F
:101B100001600849097821B1416941F4807141614E
:101B20007047416921F4807141617047704700003E
:101B300000C0092000C0072010B50A2803D0BDE866
:101B400010400CF0A9BA0D200CF0A6FABDE8104028
:101B50000A200CF0A1BA10B50446E0B2FFF7ECFF82
:101B6000204610BDFF49112008727047002801DA95
:101B7000404200B2704770B5FB4E40F6B8350121C7
:101B8000B6F90040F94800224FF47A73AC4201DD07
:101B9000017002E09C4200DA0270B6F90E40AC42DD
:101BA00001DD417002E09C4200DA4270B6F910405B
:101BB000AC4201DD817002E09C4200DA8270B6F92D
:101BC0000240AC4201DDC17002E09C4200DAC2700A
:101BD000B6F90840AC4201DD017102E09C4200DA36
:101BE0000271B6F90640AC4201DD417102E09C424F
:101BF00000DA4271B6F90440AC4201DD817102E0C5
:101C00009C4200DA8271B6F90C40AC4201DDC17130
:101C100002E09C4200DAC271B6F90A40AC4201DD32
:101C2000017270BD9C42FCDA027270BD10B5D049E1
:101C3000086820F0E06008604868CF4AC0F30B13E2
:101C4000CC4C107824F81030401CC0B2107003281F
:101C500003D2086840F08070086010BD1FB5C74807
:101C60000178F1B3A0F5A47200239079401CC0B2B2
:101C70000A294BD03C2940D19071052800D393719B
:101C8000907978B3BE4C218B4FF06400B1FBF0F239
:101C900000FB1212217DB1FBF0F300FB131383EA6A
:101CA0000203217AB1FBF0F200FB121282EA030276
:101CB000217BB1FBF0F300FB131383EA02032179CC
:101CC000B1FBF0F200FB121282EA03022178B1FBB1
:101CD000F0F300FB131383EA020322782179207BBF
:101CE00001E00BE03EE000F101008DE80F00237AF7
:101CF000227D218BA3A00CF055FA1FBD04B0072252
:101D0000BDE810401921A8A00CF04CBA907105282C
:101D100000D39371907938B100210022974836386A
:101D20000378012B08D009E004B00B22BDE8104075
:101D300026219DA00CF036BA012101224378012B07
:101D400003D141F00201521CD2B28078012803D1A4
:101D500041F00401521CD2B204B096A0BDE810407C
:101D60000CF020BA04B00222BDE810400B218EA076
:101D70000CF018BA2DE9F05F0746924C924D934E45
:101D80004FF0FF384FF4197A4FF4187BDC2F7ED1D7
:101D9000022198200CF088F800219A200CF084F899
:101DA000002176200CF080F80121CA200CF07CF88C
:101DB0003C21C2200CF078F840F6921178200CF00B
:101DC00073F840F28541C8200CF06EF84621C62019
:101DD0000CF06AF850217E200CF066F8BB218220BE
:101DE0000CF062F8BB2184200CF05EF80021862004
:101DF0000CF05AF8142188200CF056F850218C2051
:101E00000CF052F832218E200CF04EF80121A02067
:101E10000CF04AF80121A2200CF046F80121A42080
:101E20000CF042F8A02192200CF03EF840F6980900
:101E3000494694200CF038F8032196200CF034F831
:101E40003221CC200CF030F82821CE200CF02CF8D8
:101E50005521BC200CF028F81E21BE200CF024F8DF
:101E6000012180200CF020F84621D0200CF01CF835
:101E70003C21D4200CF018F81921D2200CF014F8D1
:101E80005021D6200CF010F84621D82000E068E060
:101E90000CF00AF85B21DA200CF006F85021DC2067
:101EA0000CF002F8B4F9000000210BF0FDFFB5F9C9
:101EB000000000210BF0F8FFB6F9000041460BF0DE
:101EC000F3FFB4F9020000210BF0EEFFB5F90200B8
:101ED00000210BF0E9FFB6F9020041460BF0E4FFE8
:101EE000B4F9040000210BF0DFFFB5F90400002174
:101EF0000BF0DAFFB6F9040041460BF0D5FFB4F958
:101F0000060000210BF0D0FFB5F9060000210BF010
:101F1000CBFFB6F9060041460BF0C6FF0A2150463A
:101F20000BF0C2FF0B2158460BF0BEFF40F2BD1173
:101F3000C8200BF0B9FF4946C4200BF0B5FF1421AF
:101F400092200BF0B1FF45F211614FF4AA700BF033
:101F5000ABFF0121CA200BF0A7FFAA21BC200BF088
:101F6000A3FF35E00040024044C5072082CA072095
:101F70000040034014C0072001C00720500100109A
:101F800024400240444154412530326425303264BB
:101F90002530326425303264253032642530326495
:101FA00043524325640A00004F4B256443524325A6
:101FB000640A00004F505452256443524325640A7A
:101FC0000000000044E500004CE5000054E500007E
:101FD0006E2F7ED1022198200BF066FF00219A20FF
:101FE0000BF062FF002176200BF05EFF0121CA207A
:101FF0000BF05AFF3C21C2200BF056FF40F2465135
:1020000078200BF051FF40F2A321C8200BF04CFFC9
:102010004621C6200BF048FF50217E200BF044FFE4
:10202000632182200BF040FFBB2184200BF03CFF9A
:10203000002186200BF038FF142188200BF034FF9C
:1020400050218C200BF030FF32218E200BF02CFF22
:102050000121A0200BF028FF0121A2200BF024FF7A
:102060000121A4200BF020FFA02192200BF01CFFE7
:1020700040F2C447394694200BF016FF0321962006
:102080000BF012FF3221CC200BF00EFF2821CE20C6
:102090000BF00AFF5521BC200BF006FF1E21BE20CD
:1020A0000BF002FF012180200BF0FEFE4621D02024
:1020B0000BF0FAFE3C21D4200BF0F6FE1921D220C1
:1020C0000BF0F2FE5021D6200BF0EEFE4621D82078
:1020D00000E068E00BF0E8FE5B21DA200BF0E4FEA4
:1020E0005021DC200BF0E0FEB4F9000000210BF0E1
:1020F000DBFEB5F9000000210BF0D6FEB6F90000BA
:1021000041460BF0D1FEB4F9020000210BF0CCFEE9
:10211000B5F9020000210BF0C7FEB6F902004146F6
:102120000BF0C2FEB4F9040000210BF0BDFEB5F9BE
:10213000040000210BF0B8FEB6F9040041460BF094
:10214000B3FEB4F9060000210BF0AEFEB5F90600AF
:1021500000210BF0A9FEB6F9060041460BF0A4FEE3
:102160000A2150460BF0A0FE0B2158460BF09CFEB6
:102170004FF41B71C8200BF097FE3946C4200BF0BA
:1021800093FE142192200BF08FFE45F211614FF463
:10219000AA700BF089FE0121CA200BF085FEAA214E
:1021A000BC200BF081FEFF4DAA21B5F900000BF019
:1021B0007BFEFD4C2178FD4EB6F900000BF074FE5D
:1021C000217BFB4FB7F900000BF06EFEB4F9101045
:1021D000DFF8E083B8F900000BF066FEDFF8D89373
:1021E0000021B9F900000BF05FFEDFF8D0A3002159
:1021F000BAF900000BF058FEB5F90200AA210BF065
:1022000053FE2178B6F902000BF04EFE217BB7F9A0
:1022100002000BF049FEB4F91010B8F902000BF0FF
:1022200043FEB9F9020000210BF03EFEBAF90200AC
:1022300000210BF039FE4FF416614FF48C700BF057
:1022400033FE14214FF48B700BF02EFE01214FF45E
:102250008D700BF029FE00214FF48E700BF024FEE0
:1022600000214FF490700BF01FFE00214FF491708D
:102270000BF01AFE28214FF48F700BF015FE40F280
:102280001E514FF495700BF00FFEBDE8F05F40F269
:102290004C414FF496700BF007BE10B5C84C182097
:1022A00020722078401C40B204F82409182802DD6E
:1022B000FB2084F8240094F92400002810DB18285F
:1022C0000EDC2120FDF76CFF002808D0BD480088F7
:1022D000222804D1BC4894F9241090F9020010BDC2
:1022E000411CFCD0811CFAD0C01CF8D12079401CC4
:1022F000207110BDB44900203C39087048708870C6
:102300003C31487070472DE9F0410020AF4B00216F
:102310004FF4F4721954401C00B29042FADB0022D0
:102320004FF0140C7A2102FB01F002EB82018900CC
:1023300009B202EB82040CEB84071DE0A24CA44E10
:102340003434645C04EB4405441C16F8158003F82F
:10235000008006EB4500661C45781D558478751C89
:102360009C55C4786E1C5C550579741C9D55457947
:10237000601C1D55491C09B28F42DFDC521C12B291
:10238000042ACFDBBDE8F0812DE9F04FFFB0052135
:102390000020DFF82C820DAAA8F12408012698F865
:1023A00005301BB18BA101200D91062198F82D302D
:1023B0003BB103468DA4401CC0B242F82340491CE7
:1023C000C9B298F82F303BB103468EA4401CC0B26E
:1023D00042F82340491CC9B298F832303BB1034659
:1023E0008EA4401CC0B242F82340491CC9B298F8E0
:1023F0003030012B07D104468EA5401CC0B242F8F4
:102400002450491CC9B2022B07D103468FA4401C9B
:10241000C0B242F82340491CC9B298F83130012BB0
:1024200007D104468FA5401CC0B242F82450491C75
:10243000C9B2022B04D191A342F82030491CC9B281
:102440005F4D5C352A46B5F91E007E90B2F920201A
:102450007D92104488F80000A5F18000A5F180026B
:10246000007A401CC0B210723FAC14280DD3002279
:1024700088F8082098F80700401CC0B288F80700C8
:10248000884201D388F8072028E2DFF83C91814F89
:10249000484699F8002090F9011090F904C0481EB0
:1024A000A1EB0C034FFA80FAF2B3484690F904B05E
:1024B0005846401C0BF1020B7C900A2A57D0032A85
:1024C00056D0042A55D0052A54D01F2A53D0662A44
:1024D00052D0682A51D05E2A50D05F2A4FD0484649
:1024E000602A90F902007B904AD0A9F1C800DFF879
:1024F000A891B0F964004D2AA0F1010E41D04F2AF5
:1025000040D0512A3FD0DFF8C0900E2A3CD00F2A8D
:102510003AD0472A38D0242A36D03E2A35D03F2A0E
:1025200034D04846407800E0CEE0801E40B2062A13
:102530002DD0012A2CD0392A2BD03C2A2AD04F4624
:10254000212A28D0222A27D05C2A26D0A9F1C8091E
:10255000112AB9F91A9021D0194F5C37122AB7F90C
:1025600022E01CD0C837152A1AD0132A96E015E1AC
:102570009DE1B4E1F5E139E250E2C8E3FDE3FDE3BA
:10258000FDE3FDE3FDE3FDE3FDE3FDE3FDE3FDE34B
:10259000FDE3FDE3FDE3FDE3FDE3FDE3FDE3FDE33B
:1025A000FDE3000028E500002C4002402CE500007F
:1025B00030E5000024E5000020E5000034E50000DF
:1025C0002C0000102CC00720500100100CC6072062
:1025D00064E500002020C0E2E0F0E8FF20E1E0F246
:1025E000E0F0E5E82020202000000000202020C0AE
:1025F000E2E0F0E8FF2055E2FBF521212120202038
:102600000000000020CFE5F0E5E3F0F3E7EAE0208A
:10261000EFEE20F2EEEAF3210000000020CFE5F01B
:10262000E5E3F0E5E220F1E8F1F2E5ECFB21202022
:1026300000000000202020C7E0E2FBF8E5EDEE20DE
:1026400055E2FBF52E21202000000000202020C7AD
:10265000E0EDE8E6E5EDEE2055E2FBF52E21202049
:1026600000000000202020C7E0E2FBF8E5EDEE20AE
:1026700055E2F52E2120202000000000202020C758
:10268000E0EDE8E6E5EDEE2055E2F52E21202020F4
:102690000000000064EB00001CCA072074D0142A5C
:1026A00073D02D2A72D02E2A71D02C2A70D0312AC4
:1026B0006FD0BB460A37492A6CD04B2A6BD02A2AE6
:1026C0006AD0672A69D009E1EBA03F90F0A0409062
:1026D000F5A04190FAA04290FFA04390012B02DDAB
:1026E00089F804A003E0614501DA89F8041099F93A
:1026F0000400C11C801C54F8213054F82020DDE96E
:102700003F01FEF7A8FEDFF8E89399F828000022C1
:102710002521FDF765FF99F8240000225E21FDF7D1
:102720005FFF99F8200000222621FDF759FF99F854
:102730002C0000223C21FDF753FFB9F83C00002299
:102740007B21FDF74DFF99F83800002207EB800050
:102750003E21FDF732FF98F8150088B13A20FDF7C9
:10276000D8FDE44F4FF0200907F800903A20FDF71C
:10277000D0FD07F800903A20FDF7CBFD07F8009058
:102780000220FEF7F3FDA9E0F5E3F5E3F5E3F5E359
:10279000F5E3F5E3F5E3F5E3F5E3F5E30A2088F87F
:1027A0001D00D5A00190DAA00290DFA00390E448BC
:1027B000049001A87C9950F82B3050F8212050F853
:1027C0002C10E0A0FEF747FE99F9010099F90410DA
:1027D000421A022A03DD801E89F8040003E08842C1
:1027E00001DA89F804000120FEF7C0FDC14F6A3FFD
:1027F000B878012846D06FF003022121D7A0FDF759
:10280000DCFE7878012844D06FF003022521D3A0A4
:10281000FDF7D3FE3878012842D06FF0030228215B
:10282000CEA0FDF7CAFECF4F00224021B879FDF7B8
:10283000D7FEF87900222321FDF7D2FE387A002254
:102840002421FDF7CDFEF87800225E21FDF7C8FEB9
:10285000387900222621FDF7C3FE787900222A214B
:10286000FDF7BEFE387800222921FDF7B9FE787801
:1028700000222D21FDF7B4FEB87800223D21FDF79E
:10288000AFFE2BE06FF002022121B7A0FDF795FE0D
:10289000B7E76FF002022521B3A0FDF78EFEB9E77E
:1028A0006FF002022821B0A0FDF787FEBBE7A44B22
:1028B000AFA2B5A1BAA0FEF7CEFD8E4880F83C606D
:1028C000B5F8660000225B2180B2FDF789FEB5F8FD
:1028D0006E0001225D2180B2FDF782FE16E2B6A0F5
:1028E0003F90BBA04090C0A04190A1A04290C4A046
:1028F00043907C9854F82B3054F82C1054F8202036
:10290000A7A0FEF7A8FD99F9010099F90410421A51
:10291000022A03DD801E89F8040003E0884201DA00
:1029200089F804000120FEF721FD35F8680F002228
:10293000212180B2FDF754FE68880022402180B238
:10294000FDF74EFEA8880022232180B2FDF748FE45
:10295000A88901225D21A5F1680580B2FDF740FE3E
:10296000D4E1ADA03F90B2A04090B7A04190BCA0F0
:102970004290A3A043907C9854F82B3054F82C102C
:1029800054F8202086A0FEF766FD99F9010099F918
:102990000410421A022A03DD801E89F8040003E0B5
:1029A000884201DA89F804000120FEF7DFFCB5F85F
:1029B000660000225B2180B2FDF712FEB5F86E00C2
:1029C00001225D2180B2FDF70BFE4A4F0A207C3FB9
:1029D0000122796C91FBF0F02421FDF722FD38886B
:1029E0000022232180B2FDF7FBFD8FE1544BA2A210
:1029F000A7A1ADA0FEF72FFD3E4880F83C60B5F8DA
:102A0000560001225B2180B2FDF7EAFDB5F85800BF
:102A100001225D2180B2FDF7E3FD77E1A8A03F90A0
:102A2000ADA0409076A041907C9854F82B3054F89B
:102A30002C1054F82020AEA0FEF70DFD0120FEF76B
:102A400095FC2C4800227C382121408800EB800036
:102A500080B2FDF7C5FDB5F87E000022232180B2CB
:102A6000FDF7BEFDB5F87E00002200EB80002D30A2
:102A700080B2402148E100002030253A305E3A30F3
:102A80002620303C2F3E20202F307B2000000000ED
:102A90002020202020202020202020202020202036
:102AA000202020200000000020CFEEEBEDE0FF20F2
:102AB000EFF0EEE2E5F0EAE0202020200000000048
:102AC00020CAEEEDF2F0EEEBFC20EEEFF2F0EEEDD0
:102AD000EEE220200000000020D3F1F2E0EDEEE273
:102AE000EAE020E2F0E5ECE5EDE82020000000005F
:102AF000004002408401001020CEEFF2F03320208D
:102B0000202020212020202040232420000000001D
:102B100020CEEFF2F032202020202025202020207F
:102B20005E262A200000000020CEEFF2F0312020A7
:102B30002020202820202020292D3D2000000000DA
:102B4000C5EB000020CACECDD2D0CECBDC20CECF7C
:102B5000D2D0CECDCEC2202000000000C2DBCACB36
:102B60002E00000082CA0720C2CACB2E000000003F
:102B700020662020203D20202020205DC3F620203C
:102B8000202020200000000020552020203D202073
:102B90002020205BC22020202020202000000000D8
:102BA0002020202020202020D1C5D2DC2020202061
:102BB00020202020000000002055F441202020206B
:102BC0002020202020202021C220202000000000E2
:102BD0002055F442202020202020202020202040AA
:102BE000C2202020000000002055F4432020202097
:102BF0002020202020202023C220202000000000B0
:102C000020C2FBF5EEE420202020202020202020E0
:102C100020202020000000002055202020202020FF
:102C2000202020202020205BC22020200000000047
:102C30002066202020202020202020202020205D11
:102C4000C3F62020000000002050F2E5EAF3F92E40
:102C50002020202020202023C2F22020000000007D
:102C60002050F1F3ECEC2E202020202020202024E6
:102C7000EAC2F2F7000000002049EDE0E3F0203D59
:102C800020202020205DC0202020202000000000E7
:102C90002055EDE0E3F0203D20202020205BC220E5
:102CA0002020202000000000202020202020CDC057
:102CB000C3D0D3C7CAC0202020202020000000009D
:102CC0002046E2E5EDF22EF2E5EAF3F92E2020208F
:102CD00020202125000000002046E2E5EDF22E6DC7
:102CE00061782E2028202040252920230000000084
:102CF0002020202020C2C5CDD2C8CBDFD2CED0200C
:102D00002020202000000000FDF76AFCE0E2C3A0C4
:102D10003F90C8A04090CDA04190D2A04290D7A0B3
:102D20004390DCA04490E1A04590E6A04690EBA043
:102D30004790F0A04890F5A04990FAA04A90FFA0D3
:102D40004B90AFF24412B5F92600411C44F8212003
:102D5000AFF2C422811C44F82120AFF2CC21C01C68
:102D600044F820107C980CF1030C54F82B2054F8F4
:102D7000201054F82C303F9812E026E0BAE0EFE340
:102D8000EFE3EFE3EFE3EFE3EFE3EFE3EFE3EFE3B3
:102D9000EFE3EFE3EFE3EFE3EFE3EFE3EFE3EFE3A3
:102DA000FEF759FB99F9010099F90410421A022A19
:102DB00003DD801E89F8040003E0884201DA89F807
:102DC00004000120FEF7D2FA82E240F602600AF027
:102DD0007AFF00B2A5F86400402802DD0020A5F8C3
:102DE0006400B5F9640068B1012818D0022821D028
:102DF00069DD99F9011099F9042091423FDA89F8C7
:102E0000041042E0D34BD4A103F11502D8A0FEF781
:102E100022FB89F80160002089F8040053E0CD4AC4
:102E2000D9A31532DEA1D2A0FEF715FB002089F848
:102E3000040048E099F9010099F90410884202DA87
:102E400089F8040005E0411A022902DD801E89F894
:102E5000040099F9040010B1012808D033E0BD4BFB
:102E6000D5A21533CEA1C2A0FEF7F5FA2BE0B94AE0
:102E7000C5A31532CAA1BEA0FEF7EDFA23E08A1A57
:102E8000022A02DD891E89F8041099F90410421EF5
:102E9000914207D1AF4ABCA31532C1A1B4A0FEF73D
:102EA000DAFA10E0801E814207D1AA4BC2A2153384
:102EB000BBA1AFA0FEF7CFFA05E0C5A3BEA2B8A1A3
:102EC000ABA0FEF7C8FA0120FEF750FA99F804000B
:102ED0002821FDF7C0FB99F804005B21401CC0B21B
:102EE000FDF7B9FB99F804007B21801CC0B2FDF707
:102EF000B2FBEDE1974B1A4611460846FEF7ABFAD6
:102F00004FF460600AF0DFFE80B299F902104A4285
:102F10004021FDF796FB400100F5806A0CA9504660
:102F20000AF04DFF06A90AF104000AF048FF0AA9B9
:102F30000AF108000AF043FF0BA90AF10C000AF09D
:102F40003EFF08A90AF110000AF039FF09A90AF1A9
:102F500014000AF034FF07A90AF118000AF02FFF45
:102F60009DF83000552803D19DF8321052290CD01D
:102F7000502850D0B1E17BE37BE37BE37BE37BE351
:102F80007BE37BE37BE37BE37BE399F9040020B104
:102F9000012809D002280ED013E093A398A29EA185
:102FA000A3A0FEF758FA0CE0A7A395A29AA1A0A0AF
:102FB000FEF751FA05E0AAA391A297A19CA0FEF703
:102FC0004AFA9DF82C0000224021FDF709FB9DF8EC
:102FD0002D0000222321FDF703FB9DF82E00002287
:102FE0002421FDF7FDFA9DF82A0000222521FDF796
:102FF000F7FA9DF8280000225E21FDF7F1FA9DF80E
:103000002F0000225B21FDF7EBFA9DF82900401EFE
:103010000C2801D330E15CE130E100002020C0C287
:10302000D2CECCC0D2DB20CDC0C3D0D3C7CECA2035
:103030000000000020C0E2F2EEECE0F220B9312006
:1030400020202020202021200000000020C0E2F2CB
:10305000EEECE0F220B93220202020202020402079
:103060000000000020C0E2F2EEECE0F220B93320D4
:1030700020202020202023200000000020C0E2F299
:10308000EEECE0F220B93420202020202020242063
:103090000000000020C0E2F2EEECE0F220B93520A2
:1030A00020202020202025200000000020C0E2F267
:1030B000EEECE0F220B936202020202020205E20F7
:1030C0000000000020C0E2F2EEECE0F220B9372070
:1030D00020202020202026200000000020C0E2F236
:1030E000EEECE0F220B938202020202020202A20F9
:1030F0000000000020C0E2F2EEECE0F220B939203E
:1031000020202020202028200000000020C0E2F203
:10311000EEECE0F220B931302020202020202920C0
:103120000000000020C0E2F2EEECE0F220B9313104
:103130002020202020202B200000000020C0E2F2D0
:10314000EEECE0F220B931322020202020203D207A
:1031500000000000B0EB000020C6F3F0EDE0EB2033
:10316000EFF3F1F22020202020202020000000009A
:10317000202020C6D3D0CDC0CB20D1CEC1DBD2C839
:10318000C92020200000000020CEF7E8F1F2E8F28C
:10319000FC20E6F3F0EDE0EB202020200000000012
:1031A0002028202020202020202020202020202017
:1031B0002020202000000000205B20202020202054
:1031C000202020202020202020202020000000007F
:1031D000207B202020202020202020202020202094
:1031E0002020202000000000202030252820203032
:1031F0005E2030403A30233A302420200000000086
:1032000020202020202020F1E8F1F2E5ECFB202016
:103210002020202000000000202020E8EBE820E211
:10322000EAEBFEF7E5EDE8E52020202000000000B5
:1032300020202020CFE5F0E5E7E0E3F0F3E7EAE047
:1032400020202020000000002020EAEEE420E8F109
:10325000F2EEF7EDE8EAE020205B2020000000001D
:10326000202020202020202020202020202020205E
:10327000205D2020000000008DF829609DF82900C5
:10328000002207EB80002821FDF797F99DF82F0019
:103290006FF00B02010704D55D21FAA0FDF78DF94F
:1032A00013E0410704D55D21FAA0FDF786F90CE093
:1032B000810704D55D21FBA0FDF77FF905E0C0077C
:1032C00003D05D21FBA0FDF778F90220A5F864008A
:1032D000F4E29DF83210412902D042287DD0A6E0C8
:1032E000F8A03F90AFF2001040909DF820004128D8
:1032F00003D19DF82100412870D00122002109F15D
:103300000400FCF796FFF5A04190FAA04290FFA0C0
:10331000439099F90400C11C54F82130811C54F8E1
:103320002120411C54F8200054F82110FEF793F896
:103330009DF8240000223E21FDF752F99DF825005A
:1033400000223D21FDF74CF99DF82600002229219D
:10335000FDF746F99DF8220000225B21FDF740F9B8
:103360009DF8200000223C21FDF73AF99DF821004C
:10337000401E0C2801D38DF821609DF82100002209
:1033800007EB80005D21FDF718F99DF81C109DF8F2
:103390001D00002201EB002080B22B21FDF720F957
:1033A0009DF82C0000224021FDF71AF99DF82D0010
:1033B00000222321FDF714F99DF82E00002224217C
:1033C000FDF70EF99DF82A0000222521FDF708F9E6
:1033D00000229DF828005E2101E024E013E0FDF7C3
:1033E000FFF89DF82900401E0C2801D38DF82960B4
:1033F0009DF82900002207EB80002821FDF7DDF869
:10340000A5F864605AE2C7A04190CCA042903FA8C2
:103410000FC8FEF720F8B5F8660000222B2180B215
:10342000FDF7DEF8BCE79DF83210432902D04228B0
:103430007ED0AAE0C7A03F90CCA04090AFF2582029
:1034400041909DF82000412803D19DF8210041289A
:103450007FD00122002109F10400FCF7EAFE9FA0C1
:103460004290A4A0439099F90400C11C54F8213063
:10347000811C54F82120411C54F8200054F82110DC
:10348000FDF7E9FF9DF8240000223E21FDF7A8F892
:103490009DF8250000223D21FDF7A2F89DF82600A9
:1034A00000222921FDF79CF89DF8220000225B21D3
:1034B000FDF796F89DF8200000223C21FDF790F8DA
:1034C0009DF82100401E0C2801D38DF821609DF845
:1034D0002100002207EB80005D21FDF76EF89DF8CA
:1034E00031000022401C2B21FDF77AF89DF82C00BA
:1034F00000224021FDF774F89DF82D0000222321C1
:10350000FDF76EF89DF82E0000222421FDF768F8E3
:103510009DF82A0000222521FDF762F89DF8280079
:1035200000225E21FDF75CF89DF82900401E01E0B5
:1035300027E00EE00C2801D38DF829609DF82900C2
:10354000002207EB80002821FDF737F8A5F864601A
:10355000B4E174A042903FA80FC8FDF77CFFBEE71E
:103560005DE35DE35DE35DE35DE35DE35DE35DE35B
:103570005DE35DE35DE35DE35DE35DE35DE35DE34B
:103580005DE39DF83210532902D0422845D048E02F
:1035900070A03F907BA0409074A04190AFF2B830F3
:1035A00042903FA80FC8FDF756FF9DF8310000225A
:1035B000401C2B21FDF714F89DF82C00002240211F
:1035C000FDF70EF89DF82D0000222321FDF708F8E5
:1035D0009DF82E0000222421FDF702F89DF82A0014
:1035E00000222521FCF7FCFF9DF8280000225E2127
:1035F000FCF7F6FF9DF82900401E0C2801D38DF83A
:1036000029609DF82900002207EB80002821FCF7A3
:10361000D4FF0020A5F8640050E19DF832105A292B
:1036200004D04FF0050A422820D053E15BA03F9020
:1036300060A04090AFF2504041909DF8200041289A
:1036400003D19DF82100412811D00122002109F168
:103650000400FCF7EEFD5DA0429026A0439099F98E
:103660000400C11C54F82130811CBBE02EE126E18E
:10367000FEE3FEE3FEE3FEE3FEE3FEE3FEE3FEE342
:10368000FEE3FEE3737570657277697365722020DF
:10369000000000007761746368646F672020202059
:1036A000202000006578742E7265736574202020D8
:1036B00020000000706F776572206F6E2020202040
:1036C00020000000202020C0E2E0F0E8FF20F1E52B
:1036D000F2E82121212020200000000020202020CD
:1036E0002020F3F1F2F0E0EDE5EDE02020202020B5
:1036F000000000002020305B5D2020303C20303E68
:103700003A303D3A302920200000000020202020BF
:103710002055ECE8ED3D20202BC220202020202049
:103720000000000020202020EDE520F3F1F2F0E081
:10373000EDE5EDE0202020200000000020202020EA
:103740002055F1E5F2E83D20202BC220202020204A
:103750000000000020202020202020C0E2E0F0E82F
:10376000FF202020202020200000000020202020FA
:1037700020E1E0F2E0F0E5E8204E2B2020202020A0
:103780000000000020202020EDE5F1E8ECECE5F25F
:10379000F0E8E8202020202000000000202020C2A7
:1037A000FBF0E0E2EDE8E2E0FEF9E8E9202020208D
:1037B0000000000020202020202020E7E0F0FFE48F
:1037C0002020202020202020000000002020202079
:1037D0002020E7E0E2E5F0F8E5ED202020202020A1
:1037E0000000000054F82120411C54F8200054F837
:1037F0002110FDF730FE9DF8240000223E21FCF749
:10380000EFFE9DF8250000223D21FCF7E9FE9DF822
:10381000260000222921FCF7E3FE9DF82200002269
:103820005B21FCF7DDFE9DF8200000223C21FCF727
:10383000D7FE9DF82100401E0C2801D38DF8216091
:103840009DF82100002207EB80005D21FCF7B5FE0A
:103850009DF831000022401C2B21FCF7C1FE9DF891
:103860002C0000224021FCF7BBFE9DF82D00002219
:103870002321FCF7B5FE9DF82E0000222421FCF741
:10388000AFFE9DF82A0000222521FCF7A9FE9DF835
:10389000280000225E21FCF7A3FE9DF82900401EAF
:1038A0000C2801D38DF829609DF82900002207EB30
:1038B00080002821FCF781FEA5F86460FFE2E0A00B
:1038C00042903FA80FC8FDF7C6FDC1E79DF8321032
:1038D000572902D042287ED0A6E0DFA03F90E4A086
:1038E0004090E9A04190AFF200704290ECA043906C
:1038F000F0A04490F5A04590FAA04690FFA0479014
:1039000099F90400C11C54F82130811C54F821207D
:10391000411C54F8200054F82110FDF79CFD9DF83F
:1039200031000022401C2121FCF75AFE9DF82C009A
:1039300000224021FCF754FE9DF82D000022232197
:10394000FCF74EFE9DF82E0000222421FCF748FED5
:103950009DF82A0000222521FCF742FE9DF8280050
:1039600000225E21FCF73CFE9DF82900401E0C2839
:1039700001D38DF829609DF82900002207EB800013
:103980002821FCF71AFE9DF8240000226921FCF78B
:1039900027FE9DF8250000226C21FCF721FE9DF8F2
:1039A000260000227321FCF71BFE9DF82200002256
:1039B0007121FCF715FE9DF8200000227221FCF712
:1039C0000FFE9DF82100401E0C2801D38DF82160C8
:1039D0009DF8210000E023E007EB80000022772122
:1039E000FCF7EBFDBDF918100A2091FBF0F080B256
:1039F00001222F21FCF7F4FD9DF82B009DF82F10DC
:103A0000012200EB012080B23C21FCF7E9FDBDF86A
:103A10001A0001223E21FCF7E3FDA5F864A04EE266
:103A20009DF832104B2906D053287ED049287CD0EF
:103A300056287BD054E2B7A03F90BCA0409092A003
:103A40004190AFF65C004290BEA0439099A0449094
:103A50009EA04590A3A04690C0A0479099F904006D
:103A6000C11C54F82130811C54F82120411C54F809
:103A7000200054F82110FDF7EEFC9DF831000022E3
:103A8000401C2121FCF7ACFD9DF82C0000224021B8
:103A9000FCF7A6FD9DF82D0000222321FCF7A0FDD8
:103AA0009DF82E0000222421FCF79AFD9DF82A00A3
:103AB00000222521FCF794FD9DF8280000225E21BC
:103AC000FCF78EFD9DF82900401E0C2801D38DF8CF
:103AD00029609DF82900002207EB80002821FCF7CF
:103AE0006CFD9DF8240000226921FCF779FD9DF80A
:103AF000250000226C21FCF773FD9DF826000022B2
:103B00007321FCF76DFD9DF8220000227121FCF766
:103B100067FD9DF8200000227221FCF761FD9DF8F1
:103B20002100401E0C2804D301E024E0D0E18DF8F0
:103B300021609DF82100002207EB80007721FCF72F
:103B40003CFDBDF8180001222F21FCF749FD9DF82E
:103B50002B009DF82F10012200EB012080B23C21A8
:103B6000FCF73EFDBDF81A0001223E21FCF738FDAE
:103B7000A5F864A0A3E17FA03F909DF832004C28F7
:103B800008D0542809D055280AD075280BD04F28C2
:103B90000CD00DE07DA040900AE082A0409007E0AC
:103BA00086A0409004E08BA0409001E08FA0409060
:103BB000AFF6CC1041909DF82000412803D19DF82C
:103BC000210041282AD00122002109F10400FCF73C
:103BD00030FBAFF2F8404290AFF2E840439099F9E1
:103BE0000400C11C54F82130811C54F82120411CD0
:103BF00054F8200054F82110FDF72DFC9DF8240006
:103C000000223E21FCF7ECFC9DF8250000223D211E
:103C1000FCF7E6FC9DF826000022F3E050E1FCE30F
:103C2000FCE3FCE3FCE3FCE3FCE3FCE3FCE3FCE39C
:103C3000FCE3FCE3FCE3FCE3FCE3FCE3FCE3FCE38C
:103C400020202020EDE520E7E0E2E5F0F8E5ED209A
:103C5000202020200000000020202020202020D034
:103C6000E0E7F0FFE42020202020202000000000DA
:103C70002020202020E1E0F2E0F0E5E8204E2120A5
:103C80002020202000000000202020CDE0F7E0EBE5
:103C9000EE202020202020202020202000000000D6
:103CA0002020202020202055E1E0F23D20203CC2B1
:103CB00000000000202020CAEEEDE5F620202020A4
:103CC0002020202020202020000000002020307113
:103CD00077202030722030693A306C3A30732020DF
:103CE0000000000020202020202020202055E1E09E
:103CF000F23D20203EC2202000000000202020CEE7
:103D0000F2E4E0EDEE202020202FE02AF72E202004
:103D1000000000002020CAEEEDF2F0EEEBFC20E502
:103D2000ECEAEEF1F2E82020000000002020202044
:103D3000202020E1E0F2E0F0E5E820202020202013
:103D40000000000020202020202020202055E1E03D
:103D5000F23D20203CC2202000000000202020A8AE
:103D6000ECEAEEF1F2FC2020202FE02AF72E2020B2
:103D700000000000202020C0E2E0F0E8FF20C1CFDA
:103D8000D1204E2B202020200000000020202020C9
:103D900020EEF2EAEBFEF7E8EBF1FF2020202020F6
:103DA00000000000202020202020EFE5F0E5E3F0D7
:103DB000E5E220202020202000000000202020E735
:103DC000E0E2FBF8E5EDEE2055E2FBF52E202020A9
:103DD00000000000202020E7E0EDE8E6E5EDEE2021
:103DE00055E2FBF52E20202000000000202020209E
:103DF000E7E0E2FBF8E5EDEE2049E2FBF5202020CC
:103E0000000000002921FCF7EBFB9DF822000022B6
:103E10005B21FCF7E5FB9DF8200000223C21FCF72C
:103E2000DFFB9DF82100401E0C2801D38DF8216096
:103E30009DF82100002207EB80005D21FCF7BDFB0F
:103E40009DF831000022401C2B21FCF7C9FB9DF896
:103E50002C0000224021FCF7C3FB9DF82D0000221E
:103E60002321FCF7BDFB00229DF82E00242109E050
:103E7000FEE3FEE3FEE3FEE3FEE3FEE3FEE3FEE33A
:103E8000FEE3FEE3FCF7ACFB9DF82A0000222521AF
:103E9000FCF7A6FB9DF8280000225E21FCF7A0FBA2
:103EA0009DF82900401E0C2801D38DF829609DF84B
:103EB0002900002207EB80002821FCF77EFBABE203
:103EC000AFF2A07042903FA80FC8FDF7C4FAB7E761
:103ED0009DF83110492903D19DF832104E2902D0A6
:103EE00056287ED0BBE00420A5F86400E6A03F90F1
:103EF000EBA04090BDF81A00012801D1EEA040903F
:103F0000AFF27C204190F2A04290F7A04390AFF234
:103F10005C204490AFF24C204590F9A046909DF86B
:103F2000200041280BD19DF82100412807D1FAA09B
:103F30004490FF48459046900220A5F8640099F906
:103F40000400C11C54F82130811C54F82120411C6C
:103F500054F8200054F82110FDF77DFA9DF8310047
:103F60000022401C2121FCF73BFB9DF82C00002285
:103F70004021FCF735FB9DF82D0000222321FCF7A2
:103F80002FFB9DF82E0000222421FCF729FB9DF831
:103F90002A0000222521FCF723FB9DF8280000229F
:103FA0005E21FCF71DFB9DF82900401E0C2801D363
:103FB0008DF829609DF82900002207EB80005B2125
:103FC000FCF7FBFA9DF8240000226921FCF708FBAE
:103FD0009DF8250000226C21FCF702FB9DF82600CD
:103FE00000E030E000227321FCF7FAFA9DF822008D
:103FF00000227121FCF7F4FA9DF8200000227221C2
:10400000FCF7EEFA9DF82100401E0C2801D38DF834
:1040100021609DF82100002207EB80007721FCF74A
:10402000CCFABDF8180001223C21FCF7D9FA9DF822
:104030001C009DF81D10012200EB012080B23E21E2
:10404000FCF7CEFAE8E19DF831104F2907D19DF831
:104050003210552903D19DF83310542902D04F282E
:104060007ED0B5E00420A5F86400B2A03F908CA0FB
:104070004090012801D190A04090AFF2F4304190DF
:1040800093A04290B1A04390AFF2D8304490AFF2E9
:10409000C4304590B3A046909DF8200041280BD134
:1040A0009DF82100412807D19BA04490A04845904D
:1040B00046900220A5F8640099F90400C11C54F848
:1040C0002130811C54F82120411C54F8200054F860
:1040D0002110FDF7C0F99DF831000022401C21217C
:1040E000FCF77EFA9DF82C0000224021FCF778FABC
:1040F0009DF82D0000222321FCF772FA9DF82E0076
:1041000000222421FCF76CFA9DF82A0000222521C8
:10411000FCF766FA9DF8280000225E21FCF760FAA1
:104120009DF82900401E0C2801D38DF829609DF8C8
:104130002900002207EB80005B21FCF73EFA9DF886
:10414000240000226921FCF74BFA9DF8250000228B
:104150006C21FCF745FA00229DF82600732100E04F
:104160002EE0FCF73DFA9DF8220000227121FCF7B9
:1041700037FA9DF8200000227221FCF731FA9DF8F1
:104180002100401E0C2801D38DF821609DF82100EC
:10419000002207EB80007721FCF70FFABDF818002A
:1041A00001223C21FCF71CFA9DF81C009DF81D1013
:1041B000012200EB012080B23E21FCF711FA2BE135
:1041C0009DF83110562903D19DF832104C2902D0A8
:1041D000542856D020E169A03F906EA04090AFF6E1
:1041E000F87041909DF82000412803D19DF82100EE
:1041F000412847D00122002109F10400FCF719F8F9
:10420000AFF628304290AFF61430439099F904008D
:10421000C11C54F82130811C54F82120411C54F851
:10422000200054F82110FDF716F99DF82400002213
:104230003E21FCF7D5F99DF8250000223D21FCF731
:10424000CFF99DF8260000222921FCF7C9F99DF835
:10425000220000225B21FCF7C3F99DF82000002218
:104260003C21FCF7BDF99DF82100401E0C2801D32C
:104270008DF821609DF82100002207EB80005D2170
:1042800094E0E3E0DAE0000020C0E2E0F0E8FF20A4
:10429000E2F5EEE4EDEEE3EE202020200000000049
:1042A00020EDE0EFF0FFE6E5EDE8FF2028E7E0EDA8
:1042B000E8E62E290000000020EDE0EFF0FFE6E543
:1042C000EDE8FF2028E7E0E2FBF82E2900000000DF
:1042D000202030255B2020305E2030403A30233AC9
:1042E000302420200000000020202020202020203A
:1042F00055E2F53D202020203CC220200000000097
:10430000202020202020202055E2F53D20202020C4
:104310003EC22020000000002020CDE520F3F1F275
:10432000F0E0EDE5EDE0202020202020000000005E
:10433000902A000020C0E2E0F0E8FF20E2FBF5EE6A
:10434000E4EDEEE3EE2020200000000020202020FD
:1043500020202055E2FBF53D202020203CC22020DB
:10436000000000002020202020202055E2FBF53D09
:10437000202020203EC220200000000020CFC5D0F9
:10438000C5C3D0D3C7CAC020D1C8D1D2C5CCDB20C9
:104390000000000020202020202020CFCE20D2CEE0
:1043A000CAD320202020202000000000FCF705F9BF
:1043B0009DF831000022401C2B21FCF711F99DF8DB
:1043C0002C0000224021FCF70BF99DF82D00002263
:1043D0002321FCF705F99DF82E0000222421FCF78B
:1043E000FFF89DF82A0000222521FCF7F9F89DF836
:1043F000280000225E21FCF7F3F89DF82900401EFA
:104400000C2801D38DF829609DF82900002207EBC4
:1044100080002821FCF7D1F89AE0CFE043E19DE14C
:10442000F7E120E347E379E382E3C6E3C6E3C6E3CB
:10443000C6E3C6E3C6E3C6E3C6E3C6E3AFF61C5075
:1044400042903FA80FC8FDF706F8B1E79DF831008C
:1044500053287DD19DF83200592879D19DF8330039
:10446000532875D10420A5F86400F0A03F90F5A072
:104470004090AFF2EC704190AFF2AC104290F7A0D8
:104480004390AFF2D0704490AFF2C0704590F9A065
:1044900046909DF8200041280CD19DF8210041282C
:1044A00008D1AFF28C104490F84845904690022015
:1044B000A5F8640099F90400C11C54F82130811C4E
:1044C00054F82120411C54F8200054F82110FCF726
:1044D000C2FF9DF831000022401C2121FCF780F82A
:1044E0009DF82C0000224021FCF77AF89DF82D0061
:1044F00000222321FCF774F89DF82E0000222421CD
:10450000FCF76EF89DF82A0000222521FCF768F8D8
:104510009DF8280000225E21FCF762F89DF8290032
:10452000401E0C2801D38DF829609DF82900002237
:1045300007EB80005B21FCF740F89DF82400002287
:104540006921FCF74DF800229DF825006C2100E060
:1045500088E2FCF745F89DF8260000227321FCF75D
:104560003FF89DF8220000227121FCF739F89DF8F0
:10457000200000227221FCF733F89DF82100401E34
:104580000C2801D38DF821609DF82100002207EB53
:1045900080007721FCF711F8BDF8180000223C21BB
:1045A000FCF71EF89DF81C009DF81D10002200EB82
:1045B000012080B23E21FCF713F853E2B44A7B9805
:1045C000105C552812D0B3A03F90B8A04090BDA079
:1045D0004190C2A04290C7A04390CCA04490D14843
:1045E0004590012B05DD89F804A006E0CEA03F90A0
:1045F000EBE7614501DA89F8041099F90400411CE0
:1046000054F8202054F82130CDA1D3A0FCF723FF8B
:104610000220FCF7ABFE99F902000022401C80B298
:104620005E21FBF7DDFF9A4999F902005031002223
:1046300031F810002121FBF7D3FF954999F90200C9
:104640005431002231F91000402107EB8000FBF7C4
:10465000B4FF8F4999F902005831002231F8100057
:104660002321FBF7BDFF8A4999F902005C3109E07B
:10467000ACE2ACE2ACE2ACE2ACE2ACE2ACE2ACE2CA
:10468000ACE2ACE231F8100000222421FBF7A8FFD5
:104690007F4999F902006031002231F8100025218C
:1046A000FBF79EFFDEE138B1012814D078487E3058
:1046B00061451FDA017121E09A4BAD4AADA1B3A06B
:1046C000FCF7C9FE0320FCF751FE714900207E3142
:1046D0004870087129E0A64A924B4832A5A1ABA0C8
:1046E000FCF7B9FE6A4900207E3108710220FCF710
:1046F0003DFE1AE0012B01DD80F804A090F90400D2
:10470000704507D19A4A874B48329AA19FA0FCF77F
:10471000A2FE07E0964B97A16033A3F118029BA07D
:10472000FCF799FE0220FCF721FE594F00227E374C
:10473000212197F90200401C80B2FBF751FF97F945
:1047400004109848405C2821FCF7C6FE97F9040045
:104750005B2110F80900FCF7BFFE83E138B10128A6
:1047600014D04B487E3061451FDA017121E06D4B5A
:104770007F4A80A18CA0FCF76EFE454900207E3167
:10478000487008710320FCF7F1FD29E0784A654B79
:10479000483278A184A0FCF75EFE3D4900207E31BE
:1047A00008710220FCF7E2FD1AE0012B01DD80F820
:1047B00004A090F90400704507D16D4A594B483266
:1047C0006CA179A0FCF747FE07E0694B69A1603353
:1047D000A3F1180274A0FCF73EFE0220FCF7C6FD10
:1047E0002B4F00227E37212197F90200401C80B216
:1047F000FBF7F6FE97F904106A48405C2821FCF7A5
:104800006BFE97F904005B2110F80900FCF764FEC9
:1048100028E138B1012806D01D487E30614503DA11
:104820000171EFE0CCE0DAE0E8E000002020C0E237
:10483000E0F0E8FF20EFE5F0E5E3F0E5E2202020FE
:1048400000000000202020202020F1E8F1F2E5EC1B
:10485000FB2020202020202000000000202054F1F8
:10486000E8F1F2E5ECFB203D2020203CB0D12020F7
:1048700000000000202054F1E8F1F2E5ECFB203DBF
:104880002020203EB0D1202000000000902A00000F
:10489000D200001020C2FBE2E5E4E5EDE02030218B
:1048A0002F4020202F3023200000000020CDEEECF0
:1048B000E8ED2EE5ECEA2E202020202024412AF7E6
:1048C0000000000020CDE0F0E0E1EEF2EAE0202080
:1048D0002020202025F72E200000000020CAEEED29
:1048E000F2F0EEEBFC20E5ECEAEEF1F2E82020201D
:1048F0000000000020C2FBF0E0E2EDE8E2E0FEF99B
:10490000E8E920E7E0F0FFE40000000020D0E0E765
:10491000F0FFE4FB20202020202020202020202049
:1049200000000000C5EB000020C2E2E5E4E5EDE098
:10493000202030212F4020202F3023200000000095
:104940002020202020C1C0D2C0D0C5DF204E5E2054
:10495000202020200000000020C1C0D2C0D0C5C946
:10496000CDDBC920C6D3D0CDC0CB202000000000B5
:10497000583100002020202020C1C0D2C0D0C5C89E
:10498000204E212020202020000000002020CACE20
:10499000CDD2D0CECBC820C5CCCACED1D2C8202053
:1049A000000000001BCA0720C2DBD0C0C2CDC8C2B5
:1049B000C0DED9C8C520C7C0D0DFC4DB00000000FE
:1049C000874B884AAFF2540187A0FCF744FD8C491D
:1049D0000020487008710320FCF7C8FC2BE0814AD6
:1049E0007F4B4832AFF274017FA0FCF734FD84495D
:1049F000002008710220FCF7B9FC1CE0012B01DD4E
:104A000080F804A090F90400704508D1754A744BF1
:104A10004832AFF2A00174A0FCF71DFD08E0714B15
:104A20006033A3F11802AFF2B4016FA0FCF713FDDD
:104A30000220FCF79BFC724F0022212197F9020013
:104A4000401C80B2FBF7CCFD97F904106D48405C28
:104A50002821FCF741FD97F904005B2110F80900BB
:104A6000FCF73AFD8DE35E4B67A0153B1A461146F5
:104A7000FCF7F1FC624F00233C3F082297F900004D
:104A8000012180B2FBF772FD97F90100002380B28B
:104A900009220121FBF76AFD97F90200002380B289
:104AA0000A220121FBF762FD99F9012007F1A0011B
:104AB000A420505465E352497B987E39085C552800
:104AC00029D057A03F90464B5BA1153B1A463F9813
:104AD000FCF7C1FC4A4F00233C3F082297F9000035
:104AE000022180B2FBF742FD97F90100002380B25A
:104AF00009220221FBF73AFD97F90200002380B258
:104B00000A220221FBF732FD99F9012007F1B401D5
:104B1000A420505435E34EA03F90D4E752A358A2AE
:104B20005DA13FA0FCF797FC0220FCF71FFC28E3E7
:104B30005FA23F9264A2409269A241926EA2429209
:104B4000734A439273A2449278A245927DA2469200
:104B500082A2479287A248928CA2499291A24A923D
:104B600096A24B929BA24C92A0A24D92A5A24E92CD
:104B7000AAA24F92AFA25092B4A25192B9A252925D
:104B8000BEA25392C3A25492C8A25592CDA25692ED
:104B9000D2A25792D7A25892DCA25992E1A25A927D
:104BA000E6A25B92EBA25C92F0A25D92F5A25E920D
:104BB000FAA25F92FFA2609208E2E3E2D4E3D4E3B8
:104BC000D4E3D4E3D4E3D4E3D4E3D4E3D4E3D4E32D
:104BD000D5E3D5E3D5E3D5E3D5E3D5E3D5E3D5E315
:104BE000C5EB000058310000202020202020D0C03C
:104BF000C7D0DFC4DB2020202020202000000000C0
:104C0000500100101BCA07202020C2E2E5E4E8F2B0
:104C1000E52020EFE0F0EEEBFC202020000000007B
:104C2000C4EBFF20E2E2E5E4E5EDE8FF20E1E0F29D
:104C3000E0F0E5E8000000002020EDE0E1E5F0E82C
:104C4000F2E520EFE0F0EEEBFC2020200000000079
:104C5000C4EBFF20E2FBE2E5E4E5EDE8FF20E1E064
:104C6000F22E2DE800000000204759465034383716
:104C7000355420202020202020202020000000006B
:104C800020D1E2E8EDF6EEE2EE2DEAE8F1EBEEF20D
:104C9000EDE0FF2000000000202020E2FBE1E5E83D
:104CA000F2E520E5E520F2E8EF20202000000000FA
:104CB00020D1F2E0EDE4E0F0F2EDFBE52020202051
:104CC000202020200000000020C2F0E5ECFF20E8BA
:104CD00020E4E0F2E020202020202020000000003E
:104CE00020D1F2F0F3EAF2F3F0E02020202020209F
:104CF000202020200000000020CAEBE8ECE0F2EACF
:104D0000EEEDF2F0EEEBFC20202020200000000071
:104D1000002C000020CCEDE5ECEEEDE8EAE02020F0
:104D200020202020202020790000000020C7E22E33
:104D3000F1E8E3ED2E202020282020202020202034
:104D40000000000020CEF2EAEBFEF7E5EDE8E520FA
:104D5000F1E8E3EDE0EBE020000000002020E0E2DD
:104D6000E0F0E8E82020202029202020202020201A
:104D70000000000020C0CFC220E8F1F2EEF7EDE81D
:104D8000EAEEE220202020200000000020CFE0F00A
:104D9000E0EBEB2EF0E0E1EEF2E0207A20202020A4
:104DA00000000000205420EFF0EEE2E5F0EAE820F9
:104DB0002020F6E5EFE820200000000020E1E0F2EE
:104DC000E0F0E5E8202020202071ECE8ED2E202006
:104DD0000000000020556D61783D2020202020201B
:104DE0002021C220202020200000000020556D69D5
:104DF0006E3D202020202020205AC220202020206C
:104E0000000000002055E130B03D2020202020206F
:104E10002040C22020202020000000002055E13248
:104E200030B03D20202020202023C2202020202020
:104E3000000000002055F1E8E3ED3D202020202077
:104E4000205EC220202020200000000020556D6937
:104E50006E2EF1E5F2E83D202026C2202020202001
:104E600000000000205530E13D202020202020209F
:104E7000203EC22020202020000000002049E1EA3E
:104E80002E3D202020202020206AC020202020200D
:104E9000000000002049E72EECE0F52E3D20202008
:104EA000204AC020202020200000000020496D6101
:104EB00078203D2020202020205D4120202020201F
:104EC0000000000020496D696E203D202020202038
:104ED000207B412020202020000000002055E2FB04
:104EE000F02EE7E0F02E3D2020205BC22020202085
:104EF000000000002054E72EE2EAEB2EE02EF12E17
:104F00002021F12020202020000000002074E82E25
:104F10006D61783D202020202024B04320202020D7
:104F2000000000002074E82EF1E8E3ED3D20202091
:104F3000207AB04320202020000000002074E1E00F
:104F4000F22E6D61783D20202062B0432020202089
:104F5000000000002074E1E0F22EF1E8E3ED3D20D6
:104F60002058B043202020200000000020C2EDE5A2
:104F7000F8EDE8E520E4E0F2F7E8EAE82020202078
:104F8000000000002045746865726E657420202062
:104F900020202020202020200000000020C0E4F05D
:104FA000E5F120F1F7E5F2F7E8EAE0202020202BF8
:104FB0000000000020CAEEEDF2F0EEEBFC20F1F074
:104FC0002EF2EEF7EAE8202000000000F0A2619245
:104FD000F5A26292FA4A6392FAA26492FF4A65923B
:104FE000022B02DD89F8040003E0614501DA89F84B
:104FF000041099F90400811C54F82130411C54F824
:10500000212054F82010F6A0FCF725FA0120FCF727
:10501000ADF999F90400132842DAB8F85C0030B110
:10502000E748002228219838FBF7C7FA04E000225D
:105030002821F1A0FBF7C1FAB8F8560028B10022E8
:105040002921EFA0FBF7B9FA04E000222921EEA004
:10505000FBF7B3FA98F81B00552878D06FF00302DD
:105060007921EBA0FBF7A9FAB8F84A000122212127
:1050700080B2FBF7B5FAB8F8580000225E2180B282
:10508000FBF7AEFAB8F85A000022262180B2FBF7EF
:10509000A7FAB8F86E0001223E2180B2FBF7A0FA11
:1050A000B8F850000022242180B2FBF799FAB8F832
:1050B000660002226A2180B2FBF792FAB8F8680013
:1050C00001225D2180B2FBF78BFAB8F86A00012259
:1050D0007B2180B2FBF784FAB8F86C0001224A21E8
:1050E00080B2FBF77DFAB8F870000022212180B26F
:1050F000FBF776FAB8F872000022712180B2FBF754
:105100006FFAB8F8520000227A2180B2FBF768FAF1
:10511000B8F878000022622180B2FBF761FAB8F893
:105120007A000022582180B2FBF75AFAB5F84E00F7
:1051300000222B2180B2FBF753FAB8F97C0098B11A
:105140000022512180B2FBF74BFA14E0FFE76FF029
:1051500007027921B0A0FBF730FA00227921B5F8D7
:105160004C00FBF73DFA7FE795486FF001025121B3
:10517000A438FBF722FAAB4800227721006BFBF73B
:1051800050F9E0E2AFF2D8423F92AFF2C44240920F
:10519000AFF2B44241928A4A4292AFF270424392D5
:1051A000AFF260424492AFF24C424592AFF23C42C1
:1051B00046929DA24792A2A24892A7A24992ACA26F
:1051C0004A92B1A24B92B6A24C92BBA24D92C0A2FF
:1051D0004E92C5A24F92CAA25092CFA25192D4A28F
:1051E0005292D9A25392DEA25492E3A25592AFF208
:1051F0006C225692E6A25792EBA25892F0A25992D4
:10520000F5A25A92FAA25B926D4A5C926DA25D92EF
:10521000724A5E92022B02DD89F8040003E06145C8
:1052200001DA89F8041099F90400811C54F821303E
:10523000411C54F8212054F8201069A0FCF70BF908
:105240000120FCF793F8B8F85C0030B15C4800220C
:1052500028219838FBF7B1F904E00022282166A044
:10526000FBF7ABF9B8F8560028B10022292164A059
:10527000FBF7A3F904E00022292163A0FBF79DF9C5
:10528000B8F84C000122402180B2FBF7A9F9B8F828
:105290004E000122232180B2FBF7A2F9B8F850009A
:1052A0000022242180B2FBF79BF9B8F852000022BB
:1052B0007A2180B2FBF794F9B8F8540000225B2100
:1052C00080B2FBF78DF9B8F84A000122212180B2A3
:1052D000FBF786F9B8F8760001225A2180B2FBF775
:1052E0007FF9B8F95E000A2790FBF7F080B2002240
:1052F0005E21FBF775F9B8F96000002290FBF7F02A
:1053000080B22621FBF76CF9B8F96200002290FB0D
:10531000F7F080B26A21FBF763F9B8F96400002264
:1053200090FBF7F080B24A21FBF75AF9B8F8700009
:1053300000227D2180B2FBF753F9688E002200EB3A
:1053400080004004000C5D21FBF74AF9B8F97200B7
:10535000A0B10022712180B2FBF742F9B5F85400E8
:10536000A8B16FF002024FE112E242E2D2E21AE388
:105370003CE33CE33CE33CE33CE33CE349E13BE32B
:105380003BE33BE33BE33BE33BE33BE33BE347E123
:1053900020E1E0F2E0F0E5E820202020202020209D
:1053A000205125200000000020D1E5F0E8E9EDFBC8
:1053B000E9204E202020202020202077000000001F
:1053C000002C000020CAE0EBE8E1F0EEE2EAE82081
:1053D000202020202020202000000000902A000013
:1053E0002020202020D3D1D2C0CDCEC2CAC82020B8
:1053F0002020202000000000C2DBCA2E0000000098
:10540000E0E2F2EEEC2E0000F0F3F7ED2E000000EB
:10541000E2FBEAEB2E000000F7E5F0E5E72079F18A
:105420002E000000080100102055E2FBF52E203D63
:10543000202020202020202040C22020000000002A
:105440002055E0E2F2EEED2E203D2020202020200D
:1054500023C22020000000002074E1EFF12EF1E8CB
:10546000E3ED203D202020207AB043200000000002
:105470002074E1EFF12E6D6178203D202020202066
:1054800024B04320000000002074F1E8F1F22E6DFA
:105490006178203D202020205BB0432000000000E8
:1054A000206455E1EFF12EE0E2E0F0203D202020E5
:1054B0005AC22020000000002055E1EFF12EE0E26A
:1054C000E0F0203D2020202021C22020000000000C
:1054D0002055E2F52EE0E2E0F02E6D6178203D20CF
:1054E00020205EC2000000002055E2F52EE0E2E040
:1054F000F02E6D696E203D20202026C200000000A5
:105500002055E2FBF52EE0E2E0F02E6D6178203DC3
:1055100020206AC2000000002055E2FBF52EE0E2E8
:10552000E0F02E6D696E203D20204AC20000000090
:105530002054E72EE0E22EF1E8E3ED2E203D20207E
:1055400020207DF10000000020CFEEF0EEE320F0FF
:10555000E5F1F3F0F1E02020202020200000000001
:1055600020E2E5EDF2E8EBFFF2EEF0E02020202073
:1055700020205DF70000000020D0E5EBE520202092
:10558000202020202020202020202020000000009B
:10559000204D4F44425553204144524553532020FF
:1055A0002020203C00000000204D4F444255532055
:1055B0004241554452415445202020200000000023
:1055C00020202020202020202020202020202020DB
:1055D00020203E300000000020C8E7ECE5F0E5EDBB
:1055E000E8E520F2EEEAE020202020200000000084
:1055F00020EDE0E3F0F3E7EAE8202020202020205F
:105600002020207B000000007B21FFA0FAF7D5FFBF
:105610000CE000227121AFF20820FAF7CEFF9DE6E0
:105620006FF006027B21FAA0FAF7C7FFB8F87800FE
:105630000022622180B2FAF7D3FFB8F87A00002284
:10564000582180B2FAF7CCFFB5F84E0000222B218A
:1056500080B2FAF7C5FFB8F97C0028B100225121C9
:1056600080B2FAF7BDFF05E06FF001025121EB486F
:10567000FAF7A3FFEA4800227721006BFAF7D1FE80
:1056800099F9040013280FDD688A38B1E3486FF0F8
:10569000020271210C30FAF790FF05E06FF003026F
:1056A0007121DE48FAF789FFB5F8500000223C214D
:1056B00080B2FAF795FFB5F8520000223E2180B281
:1056C000FAF78EFFB5F91800002802DDB0F5FA7F71
:1056D00005DD00226C21D148FAF76FFF04E00022BB
:1056E0006C2180B2FAF77CFFB5F844000022282133
:1056F00080B2FAF775FFB5F94600012824D00228D8
:1057000028D000222921C7A0FAF757FFB5F9480091
:10571000022825D0032829D004282DD0052831D0EF
:1057200000222621C2A0FAF748FFB5F85000002257
:105730003C2180B2FAF754FFB5F8520000223E2116
:1057400080B2FAF74DFF75E200222921BBA0FAF7DB
:1057500034FFDBE700222921BBA0FAF72EFFD5E7B3
:1057600000222621BBA0FAF728FFDEE7002226212F
:10577000BBA0FAF722FFD8E700222621BBA0FAF748
:105780001CFFD2E700222621BBA0FAF716FFCCE7C8
:10579000BCA23F92C1A24092C6A24192CBA2429229
:1057A000D04A43929D4ACC3A4492459298F81420AC
:1057B0002AB1CC4A98F82870153A44F82720614558
:1057C00002DA89F8041003E0022B01DD89F80400F5
:1057D00099F90400811C54F82130411C54F821200F
:1057E00054F82010C0A0FBF736FE0120FBF7BEFDE9
:1057F00020E298F80900401CC0B288F809000F2880
:105800000CD3002188F8091098F81C00401CC0B285
:1058100088F81C00032801D388F81C10B148153003
:105820003F902A38409098F81C0008B9B4A14191E3
:10583000012801D1B8A14191022801D1BCA0419019
:105840003FA9C1A00EC9FBF706FE99F901005E2130
:1058500050B101280DD0022810D0032813D00428FD
:1058600016D0052819D01CE06D487C3080F82A102D
:1058700017E06B487C3080F82D1012E068487C30CF
:1058800080F830100DE066487C3080F8331008E076
:1058900063487C3080F8371003E061487C3080F842
:1058A0003B10DFF8BC9299F8240000225E21FAF741
:1058B00097FE99F8280000222521FAF791FE99F821
:1058C0002C0000223C21FAF78BFE99F838000022C8
:1058D00007EB80003E21FAF770FEB9F83C00002289
:1058E0007B21FAF77DFE98F8150030B13A20FAF7DF
:1058F00010FD4B497C3120220A5499F83000794937
:1059000000EB40002D3908444FF0FF322621FAF712
:1059100054FE8FE193A23F9298A240929DA24192A1
:10592000A2A24292A7A243923C4AA4324492614569
:1059300001DA397102E0022B00DD387197F90400B9
:10594000811C54F82130411C54F8212054F82010B7
:10595000A2A0FBF780FD0120FBF708FD688B002269
:10596000402180B2FAF73CFEE88B0022212180B270
:10597000FAF736FEE88C0022242180B2FAF730FED6
:10598000288C00225E2180B2FAF72AFE688C002261
:10599000232180B2FAF724FEA88C0022242180B2B1
:1059A000FAF71EFE46E175A23F9292A240921B4A70
:1059B000A4324192614501DA397102E0022B00DD27
:1059C000387197F90400811C54F82130411C54F8B7
:1059D000212054F8201081A0FBF73DFD0120FBF7AA
:1059E000C5FCE88B0022212180B20FE123E188E190
:1059F000E7E132E2A2E2EEE3FDE3FDE3FDE3FDE3F6
:105A0000FDE3FDE3FDE3FDE3F8F3EDF2000000004C
:105A1000F1F3ECEC49E1EFF1000000005C2B000039
:105A200008010010332DF520F1F2F3EF2E000000F5
:105A3000F1F2E0EDE4E0F0F200000000312DEE20A4
:105A4000F1F2F3EF2E000000322DF520F1F2F3EF2A
:105A50002E000000F1F2E0EDE4E0F0F22F32000061
:105A6000F1F2E0EDE4E0F0F22F330000F1F2E0EDCE
:105A7000E4E0F0F22F340000F1F2E0EDE4E0F0F2C7
:105A80002F35000020C8CFD13338302F3232302D9F
:105A90003435C0D2CAC831370000000020C8CFD189
:105AA0003232302F3232302D3130C0D2CAC8313785
:105AB0000000000020C8CFD13338302F3131302DD5
:105AC0003930C0D2CAC839200000000020C8CFD168
:105AD0003338302F3232302DD2CAC831382020200E
