:020000040000FA
:10000000280B0010E1000000E5000000E700000000
:10001000E9000000EB000000ED000000000000001F
:10002000000000000000000000000000EF000000E1
:10003000F100000000000000F30000005358000031
:10004000F7000000A5020000D9020000F700000040
:10005000F7000000F7000000F7000000F7000000C4
:10006000F7000000F7000000F7000000F7000000B4
:10007000F7000000F7000000F7000000F7000000A4
:10008000F7000000F7000000F7000000F700000094
:10009000F7000000F700000013100000F700000058
:1000A000F7000000F7000000F7000000F700000074
:1000B000F7000000F7000000F7000000F700000064
:1000C000F7000000F7000000F7000000DFF80CD098
:1000D00007F074FB004800478F590000280B001000
:1000E00005480047FEE7FEE7FEE7FEE7FEE7FEE71E
:1000F000FEE7FEE7FEE7FEE7CD00000030B54FF07B
:1001000000003D4BA3F1140202F10A04115C61B13D
:10011000255CA94209D1195C39B1A1F10101C9B22B
:10012000195411B94FF000011154115C215400F120
:100130000100C0B20A28E9D330BD70B54FF0000409
:100140002D4EA6F1140604F10104E4B2355D1DB193
:10015000854201D00A2CF6D3305527480C3040F8A0
:100160002410283040F824203438035570BD4FF057
:100170000001214AA2F1140201F10101C9B2535C4C
:10018000834201D00A29F7D3535C834212D11A4823
:100190000C3050F8213019480360174B343353F8B2
:1001A000213043604FF000005054134A50544FF038
:1001B00001007047002070474FF000010E4AA2F185
:1001C000140201F10101C9B2535C834201D00A2932
:1001D000F7D3525C82420CD107480C3050F82120F2
:1001E00006480260044A343252F82110416001206E
:1001F000704700207047000088C5072028C00720EE
:10020000114A9060117070470F4A9068002807D01B
:10021000401E906004D11078002140B200F0ACBACA
:1002200070470949C88070470749B1F9060000289E
:1002300009D0A0F1010000B2C880002803D1014616
:10024000084600F099BA704730C0072090F9003096
:100250008B4200DA027090F90030934200DD0170A9
:10026000704790F900308B4200DA017090F900106D
:10027000914200DD02707047B0F900308B4200DA25
:100280000180B0F90010914200DD02807047B0F9A2
:1002900000308B4200DA0280B0F90030934200DD7A
:1002A000018070474FF040214FF0010008600F4877
:1002B000016801F1010101600D494FF00000087073
:1002C0000C48016821F0FF0101F10401016001689F
:1002D00041F080710160704707494FF001000860EC
:1002E0000248416801F101014160704710030010AC
:1002F00000C007200040034000800040FFFFFFFFD8
:100300004FF00000F94A4FF02001115400F10100B4
:10031000C0B2C828F9D3704701464FF00000F34A35
:1003200000F10100C0B2135C8B4201D0C828F7D3A2
:10033000704710B54FF00001ED4C4FF00A02034634
:10034000B0FBF2F002FB1033635401F10101C9B2BA
:100350000529F4D310BDF0B5E64D4FF00101297029
:100360004FF00501E24B4FF020064FF000072A78CE
:1003700042B15A1812F8014C24B9814202D902F84C
:10038000016C07E003EB010212F8014D04F13004A7
:1003900014702F70A1F10101C9B20029E7D1F0BD9D
:1003A000FEB503464FF02B07002B04DAC3F1000023
:1003B00003B24FF02D074FF000004FF00A046D46D6
:1003C00093FBF4F604FB16332B5433B200F1010017
:1003D00040B20A28F4DB4FF001034FF000044FF065
:1003E00009004FF0200643B115F800C0BCF1000F22
:1003F00003D1904201DD2E5408E02B5C03F1300361
:100400002B544FF0000304F10104E4B2A0F1010009
:1004100040B20028E7DA2D2F04D1204604F1010470
:10042000E4B22F548AB160B207E005EB000313F881
:10043000013C2B54A0F1010040B29042F5DC4FF09A
:100440002E00A85404F10104E4B20846FFF764FF4B
:100450004FF00001A54A06E0A0EB01066B5C935546
:1004600001F1010149B2A142F6DBFEBD2DE9FE41D9
:100470004FF02B0C002803DAC0F100004FF02D0CD8
:100480004FF000044FF00A056F46064690FBF5F06A
:1004900005FB10663E5504F1010464B20A2CF4DB3E
:1004A0004FF001054FF000044FF009004FF0200617
:1004B00045B117F80080B8F1000F03D1984201DD73
:1004C0003E5408E03D5C05F130053D544FF0000519
:1004D00004F10104E4B2A0F1010040B20028E7DA1F
:1004E000BCF12D0F05D1204604F10104E4B207F858
:1004F00000C08BB160B207E007EB000515F8015CA6
:100500003D54A0F1010040B29842F5DC4FF02E00BE
:10051000F85404F10104E4B201EB810002EB800025
:10052000C1B24FF00000714A06E0A1EB00053B5C50
:10053000535500F1010040B2A042F6DBBDE8FE8158
:1005400070B50D4616461C46FFF7F3FE601CC0B2A0
:10055000FFF701FF05EB850006EB8000C1B24FF00D
:100560000000634B614DA04201D21A5C6A5407D36C
:100570001A5C202A04D064B105EB010606F8012CB0
:10058000A1F10101C9B200F10100C0B20528EAD30E
:1005900070BD6A54F4E730B5044608461546FFF7C7
:1005A000BBFEFF280CD0514A07E000EB050304F125
:1005B0000104D15400F10100C0B221780029F4D126
:1005C00030BD70B50D461446FFF7B3FE601CC0B2D7
:1005D000FFF7C1FE2846FFF79FFE4FF00001444A97
:1005E000424D24B9535C202B01D02B5415E0A1427D
:1005F00002D2535C2B5410E008D14FF02E032B5441
:1006000005EB0006535C06F8013C06E0535C202B2A
:1006100003D005EB000606F8013CA0F10100C0B2D2
:1006200001F10101C9B20529DBD370BD17B501EB9A
:10063000810002EB8000C2B29DF800302E4803F02A
:100640000F01445C29498C54A2F10102D2B200EBA3
:1006500013131B788B54A2F10102D2B29DF8013022
:1006600003F00F04045D8C54A2F10102D2B200EB3E
:1006700013131B788B54A2F10102D2B29DF8023001
:1006800003F00F04045D8C54A2F10102D2B200EB1E
:1006900013131B788B54A2F10102D3B29DF80320EF
:1006A00002F00F04045DCC54A3F10103DBB200EBB4
:1006B00012100078C8541EBD30B5104901240B4BF0
:1006C00091F9012091F904108A4204D100EB8000D5
:1006D00003F8204030BD4D1CAA4211D100F10100A9
:1006E00000EB800003F8204030BD0000FC0000104B
:1006F000FCC0072001C107207B820000E000001041
:100700008D1CAA4206D100F1020000EB800003F824
:100710002040E9E7CD1CAA4206D100F1030000EB1E
:10072000800003F82040DFE70D1DAA4206D100F14A
:10073000040000EB800003F82040D5E74D1DAA42DD
:1007400006D100F1050000EB800003F82040CBE764
:100750008D1DAA4206D100F1060000EB800003F8CF
:100760002040C1E7C91D8A42BED100F1070000EB5D
:10077000800003F82040B7E7824B1A88A2F10102FB
:10078000104400B21880804A00EB800002447F4889
:100790001368036012790271427811444170704706
:1007A00070B5784DB5F9004004F101062E80764D04
:1007B00004EB84042544754C26682E6026792E713E
:1007C000207061702271A37070BD2DE9F0418046E8
:1007D0000F461646FFF794FD6D4C4FF0000518F8D4
:1007E000010B04F8010B05F10105EDB2142DF6D350
:1007F0004FF0000017F8011B04F8011B00F1010085
:10080000C0B21428F6D34FF0000016F8011B04F80C
:10081000011B00F10100C0B21428F6D34FF0000014
:1008200013F8011B04F8011B00F10100C0B21428E9
:10083000F6D3BDE8F08110B5029CFFF7C6FF534820
:10084000C378827841784720FFF7AAFF642094FBA1
:10085000F0F0BDE81040C0B2FFF7E3BC2DE9FE4365
:100860000D464FEA401000F58060044602A920467C
:1008700006F0EBFD01A904F1080006F0E6FD69466B
:1008800004F10C0006F0E1FD2846FFF745FD404C61
:100890004FF0200600F10101C9B226544FF0300795
:1008A00001F10100C0B267544FF0210800F10101CD
:1008B000C9B204F800804FF0400901F10100C0B254
:1008C00004F8019000F10101C9B2265401F10100C0
:1008D000C0B2665400F10101C9B227544FF023029F
:1008E00001F10100C5B262549DF806004FF000020C
:1008F0004FF02101FFF765FE9DF80400002223213F
:10090000FFF75FFE9DF80500401E0C2803D34FF053
:1009100001008DF805009DF805001E49002201EB3D
:1009200080004021FFF737FE05F10100C0B2665597
:1009300000F10101C9B2275401F10100C0B204F86D
:1009400001804FF03A0200F10101C9B2225401F1D5
:100950000100C0B2675400F10101CDB204F800906B
:100960009DF800004FF000024FF02101FFF729FE33
:100970009DF8010000224021FFF723FE6655BDE8E7
:10098000FE8300003C0000107BCA0720E00000103E
:10099000FC000010F081000070B5FF4C608A401C24
:1009A00000B26082B0F5E16F02DB4FF000006082C0
:1009B000B4F91200B0F5DF6F11D90F2301226421C1
:1009C000D220FFF7BAFB0F230022D821D720FFF750
:1009D000B4FB0F230022D821DC20FFF7AEFBB4F9D3
:1009E0001200A0F5E061073918D1EC4EEC4CED4D4A
:1009F00030882188884205D0B4F90010B5F900008C
:100A000006F063FD70886188884207D0B4F902104F
:100A1000B5F90200BDE8704006F057BD70BDF0B5F5
:100A2000E14BB3F90400E149B1F9001041434FF43F
:100A3000FA6291FBF2F1DE4A1180B3F90210DD4A4D
:100A4000B2F9002001FB02F14FF4FA7491FBF4F1CA
:100A5000D94A1180D94AB2F9002000FB02F292FB78
:100A6000F4F2D74D2A80A1EB0201D64A1180D64973
:100A7000B1F9001000FB01F0D4490988A1F5AA42A0
:100A8000FA3A04D14FF4C87190FBF1F001E090FB09
:100A9000F4F0CF490880B3F90A1040F6B734A1F258
:100AA000213001260025CB4AA04201D2157000E07A
:100AB0001670C948B0F90000414344F6206C91FB20
:100AC000FCF1A1F21111C54F3980B3F90C10A1F25C
:100AD0002133A34201D2157000E01670484390FB09
:100AE000FCF0A0F211103880BD490880DFF8F4C294
:100AF000BCF80010BC4EB6F9000000FB01F04FF44A
:100B00007A6490FBF4F0B94B80B21880B84964283D
:100B100001D2088002E0B74800880880BCF80210C3
:100B2000B6F90200484390FBF4F05880B248B0F99F
:100B30000010B24BB3F900404C4341F2707194FB8A
:100B4000F1F6AF4C2680B0F902C0B3F9026006FBA3
:100B50000CF696FBF1F66680B0F90460B3F9043048
:100B600003FB06F393FBF1F3A380B0F90640A54B1A
:100B7000B3F9006006FB04F696FBF1F6A24C268062
:100B8000B0F908C0B3F9026006FB0CF696FBF1F66B
:100B90006680B0F90A60B3F9040000FB06F090FB30
:100BA000F1F0A0807888994E00F2111003B23380E2
:100BB000B88800F2111004B27480517831729078C4
:100BC0007072934A01B910B101290AD00AE003EB0F
:100BD000040000EBD0706FF4887101EB60001080AE
:100BE0001CE008B121B105E0A4F21114148015E055
:100BF000012802D0012904D010E0A3F211131380C0
:100C00000CE001280AD183480078052803D28248E5
:100C10000088108002E04FF0140010807F480580AB
:100C20007F480580F0BD7F48416821F4402141F4B0
:100C300080214160416821F4403141F480314160BC
:100C4000416821F4404141F480414160416C21F40C
:100C5000402141F400214164416C21F4403141F4D0
:100C600000314164416C21F4404141F40041416450
:100C70006D48016821F0E0610160016841F40011F4
:100C80000160016821F480310160016821F47F4135
:100C900041F4807101604FF48071C16063484FF48A
:100CA0008001016070472DE9F0413B4C14346088AD
:100CB0002188401A00B200F04CF9A61D3080A088AF
:100CC0006188401A00B200F044F97080A088218841
:100CD000401A00B200F03DF9B0804FF496712E4DED
:100CE000884202DAA08828810CE0B6F90200884226
:100CF00002DA6088288105E0B6F90000884201DA4E
:100D0000208828816F78002637B32748B5F9081066
:100D1000203002680A44026042680A4442608268E5
:100D20000A448260C2681144C160298A01F101014C
:100D300009B22982B1F5805F00DB2E82B5F910106F
:100D40008A057ED14FEAA12150F821204FEA2222C4
:100D5000EA8040F8216074E03548AC78EA7800EB2E
:100D60008413B5F9081043F8221090070DD10146FD
:100D700053F820C0614400F10100C0B21028F7D33D
:100D80004FEA2110084921F81400641CE0B2A87051
:100D9000102856D3AE704DE000C0072044C0072095
:100DA00022030010EC7B000034C507204CC0072054
:100DB000940000104A0200109800001052C0072052
:100DC0009C000010F002001050C0072092C00720C5
:100DD00096000010C300001040020010EA0000104E
:100DE0009E00001004C107203A020010F202001019
:100DF000F8020010A2000010AECA07200CC10720A4
:100E0000F0000010FC020010F60000104ACA072093
:100E1000B000001031000010FA020010FAC00720E4
:100E200002C1072000C002400040034000E100E092
:100E300034C1072002F10102D0B2E870102800D3BB
:100E4000EE702E7007F1010707F001006870304A5C
:100E500030B1106820F0FF0000F1040010603DE0A8
:100E6000A978080706D4106820F0FF0000F10100FF
:100E7000106005E0106820F0FF0000F10200106033
:100E80002448036843F080530360036A43F08043BF
:100E90000362036E43F080630366CB070AD04369A5
:100EA00043F0805343618B0709D4436B23F08043A5
:100EB000436308E0436923F080534361F3E7436BE6
:100EC00043F080434363490704D4416F21F08061BC
:100ED000416703E0416F41F080614167106840F075
:100EE00080701060BDE8F0810A48016841F48071AB
:100EF0000160094909780C2904D0416941F48071E5
:100F000041617047416921F48071416170477047C8
:100F10000040034000C00920E000001010B50A287E
:100F200003D0BDE8104006F0DABB0D2006F0D7FB79
:100F3000BDE810400A2006F0D2BB10B50446E0B26E
:100F4000FFF7ECFF204610BD4FF01100FF4908727B
:100F50007047002801DA404200B2704770B5FC4E7D
:100F600040F6B8350121B6F90040FA4800224FF4A6
:100F70007A73AC4201DD017002E09C4200DA02703B
:100F8000B6F90E40AC4201DD417002E09C4200DA4D
:100F90004270B6F91040AC4201DD817002E09C4223
:100FA00000DA8270B6F90240AC4201DDC17002E0A5
:100FB0009C4200DAC270B6F90840AC4201DD017112
:100FC00002E09C4200DA0271B6F90640AC4201DD53
:100FD000417102E09C4200DA4271B6F90440AC4231
:100FE00001DD817102E09C4200DA8271B6F90C40A9
:100FF000AC4201DDC17102E09C4200DAC271B6F977
:101000000A40AC4201DD017270BD9C42FCDA027202
:1010100070BD10B5D049086820F0E06008604868ED
:10102000CF4AC0F30B13CD4C107824F8103000F1E8
:101030000100C0B21070032803D2086840F080702D
:10104000086010BD1FB5C748007808B3C54A002323
:10105000D43A5179491CC9B2092821D0032850D06B
:1010600004287ED001287DD002287CD005287BD0A2
:1010700006287AD0072879D0082878D00A2877D08F
:101080000B2876D104B0B8A0BDE8104006F0C6BB6E
:1010900004B00722BDE810401921B6A006F0BEBB7F
:1010A0005171052900D35371507948B14FF00001B7
:1010B0000A46AC48A0F11A000378012B08D00AE0D8
:1010C00004B00B22BDE810402621AAA006F0A6BB62
:1010D0004FF001010A464378012B04D141F002018F
:1010E00002F10102D2B28078012804D141F004015A
:1010F00002F10102D2B204B0A1A0BDE8104006F096
:101100008DBB5171052900D35371507990B3A0481C
:10111000028B4FF06401B2FBF1F301FB1324027D5B
:10112000B2FBF1F301FB132383EA0403027AB2FB5F
:10113000F1F401FB142484EA0304027BB2FBF1F313
:1011400001FB132383EA04030279B2FBF1F401FBF0
:10115000142484EA03040278B2FBF1F301FB1321A7
:1011600009E022E02BE03EE047E05AE063E068E07F
:101170006DE011E011E081EA040102780379047B5B
:10118000CDE9022104F10104CDE90043037A027D97
:10119000018B80A006F042FB1FBD04B00222BDE817
:1011A00010400B2173A006F039BB5171052900D303
:1011B000537104B080A0BDE8104006F02FBB517100
:1011C000052900D35371507928B104B07DA0BDE842
:1011D000104006F023BB04B00222BDE810400C21F1
:1011E00064A006F01BBB5171052900D3537104B0F4
:1011F00076A0BDE8104006F011BB5171052900D35F
:101200005371507928B104B073A0BDE8104006F0C6
:1012100005BB04B00222BDE81040112155A006F024
:10122000FDBA5171052900D3537104B06CA0BDE81B
:10123000104006F0F3BA04B06BA0BDE8104006F011
:10124000EDBA04B06AA0BDE8104006F0E7BA04B0F9
:101250006AA0BDE8104006F0E1BA10B5414C4FF06D
:101260001800A4F1B404E071207800F1010040B24C
:1012700004F82009182803DD4FF0FB0084F8200053
:1012800094F92000002811DB18280FDC2120FEF73C
:1012900093FF002809D05C480088222805D13148F6
:1012A00094F9201090F90200884210BD411CFCD036
:1012B000811CFAD0C01CF8D1E07800F10100E07088
:1012C00010BD2DE9F0414FF00000504B01464FF4A6
:1012D000F472195400F1010000B29042F9DB4FF0B2
:1012E00000024FF0140C4FF07A0102FB01F002EB08
:1012F00082014FEA810109B202EB82040CEB840700
:1013000089E0184C424E1C34645C04EB440500F147
:10131000010416F8158003F8008006EB450004F17F
:10132000010645781D55847806F101059C55C47861
:1013300005F101065C55057906F101049D554579D5
:1013400004F101001D5501F1010163E0004002407C
:1013500034C5072072CA07200040034014C007208C
:1013600000C00720E000001044454641554C540A97
:10137000000000004F4B256443524325640A0000DF
:101380004F505452256443524325640A0000000024
:1013900024400240444154412530326425303264B7
:1013A0002530326425303264253032642530326491
:1013B00043524325640A000054494D455354415259
:1013C000540A000057415445520A00005741545FE7
:1013D0005245540A000000004149520A0000000032
:1013E00041495F5245540A00494E5445520A000093
:1013F000494E54455F5245540A00000050524F4236
:1014000045534D530A00000028C00720FCC50720A3
:10141000F07B000009B28F423FF773AF02F1010287
:1014200012B2042AFFF65FAFBDE8F0812DE9F04F5C
:10143000C9B0DFF860A3DFF860B350469AF8001037
:101440000AF11C0790F904000DACA7F1F00551B1A9
:1014500007297DD009297CD001297BD005297AD0A4
:101460000A2979D04CE1CDA10D91D2A10E91D7A13D
:101470000F91DCA11091E1A11191E6A11291EBA1D4
:101480001391F0A11491F5A11591FAA11691FFA164
:1014900017919AF901100A1A012A04DDA1F101013C
:1014A0008AF8041003E0814201DA8AF804109AF9FC
:1014B0000400C11C801C54F8213054F82020DDE9C0
:1014C0000D01FFF782F9F74E307A4FF000024FF02E
:1014D0002501FFF776F8307900225E21FFF771F8D9
:1014E000307800222621FFF76CF8307B00223C2167
:1014F000FFF767F8B08B00227B21FFF762F8317E9F
:10150000E948002200EB81003E21FFF744F8A87C67
:1015100070B13A20FEF700FF4FF020063E544FF026
:101520003A00FEF7F9FE3E543A20FEF7F5FE3E542F
:101530000220FFF7C1F8DD480088A0F5F040A0F5D3
:10154000EB60002801DA4FF0000000EB800004E0BF
:1015500021E02AE0B7E0C0E0C9E04FEA40004FF0E8
:10156000FF0190FBF1F04FF000034FF006024FF047
:10157000010180B2FEF7E4FFBBF91400022300EB87
:10158000800041003E2091FBF0F080B2102201214A
:10159000FEF7D6FFB4E0C6A3CBA2D1A1D6A0FFF739
:1015A00014F90320FFF788F8AAE04FF00A016976E2
:1015B000D7A10191DCA10291E1A10391BA4901F106
:1015C0006101049100F1020201A951F8223000F1F9
:1015D000010251F8222051F82010DFA0FFF7F5F8A2
:1015E0009AF901009AF90410421A022A04DDA0F1C6
:1015F00002008AF8040003E0884201DA8AF8040055
:101600000120FFF759F8634E6FF003081A3EB078D7
:10161000012843D042462121D5A0FEF7BCFF7078B7
:10162000012842D042462521D1A0FEF7B4FF3078F0
:10163000012841D042462821CDA0FEF7ACFFCE4E76
:1016400000224021B079FEF7BCFFF079002223216F
:10165000FEF7B7FF307A00222421FEF7B2FFF078C0
:1016600000225E21FEF7ADFF307900222621FEF731
:10167000A8FF707900222A21FEF7A3FF307800220C
:101680002921FEF79EFF707800222D21FEF799FF99
:10169000B07800223D21FEF794FF31E06FF00202A6
:1016A0002121B6A0FEF777FFB9E76FF002022521EE
:1016B000B2A0FEF770FFBAE76FF002022821AFA0D8
:1016C000FEF769FFBBE77AA3AEA2B4A1B9A0FFF70A
:1016D0007CF80320FEF7F0FF12E075A3BBA2AFA1D8
:1016E000B4A0FFF772F80320FEF7E6FF08E070A34E
:1016F000BCA2C2A1C7A0FFF768F80320FEF7DCFF79
:101700009AF800000C2808D169A3C8A2CDA1D3A0E3
:10171000FFF75BF80320FEF7CFFF9AF800000D28D3
:1017200005D1D4A3D9A2DFA1E4A0FFF74EF8194E4A
:101730009AF80000543E4FF000080B2821D04F28A3
:1017400020D0DFF834924128A9F166091BD0432844
:101750001AD006F134090F2817D01028FCD03928E8
:10176000FAD02228F8D0311D30280FD031280ED0E1
:1017700003280DD004280CD00628FCD00228FAD06B
:10178000A8E1CEE1D5E12FE289E2E3E208E331E32B
:1017900031E319E2E000001034C507202030253A7B
:1017A000305E3A302620303C2F3E20202F307B20E8
:1017B0000000000020202020202020ECC02020203D
:1017C00020202E2020C220200000000020CFEEEBA1
:1017D000EDE0FF20EFF0EEE2E5F0EAE0202020204F
:1017E0000000000020D3F1F2E0EDEEE2EAE020E2BA
:1017F000F0E5ECE5EDE820200000000020CAEEED69
:10180000F2F0EEEBFC20E8EDF2E5F0F4E5E9F1E0D2
:101810000000000020CAEEEDF2F0EEEBFC20EEEF4F
:10182000F2F0EEEDEEE220200000000020C4E0F235
:10183000F7E8EA20E2EEE7E4F3F5E02020202020BC
:101840000000000020C4E0F2F7E8EA20E2EEE4FB4A
:1018500020202020202020200000000020CFF0EEBB
:10186000E1EDE0FF20F1ECF12020202020202020DD
:101870000000000020D2E5F1F220E2FBEAEBFEF7E7
:10188000E5EDE8FF202020200000000020C7E0E276
:10189000EEE4F1EAE8E520F3F1F2E0EDEEE2EAE869
:1018A0000000000020400240F08100001A030010F8
:1018B00020C2FBF5EEE42020202020202020202044
:1018C0002020202000000000202020202020C1C84F
:1018D000CFCFC5D0C0202020202020200000000035
:1018E000202020202020CACDCECFCECA20202020EC
:1018F000202020200000000020CFD0CEC2C5D0CABA
:10190000C020C8CDC4C8CAC0D6C8C82000000000C6
:1019100020CEEFF2F0332020202020212020202094
:10192000402324200000000020CEEFF2F0322020DF
:1019300020202025202020205E262A2000000000D4
:1019400020CEEFF2F031202020202028202020205F
:10195000292D3D200000000020CACECDD2D0CECB14
:10196000DC20CECFD2D0CECDCEC2202000000000D1
:10197000C2DBCACB2E00000072CA0720C2CACB2E1F
:101980000000000020202020C4C0D2D7C8CAC02038
:10199000C2CEC4DB20202020000000002020202018
:1019A000D2C5CCCFC5D0C0D2D3D0C02020202020DB
:1019B0000000000020CDC020CBC5C2CECC20C8CDB9
:1019C000C4C8CAC0D2CED0C5000000002020C4C008
:1019D000D2D7C8CAC020C2CEC7C4D3D5C020202009
:1019E0000000000020202020202020D1CCD1202069
:1019F0002020202020202020000000002020202067
:101A000020CFD0CEC1CDCEC9202020202020202024
:101A1000000000002020202020CED2CFD0C0C2CA9B
:101A2000C020202020202020000000002020202096
:101A3000202020D1C5D2C8202020202020202020F6
:101A400000000000202020CDC020CFD0CECFC0C4C9
:101A5000C0CDC8C520202020000000002020CFD00D
:101A6000CEC2C5D0CAC020D0C5C0CAD6C8C82020E2
:101A700000000000202020202020202020202020E6
:101A800020202020202020200000000020202020D6
:101A9000202020D7C0D1CEC22020202020202020EE
:101AA00000000000202020202020CDC020D5CEC462
:101AB00020202020202020200000000020CEC1D0A7
:101AC000C0D2C8D2DC20C2CDC8CCC0CDC8C5202071
:101AD00000000000082877D0122876D0132875D08F
:101AE0004FF47A77162872D0142871D0152870D048
:101AF0002B286FD02C286ED02A2800F0A58601F163
:101B0000330901F15A073B2800F0D9863D2800F03F
:101B10003387282801F055804E2801F08D8001F090
:101B2000DAB8AFF2B003B4A2B9A1BFA0FEF74DFE80
:101B3000F5E7C3A00D90C8A00E90CDA00F90D2A045
:101B40001090D7A01190DCA01290E1A01390E6A015
:101B50001490EBA01590F0A01690F5A01790FAA0A5
:101B60001890FFA01990AFF2B822B5F96A0000F101
:101B7000010144F82120AFF2041200F1020144F8FF
:101B80002120AFF2101100F1030044F820109AF95F
:101B9000040000F1030154F8213000F1020100F1CA
:101BA000010054F8212054F820100D98FEF70DFE86
:101BB0009AF901009AF90410421A022A0CDDA0F1E8
:101BC00002008AF804000BE0E1E2E8E24CE3A4E35F
:101BD000FEE3FEE3FEE3FEE3884201DA8AF8040056
:101BE0000120FEF769FD9AE7B6F9141051B10129F9
:101BF00016D09AF901009AF9042090421CDA8AF86A
:101C0000040020E0DC4BDDA2E2A1E8A0FEF7DDFD50
:101C10008AF801808AF804800320FEF74DFD27E052
:101C2000D54BE8A2DBA1E1A0FEF7CFFD8AF8048046
:101C30000220FEF741FD1BE0821A012A03DDA0F11C
:101C400001008AF804009AF90400491E884206D16E
:101C5000C94BDCA2CFA1D5A0FEF7B7FD05E0DFA3FD
:101C6000D8A2CCA1D1A0FEF7B0FD0220FEF724FD42
:101C70009AF902000022401C80B22121FEF7A1FC4B
:101C80009AF90410DB48405C2821FEF7E7FD9AF939
:101C900004005B2110F80900FEF7E0FD3FE7B6F90C
:101CA000141051B1012916D09AF901009AF90420B3
:101CB00090421CDA8AF8040020E0AF4BAFA2B5A135
:101CC000CDA0FEF782FD8AF801808AF80480032007
:101CD000FEF7F2FC27E0A84BBAA2AEA1C6A0FEF721
:101CE00074FD8AF804800220FEF7E6FC1BE0821AED
:101CF000012A03DDA0F101008AF804009AF904002A
:101D0000491E884206D19C4BAEA2A2A1BAA0FEF702
:101D10005CFD05E0B1A3ABA29EA1B7A0FEF755FD07
:101D20000220FEF7C9FC9AF902000022401C80B292
:101D30002121FEF746FC9AF90410AE48405C2821A8
:101D4000FEF78CFD9AF904005B2110F80900FEF7FC
:101D500085FDE4E6884BAEA0153B1A461146FEF71A
:101D600034FD99F90000002380B208220121FEF71A
:101D7000E7FB99F90100002380B209220121FEF757
:101D8000DFFB99F90200002380B20A220121FEF74D
:101D9000D7FB9AF90120A4494FF0A4005054BEE6A5
:101DA0009AF90200085C552823D0A0A00D90724B30
:101DB000A4A1153B1A460D98FEF707FD99F90000FE
:101DC000002380B208220221FEF7BAFB99F9010034
:101DD000002380B209220221FEF7B2FB99F902002A
:101DE000002380B20A220221FEF7AAFB4FF0A400D2
:101DF00034E138E13AE144E1202020202020D3D111
:101E0000D2C0CDCEC2CECA202020202000000000AB
:101E1000202020202020C7C0C2CEC4D1CAC8D520CF
:101E2000202020200000000020202020202020C78B
:101E3000C0CFC8D1DC2020202020202000000000BE
:101E40002020C0C2D2CECCC0D2DB20CDC0C3D0D3E4
:101E5000C7CECA200000000020C0E2F2EEECE0F2A3
:101E600020B9312020202020202021200000000047
:101E700020C0E2F2EEECE0F220B932202020202057
:101E8000202040200000000020C0E2F2EEECE0F252
:101E900020B9332020202020202023200000000013
:101EA00020C0E2F2EEECE0F220B934202020202025
:101EB000202024200000000020C0E2F2EEECE0F23E
:101EC00020B93520202020202020252000000000DF
:101ED00020C0E2F2EEECE0F220B9362020202020F3
:101EE00020205E200000000020C0E2F2EEECE0F2D4
:101EF00020B93720202020202020262000000000AC
:101F000020C0E2F2EEECE0F220B9382020202020C0
:101F100020202A200000000020C0E2F2EEECE0F2D7
:101F200020B9392020202020202028200000000077
:101F300020C0E2F2EEECE0F220B931302020202087
:101F4000202029200000000020C0E2F2EEECE0F2A8
:101F500020B931312020202020202B20000000003B
:101F600020C0E2F2EEECE0F220B931322020202055
:101F700020203D20000000005182000020C6F3F028
:101F8000EDE0EB20EFF3F1F22020202020202020B4
:101F9000000000002020202020C1C0D2C0D0C5C831
:101FA000204E21202020202000000000C2DBD0C0D5
:101FB000C2CDC8C2C0DED9C8C520C7C0D0DFC4DB0F
:101FC0000000000020282020202020202020202089
:101FD000202020202020202000000000205B202046
:101FE00020202020202020202020202020202020F1
:101FF000000000000BCA0720202020202020D0C095
:10200000C7D0DFC4DB2020202020202000000000DB
:102010002020C2E2E5E4E8F2E52020EFE0F0EEEB7C
:10202000FC202020000000002C010010C4EBFF2049
:10203000E2E2E5E4E5EDE8FF20E1E0F2E0F0E5E8EA
:10204000000000002020EDE0E1E5F0E8F2E520EFFF
:10205000E0F0EEEBFC202020000000009AF90120C7
:10206000E84950545BE5E8A00D90A0E6ECA3F2A28D
:10207000F7A1AFF24800FEF7A8FB0220FEF71CFB19
:102080004DE5A879401CC0B2A8710F2809D385F886
:102090000680287E401CC0B22876032801D385F82C
:1020A0001880F1480D902A380E90287E08B9EFA1CB
:1020B0000F91012801D1F3A10F91022801D1F7A0BE
:1020C0000F900DA9FBA00EC9FEF77FFB9AF9010046
:1020D0005E2150B101280BD002280CD003280DD06E
:1020E00004280ED005280FD010E087F82A100DE044
:1020F00087F82D100AE087F8301007E087F83310D2
:1021000004E087F8371001E087F83B10DFF8BC9354
:1021100099F8240000225E21FEF753FA99F828006E
:1021200000222521FEF74DFA99F82C0000223C21CF
:10213000FEF747FA99F83810CB480022763800EBC2
:1021400081003E21FEF727FAB9F83C0000227B21EE
:10215000FEF737FAA87C28B13A20FEF7DDF84FF0F9
:102160002001395499F83000BF4900EB4000423952
:1021700008444FF0FF322621FEF70DFA9AF90100CC
:10218000002380B202221946FEF7DAF9C7E4B64B03
:102190002A3B1A4611460846FEF717FBBFE4CCA1BE
:1021A0004FF001000D91B5F8601019B1CEA14FF0BC
:1021B00002000E91B5F8641031B10146D0A200F1D1
:1021C0000100C0B244F82120B5F8661031B10146D3
:1021D000D1A200F10100C0B244F82120D4A200F144
:1021E0000101C9B244F82020D7A201F10100C0B218
:1021F00044F82120DAA200F10101C9B244F82020FC
:10220000AFF6541201F10100C0B244F82120AFF240
:102210009C7200F10101C9B244F82020AFF2AC7009
:1022200044F821009AF901009AF90410A0EB010288
:10223000022A04DDA0F102008AF8040003E08842CB
:1022400001DA8AF804009AF90400811C54F821305C
:10225000411C54F8212054F82010C7A0FEF7B5FA0D
:102260000120FEF729FA5AE499A14FF001000D91DF
:10227000B5F8601019B19CA14FF002000E91B5F8AD
:10228000641031B101469EA200F10100C0B244F8D1
:102290002120BFA200F10101C9B244F82020B5F805
:1022A000680030B10846A8A201F10101C9B244F8A2
:1022B0002020AFF6042201F10100C0B244F8212031
:1022C000AFF6500200F10101C9B244F82020AFF688
:1022D0005C0044F821009AF901009AF90410A0EB7F
:1022E0000102022A04DDA0F102008AF8040003E0E2
:1022F000884201DA8AF804009AF90400811C54F833
:102300002130411C54F8212054F820109AA0FEF7E7
:102310005CFA0120FEF7D0F90AE4A3A00D90A8A171
:102320004FF002000E91B5F8641019B174A14FF08E
:1023300003000F91A8A200F10101C9B244F82020C6
:10234000ABA001F10102D2B244F82100AFF6A02106
:1023500002F10100C0B244F82210AFF6E80200F129
:102360000101C9B244F82020AFF6F80044F821007A
:102370009AF901009AF90410A0EB0102022A04DD87
:10238000A0F102008AF8040003E0884201DA8AF82A
:1023900004009AF90400811C54F82130411C54F8BF
:1023A000212054F8201074A0FEF70FFA0120FEF748
:1023B00083F9B0890122212180B2FEF702F9F08968
:1023C0000022402180B2FEF7FCF80122232103E025
:1023D0001AE16FE1CDE1FBE1308A80B2FEF7F1F85E
:1023E000708A00225E2180B2FEF7EBF89AF90100B4
:1023F00008B1032890D10A233A46E521E120FDF7F0
:102400009CFE4BE440010010C4EBFF20E2FBE2E540
:10241000E4E5EDE8FF20E1E0F22E2DE80000000009
:10242000204759465034383735542020202020206A
:10243000202020200000000020D1E2E8EDF6EEE2AE
:10244000EE2DEAE8F1EBEEF2EDE0FF2000000000F7
:10245000202020E2FBE1E5E8F2E520E5E520F2E8D6
:10246000EF202020000000006682000020202020B5
:10247000203C3E202D20E2FBE1EEF0202020202019
:10248000000000002020205E76202D20F3F1F2E0F5
:10249000EDEEE2EAE02020200000000020202020D5
:1024A00020A420202D20E2FBF5EEE4202020202097
:1024B0000000000020D3D1D2C0CDCEC2CAC020209F
:1024C000C2D0C5CCC5CDC8200000000000400240ED
:1024D00020D1E5F2FC2020202020202020202020D8
:1024E000202020200000000020C1E0F2E0F0E5E81C
:1024F000202020202020202020202020000000005C
:1025000020C1CFD1202020202020202020202020CA
:10251000202020200000000020C8EDE2E5F0F2EECF
:10252000F0FB202020202020202020200000000080
:1025300020CDE0E3F0F3E7EAE02020202020202077
:10254000202020200000000020C2EDE5F8EDE8E5A5
:1025500020E4E0F2F7E8EAE8202020200000000074
:1025600020D1E8EBEEE2FBE520E2E2EEE4FB202006
:1025700020202020000000002020202020CAC0CBE6
:10258000C8C1D0CEC2CAC020202020200000000038
:1025900020C2FBF5EEE4EDFBE520EFE0F0E0ECE53A
:1025A000F2F0FB20000000002055E2FBF52E202079
:1025B0002020202020202021C220202000000000F8
:1025C0002049E2FBF52E2020202020202020204042
:1025D000C0202020000000002055E22EE42E202004
:1025E0002020202020202023C220202000000000C6
:1025F0002054F1E8F1F2E5ECFB20203D2020205EA4
:10260000B043202000000000AFF23C100D90FBA072
:102610004FF002010E90B5F8640020B1AFF2201027
:102620004FF003010F90AFF2980201F10100C0B228
:1026300044F82120B5F8681039B1AFF2F402014630
:1026400000F10100C0B244F82120AFF69C5200F125
:102650000101C9B244F82020AFF6E83201F10100CF
:10266000C0B244F82120AFF6F43144F820109AF9B2
:1026700001009AF90410A0EB0102022A04DDA0F186
:1026800002008AF8040003E0884201DA8AF80400B4
:102690009AF90400811C54F82130411C54F821207F
:1026A00054F82010AFF23010FEF78FF80120FEF73B
:1026B00003F810E3AFF2E8114FF001000D91B5F807
:1026C000621021B1AFF2E0114FF002000E91B5F8A7
:1026D000641039B1AFF2D812014600F10100C0B266
:1026E00044F82120AFF2B81200F10101C9B244F858
:1026F0002020B5F8680038B1AFF2B412084601F1F5
:102700000101C9B244F82020AFF65C6201F101007A
:10271000C0B244F82120AFF6A44200F10101C9B2D1
:1027200044F82020AFF6B44044F821009AF90100A3
:102730009AF90410A0EB0102022A04DDA0F10200C4
:102740008AF8040003E0884201DA8AF804009AF962
:102750000400811C54F82130411C54F8212054F805
:102760002010AFF2EC10FEF730F80120FDF7A4FFC7
:10277000B1E2A8A00D90AFF6C8600E90AFF60C5075
:102780000F909AF901009AF90410421A022A04DD06
:10279000A0F102008AF8040003E0884201DA8AF816
:1027A00004009AF90400811C54F82130411C54F8AB
:1027B000212054F820109DA0FEF707F80120FDF716
:1027C0007BFFF08A0022402180B2FDF7FAFE82E210
:1027D0009CA00D90A1A00E90A6A00F90AFF6307017
:1027E00010909AF90400811C54F82130411C54F8CF
:1027F000212054F820108DA0FDF7E7FF9AF9010081
:102800009AF90410421A022A04DDA0F102008AF8A3
:10281000040003E0884201DA8AF804000120FDF791
:102820004BFF308B0022212180B2FDF7CAFE708B56
:102830000022402180B2FDF7C4FEB08B002223218C
:1028400080B2FDF7BEFE46E272A00D90AFF6A0701A
:102850000E90AFF6E0500F909AF901009AF904102B
:10286000421A022A04DDA0F102008AF8040003E003
:10287000884201DA8AF804009AF90400811C54F8AD
:102880002130411C54F8212054F820107FA0FDF77E
:102890009CFF0120FDF710FFB6F90800B84208DDE3
:1028A0000A2190FBF1F080B200224021FDF789FE61
:1028B00011E20122402180B2FDF783FE0BE279A0F4
:1028C0000D907EA00E9083A00F9088481090AFF6D8
:1028D0005C601190AFF6646012909AF901009AF969
:1028E0000410421A012A04DDA0F101008AF8040054
:1028F00003E0884201DA8AF804009AF90400411CD6
:1029000054F8202054F8213079A17FA0FDF75DFF15
:102910000220FDF7D1FE99F8000030B16FF00202FD
:1029200021217FA0FDF737FE05E0B7F90000002266
:102930002121FDF735FD99F8010030B16FF0020259
:10294000402177A0FDF727FE05E0B7F9020000223D
:102950004021FDF725FD99F8020030B16FF0020229
:1029600023216FA0FDF717FEB5E1B7F9040000229F
:102970002321FDF715FDAEE16BA00D9070A00E9028
:1029800075A00F90B5F96800584944F82010AFF6CB
:102990001C7100F1010244F82210AFF6287100F119
:1029A000020044F820109AF901009AF90410A0EBF3
:1029B0000102012A04DDA0F101008AF8040003E00D
:1029C000884201DA8AF804009AF90400411C54F89C
:1029D000202054F8213046A14BA0FDF7F6FE02203E
:1029E000FDF76AFE99F8000030B16FF00202212174
:1029F0004BA0FDF7D0FDC1E0BAE0000020C1E0F23D
:102A0000E0F0E5FF20202020202020202020202092
:102A1000000000002055203D202020202040C22022
:102A2000202020202020202000000000202020CA7C
:102A3000C0CBC8C1D0CEC2CAC020D1C5D2C8202008
:102A4000000000002055F4412020202020202020DC
:102A500020202021C2202020000000002055F44228
:102A6000202020202020202020202040C2202020A4
:102A7000000000002055F4432020202020202020AA
:102A800020202023C22020200000000020CAC0CB2C
:102A9000C8C1D0CEC2CAC020CDC0C3D0D3C7CAC857
:102AA000000000002074E2EDE5F82EE2EEE7E42EEF
:102AB0002020202021B0D120000000002074EEF260
:102AC000F1E5EA20DDCFD3202020202040B0D12026
:102AD000000000002074EEF2F1E5EA204D53414E73
:102AE0002020202023B0D12000000000B0180000DA
:102AF00020C4C0D2D7C8CACEC220D2C5CCCFC5D080
:102B0000C0D2D3D00000000020CAC0CBC8C1D0CEF4
:102B1000C2CAC020C2CDC5D8CDC8D5200000000093
:102B2000EDE5E8F1EFF02E00207431202020202088
:102B3000202020202020202021B0D12000000000D3
:102B4000207432202020202020202020202020201F
:102B500040B0D1200000000020743320202020202D
:102B6000202020202020202023B0D12000000000A1
:102B7000B7F9000000222121FDF712FC99F80100AD
:102B800038B16FF002024021AFF26C00FDF703FD97
:102B900005E0B7F9020000224021FDF701FC99F899
:102BA000020038B16FF002022321AFF28C00FDF772
:102BB000F2FC90E0B7F9040000222321FDF7F0FBBE
:102BC00089E0F1A00D90F6A00E900878552801D06C
:102BD000F3A00D90B5F96000F74944F8201001F515
:102BE000E27200F1010144F8212000F102001146D7
:102BF00044F820109AF901009AF90410A0EB0102A0
:102C0000022A04DDA0F102008AF8040003E08842F1
:102C100001DA8AF804009AF90400811C54F8213082
:102C2000411C54F8212054F82010E4A0FDF7CDFDFC
:102C30000120FDF741FD4EE0E6A00D90EBA00E90C7
:102C4000F0A00F90F5A01090FAA01190FFA01290A4
:102C5000D948139000F5E27014909AF901009AF99E
:102C60000410421A012A04DDA0F101008AF80400D0
:102C700003E0884201DA8AF804009AF90400411C52
:102C800054F8202054F82130F6A1FCA0FDF79DFD5A
:102C90000220FDF711FDFF4F002221213888FDF7AA
:102CA00090FC788800224021FDF78BFCB888002238
:102CB0002321FDF786FCBF1D002238882621FDF761
:102CC00080FC788800222A21FDF77BFCB88800224E
:102CD0002821FDF776FC9AF800002F2829D05528E6
:102CE0006AD0562869D0582868D0592867D05B2800
:102CF00066D1B5F8740000287ED0E7A00D90B5F835
:102D00007600002879D0EAA00E90EFA00F90F4A0F2
:102D100010904FF004006876697EA74844F82100BF
:102D20009AF901009AF90410884267DA8AF80400D7
:102D3000F2E39AF90100F0B301287ED002287DD099
:102D400003287CD004287BD005287AD0062879D0A7
:102D5000072878D0082877D00A2876D00B2875D095
:102D60000C28C5D1E44BE5A01A461146FDF72DFD10
:102D7000F08D00230422012180B2FDF7E1FB308EAB
:102D800000230422022180B2FDF7DAFB00230E2289
:102D9000012195F82900FDF7D3FBDE4C00230F221B
:102DA00020781946FDF7CCFB607800230F22012123
:102DB000FDF7C6FB05E050E0AFE3AFE3AFE3AFE301
:102DC000AFE3A07800230F220221FDF7B9FBE078E2
:102DD00000230F220321FDF7B3FB002320791322E8
:102DE0001946FDF7ADFB6079002313220121FDF7A1
:102DF000A7FBA079002302E094E394E394E3132279
:102E00000221FDF79DFBE079002313220321FDF74A
:102E100097FB708E002332300A22194680B2FDF7EC
:102E20008FFBF08C00230A22012180B2FDF788FB82
:102E300000230A220221708909E048E06AE0A9E142
:102E4000B1E1D7E14FE257E2BAE21EE32FE349B026
:102E500080B2BDE8F04FFDF773BBA74AAEA31146A1
:102E6000B3A0FDF7B2FC00230422194640F21B4038
:102E7000FDF766FB00230B22194645F27820FDF78B
:102E8000F5FAB14C0023052201212078FDF758FB0B
:102E9000AE4D00230A222888012180B2FDF750FBA5
:102EA000AB4800230F2201210078FDF749FB0023E6
:102EB000042202212078FDF743FB288849B0002333
:102EC000BDE8F04F0922022180B2FDF739BB8A4BE1
:102ED000A0A01A461146FDF778FC9AF902000023DB
:102EE00080B21A460121FDF72BFB9AF9020000235C
:102EF000401C80B21A460221FDF722FB9AF902001B
:102F000049B0801CBDE8F04F002380B21A4603216F
:102F1000FDF716BB784B95A01A461146FDF755FCF8
:102F200005F1300500230522012115F8080CFDF7F5
:102F300007FB688A00230522022180B2FDF700FB0F
:102F4000B06C00230522032180B2FDF7F9FAA88FA7
:102F500000231322194680B2FDF7F2FA30890023CC
:102F60001322012180B2FDF7EBFAE88F0023132230
:102F7000022180B2FDF7E4FAB08D00231322032171
:102F800080B2FDF7DDFAFDE020C1E0F2E0F0E5FF00
:102F9000204E312020202020202020200000000072
:102FA00020C1E0F2E0F0E5FF204E3220202020207A
:102FB0002020202000000000B018000020CAC0CB54
:102FC000C8C1D0CEC2CAC020C1C0D2C0D0C5C920DD
:102FD0000000000020C2E2EEE420F42E4120202078
:102FE0002021C220202020200000000020C2E2EE8C
:102FF000E420F42E422020202040C2202020202047
:103000000000000020C2E2EEE420F42E4320202045
:103010002023C220202020200000000020CFDDD16E
:103020002020F42E412020202026C22020202020F5
:103030000000000020CFDDD12020F42E42202020EF
:10304000202AC220202020200000000020CFDDD137
:103050002020F42E432020202028C22020202020C1
:1030600000000000202020D1C8CBCEC2DBD520C27A
:10307000C2CEC4CEC220202000000000202020208C
:103080002020CAC0CBC8C1D0CEC2CAC020202020B8
:1030900000000000F000001020C2EAEBFEF7E5EDB2
:1030A000EE202020202020202020202000000000D2
:1030B00020CAC0CDC0CB2020204D4F444255532DB7
:1030C0005443502000000000204950203030402E52
:1030D0003030232E3030242E3030252000000000E8
:1030E00020C0C4D0C5D120C2C5C4CECCCEC3CE2052
:1030F00020205E2000000000741A00006963612037
:1031000020202020202020202020202020202020BF
:103110000000000068CA07202020202020202A2A42
:103120002A2A2A2A2A2A20202020202000000000E3
:103130002A303030302A3030303030302A202020D1
:10314000202020200000000023C0072024C00720EA
:1031500008000010C1202020202020202020202036
:1031600020202020202020200000000046202020B9
:10317000202020202020202020202020202020204F
:103180000000000049B00E22BDE8F04F0121E748E1
:10319000FDF74CBA49B0E6A3BDE8F04FEAA2F0490A
:1031A000F0A0FDF712BBF5A3FAA2ED49FFA0FDF7D1
:1031B0000CFB05F144050023E88B0122194680B27F
:1031C000FDF7BEF9FF480023132219460078FDF7EA
:1031D000B7F9308900231322012180B2FDF7B0F93D
:1031E000288849B00023BDE8F04F0D22194680B26F
:1031F000FDF7A6B9DA4BF4A01A461146FDF7E5FA39
:103200000023BBF8000004221946FDF799F9BBF82A
:103210000200002304220121FDF792F9BBF804000B
:10322000002304220221FDF78BF9BBF806000023DE
:1032300004220321FDF784F90023BBF808000922CA
:103240001946FDF77DF9BBF80A0000230922012188
:10325000FDF776F9BBF80C00002309220221FDF7E7
:103260006FF9BBF80E00002309220321FDF768F96E
:103270000023BBF810000E221946FDF761F9BBF8D8
:10328000120000230E220121FDF75AF9BBF81400A9
:1032900000230E220221FDF753F9BBF8160000238C
:1032A0000E220321FDF74CF90023BBF8180013226E
:1032B0001946FDF745F9BBF81A0000231322012136
:1032C000FDF73EF9BBF81C00002313220221FDF795
:1032D00037F9BBF81E0049B00023BDE8F04F1322B8
:1032E0000321FDF72DB949B0BDA3BDE8F04FC2A23F
:1032F000C7A1CDA0FDF769BA994BD1A01A461146D6
:10330000FDF763FAD44C00231322207819463BF8CA
:103310001000FDF715F96078002313223BF8100028
:103320000121FDF70DF9A078002313223BF81000CE
:103330000221FDF705F9E078002313223BF8100085
:103340000321FDF7FDF8C54C00230E2294F900007F
:10335000194680B2FDF7F4F894F90100002380B219
:103360000E220121FDF7ECF894F90200002380B24F
:103370000E220221FDF7E4F894F90300002380B245
:103380000E220321FDF7DCF8241F002320780A22F7
:103390001946FDF7D5F8607800230A220121FDF7D0
:1033A000CFF8A07800230A220221FDF7C9F8E078BF
:1033B00049B00023BDE8F04F0A220321FDF7C0B851
:1033C000674B1A4611460846FDF7FFF9A44C002347
:1033D000022220881946FDF7B3F8608800230222F4
:1033E0000121FDF7ADF80222A08800231146FDF768
:1033F000A7F8E088002302220321FDF7A1F80023AB
:10340000207A04221946FDF79BF8607A00230422F3
:103410000121FDF795F8A07A002304220221FDF78F
:103420008FF8E07A002304220321FDF789F80023B6
:10343000A08907221946FDF783F8E08900230722B7
:103440000121FDF77DF8208A002307220221FDF7E4
:1034500077F8608A002307220321FDF771F8002323
:10346000208B13221946FDF76BF8207D00231322D1
:103470000121FDF765F8B08C49B00023BDE8F04F9D
:103480001322032180B2FDF75BB8354B47A01A46E3
:103490001146FDF79AF99AF9020049B0401CBDE8BF
:1034A000F04F002380B203221946FDF749B82C4B98
:1034B0003EA01A461146FDF788F99AF9010000234B
:1034C00080B201221946FDF73BF8F08C002305225B
:1034D000194680B2FDF734F8308900230B221946D3
:1034E00080B2FDF72DF85F4C00230522608A02218F
:1034F000FDF726F8207D002308220221FDF720F8A1
:10350000E08A002305220321FDF71AF8607D0023DD
:103510000822032149B0A7E0F2E1A9E0F2E06AE164
:10352000A8E165E1D6E1DCE1E3E100007856341280
:10353000202020202020202020202020202020208B
:1035400020202026000000002020202020202020F5
:1035500020202020202020202020205E00000000AD
:10356000741A0000CAC520202020202020202020FE
:1035700020202020202020200000000020202020CB
:103580002020402020202420202020202020202017
:1035900000000000202020202020212020202320A7
:1035A0002020202020202020000000004C4220204D
:1035B000202020202020202020202020202020200B
:1035C0000000000022C007202A20202020202020E8
:1035D000202020202020202020202020000000006B
:1035E0002020202020202020202020205E2020209D
:1035F000202020200000000020202020402020202B
:103600002020252020202020202020200000000035
:1036100020202020212020202020242020202020A5
:103620002020202000000000362020202020202004
:10363000202020202020202020202020000000000A
:103640003720202020202020202020202020202063
:103650002020202000000000E87B0000CD000010AA
:103660004ACA0720E4C50720BDE8F04FFCF768BF51
:10367000B7A00D90BCA00E90C1A00F90C6A0109056
:10368000CBA01190D0A01290D5A01390DAA01490E6
:10369000DFA01590E4A01690E9A01790EEA0189076
:1036A000B5F96400F24944F8201001F5E27200F126
:1036B000010144F8212000F10200114644F82010D5
:1036C0009AF901009AF90410A0EB0102012A04DD25
:1036D000A0F101008AF8040003E0884201DA8AF8C8
:1036E00004009AF90400411C54F8202054F82130B9
:1036F000E0A1E6A0FDF769F849B00220BDE8F04F6F
:10370000FCF7DABFE7A00D90287D20B1EBA00E906A
:10371000F0A00F9003E0F5A00E90FAA00F90FF48E4
:1037200010901538119012909AF9010050B30128A9
:1037300028D0022826D04FF003008AF804009AF916
:103740000400811C54F82130411C54F8212054F805
:103750002010F3A0FDF739F80120FCF7ADFF9AF92E
:1037600002000022401C80B22121FCF72AFFB5F89C
:1037700046000122242180B2FCF723FF9AF80100C1
:1037800018B11FE08AF80480D9E79AF802100120E6
:10379000884002B20A23D021CD20FCF7CEFC28239A
:1037A0000022C921C820FCF7C8FC0A23B5F946202D
:1037B000BF21BE20FCF7C1FC0A230022E621E12044
:1037C000FCF7BBFCD720FCF7D2FC002810D0D9486E
:1037D0000088D9280CD14FF003008AF8010040F688
:1037E000B8300090D4A3DAA2DFA1E5A0FDF723F85A
:1037F00049B0BDE8F08FE8A00D90EDA00E90F2A0CA
:103800000F90C64810901538119012909AF9010047
:103810009AF90410421A012A04DDA0F101008AF885
:10382000040003E0884201DA8AF804009AF90400EF
:10383000411C54F8202054F82130E9A1EDA0FCF7F8
:10384000C4FF0220FCF738FF35F86C0F012221215C
:1038500080B2FCF7B6FE68880122402180B2FCF7F6
:10386000B0FEA88849B00022BDE8F04F232180B205
:10387000FCF7A7BEB5F8720090B1E3A00D90E8A0E8
:103880000E907B480F9000F5E27010909AF90100BD
:103890009AF90410421A012A07DD8AF8040008E0A8
:1038A000D9A00D90E4A00E90EBE7884201DA8AF8E7
:1038B00004009AF90400411C54F8202054F82130E7
:1038C000E3A1E9A0FCF781FF49B00220BDE8F04F79
:1038D000FCF7F2BEEAA00D904FF001006876FFF70A
:1038E0001BBAEDA00E90F2A00F904FF00300687687
:1038F000F5E7411A012903DDA0F101008AF804006F
:103900009AF90400411C54F8202054F82130EEA10B
:10391000F3A0FCF75AFF0220FCF7CEFEB5F87800C2
:103920000022212180B2FCF74CFE9AF801006FF0D2
:10393000010402280AD19AF8020038B9A87C28B1FB
:10394000224640217AA0FCF726FEDCE1D4E100000B
:1039500020C1CFD1204E3120202020202020202027
:10396000202020200000000020C1CFD1204E322096
:1039700020202020202020202020202000000000C7
:1039800020C1CFD1204E33202020202020202020F5
:10399000202020200000000020C1CFD1204E342064
:1039A0002020202020202020202020200000000097
:1039B00020C1CFD1204E35202020202020202020C3
:1039C000202020200000000020C1CFD1204E362032
:1039D0002020202020202020202020200000000067
:1039E00020C1CFD1204E3720202020202020202091
:1039F000202020200000000020C1CFD1204E382000
:103A00002020202020202020202020200000000036
:103A100020C1CFD1204E392020202020202020205E
:103A2000202020200000000020C1CFD1204E3130C6
:103A30002020202020202020202020200000000006
:103A400020C1CFD1204E3131202020202020202025
:103A5000202020200000000020C1CFD1204E313294
:103A600020202020202020202020202000000000D6
:103A7000B018000020C0C2D2CECDCECCCDCEC92051
:103A8000D0C0C1CED2DB202000000000D3D1D2C0F4
:103A9000CDCEC2CAC020CDC0CFD0DFC6C5CDC8DF15
:103AA000000000002055E0E2F2EEED203D20202055
:103AB00024C22020202020200000000020F3F1F26A
:103AC000E0EDEEE2E8F2E52055E0E2F2EEED202056
:103AD000000000002020EDE0E6E0F2E8E5EC209AAE
:103AE00020E8EBE8209C20200000000020F3E4E523
:103AF000F0E6E8E2E0E9F2E520A420E4EBFF202094
:103B00000000000020202020E7E0EFEEECE8EDE0F0
:103B1000EDE8FF202020202000000000518200005E
:103B200020202020202020C1CFD1204E2120202065
:103B30002020200028C0072020202020EFF0EEE8E1
:103B4000E7E2E5E4E5EDE020202020200000000091
:103B500020E0E2F2EEEDEEECEDEEE920F0E0E1EE59
:103B6000F2FB20200000000020202020EDE0EFF0FC
:103B7000FFE6E5EDE8FF20202020202000000000E7
:103B80002020202020D3F1F2E0EDEEE2EAE0202038
:103B900020202020000000002055E2FBF56D617818
:103BA00020202020202020202021C22000000000F2
:103BB0002055E2FBF56D696E20202020202020207A
:103BC0002040C220000000002054E7E4F0E62EE090
:103BD000E22E2020202020202023F12E00000000B3
:103BE00020202020CDC0CFD0DFC6C5CDC8DF20200B
:103BF00020202000CACECDD2D0CECBDC20C2DBD557
:103C0000CEC4CDCEC3CE200020C8EDE4E8EAE0F675
:103C1000E8FF20202020202020202020000000007D
:103C200020F0E0E7F0FFE6E5EDEDEEE920E1E0F27F
:103C3000E0F0E5E80000000020F3F1EAEEF0E5ED49
:103C4000EDEEE3EE20E7E0F0FFE4E020000000000E
:103C50002020D4D3CDCAD6C8CECDC0CBDCCDCED1DA
:103C6000D2DC202000000000C4CECFCECFCBCDC808
:103C7000D2C5CBDCCDCEC520D0C5CBC50000000061
:103C800020C2FBEAEBFEF7E5EDEE2020202020200D
:103C9000202020200000000020CAC0CDC0CB202062
:103CA0004D4F444255532D525455202000000000E2
:103CB00020C0C4D0C5D120C2C5C4CECCCEC3CE2076
:103CC0002020212000000000202020202020202073
:103CD000C8CFD1202020202020202020000000005C
:103CE00020C2DBD0C0C2CDC8C2C0CDC8C520D2CE94
:103CF000CACEC22000000000B5F87A0000224021A0
:103D000080B2FCF75EFC9AF8010002280CD19AF808
:103D10000200012808D1A87C30B122462321AFF24D
:103D2000F010FCF738FC06E0B5F87C0000222321F7
:103D300080B2FCF746FC9AF8010002280CD19AF8F0
:103D40000200022808D1A87C30B122462421AFF21B
:103D50002020FCF720FC06E0B5F87E00002224219C
:103D600080B2FCF72EFC9AF8010002280CD19AF8D8
:103D70000200032808D1A87C30B122462521AFF2E9
:103D80005020FCF708FC05E030880022252180B295
:103D9000FCF717FC708849B00022BDE8F04F5E21A7
:103DA00080B2FCF70EBC2DE9F043FB49086A40F4F1
:103DB00000100862486B20F400104863086A20F085
:103DC000F8600862F548C26CF54B02EA0302C2646F
:103DD000086C40F480700864486D20F48070486579
:103DE0004FF0000000BF00BF00BF00BF00BF00BF1A
:103DF00000BF00BF00F10100C0B2C828F2D3086CB8
:103E000040F480700864486D40F480704865486BE9
:103E1000E44F60F0F8604FEA9052FA64A7F1800333
:103E200038465C7F056D987FD97FA2F5407905F013
:103E30007F064FF0010C4FF00008B9F1FF0901D0E7
:103E4000AA4219D083F82180042C00D228B193F81B
:103E5000224014B983F823C01D77884202D383F827
:103E600023C01E7783F822804FF01400D87783F8A0
:103E70001D8083F81E801FE004F10104E4B25C772A
:103E8000042C19D383F81D8000F10100C0B298778B
:103E9000884211D31E7783F81E8083F823C083F8ED
:103EA00022C093F8210038B14FEA5100D877022898
:103EB00002D84FF00200D8773A65BDE8F0832DE9CB
:103EC000F84FB84E803E96F8230000287DD0DFF8EA
:103ED000D4824FF00005A8F82850A8F82A50B8F866
:103EE0000600307035713146B6F92E00097F0A2878
:103EF00017DAFD2911D07D290FD0FB290DD07B29A0
:103F00000BD0F72909D0772907D0EF2905D06F29E1
:103F100003D0FE2901D07E2903D1A3480580A34800
:103F20000570A0485430F92902783FD00124E729D0
:103F300054D0792939D07A2957D084462F2A9CF930
:103F400001B09CF902A00BF10103ABF10107AAF14A
:103F5000010C5BB27FB24FFA8CFC51D0002A76D0B4
:103F6000072A75D081464FF47A70092A71D0012A48
:103F700070D0052A6FD00A2A6ED00C2A6DD0032A81
:103F80006CD04FF0030B372A69D0482A68D0492AF1
:103F900067D0512A7DD0522A7CD0552A7BD0582A0E
:103FA0007AD0592A79D05B2A78D07AE32F2A10D098
:103FB000D8F85400C8F8590098F8580088F85D00FF
:103FC000002305211A462F2000E0F8E3FCF7E8FB68
:103FD000EBE700210846FCF7CFFBE6E7C8F84840CE
:103FE0005321002002F080FDDFE796F8260020B183
:103FF00086F8265086F82150D7E786F82640F9E75C
:10400000EF2914D0F7291AD00446BBF1010F29D0AB
:10401000BBF1050F53D02046624AFD2902F154023C
:1040200092F9042050D0FB295AD0FE29BDE74370F5
:1040300005710C220021401CFCF708F9B5E7477018
:1040400005710C220021401CFCF700F9ADE753E09C
:10405000E3E0EFE03AE146E152E158E164E1D2E227
:1040600045E3F5E3FD290AD1204684F802C04FF06C
:104070001E024FF0000100F10200FCF7F2F8307F61
:10408000FB2812D1A07800F10100A0704FF01E02B1
:1040900005E0FEE3FEE3FEE3FEE3FEE3FEE34FF0B6
:1040A000000104F10200FCF7DCF8307FFE288FD11C
:1040B000358625706570A570E570257175E77E29D8
:1040C00086D1FCF724FF70E7A2F1010202714FF0E4
:1040D00004024FF0000100F10400FCF7C2F864E7AD
:1040E00002F1010202714FF004024FF0000100F1F1
:1040F0000400FCF7B6F858E7FB290CD0FD2911D0D5
:10410000EF2916D0F72916D07B2916D0672916D0AB
:10411000FE291DD049E7437008220021401CFCF70E
:10412000A0F842E7477008220021401CFCF799F8EC
:104130003BE7457039E7457037E7457035E796F856
:104140002A0010B186F82A502FE786F82A402CE77B
:10415000BBF1000FB2D0BBF1010F15D0BBF1020FC4
:1041600026D0BBF1030F2AD0BBF1040F2ED0BBF138
:10417000050F32D0BBF1060F36D0BBF1070F3AD096
:10418000BBF1080F3ED010E700231A461946032062
:10419000FCF706FB09E7000000C0092000C0024050
:1041A000FF0FC0FF8C000010040000100100001081
:1041B00000231A4619460720FCF7F2FAF5E6002319
:1041C0001A4619460920FCF7EBFAEEE600231A46D8
:1041D00019460520FCF7E4FAE7E600231A461946DB
:1041E0000120FCF7DDFAE0E600231A4619460A2012
:1041F000FCF7D6FAD9E600231A4619460C20FCF73C
:10420000CFFAD2E600231A4619460B20FCF7C8FA6B
:1042100000211420FBF7F4FFC7E6FE2988D1002314
:104220001A4619460820FCF7BBFAFF210A20FBF7C3
:10423000E7FFBAE6FBF7F5FF317FFD290CD0FB293C
:1042400019D099F90100F84A20B3012828D0022892
:104250002CD0032830D0A8E699F80100A0F1010085
:1042600089F801004FF003024FF0000109F101004D
:10427000FBF7F7FF99E699F8010000F1010089F8D2
:1042800001004FF003024FF0000109F10100FBF7BC
:10429000E8FF8AE6907808B1957086E6947084E627
:1042A000507808B1557080E654707EE6107808B1F9
:1042B00015707AE6147078E6FE2986D1002108464A
:1042C000FCF75AFA0020FBF7ACFF6EE6FE298AD114
:1042D00000231A4619460220FCF762FAFF210A2041
:1042E000FBF78EFF61E6FE2984D100231A461946AA
:1042F0000620FCF755FAFF210A20FBF781FF54E660
:10430000FE2989D100210846FCF736FA4DE6FE2940
:104310008FD100231A4619460D20FCF741FAFF21E0
:104320001420FBF76DFF40E6EF290DD1BBF1000F24
:104330000ADB4846BBF1050F06DC4370052200216D
:10434000401CFBF78EFF30E6F7290DD1BBF1000FC3
:104350000ADB4846BBF1050F06DC47700522002149
:10436000401CFBF77EFF20E6FE2915D067291ED0F2
:10437000AE4FBBF1000F27D0BBF1010F54D0BBF102
:10438000020F7DD0BBF1030F7BD0BBF1040F79D0BE
:10439000BBF1050F77D008E600231A461946042022
:1043A000FCF7FEF9FF210A20FBF72AFFFDE5BBF130
:1043B000050F04D84FF00A0089F8010001E089F8E0
:1043C000015086F82150F0E597F828000090FD296B
:1043D00006D07D2904D0FB2913D07B2911D020E001
:1043E0009DF8000000F1010000904FF017024FF01F
:1043F00000016846FBF72AFF9DF8000087F82800B7
:104400000FE09DF80000A0F1010000904FF01702AE
:104410004FF000016846FBF719FF9DF8000087F890
:10442000280086F82140C0E597F824000090FD2977
:1044300006D07D2904D0FB2913D07B2911D025E09B
:104440009DF8000000F1010000904FF03B024FF09A
:1044500000016846FBF7FAFE9DF8000087F824008B
:1044600014E09DF80000A0F1010000904FF03B0225
:104470004FF000016846FBF7E9FE9DF8000003E0FD
:1044800007E036E065E08EE087F8240086F82140FA
:104490008BE597F82C000090FD2906D07D2904D0EB
:1044A000FB2913D07B2911D020E09DF8000000F1FA
:1044B000010000904FF01F024FF001016846FBF72A
:1044C000C5FE9DF8000087F82C000FE09DF8000065
:1044D000A0F1010000904FF01F024FF0010168466B
:1044E000FBF7B4FE9DF8000087F82C0086F8214009
:1044F0005BE597F838000090FD2906D07D2904D0AF
:10450000FB2913D07B2911D020E09DF8000000F199
:10451000010000904FF00C024FF001016846FBF7DC
:1045200095FE9DF8000087F838000FE09DF8000028
:10453000A0F1010000904FF00C024FF0010168461D
:10454000FBF784FE9DF8000087F8380086F82140CC
:104550002BE5B88F40B20090FD2906D07D2904D00C
:10456000FB2910D07B290ED01AE000F10100009049
:104570004FF063024FF000016846FBF767FE9DF9BC
:104580000000B8870CE0A0F1010000904FF063023A
:104590004FF000016846FBF759FE9DF90000B8870F
:1045A00086F8214001E597F830000090FD2906D0FB
:1045B0007D2904D0FB2913D07B2911D020E09DF860
:1045C000000000F1010000904FF006024FF00001E2
:1045D0006846FBF73BFE9DF8000087F830000FE0CF
:1045E0009DF80000A0F1010000904FF006024FF08E
:1045F00000016846FBF72AFE9DF8000087F83000AE
:1046000086F82140D1E4FBF70CFE307F084FFB28F1
:1046100010D0FD2825D099F90110C9B3012949D03E
:1046200003295AD0C1E40000C60000100040024037
:10463000FCC9072099F8010000F1010089F8010088
:104640004FF003024FF0000109F10100FBF709FEF2
:104650007C71BD7199F801000228A3D189F801B0DD
:10466000A3E499F80100A0F1010089F801004FF0DE
:1046700003024FF0000109F10100FBF7F2FD7C712C
:10468000BD7199F8010002288CD189F801408CE4B1
:10469000FFE7EF2802D0F72806D086E4787908B142
:1046A0007D7104E27C7102E2787908B17D71FEE1EE
:1046B0007C71FCE1FE2804D0EF2802D0F72806D058
:1046C000F5E1B87908B1BD71F1E1BC71EFE1B879FC
:1046D00008B1BD71EBE1BC71E9E1FE2892D1002186
:1046E0000846FCF749F80020FBF79BFDDFE1FBF7EC
:1046F00098FD307FFB2813D0FD2820D099F90110B8
:1047000061B301295CD0022971D0032970D004293A
:104710006FD005296ED006296DD007296CD0C6E16F
:1047200099F8010000F1010089F801004FF007023B
:104730004FF0000109F10100FBF793FDB7E199F893
:104740000100A0F1010089F801004FF007024FF0CD
:10475000000109F10100FBF784FDA8E1EF2806D074
:104760006F280BD0F72810D0772815D01AE0B6F8AC
:10477000480000F10100A6F8480013E0B6F8480030
:1047800000F10200A6F848000CE0B6F84800A0F1DD
:104790000100A6F8480005E0B6F84800A0F10200C4
:1047A000A6F8480050223221FF48FBF765FDB6F914
:1047B0004810D02002F089FE86F8214077E1E7E337
:1047C000EF2806D06F280BD0F72816D077281BD0FB
:1047D00020E0B6F84C0000F10100A6F84C0019E00A
:1047E000B6F84C0000F10200A6F84C0012E01FE001
:1047F00058E089E0BDE0EEE022E1B6F84C00A0F11F
:104800000100A6F84C0005E0B6F84C00A0F102004B
:10481000A6F84C00E44851223121001DFBF72CFD85
:10482000B6F94C10D42002F050FE86F821403EE14B
:10483000EF2806D06F280CD0F72811D0772816D093
:104840001BE0B6F84A0000F10100A6F84A0014E0A7
:1048500000E1B6F84A0000F10200A6F84A000CE0B8
:10486000B6F84A00A0F10100A6F84A0005E0B6F843
:104870004A00A0F10200A6F84A00CB481E220521FA
:10488000801CFBF7F9FCB6F94A10D22002F01DFE9D
:1048900005E0F6E2F7E3F7E3F7E3F7E3F7E386F89B
:1048A000214004E1EF2806D06F280BD0F72810D064
:1048B000772815D01AE0B6F84E0000F10100A6F8EE
:1048C0004E0013E0B6F84E0000F10200A6F84E00CC
:1048D0000CE0B6F84E00A0F10100A6F84E0005E08D
:1048E000B6F84E00A0F10200A6F84E00AE485122E4
:1048F0003121801DFBF7C0FCB6F94E10D62002F026
:10490000E4FD86F82140D2E0EF2806D06F280BD0D6
:10491000F72810D0772815D01AE0B6F8500000F12B
:104920000100A6F8500013E0B6F8500000F10200B4
:10493000A6F850000CE0B6F85000A0F10100A6F86F
:10494000500005E0B6F85000A0F10200A6F85000B3
:10495000B6F84E002C21401F02B293480830FBF7F6
:104960008BFCB6F95010D82002F0AFFD86F821403C
:104970009DE0EF2806D06F280BD0F72810D07728BD
:1049800015D01AE0B6F8520000F10100A6F8520066
:1049900013E0B6F8520000F10200A6F852000CE055
:1049A000B6F85200A0F10100A6F8520005E0B6F8F2
:1049B0005200A0F10200A6F852007B485B22312190
:1049C0000A30FBF759FCB6F95210DA2002F07DFDEF
:1049D00086F821406BE0EF2806D06F280BD0F7282F
:1049E00010D0772815D01AE0B6F8540000F1010075
:1049F000A6F8540013E0B6F8540000F10200A6F83F
:104A000054000CE0B6F85400A0F10100A6F85400E0
:104A100005E0B6F85400A0F10200A6F85400B6F87C
:104A200052002C21401F02B25F480C30FBF724FCDF
:104A3000B6F95410DC2002F048FD86F8214036E03B
:104A4000FE2895D100210846FBF796FE0020FBF7D3
:104A5000E8FB2CE0FBF7E5FB307FFB2819D0FD28B5
:104A600026D099F9012092B3012A62D0022A70D08F
:104A70006FF03101032A6DD0042A6CD0052A6BD067
:104A8000062A6AD0072A69D0082A68D0092A67D07E
:104A90000DE099F8010000F1010089F801004FF0E4
:104AA00009024FF0000109F10100FBF7DAFB0DE20A
:104AB00099F80100A0F1010089F801004FF0090206
:104AC0004FF0000109F10100FBF7CBFBFEE1FFE72E
:104AD000EF2806D06F280BD0F72810D0772815D0F4
:104AE0001AE0B6F8480000F10100A6F8480013E00B
:104AF000B6F8480000F10200A6F848000CE0B6F84D
:104B00004800A0F10100A6F8480005E0B6F848000A
:104B1000A0F10200A6F84800502232212248FBF7FB
:104B2000ABFBB6F94810D02002F0CFFC86F821404C
:104B3000CCE1EF2806D06F2813D0F72818D07728BB
:104B40001DD022E0B6F84C0000F10100A6F84C00A0
:104B50001BE02BE05BE08BE0BBE0ECE020E151E10F
:104B600085E1B6F84C0000F10200A6F84C000CE01C
:104B7000B6F84C00A0F10100A6F84C0005E0B6F82C
:104B80004C00A0F10200A6F84C0007485122312148
:104B9000001DFBF771FBB6F94C10D42002F095FC18
:104BA00086F8214092E1000054000010EF2806D062
:104BB0006F280BD0F72810D0772815D01AE0B6F858
:104BC0004A0000F10100A6F84A0013E0B6F84A00D6
:104BD00000F10200A6F84A000CE0B6F84A00A0F185
:104BE0000100A6F84A0005E0B6F84A00A0F102006C
:104BF000A6F84A0032220021FE48FBF73DFBB6F939
:104C00004A10D22002F061FC86F821405EE1EF28D4
:104C100006D06F280BD0F72810D0772815D01AE0CF
:104C2000B6F85C0000F10100A6F85C0013E0B6F8ED
:104C30005C0000F10200A6F85C000CE0B6F85C0035
:104C4000A0F10100A6F85C0005E0B6F85C00A0F158
:104C50000200A6F85C00E74832221230FBF70CFB9A
:104C6000B6F95C10F82002F030FC86F821402DE106
:104C7000EF2806D06F280BD0F72810D0772815D052
:104C80001AE0B6F85E0000F10100A6F85E0013E03D
:104C9000B6F85E0000F10200A6F85E000CE0B6F87F
:104CA0005E00A0F10100A6F85E0005E0B6F85E0027
:104CB000A0F10200A6F85E00CE4832221430FBF7C5
:104CC000DBFAB6F95E10FA2002F0FFFB86F821400D
:104CD000FCE0EF2806D06F280BD0F72810D07728FB
:104CE00015D01AE0B6F84E0000F10100A6F84E000B
:104CF00013E0B6F84E0000F10200A6F84E000CE0FA
:104D0000B6F84E00A0F10100A6F84E0005E0B6F896
:104D10004E00A0F10200A6F84E00B6485122312103
:104D2000001DFBF7A9FAB6F94E10D62002F0CDFB14
:104D300086F82140CAE0EF2806D06F280BD0F7286C
:104D400010D0772815D01AE0B6F8500000F1010015
:104D5000A6F8500013E0B6F8500000F10200A6F8E3
:104D600050000CE0B6F85000A0F10100A6F8500089
:104D700005E0B6F85000A0F10200A6F85000B6F821
:104D80004E002C21401F02B29A48801DFBF774FA96
:104D9000B6F95010D82002F098FB86F8214095E033
:104DA000EF2806D06F280BD0F72810D0772815D021
:104DB0001AE0B6F8520000F10100A6F8520013E024
:104DC000B6F8520000F10200A6F852000CE0B6F866
:104DD0005200A0F10100A6F8520005E0B6F852001A
:104DE000A0F10200A6F8520082485B22312108306F
:104DF000FBF742FAB6F95210DA2002F066FB86F8A9
:104E0000214063E0EF2806D06F280BD0F72810D0A0
:104E1000772815D01AE0B6F8540000F10100A6F882
:104E2000540013E0B6F8540000F10200A6F8540054
:104E30000CE0B6F85400A0F10100A6F8540005E01B
:104E4000B6F85400A0F10200A6F85400B6F85200DB
:104E50002C21401F02B267480A30FBF70DFAB6F961
:104E60005410DC2002F031FB86F821402EE0FE28B1
:104E700095D100210846FBF77FFC0020FBF7D1F914
:104E800024E0FBF7CEF9307FFB2811D0FD281ED09F
:104E900099F9011051B340F6C412012937D0022903
:104EA00077D0032971D0042970D005296FD00DE087
:104EB00099F8010000F1010089F80100707E4FF0BF
:104EC000000142B209F10100FBF7CBF9CEE099F8FD
:104ED0000100A0F1010089F80100707E4FF000018F
:104EE00042B209F10100FBF7BCF9BFE0B07D012837
:104EF00007D0022809D0B475B17DE82002F0E5FAA8
:104F0000B4E04FF00200B075F6E7B575F4E7B17D97
:104F100041B1EF2810D06F2815D0F7281AD0772884
:104F20001FD024E0FE28A1D100210846FBF724FC75
:104F30000020FBF776F999E0B6F8580000F101007F
:104F4000A6F8580013E0B6F8580000F10200A6F8E1
:104F500058000CE0B6F85800A0F10100A6F858007F
:104F600005E0B6F85800A0F10200A6F85800214864
:104F700064210E30FBF780F9B6F95810EC2002F0EE
:104F8000A4FA86F8214071E003E035E065E06EE0C8
:104F9000FEE3EF2806D06F280BD0F72810D0772833
:104FA00015D01AE0B6F85A0000F10100A6F85A0030
:104FB00013E0B6F85A0000F10200A6F85A000CE01F
:104FC000B6F85A00A0F10100A6F85A0005E0B6F8BC
:104FD0005A00A0F10200A6F85A00064864211030D9
:104FE000FBF74AF9B6F95A10EE2002F06EFA86F88D
:104FF00021403BE056000010EF2806D06F280BD070
:10500000F72810D0772815D01AE0B6F8560000F12E
:105010000100A6F8560013E0B6F8560000F10200B1
:10502000A6F856000CE0B6F85600A0F10100A6F86C
:10503000560005E0B6F85600A0F10200A6F85600AA
:105040003C220A21FF48FBF717F9B6F95610F02069
:1050500002F03BFA86F82140DDE3FE2806D100216C
:105060000846FBF789FB0020FBF7DBF8D3E3F17D73
:10507000002907D1FE2805D10846FBF77DFB00205B
:10508000FBF7CFF8C7E303E054E098E081E1E4E107
:10509000EC485638B0F86400801E42B2FD290CD0AE
:1050A000FB2914D07B291ED0EF291FD0F72929D046
:1050B000FE2933D07E2936D0ADE3484689F802C0B8
:1050C0004FF0000100F10200FBF7CBF8A3E30AF177
:1050D000010A484689F802A04FF0000100F10200E1
:1050E000FBF7BFF897E389F8022094E3484689F874
:1050F00001304FF003024FF0000100F10100FBF717
:10510000B0F888E3484689F801704FF003024FF089
:10511000000100F10100FBF7A4F87CE30021084640
:10512000FBF72AFB77E3C848017809B1057072E301
:10513000047070E3FBF775F8307FFD280CD0FB2876
:105140001AD099F9011000292EDBB6F9642091429A
:105150002ADAFE2820D05EE399F80100A0F10100D0
:1051600089F80100B6F864004FF0000142B209F17D
:105170000100FBF776F84EE399F8010000F1010019
:1051800089F80100B6F864004FF0000142B209F15D
:105190000100FBF766F83EE3002299F80130114662
:1051A0005620FBF7FDFA36E3B6F96420914205D1AB
:1051B000FE2803D100210846FBF7DEFA2BE3FBF7BC
:1051C00030F8307FFB2810D0FD281DD07B282AD056
:1051D00099F90110032929D0052340F6B83279B393
:1051E000012968D002296FD015E399F8010000F178
:1051F000010089F801004FF003024FF0000109F1AE
:105200000100FBF72EF806E399F80100A0F1010078
:1052100089F801004FF003024FF0000109F101008D
:10522000FBF71FF8F7E289F801B0F4E2FE2806D197
:1052300000210846FBF7A0FA0020FAF7F2FFEAE2A5
:10524000FFE7EF2806D06F280BD0F72814D0772877
:1052500019D022E0B6F86C0000F10100A6F86C004D
:105260001BE0B6F96C0090FBF3F000F1010000EBDD
:105270008000A6F86C0010E0B6F86C00A0F1010008
:10528000A6F86C0009E0B6F96C0090FBF3F0A0F111
:10529000010000EB8000A6F86C006A480A21163075
:1052A000FAF7EAFFB6F96C104FF4957002F00DF9B9
:1052B00086F82140AFE2EF2807D06F280CD0F728FE
:1052C00015D077281AD023E030E0B6F86E0000F150
:1052D0000100A6F86E001BE0B6F96E0090FBF3F03B
:1052E00000F1010000EB8000A6F86E0010E0B6F8B7
:1052F0006E00A0F10100A6F86E0009E0B6F96E009C
:1053000090FBF3F0A0F1010000EB8000A6F86E0026
:105310004C480A211830FAF7AFFFB6F96E104FF477
:10532000967002F0D2F886F8214074E2EF2806D099
:105330006F280BD0F72810D0772815D01AE0B6F8D0
:10534000700000F10100A6F8700013E0B6F87000DC
:1053500000F10200A6F870000CE0B6F87000A0F1B1
:105360000100A6F8700005E0B6F87000A0F1020098
:10537000A6F870003348642205211A30FAF77CFF42
:10538000B6F970104FF4977002F09FF886F821403C
:1053900041E2FAF746FF307FFB2809D0FD2816D0FE
:1053A0007B2823D099F90110022924D069B332E275
:1053B00099F8010000F1020089F801004FF00202A3
:1053C0004FF0000109F10100FAF74BFF23E299F8D1
:1053D0000100A0F1020089F801004FF002024FF035
:1053E000000109F10100FAF73CFF14E24FF002005E
:1053F00089F801000FE2FE2806D100210846FBF7DC
:10540000BBF90020FAF70DFF05E2EF2801D06F2865
:1054100005D1B6F8721001F10101A6F87210F72853
:1054200001D0772805D1B6F87200A0F10100A6F8E6
:1054300072000448012200211C30FAF71DFFB6F962
:10544000721003E062000010000000104FF498702A
:1054500002F03BF886F82140DDE1FAF7E2FE317F09
:10546000FB290BD0FD291AD07B2929D099F90100FD
:10547000727E90422DD1FE2926D0CCE199F8010010
:1054800000F1010089F8010089F80250707E4FF0A8
:10549000000142B209F10100FAF7E3FEBBE199F81D
:1054A0000100A0F1010089F8010089F80250707E26
:1054B0004FF0000142B209F10100FAF7D2FEAAE171
:1054C000707E89F80100A6E100210846FBF754F937
:1054D000A1E150B1B6F8742042B3012816D0B6F954
:1054E000762022B3012A58D095E1FE291ED1B6F8C4
:1054F000740010B1A6F8745001E0A6F87440B6F933
:1055000074104FF4BA7001F0E0FF84E1FE290DD170
:10551000B6F8760010B1A6F8765001E0A6F876400D
:10552000B6F976104FF4B97001F0CFFF73E102289D
:1055300032D14FF4BB77EF2901D06F2913D1B6F8E0
:10554000780000F10100A6F878004FF0FE024FF05D
:105550000101FA48FAF790FEB6F97810384601F0E2
:10556000B4FF86F82140317FF72901D0772913D184
:10557000B6F87800A0F10100A6F878004FF0FE021E
:105580004FF00101ED48FAF777FEB6F9781038468A
:1055900001F09BFF86F821403DE102280CD1FE2955
:1055A0000BD07E2909D099F90200A8B101284BD06F
:1055B00002287DD003287CD0F2E099F8020000F1A7
:1055C000010089F802004FF003024FF0000109F1D9
:1055D0000200FAF73BFEE3E04FF4BC77EF2901D07D
:1055E0006F2915D1B6F87A0000F10100A6F87A000B
:1055F000D2484FF0FF024FF0000100F10200FAF72D
:1056000046FEB6F97A10384601F05FFF86F8214071
:10561000307FF72801D0772815D1B6F87A00A0F1AD
:105620000100A6F87A00C5484FF0FF024FF00001D4
:1056300000F10200FAF720FEB6F97A10384601F0C0
:1056400044FF86F82140ABE04FF4BD77EF2901D04D
:105650006F2915D1B6F87C0000F10100A6F87C0096
:10566000B6484FF0FF024FF0000100F10400FAF7D6
:105670000EFEB6F97C10384601F027FF86F821406F
:10568000307FF72801D0772818D1B6F87C00A0F138
:105690000100A6F87C00A9484FF0FF024FF000017E
:1056A00000F10400FAF7E8FDB6F97C10384601E095
:1056B00005E03CE001F009FF86F8214070E04FF47E
:1056C000BE77EF2901D06F2915D1B6F87E0000F121
:1056D0000100A6F87E0099484FF0FF024FF000014C
:1056E00000F10600FAF7D3FDB6F97E10384601F056
:1056F000ECFE86F82140307FF72801D077284FD183
:10570000B6F87E00A0F10100A6F87E008B484FF0AD
:10571000FF024FF0000100F10600FAF7ADFDB6F907
:105720007E10384601F0D1FE86F8214038E04FF473
:10573000BF77EF2901D06F2915D1B8F8000000F12B
:105740000100A8F800007D484FF0FF024FF0000173
:1057500000F10800FAF79BFDB8F90010384601F097
:10576000B4FE86F82140307FF72801D0772817D182
:10577000B8F80000A0F10100A8F800006F484FF051
:10578000FF024FF0000100F10800FAF775FD00E09C
:1057900043E0B8F90010384601F097FE86F8214042
:1057A00099F80100032836D1317FC701EF2901D0D4
:1057B0006F2915D1B8F8020000F10100A8F8020025
:1057C0005E484FF0FE024FF0010100F10A00FAF7C7
:1057D00053FDB8F90210384601F077FE86F82140F3
:1057E000317FF72901D0772915D1B8F80200A0F14F
:1057F0000100A8F8020051484FF0FE024FF00101ED
:1058000000F10A00FAF738FDB8F90210384601F045
:105810005CFE86F8214086F82350BDE8F88F4FF0F3
:105820008040474941604FF0000101614FF00301A2
:1058300001704FF0AA0101724FF0550101727047DB
:105840004FF080404FF0AA0101724FF055010172F4
:1058500070472DE9F041394E4FF00105A6F1780669
:105860007572707D374938B1086A40F0806008620F
:10587000486B80F080604863B08F401C00B2B087F6
:1058800002285ADB4FF00004B48735724869C0F330
:10589000C060B076F27E2949904201F1080103D040
:1058A0000A8C02F101020A84F076F08F401C00B2EB
:1058B000F087142801DBF487F572708E401C00B26B
:1058C00070860A2861DB7486B572488C00F101008D
:1058D00000B24884B0F5FA7F03DB4C84088CC8839F
:1058E0000C84B08E42F21077401C00B2B0860A28B9
:1058F0000ADBB486357301F0CFF8B6F92C00B84254
:1059000002DA00F10100B085F08E401C00B2F08692
:10591000142806DBF4867573707C08B1747400E09B
:105920007574308F401C00B2308732280DDB34870D
:10593000B573B07C40B1B47407E026E08400001079
:1059400080841E0000C00920B574708F401C00B216
:105950007087642819DB7487F573B6F92E00B84296
:1059600002DA00F10100F085F07C08B1F47400E087
:10597000F574B6F8400000F1010000B2A6F840004E
:105980003C2802DBA6F840403574BDE8F0814FF0BA
:10599000000500F0A9FF7C4F4FF0010078757B48AF
:1059A0004FF4FA610068B0FBF1F14FF0E020A1F193
:1059B000010141614FF007010161754E306820F02F
:1059C00000603060306C40F080003064306C40F437
:1059D0008070306401F0CDF86E48A0F1010000281D
:1059E000FBD14FF0210001F0D7F80D2001F0D4F8E1
:1059F000112001F0D1F8442001F0CEF8664947F6B5
:105A0000FF7048808880C880088148818881C8816B
:105A1000088248828882C882088348838883C88332
:105A200048848884C884088548858885C885088610
:105A300048868886C886088748878887C8875749E0
:105A40000880488001F07EFB01F0CEFB01F0B0FB46
:105A5000FBF77AFA4C484FF0000400F1D4000470D0
:105A6000FBF7E1F8306840F400603060B06940F462
:105A70000060B0614FF086014FF0640001F025FD39
:105A800000F092F8FFF7CBFE4FF4165001F0F9FD4D
:105A9000DFF80C81F87900B1FC71787A50B1B8F96F
:105AA0000000C82803DA00F10100A8F800007C72A9
:105AB000FBF7F9F8387A10B13C7201F01DFEB87AA4
:105AC00040B1BC727878B978084301D1FEF76BF920
:105AD000FEF7F5F9F87A10B1FC72FBF7BEFB387BE4
