:020000040000FA
:10000000C8740010E1000000E5000000E7000000F7
:10001000E9000000EB000000ED000000000000001F
:10002000000000000000000000000000EF000000E1
:10003000F100000000000000F30000000382010056
:10004000F700000029A901005DA90100F7000000E8
:10005000F7000000ABDB0100F7000000F700000034
:10006000F7000000F7000000F7000000F7000000B4
:10007000F7000000F7000000F7000000F7000000A4
:10008000F7000000F7000000F7000000F700000094
:10009000F7000000F7000000DD3F0000F70000005F
:1000A000F700000061D90100F7000000F700000030
:1000B000BDFC0100F7000000F7000000F7000000A1
:1000C000F7000000F7000000F7000000DFF80CD098
:1000D0001FF05AFE0048004787830100C8740010D3
:1000E00005480047FEE7FEE7FEE7FEE7FEE7FEE71E
:1000F000FEE7FEE7FEE7FEE7CD000000FEE710B5F5
:1001000020F0A0FB20F0FCFB20F0EEFBAFF3008022
:10011000BDE8104020F0BABB10B521F079F921F00C
:1001200097FDBDE8104021F0CBB921F0DFB820F0F9
:10013000A7BE09B10020704720F0ACBA002070477C
:1001400030B54FF000003D4BA3F1140202F10A0458
:10015000115C61B1255CA94209D1195C39B1A1F1E9
:100160000101C9B2195411B94FF000011154115CC9
:10017000215400F10100C0B20A28E9D330BD70B5A6
:100180004FF000042D4EA6F1140604F10104E4B270
:10019000355D1DB1854201D00A2CF6D33055274874
:1001A0000C3040F82410283040F82420343803550F
:1001B00070BD4FF00001214AA2F1140201F10101CA
:1001C000C9B2535C834201D00A29F7D3535C8342FE
:1001D00012D11A480C3050F8213019480360174BDF
:1001E000343353F8213043604FF000005054134A29
:1001F00050544FF001007047002070474FF000014D
:100200000E4AA2F1140201F10101C9B2535C83420A
:1002100001D00A29F7D3525C82420CD107480C3036
:1002200050F8212006480260044A343252F8211066
:10023000416001207047002070470000945D00106D
:1002400058C007200D4BDA601870597070470B4A80
:100250001161907070470949088170470749B1F9E9
:100260000800002809D0A0F1010000B20881002890
:1002700003D10146084601F0B4BA704760C00720B8
:1002800090F900308B4200DA027090F9003093420E
:1002900000DD0170704790F900308B4200DA017088
:1002A00090F90010914200DD02707047B0F9003003
:1002B0008B4200DA0180B0F90010914200DD02802B
:1002C0007047B0F900308B4200DA0280B0F900309C
:1002D000934200DD01807047FE21C0B21FF040BD97
:1002E0008021C0B21FF03CBD1C21C0B21FF038BD40
:1002F0007021C0B21FF034BD70477047FFFFFFFF91
:10030000002802DAC0F1000000B270474FF0000090
:10031000FC4A4FF02001115400F10100C0B2C8287E
:10032000F9D3704701464FF00000F64A00F1010092
:10033000C0B2135C8B4201D0C828F7D3704710B508
:100340004FF00001F04C4FF00A020346B0FBF2F010
:1003500002FB1033635401F10101C9B20529F4D342
:1003600010BDF0B5E94D4FF0010129704FF00501C6
:10037000E54B4FF020064FF000072A7842B15A189B
:1003800012F8014C24B9814202D902F8016C07E04D
:1003900003EB010212F8014D04F1300414702F70C8
:1003A000A1F10101C9B20029E7D1F0BDFEB50346B4
:1003B0004FF02B07002B04DAC3F1000003B24FF01B
:1003C0002D074FF000004FF00A046D4693FBF4F642
:1003D00004FB16332B5433B200F1010040B20A285B
:1003E000F4DB4FF001034FF000044FF009004FF031
:1003F000200643B115F800C0BCF1000F03D19042B4
:1004000001DD2E5408E02B5C03F130032B544FF038
:10041000000304F10104E4B2A0F1010040B200289D
:10042000E7DA2D2F04D1204604F10104E4B22F5461
:100430008AB160B207E005EB000313F8013C2B54CE
:10044000A0F1010040B29042F5DC4FF02E00A8541C
:1004500004F10104E4B20846FFF764FF4FF0000125
:10046000A84A06E0A0EB01066B5C935501F101017F
:1004700049B2A142F6DBFEBDFEB503464FF02B07A5
:10048000002B03DAC3F100034FF02D074FF00000FB
:100490004FF00A046D461E4693FBF4F304FB13660B
:1004A0002E5400F1010040B20A28F4DB4FF00103A2
:1004B0004FF000044FF009004FF0200643B115F84B
:1004C00000C0BCF1000F03D1904201DD2E5408E0C2
:1004D0002B5C03F130032B544FF0000304F10104B3
:1004E000E4B2A0F1010040B20028E7DA2D2F04D1D8
:1004F000204604F10104E4B22F548AB160B207E04F
:1005000005EB000313F8013C2B54A0F1010040B2AD
:100510009042F5DC4FF02E00A85404F10104E4B23F
:100520000846FFF7FFFE4FF00001764A06E0A0EB19
:1005300001066B5C935501F1010149B2A142F6DB62
:10054000FEBD2DE9FE414FF02B0C002803DAC0F16F
:1005500000004FF02D0C4FF000044FF00A056F46DD
:10056000064690FBF5F005FB10663E5504F10104CC
:1005700064B20A2CF4DB4FF001054FF000044FF099
:1005800009004FF0200645B117F80080B8F1000FC0
:1005900003D1984201DD3E5408E03D5C05F1300591
:1005A0003D544FF0000504F10104E4B2A0F1010054
:1005B00040B20028E7DABCF12D0F05D1204604F146
:1005C0000104E4B207F800C08BB160B207E007EBAA
:1005D000000515F8015C3D54A0F1010040B29842BD
:1005E000F5DC4FF02E00F85404F10104E4B201EB05
:1005F000810002EB8000C1B24FF00000414A06E0EA
:10060000A1EB00053B5C535500F1010040B2A04254
:10061000F6DBBDE8FE8170B50D4616461C46FFF7B9
:100620008EFE601CC0B2FFF79CFE05EB850006EB5A
:100630008000C1B24FF00000334B324DA04201D2D6
:100640001A5C6A5407D31A5C202A04D064B105EB03
:10065000010606F8012CA1F10101C9B200F1010067
:10066000C0B20528EAD370BD6A54F4E730B5044639
:1006700008461546FFF756FEFF280CD0214A07E032
:1006800000EB050304F10104D15400F10100C0B2F4
:1006900021780029F4D130BD70B50D461446FFF71E
:1006A0004EFE601CC0B2FFF75CFE2846FFF73AFE24
:1006B0004FF00001144A134D24B9535C202B01D094
:1006C0002B5415E0A14202D2535C2B5410E008D108
:1006D0004FF02E032B5405EB0006535C06F8013C4B
:1006E00006E0535C202B03D005EB000606F8013C26
:1006F000A0F10100C0B201F10101C9B20529DBD3AB
:1007000070BD000062020010AEC00720B3C0072019
:100710001044002801DA084403E0884201DBA0EB22
:100720000100C0B270472DE9FF5F04460D464FF44B
:1007300060601AF03CFE62424021FFF7E9FF4FEA99
:10074000401000F58060044602A920461AF0B6FE6B
:1007500001A904F108001AF0B1FE694604F10C0089
:100760001AF0ACFE2846FFF7DDFD9DF808E04022B8
:10077000302121232324DFF808844FF0C2094FF0F1
:100780003A0C0127FF4E4FF0200AFF4DBEF1550FE6
:1007900011D04FF0C00BBEF1500F7DD0BEF1510F04
:1007A0007BD0BEF1530F79D0BEF1420F77D0BEF1AE
:1007B000560F75D082E39DF80AB0BBF1520F14D1E9
:1007C00000F1010B0BF0FF0B06F800904FF0EA0070
:1007D0000BF1010909F0FF0906F80B004FF0EB0BD4
:1007E00009F10100C0B206F809B000F1010909F0F1
:1007F000FF0906F800A009F1010B0BF0FF0006F855
:1008000009A000F1010909F0FF0906F800A009F1AB
:100810000100C0B206F809A000F1010909F0FF09C2
:1008200006F800A09DF80400B5F83CB0584548D142
:100830009DF8050095F838B0584542D19DF806005E
:1008400095F82C50A8423CD109F10100C0B206F83D
:10085000091000F10105EDB2335405F10100C0B2F9
:1008600006F805C000F10103DBB231541D4603F167
:100870000103D8B2725500F10102D2B206F800C0ED
:1008800002F10100C0B2B15434549DF800004FF0A1
:1008900000024FF0210104E051E007E1C9E1BBE2B1
:1008A00002E3FFF7F9FE9DF8010000224021FFF767
:1008B000F3FE9DF8020000222321FFF7EDFEBDE8C4
:1008C000FF9F09F10100C0B206F809A000F101057F
:1008D000EDB2315405F10100C0B2735500F10103CE
:1008E000DBB2325403F10100C0B206F803A000F1FC
:1008F0000102D2B206F800A002F10100C0B2B15468
:1009000034549DF806004FF000024FF02101FFF72C
:10091000C3FE9DF8040000222321FFF7BDFE9DF8D1
:100920000500401E0C2801D38DF805709DF80500C8
:10093000002208EB80004021FFF798FEBFE700F19E
:10094000010E0EF0FF0E06F800B00EF10100C0B26D
:1009500006F80E904FF02E0B00F1010909F0FF0987
:1009600006F800B04FF0CF0009F1010B0BF0FF0BC0
:1009700006F809004FF0D1000BF1010909F0FF0959
:1009800006F80B0009F10100C0B206F809A000F159
:10099000010909F0FF0906F800A009F10100C0B241
:1009A00006F809A09DF80490B5F83CB0D9453FD1B0
:1009B0009DF8059095F838B0D94539D19DF8069045
:1009C00095F82C50A94533D100F10105EDB2315411
:1009D00005F10100C0B2735500F10103DBB206F866
:1009E00000C003F10100C0B2F15400F10103DBB219
:1009F000325403F10100C0B206F803C000F1010255
:100A0000D2B23154B4549DF800004FF000024FF0C0
:100A10002101FFF741FE9DF8010000224021FFF770
:100A20003BFE9DF8020000222321FFF735FE46E73A
:100A300000F10105EDB206F800A005F10100C0B219
:100A4000715500F10105EDB2335405F10100C0B25A
:100A5000725500F10102D2B206F800A002F10100C5
:100A6000C0B206F802A000F10102D2B23154B4546F
:100A70009DF806004FF000024FF02101FFF70CFE39
:100A80009DF8040000222321FFF706FE9DF80500D3
:100A9000401E0C2801D38DF805709DF8050000223A
:100AA00008EB80004021FFF7E1FD08E700F1010EAF
:100AB0000EF0FF0E06F800B00EF10100C0B206F80D
:100AC0000E904FF02E0900F1010B0BF0FF0B06F812
:100AD00000904FF055000BF1010909F0FF0906F8ED
:100AE0000B004FF0E20009F1010B0BF0FF0B06F8D1
:100AF00009004FF0FB000BF1010909F0FF0906F8AE
:100B00000B004FF0F50009F1010B0BF0FF0B06F89D
:100B100009000BF10100C0B206F80BA09DF804908B
:100B2000B5F83CB0D94546D19DF8059095F838B058
:100B3000D94540D19DF8069095F82C50A9453AD159
:100B400000F10105EDB2315405F10100C0B2735559
:100B500000F10103DBB206F800C003F10100C0B2EE
:100B6000F15400F10103DBB2325403F10100C0B2D1
:100B700006F803C000F10102D2B23154B45405E0CA
:100B8000C42A020062020010004002409DF80000EA
:100B90004FF000024FF02101FFF77EFD9DF80100AC
:100BA00000224021FFF778FD9DF80200002223215A
:100BB000FFF772FD83E600F10105EDB206F800A033
:100BC00005F10100C0B2715500F10105EDB23354D9
:100BD00005F10100C0B2725500F10102D2B206F86F
:100BE00000A002F10100C0B206F802A000F101026B
:100BF000D2B23154B4549DF806004FF000024FF0C9
:100C00002101FFF749FD9DF8040000222321FFF791
:100C100043FD9DF80500401E0C2801D38DF805709A
:100C20009DF80500002208EB80004021FFF71EFD23
:100C300045E600F1010E0EF0FF0E06F800B00EF1D1
:100C40000100C0B206F80E904FF02E0B00F1010922
:100C500009F0FF0906F800B04FF0C10009F1010BDF
:100C60000BF0FF0B06F809004FF0CF090BF1010064
:100C7000C0B206F80B904FF0D10900F1010B0BF058
:100C8000FF0B06F800909DF80990B9F1090F0DD2FD
:100C900009F131090BF10100C0B206F80B9000F127
:100CA000010909F0FF0906F800A02CE0A9F10900EC
:100CB0005A281DD209F101094FF00A00B9FBF0FED4
:100CC000CDF80CE00EF1300E0BF10100C0B206F8C9
:100CD0000BE0DDF80CE04FF00A0B0BFB1E9B0BF159
:100CE000300B00F1010909F0FF0906F800B00AE035
:100CF0000BF10100C0B206F80BA000F1010909F0E8
:100D0000FF0906F800A009F10100C0B206F809A029
:100D10009DF80490B5F83CB0D9453FD19DF80590B9
:100D200095F838B0D94539D19DF8069095F82C50F2
:100D3000A94533D100F10105EDB2315405F10100AF
:100D4000C0B2735500F10103DBB206F800C003F135
:100D50000100C0B2F15400F10103DBB2325403F1DF
:100D60000100C0B206F803C000F10102D2B2315452
:100D7000B4549DF800004FF000024FF02101FFF73E
:100D80008BFC9DF8010000224021FFF785FC9DF8B7
:100D9000020000222321FFF77FFC90E500F101050E
:100DA000EDB206F800A005F10100C0B2715500F1E6
:100DB0000105EDB2335405F10100C0B2725500F1E6
:100DC0000102D2B206F800A002F10100C0B206F89A
:100DD00002A000F10102D2B23154B4549DF80600D1
:100DE0004FF000024FF02101FFF756FC9DF8040080
:100DF00000222321FFF750FC9DF80500401E0C281F
:100E000001D38DF805709DF80500002208EB8000E5
:100E10004021FFF72BFC52E54FF0C10200F1010128
:100E2000C9B232544FF0E00301F10100C2B2735471
:100E30004FF0F20102F10100C0B2B1549DF8091067
:100E400009290BD201F1310100F10102D2B2315472
:100E500002F10100C0B206F802A022E0A1F10902ED
:100E60005A2A14D201F101014FF00A05B1FBF5F342
:100E700003F1300400F10102D2B2345405FB131126
:100E800001F1300102F10100C0B2B15409E000F1FA
:100E90000101C9B206F800A001F10100C0B206F8D4
:100EA00001A006F800A00AE59DF80990B9F1490FE4
:100EB00004D19DF80A90B9F14E0F03D0BEF1560F40
:100EC0007ED0CBE000F1010909F0FF0906F800B07F
:100ED0004FF0E20009F1010E0EF0FF0B06F80900D9
:100EE0004FF02E0E0BF1010909F0FF0906F80BE097
:100EF0004FF0550E09F1010B0BF0FF0B06F809E05E
:100F00000BF1010909F0FF0E06F80B004FF0F50B8D
:100F10000EF1010000F0FF0906F80EB009F1010022
:100F2000C0B206F809A000F1010909F0FF0906F8AE
:100F300000A09DF80400B5F83CB0584541D19DF89B
:100F4000050095F838B058453BD19DF8060095F856
:100F50002C50A84235D109F10100C0B206F80910A1
:100F600000F10105EDB2335405F10100C0B206F8FD
:100F700005C000F10103DBB2315403F10100C0B23E
:100F8000F25400F10102D2B206F800C002F10100F1
:100F9000C0B2B15434549DF800004FF000024FF03D
:100FA0002101FFF779FB9DF8010000224021FFF7A6
:100FB00073FB9DF8020000222321FFF76DFB7EE406
:100FC0003DE009F10100C0B206F809A000F10105F9
:100FD000EDB2315405F10100C0B2735500F10103C7
:100FE000DBB2325403F10100C0B206F803A000F1F5
:100FF0000102D2B206F800A002F10100C0B2B15461
:1010000034549DF806004FF000024FF02101FFF725
:1010100043FB9DF8040000222321FFF73DFB9DF8D0
:101020000500401E0C2801D38DF805709DF80500C1
:10103000002208EB80004021FFF718FB3FE49DF8F9
:101040000990B9F14F0F09D19DF80A90B9F1550FE8
:1010500004D19DF80B90B9F1540F03D0BEF14F0F9E
:101060007DD0C8E000F1010909F0FF0906F800B0E1
:101070004FF0E20009F1010E0EF0FF0B06F8090037
:101080004FF02E0E0BF1010909F0FF0906F80BE0F5
:101090004FF0550E09F1010B0BF0FF0B06F809E0BC
:1010A0000BF1010909F0FF0906F80B004FF0FB00F6
:1010B00009F1010B0BF0FF0B06F809004FF0F500EA
:1010C0000BF1010909F0FF0906F80B0009F1010015
:1010D000C0B206F809A09DF80490B5F83CB0D94517
:1010E00041D19DF8059095F838B0D9453BD19DF890
:1010F000069095F82C50A94535D100F10105EDB2C7
:10110000315405F10100C0B2735500F10103DBB2A7
:1011100006F800C003F10100C0B2F15400F1010370
:10112000DBB2325403F10100C0B206F803C000F193
:101130000102D2B23154B4549DF800004FF00002C5
:101140004FF02101FFF7A8FA9DF80100002240218D
:10115000FFF7A2FA00229DF80200232100E040E000
:10116000FFF79AFA63E400F10105EDB206F800A07A
:1011700005F10100C0B2715500F10105EDB2335423
:1011800005F10100C0B2725500F10102D2B206F8B9
:1011900000A002F10100C0B206F802A000F10102B5
:1011A000D2B23154B4549DF806004FF000024FF013
:1011B0002101FFF771FA9DF8040000222321FFF7B7
:1011C0006BFA9DF80500401E0C2801D38DF80570C0
:1011D0009DF80500002208EB80004021FFF746FA49
:1011E00025E49DF80990B9F1560F04D19DF80A90B5
:1011F000B9F14C0F7DD0BEF1540FB3D19DF80990D9
:10120000B9F1530FAED19DF80A90B9F1590FA9D198
:101210009DF80B90B9F1530FA4D100F1010909F029
:10122000FF0906F800B04FF0E20B09F10100C0B26F
:1012300006F809B04FF02E0900F1010B0BF0FF0B7F
:1012400006F800904FF054000BF1010909F0FF0976
:1012500006F80B004FF0F10B09F10100C0B206F8DF
:1012600009B04FF0E80E00F1010909F0FF0906F896
:1012700000E009F10100C0B206F809B000F101096F
:1012800009F0FF0906F800A09DF80400B5F83CB08D
:1012900058457ED19DF8050095F838B0584578D16D
:1012A0009DF8060095F82C50A84272D109F1010072
:1012B000C0B206F8091000F10105EDB2335405F192
:1012C0000100C0B206F805C000F10103DBB23154E1
:1012D00003F10100C0B2F25400F10102D2B206F8EB
:1012E00000C002F10100C0B2B15434549DF80000B6
:1012F00000E012E04FF000024FF02101FFF7CCF9BF
:101300009DF8010000224021FFF7C6F99DF8020078
:1013100000222321FFF7C0F94CE44FF0CF0B00F17E
:10132000010909F0FF0906F800B04FF0D00009F1FB
:10133000010E0EF0FF0B06F809004FF0C30E0BF183
:10134000010909F0FF0906F80BE009F1010B0BF0A8
:10135000FF0B06F809004FF0C70E0BF1010000F07B
:10136000FF0906F80BE009F10100C0B206F809A078
:1013700000F1010909F0FF0906F800A009F10100D8
:10138000C0B206F809A09DF80490B5F83CB0D94564
:1013900000E07EE03FD19DF8059095F838B0D94542
:1013A00039D19DF8069095F82C50A94533D100F11C
:1013B0000105EDB2315405F10100C0B2735500F1E1
:1013C0000103DBB206F800C003F10100C0B2F15422
:1013D00000F10103DBB2325403F10100C0B206F8A0
:1013E00003C000F10102D2B23154B4549DF80000A0
:1013F0004FF000024FF02101FFF74EF99DF8010078
:1014000000224021FFF748F99DF802000022232125
:10141000FFF742F90CE400F10105EDB206F800A077
:1014200005F10100C0B2715500F10105EDB2335470
:1014300005F10100C0B2725500F10102D2B206F806
:1014400000A002F10100C0B206F802A000F1010202
:10145000D2B23154B4549DF806004FF000024FF060
:101460002101FFF719F99DF8040000222321FFF75D
:1014700013F99DF80500401E0C2801D38DF8057066
:101480009DF80500002208EB80004021FFF7EEF8F0
:1014900083E409F10100C0B206F809A000F10105DA
:1014A000EDB2315405F10100C0B2735500F10103F2
:1014B000DBB2325403F10100C0B206F803A000F120
:1014C0000102D2B206F800A002F10100C0B2B1548C
:1014D00034549DF806004FF000024FF02101FFF751
:1014E000DBF89DF8040000222321FFF7D5F89DF8D2
:1014F0000500401E0C2801D38DF805709DF80500ED
:10150000002208EB80004021FFF7B0F845E4F0B579
:101510000446084616461F46FEF704FF02461046DC
:10152000FF4DFF2806D108E0295404F1010400F121
:101530000100C0B221780029F6D1FA4800780028CD
:1015400006D0002F04D002EB06014FF05F00685474
:10155000F0BD2DE9F04F0746DDE9090588469146C3
:101560009A46FEF7DFFEEF4B2021ED4C0A224FF0AA
:10157000640C012D09D11E783EB104EB0006A6F1E2
:101580000E06B1707170317017E097FBF2FB02FB31
:101590001B7E04EB00060EF1300E06F80CEC9BFBF4
:1015A000F2FE02FB1EBB0BF1300B06F80DBC97FBE5
:1015B000FCF707F1300706F80E7C022D09D11E78E2
:1015C0003EB104EB0006A6F10A06B17071703170ED
:1015D00017E098FBF2F702FB178B04EB0006A6F16D
:1015E0000A060BF1300B86F802B097FBF2FB02FB08
:1015F0001B7707F13007777098FBFCF707F130078E
:101600003770032D09D11E783EB104EB0006A6F118
:101610000606B1707170317017E099FBF2F702FBAA
:10162000179804EB0006A6F1060608F1300886F8C4
:10163000028097FBF2F802FB187707F1300777700A
:1016400099FBFCF707F130073770042D09D11B789F
:101650003BB121542044A0F1020041700170BDE86B
:10166000F08F9AFBF2F102FB11A303F13003235434
:1016700091FBF2F302FB13112044A0F1020001F1EF
:10168000300141709AFBFCF101F130010170E6E795
:1016900010B50C46FEF746FEA1491CB14FF00302FF
:1016A0000A5410BD4FF004020A5410BD17B501EBE7
:1016B000810002EB8000C2B29DF800309A4803F02E
:1016C0000F01445C96498C54A2F10102D2B200EBA6
:1016D00013131B788B54A2F10102D2B29DF8013092
:1016E00003F00F04045D8C54A2F10102D2B200EBAE
:1016F00013131B788B54A2F10102D2B29DF8023071
:1017000003F00F04045D8C54A2F10102D2B200EB8D
:1017100013131B788B54A2F10102D3B29DF803205E
:1017200002F00F04045DCC54A3F10103DBB200EB23
:1017300012100078C8541EBD30B57C490124784B86
:1017400091F9012091F904108A4204D100EB800044
:1017500003F8204030BD4D1CAA4206D100F1010023
:1017600000EB800003F8204030BD8D1CAA4206D15A
:1017700000F1020000EB800003F8204030BDCD1CDA
:10178000AA4206D100F1030000EB800003F82040DC
:1017900030BD0D1DAA4206D100F1040000EB80000F
:1017A00003F8204030BD4D1DAA4206D100F10500CE
:1017B00000EB800003F8204030BD8D1DAA4206D109
:1017C00000F1060000EB800003F8204030BDC91D89
:1017D0008A42FBD100F1070000EB800003F82040B3
:1017E00030BD534B1A88A2F10102104400B2188098
:1017F000504A00EB800002444C48136803601279A1
:101800000271427811444170704770B5484DB5F986
:10181000004004F101062E80464D04EB840425446B
:10182000424C26682E6026792E71207061702271DC
:10183000A37070BD2DE9F04180460F461646FEF7B5
:1018400065FD374C4FF0000518F8010B04F8010B4B
:1018500005F10105EDB2142DF6D34FF0000017F895
:10186000011B04F8011B00F10100C0B21428F6D3DB
:101870004FF0000016F8011B04F8011B00F10100F5
:10188000C0B21428F6D34FF0000013F8011B04F87F
:10189000011B00F10100C0B21428F6D3BDE8F081AD
:1018A00010B5029CFFF7C6FF2048C37882784178C4
:1018B0005E20FFF7AAFF642094FBF0F0BDE8104023
:1018C000C0B2FEF7C8BC2DE9FE430D464FEA4010FA
:1018D00000F58060044602A9204619F0EFFD01A939
:1018E00004F1080019F0EAFD694604F10C0019F052
:1018F000E5FD2846FEF716FD094C4FF0200600F1E5
:101900000101C9B226544FF0300701F10100C0B205
:10191000675400F101014FF02108C9B20CE000004A
:1019200062020010490000104E2B0200E00100107E
:1019300072000010F05D001004F800804FF04009C4
:1019400001F10100C0B204F8019000F10101C9B237
:10195000265401F10100C0B2665400F10101C9B280
:1019600027544FF0230201F10100C5B262549DF8E3
:1019700006004FF000024FF02101FEF78DFE9DF8AA
:10198000040000222321FEF787FE9DF80500401E7B
:101990000C2803D34FF001008DF805009DF80500D9
:1019A0001949002201EB80004021FEF75FFE05F19E
:1019B0000100C0B2665500F10101C9B2275401F11E
:1019C0000100C0B204F801804FF03A0200F10101B9
:1019D000C9B2225401F10100C0B2675400F1010103
:1019E000CDB204F800909DF800004FF000024FF0D7
:1019F0002101FEF751FE9DF8010000224021FEF773
:101A00004BFE6655BDE8FE83C42A020070472DE9EF
:101A1000F047FF4CA08C401C00B2A084B0F5E16FF1
:101A200002DB4FF00000A084B4F92400B0F5DF6FB2
:101A300011D90F2301226421D220FEF7A0FB0F232E
:101A40000022D821D720FEF79AFB0F230022D821AD
:101A5000DC20FEF794FBB4F92400A0F5E06107391F
:101A600033D1EC4DEC4CED4E288821880A27DFF865
:101A7000B083DFF8B093884210D0B6F9080090FB2D
:101A8000F7F000B2FEF73CFCB8F90010884205DA26
:101A9000B4F90010B9F9000019F087FD6888618871
:101AA000884212D0B6F9080090FBF7F000B2FEF7BA
:101AB00027FCB8F90010884207DAB4F90210B9F926
:101AC0000200BDE8F04719F070BDBDE8F08770472F
:101AD0002DE9F05FD44DB5F90010D44BB3F90000F7
:101AE00048434FF4FA6490FBF4F0CC4F7880B5F99A
:101AF0000810CF4EB6F9000000FB01F04FF42F7232
:101B000090FBF2F0B880B5F91810B3F9020000FBB1
:101B100001F090FBF4F0A7F84E00B5F90210B6F909
:101B2000020000FB01F090FBF2F0A7F850004FF02C
:101B3000DC00FEF763FBBF4EF0BBB74B1888DFF845
:101B4000D4C2BCF80010A0EB0100B6F9001001FBF4
:101B500000F1B94845F6386245F6926800884FF4BE
:101B6000967945F2116A4FF47A7B904201D0404554
:101B700002D191FBF9F10EE0A0F5A84EBEF5FD7E75
:101B800004D0BEF1190E01D0504502D191FBF4F101
:101B900001E091FBFBF139815988BCF80230A1EBDF
:101BA0000303B6F9021001FB03F1904201D0404556
:101BB00003D191FBF9F00DE00EE0A0F5AA42FA3A4C
:101BC00003D0193A01D0504502D191FBF4F001E065
:101BD00091FBFBF0A7F85400B5F90C1040F6B739AB
:101BE000A1F2213801200022C84501D23A7300E059
:101BF0003873924BB3F900C00CFB01FC44F6206A29
:101C00009CFBFAFCACF2111CA7F80AC0B5F90EC097
:101C1000ACF2213BCB4502D287F8582001E087F88F
:101C20005800B3F9023003FB0CF393FBFAF3A3F271
:101C30001113A7F85630B5F90430DFF804C2BCF927
:101C400000C003FB0CF393FBF4F30FFA83FC7D4B12
:101C5000A3F800C0B5F90AB07B4BDE46ABF2213BDE
:101C6000CB4501D21A7000E01870DFF8E0B1BBF983
:101C7000005005FB0EF595FBFAFEAEF2111E744DF9
:101C8000A5F800E0C84501D25A7000E05870DFF8AE
:101C900098E1BBF9028008FB01F898FBFAF1A1F288
:101CA00011110FFA81F8A5F80280BEF90610A1F211
:101CB000213ECE4501D29A7000E09870BBF9040035
:101CC000484390FBFAF0A0F211100FFA80F9A5F842
:101CD00004906048DFF880A1DFF880E1008870B9E7
:101CE0005F4908684968A0EB0101B6F9000000FBF4
:101CF00001F090FBF4F0AAF80000AEF8000059489B
:101D0000DFF864B1594E0088D8B94FF00001084699
:101D1000BBF900500AE000EB800404EBC00406EBC2
:101D2000C404646A214400F10100C0B2A842F2DB9D
:101D300009B24FF00A0091FBF0F0AAF80000AEF8EB
:101D40000000A7F802C04A4C21884A4DB5F90000AE
:101D500048434FF47A6A90FBFAF0474980B2088012
:101D6000DFF818E1642802D2AEF8000003E044482E
:101D70000088AEF800006088B5F90240444394FB47
:101D8000FAF048803F48B0F900103F4CB4F90050D9
:101D90004D4341F2707195FBF1FA3C4DA5F800A05E
:101DA000B0F902E0B4F902A00AFB0EFA9AFBF1FACC
:101DB000A5F802A0B0F904A0B4F9044004FB0AF4A9
:101DC00094FBF1F4AC80B0F906A0314CB4F90050AA
:101DD00005FB0AF595FBF1FA2E4DA5F800A0B0F928
:101DE00008E0B4F902A00AFB0EFA9AFBF1FAA5F892
:101DF00002A0B0F90AA0B4F9040000FB0AF090FBBD
:101E0000F1F0A88008F211180FFA88F444E00000FD
:101E100010C0072078C0072012C10720D4EA07208D
:101E2000A80000105A240200405D001074C0072072
:101E300090030010940300100C0100107CC00720D8
:101E400086C0072062010010A301001080C0072097
:101E50001A02001092010010600100106C010010C5
:101E6000C8C007205E010010DC00001010ED072044
:101E7000CC0300109A030010200200108A01001009
:101E800074010010225E0010B8C007202602001066
:101E9000D40300102C020010DFF81884A8F80040CA
:101EA00009F211190FFA89F5A8F80250597888F843
:101EB0000810987888F80900FF4B01B910B1012982
:101EC0000AD00AE004EB050000EBD0706FF48871D3
:101ED00001EB600018801CE008B121B105E0A5F21B
:101EE00011151D8015E0012802D0012904D010E051
:101EF000A4F211141C800CE001280AD1EF480078EC
:101F0000052803D2EE480088188002E04FF0140044
:101F10001880EC48EC490378552B04D1BCF1C80F6C
:101F200001DD3B890B84407855280AD1B7F94E0072
:101F3000C82806DDB7F95400B7F90830984200DD2B
:101F400008844FF00001BBF9003047E001EB81004D
:101F500000EBC10006EBC000C478192C28D28479AC
:101F6000C57904EB05244462047A457A04EB052420
:101F70000462847AC57A04EB0524C461047B84621C
:101F8000447B80F85640847B80F84640047C457C46
:101F900004EB05240463847CC57C04EB0524A0F8D1
:101FA0005E40047D457D04EB0524A0F8604012E00E
:101FB000C26142620262826280F846200263847CCF
:101FC000C57C04EB0524A0F85E40047D457D04EB50
:101FD0000524A0F8604001F10101C9B29942B5DBC6
:101FE000BA4DB7F908104FF00A0091FBF0F1B7F9BC
:101FF000544094FBF0F00844C0F1000007B22F8079
:10200000B34C22804FF0000012E000EB800101EBA6
:10201000C00106EBC10191F803C0BCF1050F04D269
:10202000496AB4F800C06144218000F10100C0B2E7
:102030009842EADB2088384400B22880002800DA81
:102040002A80A448B0F90040002C66D04FF000036D
:10205000A14D60E003F1140000EB800101EBC00032
:1020600006EBC000C178192939D28179C77901EB13
:10207000072703EB430105EB4111CF61077A90F885
:1020800009C007EB0C27CF62877A90F80BC007EBEB
:102090000C278F61077B0F62477B81F84670877B37
:1020A00090F80FC007EB0C278F62077C90F811C0E7
:1020B00007EB0C274F628A70877C81F85970C77CC8
:1020C00081F85A70077D81F85870477D81F85B7000
:1020D000877D81F85C70C07D81F85D0018E003EBBE
:1020E000430005EB4010C261C2628261026280F867
:1020F0004620426282624FF01901817080F85920B7
:1021000080F85A2080F8582080F85B2080F85C2006
:1021100003F10103DBB2A3429CDBBDE8F09F6F48F3
:10212000416821F4402141F480214160416821F45B
:10213000403141F480314160416821F4404141F433
:1021400080414160416C21F4402141F4002141640F
:10215000416C21F4403141F400314164416C21F47F
:10216000404141F4004141645D48016821F0E06173
:102170000160016841F400110160016821F48031BF
:102180000160016821F47F4141F4807101604FF4E6
:102190008071C16053484FF48001016070472DE9A0
:1021A000F041494C2A3460882188401A00B201F07D
:1021B000D1FEA61D3080A0886188401A00B201F0CF
:1021C000C9FE7080A0882188401A00B201F0C2FECA
:1021D000B0804FF496713C4D884202DAA088A88204
:1021E0000CE0B6F90200884202DA6088A88205E0B5
:1021F000B6F90000884201DA2088A882AF7800266C
:102200002FB33948B5F9141002680A4402604268D5
:102210000A44426082680A448260C2681144C16014
:10222000A98B01F1010109B2A983B1F5805F00DB3F
:10223000AE83B5F91C108A0531D14FEAA12150F8BF
:1022400021204FEA22226A8240F8216027E02748B5
:10225000EC782A7900EB8413B5F9141043F82210B6
:1022600090070FD1014653F820C0614400F10100EE
:10227000C0B21028F7D34FEA21101B49A1F1200169
:1022800021F81400641CE0B2E870102807D3EE7047
:1022900002F10102D0B22871102800D32E716E70A5
:1022A00007F1010707F00100A8700D4A08B1106896
:1022B0001EE023E0B4040820820100106200001038
:1022C000D20300100A01001010C0072064010010A2
:1022D000B4C00720DE000010D8F8072000C002407C
:1022E0000040034000E100E0605D00104059001034
:1022F00020F0FF0000F1040010603DE0E9780807DD
:1023000006D4106820F0FF0000F10100106005E025
:10231000106820F0FF0000F102001060FA48036826
:1023200043F080530360036A43F080430362036E0B
:1023300043F080630366CB070AD0436943F08053C0
:1023400043618B0709D4436B23F08043436308E068
:10235000436923F080534361F3E7436B43F08043C9
:102360004363490704D4416F21F08061416703E072
:10237000416F41F080614167106840F080701060EB
:10238000BDE8F08100BF704770477047704770B577
:102390000A23DF4CDD48002522680068B2FBF3F613
:1023A000B0FBF3F1DB4AB1420BD111780F2902D215
:1023B00001F10101117011780A2903D3D64908608F
:1023C00000E015702060D548D54CB0F90000B4F994
:1023D0000020B0FBF3F1B2FBF3F3D24A99420BD1E8
:1023E00011780F2902D201F10101117011780A2927
:1023F00003D3CD49088000E01570208070BD70B512
:102400004FF00000C949CA4D4FF00104B1F90C204A
:10241000034604FA00F10A4201D02C5400E02B5488
:1024200000F10100C0B20C28F3D3C24E2878C24C90
:10243000317881420BD0B4F90010012907DB012863
:102440007ED0002301220B21BCA017F012F9717875
:10245000687881420BD0B4F90010022907DB01280B
:102460006FD0002302220B21B9A017F002F9B17836
:10247000A87881420BD0B4F90010032907DB0128AA
:1024800072D0002303220B21B6A017F0F2F8F178E6
:10249000E87881420BD0B4F90010042907DB012849
:1024A00079D0002304220B21B3A017F0E2F8317990
:1024B000287981420BD0B4F90010052907DB0128E7
:1024C00071D0002305220B21B0A017F0D2F871794A
:1024D000687981420BD0B4F90010062907DB012886
:1024E00068D0002306220B21ADA017F0C2F8B17905
:1024F000A87981420BD0B4F90010072907DB012825
:102500005FD0002307220B21AAA017F0B2F8F179BF
:10251000E87981420BD0B4F90010082907DB0128C3
:1025200056D0002308220B21A7A017F0A2F8317A79
:10253000287A81420ED0B4F9001009290ADB01E0A3
:1025400013E019E001284AD0002309220B21A3A09F
:1025500017F08FF84FF00000295C315400F10100B2
:10256000C0B20C28F8D370BD0EE001231A460B212F
:102570009FA017F07EF86AE7012302220B21A1A099
:1025800017F077F873E706E0012303220B21A2A0DE
:1025900017F06FF87BE7012304220B21A3A017F0AB
:1025A00068F884E7FFE7012305220B21A4A017F0B8
:1025B00060F88CE7012306220B21A6A017F059F83A
:1025C00095E7012307220B21A7A017F052F89EE7F9
:1025D000012308220B21A9A017F04BF8A7E701233C
:1025E00009220B21AAA017F044F8B3E730B4AD4894
:1025F000B0F900001E282EDBAB48AD4BB0F900202F
:10260000AA48B0F90010B3F900008A4215DA8C1A12
:10261000322C12DDA749B1F9001001EB8101B0EBBA
:10262000410F18DA00F1010000B21880B0EB410F41
:1026300011D130BC012000F094BE14398A420ADD69
:10264000002808D0A0F1010000B21880002802D1B3
:1026500030BC00F086BE30BC70472DE9F041914897
:10266000B0F900000A284CDB8F4E9348934FB6F91F
:102670000010B0F90020B7F9000000258D4C914200
:1026800017DDB4F9002002EB8203B0EB430F0ADA46
:1026900000F1010000B23880B0EB430F15DB0120E0
:1026A00001F049F811E002EB82004FEA4000388067
:1026B0000BE0002808DDA0F1010000B2388020B94D
:1026C000002001F038F800E03D807D48B6F90010A8
:1026D0007C4EB0F90000814214DAB4F90000B6F97A
:1026E000002000EB8003B2EB430F0CDA02F1010291
:1026F00010B23080B0EB430F02DB022001F01BF878
:10270000F6E048E1E6E0DFE000C00920DC0300106D
:10271000C0C00720C6C00720DC010010C4C00720CD
:10272000E0030010E20300108E010010225E001092
:10273000D2040820365E0010E40000104176746F69
:102740006D6174202331206973204F4646000000DC
:102750004176746F6D6174202332206973204F4677
:10276000460000004176746F6D6174202333206948
:1027700073204F46460000004176746F6D617420EF
:102780002334206973204F46460000004176746F61
:102790006D6174202335206973204F464600000088
:1027A0004176746F6D6174202336206973204F4623
:1027B000460000004176746F6D61742023372069F4
:1027C00073204F46460000004176746F6D6174209F
:1027D0002338206973204F46460000004176746F0D
:1027E0006D6174202339206973204F464600000034
:1027F0004176746F6D6174202331206973204F4ED0
:10280000200000004176746F6D61742023322069CE
:1028100073204F4E200000004176746F6D6174206C
:102820002333206973204F4E200000004176746FDF
:102830006D6174202334206973204F4E2000000006
:102840004176746F6D6174202335206973204F4E7B
:10285000200000004176746F6D617420233620697A
:1028600073204F4E200000004176746F6D6174201C
:102870002337206973204F4E200000004176746F8B
:102880006D6174202338206973204F4E20000000B2
:102890004176746F6D6174202339206973204F4E27
:1028A0002000000070000010680100108600001079
:1028B000DEC00720AC0000109E000010F4030010E2
:1028C000A0000010E0C0072000EB80004FEA4000AD
:1028D00030800DE0B6F90000002808DDA0F101000D
:1028E00000B2308020B9002000F025FF00E03580E4
:1028F000C74EC848C84FB6F90010B0F90000814271
:1029000019DDB4F90000B7F9002000EB8003B2EB49
:10291000430F0ADA02F1010210B23880B0EB430F24
:1029200017DB012001F057F813E000EB80004FEABD
:10293000400038800DE0B7F90000002808DDA0F164
:10294000010000B2388020B9002001F044F800E016
:102950003D80B248B6F90010B14EB0F90000814296
:102960001ADAB4F90000B6F9002000EB8003B2EBEC
:10297000430F0BDA02F1010210B23080B0EB430FCB
:1029800009DBBDE8F041022001F025B800EB800032
:102990004FEA40003080F3E4B6F90000002809DD7A
:1029A000A0F1010000B230800028F4D1BDE8F04170
:1029B00001F011B83580E3E430B49A48B0F9000072
:1029C0000A2822DB98489A4CB0F900109748B0F9D1
:1029D0000020B4F90000914218DD964AB2F90020B7
:1029E00002EB8203B0EB430F0ADA00F1010000B200
:1029F0002080B0EB430F08DB30BC012001F044B96C
:102A000002EB82004FEA4000208024E6002808DD27
:102A1000A0F1010000B220800028F6D130BC01F006
:102A200033B94FF00000208015E62DE9F041824CCB
:102A3000B4F9100010B1A0F1010020827F48804D50
:102A4000008828807F4E0A27B6F90800002806DA99
:102A5000FDF756FC90FBF7F0298808442880B6F96A
:102A60005400002806DAFDF74BFC90FBF7F02988AC
:102A7000084428807448B5F90010B0F9000091FBB3
:102A8000F0F000F10100C0B26072704AB2F90020AB
:102A900091FBF2F101F10101C9B2A1726C4B4FF04F
:102AA0003C05B3F90020904202DD1880258205E044
:102AB000914203DA208A08B9198025826548B0F965
:102AC00000201A80BDE8F04101216148FDF7EEBB0E
:102AD0002DE9F0416048584CB0F9001061845F481E
:102AE000008810B15E4800886084B4F9260010B1F7
:102AF000A0F10100E084B4F9280010B1A0F10100B8
:102B00002085504890F83F20920703D190F88B0021
:102B1000800704D04FF00A0091FBF0F06084E120C0
:102B2000FDF76CFB002580B34E490868642806D089
:102B3000692809D06E280DD0E52829D02AE04868F8
:102B4000E1890844A08125E04868E189A1EB000003
:102B5000A0811FE0A089A0F1010000B2A0811E2881
:102B600007DD41484149B0F90000B1F90010884241
:102B70000CDA2078401CC0B22070FA280AD10A234F
:102B80000022E721E620FDF7FAFA03E0257001E0D4
:102B90004868A0812572E5712E48354AB0F90030A9
:102BA0001AE001EB810000EBC10002EBC000C67827
:102BB0001E2E02D24FF00106267200F12C00A789CA
:102BC000068D3E44068710F82C69F60701D0A0F860
:102BD000645001F10101E171E1799942E1DB207A70
:102BE00020B94FF49660A081E081E083124840F262
:102BF000DA720A210C30FDF759FBA571CBE670475C
:102C000070477047704770477047704770470000C3
:102C10006A0100109A000010F60300109C000010DA
:102C2000E2C007207000001070010010900000103A
:102C3000F8030010AC00001010C00720B4C007203B
:102C4000C8030010D4EA0720A4000010A60000105A
:102C5000C6030010DC000010A8000010D8C0072038
:102C6000E803001058C00720620100109400001013
:102C700010ED072030B5FF48FF4A0178106819B100
:102C800040F00100106002E020F0010010604FF001
:102C90000000FA4C4FF0010300EB400101EB001182
:102CA00004EB810191F83D10C9070AD000F101053C
:102CB00003FA05F1156825EA010545EA01051560E5
:102CC00007E000F1010503FA05F1156825EA0105A1
:102CD000156000F10100C0B20228DDD34FF0000002
:102CE000E74C00EB800101EBC00104EBC101497826
:102CF00011F0EF0F0AD000F1030503FA05F1156892
:102D000025EA010545EA0105156007E000F1030128
:102D100003FA01F5116821EA0501116000F10100D3
:102D2000C0B20C28DDD34FF00000D34C04F11404E2
:102D3000215C51B100F10F0503FA05F1156825EA90
:102D4000010545EA0105156007E000F10F0115686E
:102D500003FA01F125EA0105156000F10100C0B296
:102D60000628E5D34FF00000C64D1C46295C01291A
:102D700014D000F1180104FA01F3116821EA0301EB
:102D8000116000F10100C0B20428EFD3BE48007802
:102D900078B1106840F0805010600EE000F1180328
:102DA00004FA03F1136823EA010343EA0103136001
:102DB000E7E7106820F0805010609468106820EAFF
:102DC0000401D160536843EA01035360AF490D88A1
:102DD00015B123F0807353604B881BB1536823F007
:102DE000007353608B881BB1536823F0806353607A
:102DF000C98819B1516821F00061516024EA0004CA
:102E00006FEA04011161A24B1B881BB9A14B41EA77
:102E1000030111611369516801EA03015160906077
:102E200030BDF8B54FF46065284618F0C0FA00F1DF
:102E3000010004463F2C01D94FF0000421B228467E
:102E400018F0B3FB40F60266304618F0B0FA3F289F
:102E500000D0204601B2304618F0A7FB284618F0F3
:102E6000A6FA4FF4806101EB40144FF055008DF845
:102E700000004FF000068DF801604FF052008DF811
:102E800002008DF803606946204618F012FC009697
:102E90006946201D18F00DFC7F4DA88B8DF80000B1
:102EA000287E8DF80100287B8DF802008DF80360E4
:102EB000694604F1080018F0FCFB287A8DF8000040
:102EC00028798DF8010028788DF802007348D0F831
:102ED00080018DF80300694604F10C0018F0E9FB4D
:102EE0004FF041058DF800508DF801508DF80250DB
:102EF0008DF80350694604F1100018F0DAFB8DF8E4
:102F000000508DF801508DF802508DF8035069463D
:102F100004F1140018F0CDFB8DF800508DF801502D
:102F20008DF802508DF80350694604F1180018F02E
:102F3000C0FB8DF800508DF801508DF802508DF8CF
:102F40000350694604F11C0018F0B3FBF8BD2DE9ED
:102F5000F84F06460C464FF0540774B1012C04D0CC
:102F6000022C05D0032C06D007E04FF0550704E0F3
:102F70004FF0750701E04FF04C07DFF81C81404827
:102F800006EB860101EBC6014FF00009A8F120080D
:102F90004FF4606A4FF4806500EBC100012A02D053
:102FA000002A7DD0DAE134B1012C09D0022C0CD0FA
:102FB000032C0FD012E0417841F0010141700DE087
:102FC000417841F00201417008E0417841F004018C
:102FD000417003E0417841F00801417080F85740AA
:102FE000504618F0E4F900F101001FFA80FBBBF134
:102FF0003F0F01D94FF0000B0FFA8BF1504618F03C
:10300000D4FA40F6026018F0D2F980B23F2800D01E
:10301000584601B240F6026018F0C7FA504618F060
:10302000C6F905EB401085B24FF053008DF8000053
:103030008DF801608DF802708DF80390694628467E
:1030400018F037FBCDF800906946281D18F031FBC9
:10305000B8F83C008DF8000098F838008DF80100B1
:1030600098F82C008DF802008DF80390694605F160
:10307000080016E05700001014000010D4EA0720E2
:1030800010ED0720AA010010660000104A0200108F
:1030900092000010FEFFFFEF2040024000C00F40F2
:1030A000BCE018F006FB98F828008DF8000098F8AE
:1030B00024008DF8010098F820008DF802008DF8AA
:1030C0000390694605F10C0018F0F3FA4FF0410740
:1030D0008DF800708DF801708DF802708DF8037016
:1030E000694605F1100018F0E4FA8DF800708DF8CB
:1030F00001708DF802708DF80370694605F11400B7
:1031000018F0D7FA8DF800708DF801708DF8027004
:103110008DF80370694605F1180018F0CAFA8DF8A9
:1031200000708DF801708DF802708DF8037069469B
:1031300005F11C0018F0BDFA26B1012E26D0022E92
:1031400048D00BE134B1012C0BD0022C10D0032C51
:1031500015D003E1002301220421DFA016F089FA33
:10316000FCE001231A460421E1A016F082FAF5E002
:10317000022301220421E5A016F07BFAEEE00323EE
:1031800001220421E9A016F074FAE7E034B1012C21
:103190000BD0022C10D0032C15D0DFE0002302222C
:1031A0000421EAA016F065FAD8E0012302220421E6
:1031B000ECA016F05EFAD1E002231A460421F0A03A
:1031C00016F057FACAE0032302220421F4A016F0F5
:1031D00050FAC3E034B1012C0BD0022C10D0032CD8
:1031E00015D0BBE0002303220421F5A016F041FA1C
:1031F000B4E0012303220421F7A016F03AFAADE06F
:10320000022303220421FBA016F033FAA6E00323D5
:103210001A460421FFA016F02CFA9FE034B1012CCD
:1032200009D0022C0CD0032C0FD012E0417821F0F1
:10323000010141700DE0417821F00201417008E088
:10324000417821F00401417003E0417821F0080148
:103250004170504618F0ABF81FFA80FB5C4605EB56
:1032600044101FFA80FA6946504618F027F99DF875
:103270000000532807D19DF80100B04203D19DF80A
:103280000200B84209D01CB1A4F10104A4B201E0CB
:103290004FF03F045C45E2D160E069460AF110005E
:1032A00018F00CF99DF8000041280BD19DF80100A1
:1032B000412807D19DF80200412803D19DF8030061
:1032C000412809D01CB1A4F10104A4B201E04FF0DF
:1032D0003F045C45C3D141E0B8F83C008DF80000E4
:1032E00098F838008DF8010098F82C008DF802004D
:1032F0008DF8039069460AF1100018F0DAF998F891
:1033000028008DF8000098F824008DF8010098F846
:1033100020008DF802008DF8039069460AF1140030
:1033200018F0C7F94FF042048DF800408DF80140C5
:103330008DF802408DF8034069460AF1180018F034
:10334000B8F98DF800408DF801408DF802408DF8F5
:10335000034069460AF11C0018F0ABF900BFBDE854
:10336000F88F2DE9F843B44AB24F4FF460651178F5
:103370004FF000084FF48069012816D000287DD155
:1033800000297BD082F80080284618F010F886B219
:10339000344609EB441085B26946284618F08EF889
:1033A0009DF800004F286AD154E1012966D04FF002
:1033B00001001070284617F0FAFF00F1010084B2F6
:1033C0003F2C01D94FF0000421B2284618F0EDF847
:1033D00040F60266304617F0EAFF81B23F2900D07E
:1033E000214609B2304618F0E0F8284617F0DFFF12
:1033F00009EB401084B24FF04F008DF800004FF001
:1034000056008DF801004FF04C008DF802008DF849
:1034100003806946204618F04CF9CDF800806946D3
:10342000201D18F046F907F12007B88B8DF8000031
:10343000387E8DF80100387B8DF802008DF803800E
:10344000694604F1080018F034F9387A8DF8000064
:1034500038798DF8010038788DF802008DF80380F6
:10346000694604F10C0018F024F94FF041058DF87D
:1034700000508DF801508DF8025001E0E8E0F1E0D5
:103480008DF80350694604F1100018F012F98DF818
:1034900000508DF801508DF802508DF803506946A8
:1034A00004F1140018F005F98DF800508DF8015062
:1034B0008DF802508DF80350694604F1180018F099
:1034C000F8F88DF800508DF801508DF802508DF805
:1034D00003506946B2E0000042505320233120419E
:1034E0006C61726D2C206F76657268656174000086
:1034F00042505320233120416C61726D2C20766F35
:103500006C746167652069732075700042505320A8
:10351000233120416C61726D2C20766F6C74616771
:103520006520697320646F776E000000425053205D
:10353000233120416C61726D2C20636F6E6E656368
:1035400074206973206C6F73740000004250532024
:10355000233220416C61726D2C206F766572686534
:103560006174000042505320233220416C61726D1F
:103570002C20766F6C74616765206973207570000C
:1035800042505320233220416C61726D2C20766FA3
:103590006C7461676520697320646F776E0000004A
:1035A00042505320233220416C61726D2C20636F96
:1035B0006E6E656374206973206C6F737400000015
:1035C00042505320233320416C61726D2C206F7662
:1035D00065726865617400004250532023332041B6
:1035E0006C61726D2C20766F6C74616765206973F5
:1035F0002075700042505320233320416C61726D5E
:103600002C20766F6C7461676520697320646F7716
:103610006E00000042505320233320416C61726DD4
:103620002C20636F6E6E656374206973206C6F73FA
:1036300074000000004002406900001004F11C000A
:1036400018F037F8022301220521FAA016F011F82C
:10365000BDE8F8839DF80100562803D19DF80200CB
:103660004C280AD01CB1A4F10104A4B201E04FF02F
:103670003F04B4427FF48DAEEAE7694605F11000DD
:1036800017F01CFF9DF8000041280BD19DF80100A8
:10369000412807D19DF80200412803D19DF803007D
:1036A000412809D01CB1A4F10104A4B201E04FF0FB
:1036B0003F04B442DED1CBE707F12007B88B8DF889
:1036C0000000387E8DF80100387B8DF802008DF8FF
:1036D0000380694605F1100017F0EBFF387A8DF88A
:1036E000000038798DF8010038788DF802008DF8E7
:1036F0000380694605F1140017F0DBFF4FF0420428
:103700008DF800408DF801408DF802408DF803409F
:10371000694605F1180017F0CCFF8DF800408DF8D0
:1037200001408DF802408DF80340694605F11C0008
:1037300017F0BFFF8CE72DE9F34F81B00546C14973
:103740000878A8427ED09DF808609DF80970DFF8DF
:10375000F8824FF460644FF000094FF4806A012D45
:1037600019D0022D17D0002D6CD100286AD081F815
:103770000090204617F01BFE1FFA80FB5C460AEB08
:10378000441085B26946284617F098FE9DF800005F
:1037900056287DD1A6E00D70204617F008FE00F1F6
:1037A00001001FFA80FBBBF13F0F01D94FF0000B66
:1037B0000FFA8BF1204617F0F8FE40F6026017F082
:1037C000F6FD80B23F2800D0584601B240F60260B4
:1037D00017F0EBFE204617F0EAFD0AEB401084B22A
:1037E0004FF056008DF800004FF04F008DF80100AB
:1037F0004FF055008DF802004FF054008DF8030093
:103800006946204617F055FF8DF800608DF801706D
:103810008DF802508DF803906946201D17F049FF7E
:10382000B8F83C008DF8000098F838008DF80100D9
:1038300098F82C008DF802008DF80390694604F189
:10384000080000E04CE017F034FF98F828008DF8ED
:10385000000098F824008DF8010098F820008DF8F9
:1038600002008DF80390694604F10C0017F021FF67
:103870004FF041058DF800508DF801508DF8025041
:103880008DF80350694604F1100017F012FF00E0B4
:1038900034E08DF800508DF801508DF802508DF80D
:1038A0000350694604F1140017F003FF8DF800502F
:1038B0008DF801508DF802508DF80350694604F1DF
:1038C000180017F0F6FE8DF800508DF801508DF8B5
:1038D00002508DF80350694604F11C0017F0E9FE10
:1038E000BDE8FE8F9DF801004F2807D19DF802002A
:1038F000552803D19DF8030054280AD01CB1A4F127
:103900000104A4B201E04FF03F045C457FF437AFFF
:10391000E6E7694605F1100017F0D0FD9DF80000BC
:1039200041280BD19DF80100412807D19DF80200E4
:10393000412803D19DF80300412809D01CB1A4F10E
:103940000104A4B201E04FF03F045C45DED1C7E7BB
:10395000B8F83C008DF8000098F838008DF80100A8
:1039600098F82C008DF802008DF80390694605F157
:10397000100017F09EFE98F828008DF8000098F8C7
:1039800024008DF8010098F820008DF802008DF8D1
:103990000390694605F1140017F08BFE8DF8006066
:1039A0008DF801704FF042048DF802408DF803400D
:1039B000694605F1180017F07CFE8DF800408DF87F
:1039C00001408DF802408DF80340694605F11C0066
:1039D00017F06FFE84E72DE9F34F81B005461B48D1
:1039E0000178A9427ED09DF808609DF80970DFF843
:1039F00058804FF460644FF000094FF4806A012D45
:103A000026D0022D24D0002D6CD180F800902046C5
:103A100017F0CDFC84B2A3465C460AEB441085B295
:103A20006946284617F04AFD9DF8000056287DD1CA
:103A3000B2E0000053797374656D206F7665726C27
:103A40006F6164006A000010004002406B000010CB
:103A50000570204617F0ABFC00F101001FFA80FB57
:103A6000BBF13F0F01D94FF0000B0FFA8BF120464D
:103A700017F09BFD40F6026017F099FC80B23F28DA
:103A800000D0584601B240F6026017F08EFD204685
:103A900017F08DFC0AEB401084B24FF056008DF801
:103AA00000004FF049008DF801004FF04E008DF8F6
:103AB00002008DF803906946204617F0FAFD8DF854
:103AC00000608DF801708DF802508DF80390694602
:103AD000201D17F0EEFDB8F83C008DF8000098F8B6
:103AE000380000E057E08DF8010098F82C008DF8C0
:103AF00002008DF80390694604F1080017F0D9FD23
:103B000098F828008DF8000098F824008DF801003E
:103B100098F820008DF802008DF80390694604F1B2
:103B20000C0017F0C6FD4FF0410500E03FE08DF8B6
:103B300000508DF801508DF802508DF80350694601
:103B400004F1100017F0B5FD8DF800508DF801500C
:103B50008DF802508DF80350694604F1140017F0F7
:103B6000A8FD8DF800508DF801508DF802508DF8A9
:103B70000350694604F1180017F09BFD8DF80050C2
:103B80008DF801508DF802508DF80350694604F10C
:103B90001C0017F08EFDA3E69DF80100492806D110
:103BA0009DF802004E2802D19DF8030050B11CB1CF
:103BB000A4F10104A4B201E04FF03F045C457FF49E
:103BC0002CAF8DE6694605F1100017F077FC9DF8E3
:103BD000000041280BD19DF80100412807D19DF834
:103BE0000200412803D19DF80300412809D01CB1EF
:103BF000A4F10104A4B201E04FF03F045C45DED122
:103C00006EE6B8F83C008DF8000098F838008DF8A2
:103C1000010098F82C008DF802008DF80390694699
:103C200005F1100017F045FD98F828008DF8000008
:103C300098F824008DF8010098F820008DF8020013
:103C40008DF80390694605F1140017F032FD8DF8E8
:103C500000608DF801704FF042048DF802408DF83D
:103C60000340694605F1180017F023FD8DF8004068
:103C70008DF801408DF802408DF80340694605F14A
:103C80001C0017F016FD2BE62DE9F34F81B0A0497B
:103C90000A7882427ED09DF808709DF80980DFF88E
:103CA00074924FF460654FF0000A4FF4806B012866
:103CB00014D000286ED181F800A0284617F077FBB9
:103CC00086B234460BEB441085B26946284617F09D
:103CD000F5FB9DF8000054287ED1A0E0087028462E
:103CE00017F065FB00F1010084B23F2C01D94FF0C1
:103CF000000421B2284617F058FC40F60266304610
:103D000017F055FB80B23F2800D0204601B2304664
:103D100017F04BFC284617F04AFB0BEB401084B21F
:103D20004FF054008DF800004FF053008DF8010063
:103D30004FF059018DF802108DF8030069462046B6
:103D400017F0B7FC8DF800708DF801808DF802A097
:103D50008DF803A06946201D17F0ABFCB9F83C00B4
:103D60008DF8000099F838008DF8010099F82C00C2
:103D70008DF802008DF803A0694604F1080017F0E1
:103D800098FC99F828008DF8000099F824008DF827
:103D9000010000E042E099F820008DF802008DF863
:103DA00003A0694604F10C0017F083FC4FF04105B5
:103DB0008DF800508DF801508DF802508DF80350A9
:103DC000694604F1100017F074FC8DF800508DF86E
:103DD00001508DF8025000E02DE08DF80350694647
:103DE00004F1140017F065FC8DF800508DF80150B7
:103DF0008DF802508DF80350694604F1180017F051
:103E000058FC8DF800508DF801508DF802508DF857
:103E10000350694604F11C0017F04BFC60E59DF867
:103E20000100532807D19DF80200592803D19DF8BD
:103E3000030053280AD01CB1A4F10104A4B201E08C
:103E40004FF03F04B4427FF43DAF49E5694605F1C8
:103E5000100017F033FB9DF8000041280BD19DF8AE
:103E60000100412807D19DF80200412803D19DF8A7
:103E70000300412809D01CB1A4F10104A4B201E05F
:103E80004FF03F04B442DED12AE5B9F83C008DF88A
:103E9000000099F838008DF8010099F82C008DF891
:103EA00002008DF803A0694605F1100017F001FC2F
:103EB00099F828008DF8000099F824008DF8010089
:103EC00099F820008DF802008DF803A0694605F1ED
:103ED000140017F0EEFB8DF800708DF801804FF0A4
:103EE00042048DF802408DF80340694605F1180040
:103EF00017F0DFFB8DF800408DF801408DF802408F
:103F00008DF80340694605F11C0017F0D2FBE7E489
:103F10006C00001000400240FF490A7D9206FCD56B
:103F20000A2801D0087070474FF00D000870087D16
:103F30008006FCD54FF00A000870704700B50346B4
:103F4000D8B2FFF7E9FF184600BDF4494FF0110061
:103F500008727047002801DA404200B2704710B57D
:103F60004FF4347017F023FAED4C207040F2D22059
:103F700017F01DFA60704FF4357017F018FAA07042
:103F800040F2D62017F013FAE0704FF4367017F0B5
:103F90000EFA207240F2DA2017F009FA60724FF43C
:103FA000377017F004FAA07240F2DE2017F0FFF924
:103FB000E0724FF4437017F0FAF9207140F20E30BE
:103FC00017F0F5F960714FF4447017F0F0F9A07133
:103FD00040F2123017F0EBF9E07110BD10B5D14985
:103FE000086820F0E06008604868D04AC0F30B130E
:103FF000CD4C107824F8103000F10100C0B21070E0
:10400000032803D2086840F08070086010BD2DE9D5
:10401000F0410646DDE9065708991446984609B26C
:104020004FF0980017F0C1FA00219A2017F0BDFA5E
:104030000021762017F0B9FA0121CA2017F0B5FA4D
:104040003C21C22017F0B1FA31B2782017F0ADFA56
:1040500004EBD470401001B2C82017F0A6FA462134
:10406000C62017F0A2FA50217E2017F09EFA0FFA10
:1040700088F1822017F099FABB21842017F095FA75
:104080000021862017F091FA0A21882017F08DFA76
:1040900029B28C2017F089FAE8000A2190FBF1F090
:1040A00001B28E2017F081FA0121A02017F07DFACD
:1040B0000121A22017F079FA0121A42017F075FA46
:1040C000A021922017F071FA39B2942017F06DFAFE
:1040D0000321962017F069FA3221CC2017F065FAF7
:1040E0002821CE2017F061FA5521BC2017F05DFA87
:1040F0001E21BE2017F059FA0121802017F055FA31
:104100004621D02017F051FA3C21D42017F04DFA67
:104110001921D22017F049FA5021D62017F045FA7C
:104120004621D82017F041FA5B21DA2017F03DFA3A
:104130005021DC2017F039FA7D4C0021B4F9000041
:1041400017F033FA7B4D0021B5F9000017F02DFA76
:10415000794E4FF0FF373946B6F9000017F025FACF
:10416000B4F90200002117F020FAB5F9020000218D
:1041700017F01BFAB6F90200394617F016FAB4F92F
:104180000400002117F011FAB5F90400002117F01E
:104190000CFAB6F90400394617F007FAB4F906002C
:1041A000002117F002FAB5F90600002117F0FDF919
:1041B000B6F90600394617F0F8F90A214FF41970DC
:1041C00017F0F3F9BDE8F0410B214FF4187017F028
:1041D000ECB92DE9FF5F04464FF000054FF00706EC
:1041E000182C0CD1F0209621CDE90010CDE9026504
:1041F0001623224621464FF49670FFF708FF4FF42E
:1042000016774FF0640B302C0BD14FF4F070CDE9E2
:1042100000B0CDE902652C23224621463846FFF73F
:10422000F6FE3C2C0AD1CDE900B7CDE90265372373
:104230002246214640F2EE20FFF7E9FE3C4F3D4D7D
:104240003D4E4FF002094FF0FF38DC2C76D140F69E
:10425000980A40F62A10CDE900BACDE9029040F65E
:10426000921BBB2340F60B1240F63E115846FFF757
:10427000CEFE0221982017F098F900219A2017F01D
:1042800094F90021762017F090F90121CA2017F047
:104290008CF93C21C22017F088F95946782017F094
:1042A00084F940F28541C82017F07FF94621C620E5
:1042B00017F07BF950217E2017F077F9BB2182207F
:1042C00017F073F9BB21842017F06FF900218620C5
:1042D00017F06BF91421882017F067F950218C2012
:1042E00017F063F932218E2017F05FF90121A02029
:1042F00017F05BF90121A22017F057F90121A42042
:1043000017F053F9A021922017F04FF9514694204D
:1043100017F04BF9032112E000C0004000400240BA
:104320008C6C0010004003403AC0072011C00720E9
:10433000922402009A240200AA24020093E096200C
:1043400017F033F93221CC2017F02FF92821CE2095
:1043500017F02BF95521BC2017F027F91E21BE209C
:1043600017F023F90121802017F01FF94621D020F2
:1043700017F01BF93C21D42017F017F91921D2208E
:1043800017F013F95021D62017F00FF94621D82045
:1043900017F00BF95B21DA2017F007F95021DC2028
:1043A00017F003F9B7F90000002117F0FEF8B5F98E
:1043B0000000002117F0F9F8B6F90000414617F0A7
:1043C000F4F8B7F90200002117F0EFF8B5F9020090
:1043D000002117F0EAF8B6F90200414617F0E5F8B7
:1043E000B7F90400002117F0E0F8B5F90400002146
:1043F00017F0DBF8B6F90400414617F0D6F8B7F924
:104400000600002117F0D1F8B5F90600002117F0D9
:10441000CCF8B6F90600414617F0C7F80A214FF468
:10442000197017F0C2F80B214FF4187017F0BDF88F
:1044300040F2BD11C82017F0B8F85146C42017F05B
:10444000B4F81421922017F0B0F845F211614FF43E
:10445000AA7017F0AAF80121CA2017F0A6F8AA211D
:10446000BC2017F0A2F86E2C7ED140F2C444142177
:104470008DE8120240F20A50039040F2465963233D
:10448000621D40F2F6414846FFF7C1FD0221982027
:1044900017F08BF800219A2017F087F8002176207A
:1044A00017F083F80121CA2017F07FF83C21C220C1
:1044B00017F07BF84946782017F077F840F2A321EF
:1044C000C82017F072F84621C62017F06EF8502168
:1044D0007E2017F06AF86321822017F066F8BB216E
:1044E000842017F062F80021862017F05EF814216E
:1044F000882017F05AF850218C2017F056F83221F6
:104500008E2017F052F80121A02017F04EF801215B
:10451000A22017F04AF80121A42017F046F8A021A4
:10452000922017F042F82146942017F03EF803211C
:10453000962017F03AF83221CC2017F036F82821CF
:10454000CE2017F032F85521BC2017F02EF81E218E
:10455000BE2017F02AF80121802017F026F8462106
:10456000D02017F022F800E078E03C21D42017F0AA
:104570001CF81921D22017F018F85021D62017F076
:1045800014F84621D82017F010F85B21DA2017F034
:104590000CF85021DC2017F008F8B7F900000021D2
:1045A00017F003F8B5F90000002116F0FEFFB6F988
:1045B0000000414616F0F9FFB7F90200002116F09D
:1045C000F4FFB5F90200002116F0EFFFB6F9020082
:1045D000414616F0EAFFB7F90400002116F0E5FFA6
:1045E000B5F90400002116F0E0FFB6F904004146D9
:1045F00016F0DBFFB7F90600002116F0D6FFB5F97B
:104600000600002116F0D1FFB6F90600414616F06B
:10461000CCFF0A214FF4197016F0C7FF0B214FF49D
:10462000187016F0C2FF4FF41B71C82016F0BDFFC2
:104630002146C42016F0B9FF1421922016F0B5FFD0
:1046400045F211614FF4AA7016F0AFFF0121CA20A4
:1046500016F0ABFFAA21BC2016F0A7FFFF4DAA2140
:10466000B5F9000016F0A1FFFD4C2178FD4EB6F91A
:10467000000016F09AFF217BFB4FB7F9000016F0FF
:1046800094FFB4F91010DFF8E483B8F9000016F0D5
:104690008CFFDFF8DC930021B9F9000016F085FFEC
:1046A000DFF8D0A30021BAF9000016F07EFFB5F9BB
:1046B0000200AA2116F079FF2178B6F9020016F05F
:1046C00074FF217BB7F9020016F06FFFB4F91010E8
:1046D000B8F9020016F069FFB9F90200002116F0DE
:1046E00064FFBAF90200002116F05FFF4FF4166173
:1046F0004FF48C7016F059FF14214FF48B7016F0A4
:1047000054FF01214FF48D7016F04FFF00214FF43C
:104710008E7016F04AFF00214FF4907016F045FF9E
:1047200000214FF4917016F040FF28214FF48F7054
:1047300016F03BFF40F21E514FF4957016F035FF16
:1047400004B040F24C41BDE8F05F4FF4967016F0B3
:104750002CBF70B5062016F02AFE002804DB0620C8
:1047600016F025FE022803DD0021062016F01DFFAD
:10477000C149087800F10100C0B20870BF4C4FF089
:1047800001050A2813D3BE480068C0070FD1E0789E
:1047900068B9062016F00BFE022808DA062016F08B
:1047A00006FE401C01B2062016F0FFFEE570B4F9CB
:1047B0004000B0F5616F07D3062016F0F8FD18B180
:1047C0000021062016F0F1FEAE4881687F22B2EB90
:1047D000116F00D1E5708068C0F307407F2800D1D9
:1047E000E57070BD2DE9FF41A44C4FF0180004F1B5
:1047F0002C042072207800F1010040B204F82C094A
:10480000182803DD4FF0FB0084F82C0094F92C00ED
:10481000002878DB182876DC2120FBF7EFFC50B16C
:1048200099480088222806D1984894F92C1090F9CC
:10483000020088427FD094F83300954D18BB95480C
:104840008E4BB0F900205633B2F5FA6F34D094F99C
:104850002C005F7800EB800101EBC00105EBC1018A
:1048600001F12C011B780E8DCDE900373244C2F3E3
:104870000726D2B2CDE902260B78C1B24FF0ED0285
:1048800008461AF0DEFB94F92C0094F834108842A4
:1048900051DC00EB800101EBC00105EBC101CA78DE
:1048A0003C2A32D202F10102D2B2CA703C2A2FD382
:1048B00094F82720C2B12BE05A781B780720D0212A
:1048C000CDE90032CDE9021094F92C00ED2200EB85
:1048D000800101EBC00105EBC10191F82C30C1B2A0
:1048E00008461AF0AEFBCEE74978090710D46349B1
:1048F0008031B1F92C1088420ADA01220321C0B2BA
:10490000FEF725FB04E018E015E04FF03C00C8700E
:1049100094F92C0000EB800101EBC00005EBC00016
:10492000C178032906D30279032A03D2427902F11E
:10493000010242710171BDE8FF815049431C4FF0F3
:10494000000291F8331005D0831C16D0C01CF2D1A0
:1049500091B33CE00029EED1484882304378047896
:104960002E384178CDE90143039200910378FF216D
:10497000622208461AF065FBDDE7B9B904F15C0470
:10498000208CC2B26088C3B22088C4B23B4800F118
:104990005A004178CDE901430392009103784FF02A
:1049A000FF014FF0260208461AF04BFB3A48017B04
:1049B00001F101010173BEE7FFE70092019202924B
:1049C000002303921D211A4608461AF03AFB207A6A
:1049D00000F101002072AEE72C494FF00000A1F178
:1049E00040010870487088702849487070472DE968
:1049F000F0414FF00000284B01464FF4F47203F1F0
:104A00000E03195400F1010000B29042F9DB4FF09F
:104A100000024FF0140C4FF07A0102FB01F002EBA0
:104A200082014FEA810109B202EB82040CEB840798
:104A300048E0164C194E8234645C04EB440500F1E6
:104A4000010416F8158003F8008006EB450004F118
:104A5000010645781D55847822E0000046240200B6
:104A60002C4002404A2402004E240200422402004C
:104A70003E240200522402005E5800103000001054
:104A8000140000100040044058C00720E00100104E
:104A900010ED07201CC0072058000820C424020085
:104AA00006F101059C55C47805F101065C550579B0
:104AB00006F101049D55457904F101001D5501F1F0
:104AC000010109B28F42B4DC02F1010212B2042AE0
:104AD000A1DBBDE8F0812DE9F04FADF5037D4FF08E
:104AE00005014FF00000FE4C0DF1340C4FF00106B3
:104AF0002268D30705D0FBA14FF001000D914FF0C4
:104B00000601DFF8F88398F809304BB10346FCA59D
:104B100000F10100C0B24CF8235001F10101C9B20B
:104B2000130709D50346FCA500F10100C0B24CF8FB
:104B3000235001F10101C9B2D30609D50346FCA5F2
:104B400000F10100C0B24CF8235001F10101C9B2DB
:104B5000930609D50346FCA500F10100C0B24CF84C
:104B6000235001F10101C9B2530609D50346FCA542
:104B700000F10100C0B24CF8235001F10101C9B2AB
:104B8000130609D50346FCA500F10100C0B24CF89C
:104B9000235001F10101C9B2D30509D50346FCA593
:104BA00000F10100C0B24CF8235001F10101C9B27B
:104BB000930509D50346FCA500F10100C0B24CF8ED
:104BC000235001F10101C9B2530509D50346FCA5E3
:104BD00000F10100C0B24CF8235001F10101C9B24B
:104BE000130509D50346FCA500F10100C0B24CF83D
:104BF000235001F10101C9B2D30409D50346FCA534
:104C000000F10100C0B24CF8235001F10101C9B21A
:104C1000930409D50346FCA500F10100C0B24CF88D
:104C2000235001F10101C9B2520409D50246FCA387
:104C300000F10100C0B24CF8223001F10101C9B20B
:104C400098F836204AB10246FBA300F10100C0B239
:104C50004CF8223001F10101C9B2FD4A5278D20666
:104C60000ED5FCA300F10102D2B24CF82030FFA314
:104C700002F10100C0B24CF8223001F10201C9B2C8
:104C800098F839204AB10246FEA300F10100C0B2F3
:104C90004CF8223001F10101C9B298F83C204AB128
:104CA0000246FEA300F10100C0B24CF8223001F12F
:104CB0000101C9B298F83A20012A09D10346FDA49E
:104CC00000F10100C0B24CF8234001F10101C9B26A
:104CD000022A09D10246FDA300F10100C0B24CF83E
:104CE000223001F10101C9B298F83B20012A09D113
:104CF0000346FCA400F10100C0B24CF8234001F1CE
:104D00000101C9B2022A05D1FCA24CF8202001F110
:104D10000101C9B279488030B0F92C90B0F92E0069
:104D20008290484488F800007448C07A00F101007D
:104D3000C2B27248C272807A4FF000073FAD142AA7
:104D40000DD388F80B7000F10100C0B288F80A009A
:104D50008842C7F04F8588F80A7007F04BBDED4BCD
:104D60001C461A7894F9011094F90440002A7ED068
:104D700018460B2A90F904A090F902000AF1020BE0
:104D80000AF1010A819073D05C489E460C2A90F883
:104D900019C0184690F9020000EB800303EBC00035
:104DA000AB4B03EBC0037ED070460D2A7CD0042AA7
:104DB00001F01B81052A01F03081062A01F0708183
:104DC000202A01F0E882672A01F0FD82D14B93F995
:104DD0000430DB1C692A01F02383662A01F02C844D
:104DE000652A01F0A685DFF82CC3182A9CF9043047
:104DF0009CF901C0ACEB0303ACF1020C4FFA8CFC44
:104E000001F003861F2A01F023865F2A01F0418604
:104E1000602A01F0D586DFF8FCE270464078401E3B
:104E200040B28090612A03F0FD81AEF1B0004E2ABD
:104E3000B0F942E0CDF8F8E1B748AEF1010E7F904D
:104E400003F05F82502A03F0BA82522A03F0E18312
:104E50000F2A03F03784AF48102AFAD0482AF8D036
:104E6000252AF6D03F2A03F05784402A01E0B6E114
:104E70001EE203F08884072A03F08F84012A03F0DE
:104E8000AE873A2A04F0A1821C483D2A90F82300FC
:104E90007D9004F0C9829F48222A04F06883232A67
:104EA00004F0AF8301E004E204E26A2A04F0E6843D
:104EB000742A05F01480262A05F07580552A05F01D
:104EC000E480562A05F00681572A05F03A81582ACF
:104ED00005F03F83592A05F003845A2A1EE1000099
:104EE00014000010202020C0E2E0F0E8FF20F1E5EF
:104EF000F2E82121212020200000000030000010D5
:104F00002020C0E2E0F0E8FF20E1E0F2E0F0E5E898
:104F10002020202000000000202020C0E2E0F0E857
:104F2000FF20C1CFD120B931202020200000000077
:104F3000202020C0E2E0F0E8FF20C1CFD120B9322C
:104F40002020202000000000202020C0E2E0F0E827
:104F5000FF20C1CFD120B933202020200000000045
:104F6000202020C0E2E0F0E8FF20C1CFD120B934FA
:104F70002020202000000000202020C0E2E0F0E8F7
:104F8000FF20C1CFD120B935202020200000000013
:104F9000202020C0E2E0F0E8FF20C1CFD120B936C8
:104FA0002020202000000000202020C0E2E0F0E8C7
:104FB000FF20C1CFD120B9372020202000000000E1
:104FC000202020C0E2E0F0E8FF20C1CFD120B93896
:104FD0002020202000000000202020C0E2E0F0E897
:104FE000FF20C1CFD120B9392020202000000000AF
:104FF000202020C0E2E0F0E8FF20C1CFD120B9316D
:105000003020202000000000202020C0E2E0F0E856
:10501000FF20C1CFD120B931312020200000000075
:10502000202020C0E2E0F0E8FF20C1CFD120B9313C
:105030003220202000000000202020C0E2E0F0E824
:10504000FF2055E2FBF52121212020200000000057
:1050500010ED0720D0E5F1F3F0F120E2E5EDF22EBE
:1050600020C1CFD1312020200000000020202020AE
:1050700020E8F1F7E5F0EFE0ED20202020202020CF
:105080000000000020CFE5F0E5E3F0F3E7EAE020E0
:10509000EFEE20F2EEEAF3210000000020CFE5F071
:1050A000E5E3F0E5E220F1E8F1F2E5ECFB21202078
:1050B00000000000202020C7E0E2FBF8E5EDEE2034
:1050C00055E2FBF52E21202000000000202020C703
:1050D000E0EDE8E6E5EDEE2055E2FBF52E2120209F
:1050E00000000000202020C7E0E2FBF8E5EDEE2004
:1050F00055E2F52E2120202000000000202020C7AE
:10510000E0EDE8E6E5EDEE2055E2F52E2120202049
:1051100000000000E00100107604082005F05C8328
:105120005B2A05F0C1835C2A05F0A2845D2A05F0A4
:105130000F858646A0F59870122AB0F928007C9059
:1051400005F076855C48132AB0F930E005F0CE858D
:10515000162A05F02086142A05F04287B0F92A00A5
:105160007B90152A05F08B8754482E2A05F0DE87A0
:105170002F2A06F003802D2A06F03A80322A06F004
:105180006B804A2A06F0B0804C2A06F0AD812B2AAB
:1051900006F00C822C2A06F03D822A2A06F068824C
:1051A000292A06F0E0820A2A06F01E83302A06F039
:1051B0006583312A06F0AB84282A06F0A385272AC6
:1051C00006F0DE856D2A07F09C806E2A07F0C0800D
:1051D000542A07F04D81682A07F0C282BDE538A243
:1051E0003F923DA2409242A2419247A242924CA2DB
:1051F000439251A2449256A245925BA2469260A26B
:10520000479265A248926AA249926FA24A9274A2FA
:105210004B9279A24C927EA24D9283A24E9288A28A
:105220004F928DA2509292A2519297A252929CA21A
:105230005392A1A25492A6A25592ABA25692B0A2AA
:105240005792B5A25892BAA25992BFA25A92C4A23A
:105250005B92C9A25C92CEA25D92D3A25E92D8A2CA
:105260005F92DDA26092E2A26192E7A26292ECA25A
:10527000639209F1050AF0A245F82A2009F1060A0D
:10528000F3A245F82A2009F1070AF7A245F82A20D7
:1052900009F1080AFAA245F82A2009F10909FEA233
:1052A00045F82920994611B1621A022A00E205E266
:1052B000D2E2E0E3FDE30000B0000010E0010010E6
:1052C0002020C220F0E0E1EEF2E52020202072E86C
:1052D000F1F22E200000000055E2F52E20202020C3
:1052E0005DC22055E22EE42E202040C200000000C6
:1052F00055E2FBF52E20202023C22049E2FBF52EAB
:10530000202024C0000000002030253A305E3A30D2
:105310002620303C2F3E20202F307B200000000034
:1053200020202054F1E8F1F2E5ECFB202020203F82
:10533000B04320200000000020C1CFD1204E3120FA
:1053400020202020202020202020202000000000DD
:1053500020C1CFD1204E322020202020202020200C
:10536000202020200000000020C1CFD1204E33207B
:1053700020202020202020202020202000000000AD
:1053800020C1CFD1204E34202020202020202020DA
:10539000202020200000000020C1CFD1204E352049
:1053A000202020202020202020202020000000007D
:1053B00020C1CFD1204E36202020202020202020A8
:1053C000202020200000000020C1CFD1204E372017
:1053D000202020202020202020202020000000004D
:1053E00020C1CFD1204E3820202020202020202076
:1053F000202020200000000020C1CFD1204E3920E5
:10540000202020202020202020202020000000001C
:1054100020C1CFD1204E313020202020202020203C
:10542000202020200000000020C1CFD1204E3131AB
:1054300020202020202020202020202000000000EC
:1054400020C1CFD1204E313220202020202020200A
:10545000202020200000000020C1CFD1204E313379
:1054600020202020202020202020202000000000BC
:1054700020C1CFD1204E31342020202020202020D8
:10548000202020200000000020C1CFD1204E313547
:10549000202020202020202020202020000000008C
:1054A00020C1CFD1204E31362020202020202020A6
:1054B000202020200000000020C1CFD1204E313715
:1054C000202020202020202020202020000000005C
:1054D00020C1CFD1204E3138202020202020202074
:1054E000202020200000000020C1CFD1204E3139E3
:1054F000202020202020202020202020000000002C
:1055000020C1CFD1204E323020202020202020204A
:10551000202020200000000020C1CFD1204E3231B9
:1055200020202020202020202020202000000000FB
:1055300020C1CFD1204E3232202020202020202018
:10554000202020200000000020C1CFD1204E323387
:1055500020202020202020202020202000000000CB
:1055600020C1CFD1204E32342020202020202020E6
:10557000202020200000000020C1CFD1204E323555
:10558000202020202020202020202020000000009B
:1055900020C1CFD1204E32362020202020202020B4
:1055A000202020200000000020C1CFD1204E323723
:1055B000202020202020202020202020000000006B
:1055C00020C1CFD1204E3238202020202020202082
:1055D000202020200000000020C1CFD1204E3239F1
:1055E000202020202020202020202020000000003B
:1055F00020C1CFD1204E3330202020202020202059
:10560000202020200000000020C1CFD1204E3331C7
:10561000202020202020202020202020000000000A
:1056200020C1CFD1204E3332202020202020202026
:10563000202020200000000020D2E0E1EBE8F6E08E
:1056400020E8F1F2EEF7EDE8EAEEE22000000000DB
:1056500020D3F1F2E0EDEEE2EAE820202020202045
:10566000202020200000000020C6F3F0EDE0EB2019
:10567000F1EEE1FBF2E8E92020202020000000000C
:1056800020C2FBF5EEE42020202020202020202036
:10569000202020200000000020D2E5F1F220202070
:1056A000202020202020202020202020000000007A
:1056B00007DD01F1020189F8041006E089F80470A1
:1056C00003E0A14201DD89F8041005280ED299F902
:1056D0000400C11C55F82130811C401C55F82120C4
:1056E00055F820103F98FCF7A5F80FE099F9041041
:1056F000401FCA1C5CF8200055F822308A1C491C47
:1057000055F8222055F82110FCF794F898F80C0071
:10571000502805D9F848007802280CD001280AD072
:1057200098F80A00052806D2F44800230E221946EC
:105730000078FAF770FFF24C207A4FF000024FF039
:105740002501FAF7A9FF207900225E21FAF7A4FFCC
:10575000207800222621FAF79FFF207B00223C219F
:10576000FAF79AFFA08B00227B21FAF795FF217EA2
:10577000E448002200EB81003E21FAF777FF98F819
:10578000190090B13A20FAF7CDFDDF4C4FF0200A16
:1057900004F800A04FF03A00FAF7C4FD04F800A0A6
:1057A0003A20FAF7BFFD04F800A099F90400A8B167
:1057B00099F90110012911DD884203D1D24880F8FE
:1057C0003C600BE0401A012802D0022804D005E01A
:1057D000CD4880F8286001E0CB480675CB4CB4F882
:1057E000620030B16FF002022421C9A0FAF73EFF37
:1057F00005E000222421B4F93000FAF7D7FDC248B1
:10580000002248383F21B0F90000FAF7CFFDB4F983
:1058100038004FF00A0990FBF9F080B200222321F2
:10582000FAF73AFFB4F840000022232180B2FAF7D9
:1058300033FFB4F93E00002290FBF9F080B2402122
:10584000FAF72AFFB4F93A00002290FBF9F080B28F
:105850005D21FAF721FFC1E44FF00A0088F8240027
:10586000ADA00190B2A00290B7A00390BCA004909C
:10587000C1A00590C6A00690CBA00790D0A008902C
:10588000D5A00990DAA00A909E4800F149000B903B
:1058900081989946C0EBC00000EB4001DA4800EB6C
:1058A0004100B0F92800052806DBD8A3D7A2DDA166
:1058B000E2A0FBF7BFFFD5E001A850F82B3050F86D
:1058C0002A2050F82410DDA0FBF7B4FF99F901005D
:1058D00099F90410421A022A04DDA0F1020189F8A4
:1058E000041003E0884201DA89F8040098F82410D3
:1058F000884202DB0120FBF71FFF99F90200C24C2E
:10590000C0EBC00000EB400004EB400001224089E6
:105910004021FAF7C1FE99F902000122C0EBC00054
:1059200000EB400004EB400023218089FAF7B4FE2D
:1059300099F902000122C0EBC00000EB400004EB2B
:1059400040002421C089FAF7A7FE99F9020001223C
:10595000C0EBC00000EB400004EB40002521008AB2
:10596000FAF79AFE99F902000122C0EBC00000EBA1
:10597000400004EB40005E21408AFAF78DFE99F961
:105980000200C0EBC00000EB400004EB4000C18B04
:1059900031B16FF004022621AEA0FAF767FE05E0F0
:1059A000B0F9140000222621FAF700FD99F902004F
:1059B000C0EBC00000EB400004EB4000018C31B1B3
:1059C0006FF004022A21A3A0FAF750FE05E0B0F917
:1059D000160000222A21FAF7E9FC99F90200C0EB2F
:1059E000C00000EB400004EB4000418C31B16FF08F
:1059F0000402282197A0FAF739FE05E0B0F9180053
:105A000000222821FAF7D2FC99F90200C0EBC0006D
:105A100000EB400004EB4000818C31B16FF00402D8
:105A200029218CA0FAF722FE05E0B0F91A00002225
:105A30002921FAF7BBFC99F90200C0EBC00000EB8A
:105A4000400004EB4000C18C31B16FF004022B2107
:105A500080A0FAF70BFE05E0B0F91C0000222B2114
:105A6000FAF7A4FC99F902000022401C80B23C2104
:105A7000FAF712FEEFE64FF0050088F8240078A050
:105A800006907DA0079082A0089087A009901D48ED
:105A900000F149000A909878F14602280AD00328BC
:105AA00014D0042815D0012816D0052817D008B323
:105AB00073E1C5E182A0059093F84600000704D584
:105AC000BCF1000F01D084A0059066E188A005908C
:105AD00063E18DA0059060E191A005905DE15878AB
