:020000040000FA
:10000000280B0010E1000000E5000000E700000000
:10001000E9000000EB000000ED000000000000001F
:10002000000000000000000000000000EF000000E1
:10003000F100000000000000F30000001563000064
:10004000F7000000A5020000D9020000F700000040
:10005000F7000000F7000000F7000000F7000000C4
:10006000F7000000F7000000F7000000F7000000B4
:10007000F7000000F7000000F7000000F7000000A4
:10008000F7000000F7000000F7000000F700000094
:10009000F7000000F700000013100000F700000058
:1000A000F7000000F7000000F7000000F700000074
:1000B000F7000000F7000000F7000000F700000064
:1000C000F7000000F7000000F7000000DFF80CD098
:1000D00008F010F90048004751640000280B001098
:1000E00005480047FEE7FEE7FEE7FEE7FEE7FEE71E
:1000F000FEE7FEE7FEE7FEE7CD00000030B54FF07B
:1001000000003D4BA3F1140202F10A04115C61B13D
:10011000255CA94209D1195C39B1A1F10101C9B22B
:10012000195411B94FF000011154115C215400F120
:100130000100C0B20A28E9D330BD70B54FF0000409
:100140002D4EA6F1140604F10104E4B2355D1DB193
:10015000854201D00A2CF6D3305527480C3040F8A0
:100160002410283040F824203438035570BD4FF057
:100170000001214AA2F1140201F10101C9B2535C4C
:10018000834201D00A29F7D3535C834212D11A4823
:100190000C3050F8213019480360174B343353F8B2
:1001A000213043604FF000005054134A50544FF038
:1001B00001007047002070474FF000010E4AA2F185
:1001C000140201F10101C9B2535C834201D00A2932
:1001D000F7D3525C82420CD107480C3050F82120F2
:1001E00006480260044A343252F82110416001206E
:1001F000704700207047000088C5072028C00720EE
:10020000114A9060117070470F4A9068002807D01B
:10021000401E906004D11078002140B200F0ACBACA
:1002200070470949C88070470749B1F9060000289E
:1002300009D0A0F1010000B2C880002803D1014616
:10024000084600F099BA704730C0072090F9003096
:100250008B4200DA027090F90030934200DD0170A9
:10026000704790F900308B4200DA017090F900106D
:10027000914200DD02707047B0F900308B4200DA25
:100280000180B0F90010914200DD02807047B0F9A2
:1002900000308B4200DA0280B0F90030934200DD7A
:1002A000018070474FF040214FF0010008600F4877
:1002B000016801F1010101600D494FF00000087073
:1002C0000C48016821F0FF0101F10401016001689F
:1002D00041F080710160704707494FF001000860EC
:1002E0000248416801F101014160704714030010A8
:1002F00001C007200040034000800040FFFFFFFFD7
:100300004FF00000F94A4FF02001115400F10100B4
:10031000C0B2C828F9D3704701464FF00000F34A35
:1003200000F10100C0B2135C8B4201D0C828F7D3A2
:10033000704710B54FF00001ED4C4FF00A02034634
:10034000B0FBF2F002FB1033635401F10101C9B2BA
:100350000529F4D310BDF0B5E64D4FF00101297029
:100360004FF00501E24B4FF020064FF000072A78CE
:1003700042B15A1812F8014C24B9814202D902F84C
:10038000016C07E003EB010212F8014D04F13004A7
:1003900014702F70A1F10101C9B20029E7D1F0BD9D
:1003A000FEB503464FF02B07002B04DAC3F1000023
:1003B00003B24FF02D074FF000004FF00A046D46D6
:1003C00093FBF4F604FB16332B5433B200F1010017
:1003D00040B20A28F4DB4FF001034FF000044FF065
:1003E00009004FF0200643B115F800C0BCF1000F22
:1003F00003D1904201DD2E5408E02B5C03F1300361
:100400002B544FF0000304F10104E4B2A0F1010009
:1004100040B20028E7DA2D2F04D1204604F1010470
:10042000E4B22F548AB160B207E005EB000313F881
:10043000013C2B54A0F1010040B29042F5DC4FF09A
:100440002E00A85404F10104E4B20846FFF764FF4B
:100450004FF00001A54A06E0A0EB01066B5C935546
:1004600001F1010149B2A142F6DBFEBD2DE9FE41D9
:100470004FF02B0C002803DAC0F100004FF02D0CD8
:100480004FF000044FF00A056F46064690FBF5F06A
:1004900005FB10663E5504F1010464B20A2CF4DB3E
:1004A0004FF001054FF000044FF009004FF0200617
:1004B00045B117F80080B8F1000F03D1984201DD73
:1004C0003E5408E03D5C05F130053D544FF0000519
:1004D00004F10104E4B2A0F1010040B20028E7DA1F
:1004E000BCF12D0F05D1204604F10104E4B207F858
:1004F00000C08BB160B207E007EB000515F8015CA6
:100500003D54A0F1010040B29842F5DC4FF02E00BE
:10051000F85404F10104E4B201EB810002EB800025
:10052000C1B24FF00000714A06E0A1EB00053B5C50
:10053000535500F1010040B2A042F6DBBDE8FE8158
:1005400070B50D4616461C46FFF7F3FE601CC0B2A0
:10055000FFF701FF05EB850006EB8000C1B24FF00D
:100560000000634B614DA04201D21A5C6A5407D36C
:100570001A5C202A04D064B105EB010606F8012CB0
:10058000A1F10101C9B200F10100C0B20528EAD30E
:1005900070BD6A54F4E730B5044608461546FFF7C7
:1005A000BBFEFF280CD0514A07E000EB050304F125
:1005B0000104D15400F10100C0B221780029F4D126
:1005C00030BD70B50D461446FFF7B3FE601CC0B2D7
:1005D000FFF7C1FE2846FFF79FFE4FF00001444A97
:1005E000424D24B9535C202B01D02B5415E0A1427D
:1005F00002D2535C2B5410E008D14FF02E032B5441
:1006000005EB0006535C06F8013C06E0535C202B2A
:1006100003D005EB000606F8013CA0F10100C0B2D2
:1006200001F10101C9B20529DBD370BD17B501EB9A
:10063000810002EB8000C2B29DF800302E4803F02A
:100640000F01445C29498C54A2F10102D2B200EBA3
:1006500013131B788B54A2F10102D2B29DF8013022
:1006600003F00F04045D8C54A2F10102D2B200EB3E
:1006700013131B788B54A2F10102D2B29DF8023001
:1006800003F00F04045D8C54A2F10102D2B200EB1E
:1006900013131B788B54A2F10102D3B29DF80320EF
:1006A00002F00F04045DCC54A3F10103DBB200EBB4
:1006B00012100078C8541EBD30B5104901240B4BF0
:1006C00091F9012091F904108A4204D100EB8000D5
:1006D00003F8204030BD4D1CAA4211D100F10100A9
:1006E00000EB800003F8204030BD00000001001046
:1006F000FCC0072001C10720D38D0000E4000010DA
:100700008D1CAA4206D100F1020000EB800003F824
:100710002040E9E7CD1CAA4206D100F1030000EB1E
:10072000800003F82040DFE70D1DAA4206D100F14A
:10073000040000EB800003F82040D5E74D1DAA42DD
:1007400006D100F1050000EB800003F82040CBE764
:100750008D1DAA4206D100F1060000EB800003F8CF
:100760002040C1E7C91D8A42BED100F1070000EB5D
:10077000800003F82040B7E7824B1A88A2F10102FB
:10078000104400B21880804A00EB800002447F4889
:100790001368036012790271427811444170704706
:1007A00070B5784DB5F9004004F101062E80764D04
:1007B00004EB84042544754C26682E6026792E713E
:1007C000207061702271A37070BD2DE9F0418046E8
:1007D0000F461646FFF794FD6D4C4FF0000518F8D4
:1007E000010B04F8010B05F10105EDB2142DF6D350
:1007F0004FF0000017F8011B04F8011B00F1010085
:10080000C0B21428F6D34FF0000016F8011B04F80C
:10081000011B00F10100C0B21428F6D34FF0000014
:1008200013F8011B04F8011B00F10100C0B21428E9
:10083000F6D3BDE8F08110B5029CFFF7C6FF534820
:10084000C378827841784D20FFF7AAFF642094FB9B
:10085000F0F0BDE81040C0B2FFF7E3BC2DE9FE4365
:100860000D464FEA401000F58060044602A920467C
:1008700007F04FFB01A904F1080007F04AFB6946A5
:1008800004F10C0007F045FB2846FFF745FD404CFE
:100890004FF0200600F10101C9B226544FF0300795
:1008A00001F10100C0B267544FF0210800F10101CD
:1008B000C9B204F800804FF0400901F10100C0B254
:1008C00004F8019000F10101C9B2265401F10100C0
:1008D000C0B2665400F10101C9B227544FF023029F
:1008E00001F10100C5B262549DF806004FF000020C
:1008F0004FF02101FFF765FE9DF80400002223213F
:10090000FFF75FFE9DF80500401E0C2803D34FF053
:1009100001008DF805009DF805001E49002201EB3D
:1009200080004021FFF737FE05F10100C0B2665597
:1009300000F10101C9B2275401F10100C0B204F86D
:1009400001804FF03A0200F10101C9B2225401F1D5
:100950000100C0B2675400F10101CDB204F800906B
:100960009DF800004FF000024FF02101FFF729FE33
:100970009DF8010000224021FFF723FE6655BDE8E7
:10098000FE8300003C0000107BCA0720E40000103A
:1009900000010010488D000070B5FF4C608A401CBB
:1009A00000B26082B0F5E16F02DB4FF000006082C0
:1009B000B4F91200B0F5DF6F11D90F2301226421C1
:1009C000D220FFF7BAFB0F230022D821D720FFF750
:1009D000B4FB0F230022D821DC20FFF7AEFBB4F9D3
:1009E0001200A0F5E061073918D1EC4EEC4CED4D4A
:1009F00030882188884205D0B4F90010B5F900008C
:100A000007F0FEFA70886188884207D0B4F90210B6
:100A1000B5F90200BDE8704007F0F2BA70BDF0B55C
:100A2000E14BB3F90400E149B1F9001041434FF43F
:100A3000FA6291FBF2F1DE4A1180B3F90210DD4A4D
:100A4000B2F9002001FB02F14FF4FA7491FBF4F1CA
:100A5000D94A1180D94AB2F9002000FB02F292FB78
:100A6000F4F2D74D2A80A1EB0201D64A1180D64973
:100A7000B1F9001000FB01F0D4490988A1F5AA42A0
:100A8000FA3A04D14FF4C87190FBF1F001E090FB09
:100A9000F4F0CF490880B3F90A1040F6B734A1F258
:100AA000213001260025CB4AA04201D2157000E07A
:100AB0001670C948B0F90000414344F6206C91FB20
:100AC000FCF1A1F21111C54F3980B3F90C10A1F25C
:100AD0002133A34201D2157000E01670484390FB09
:100AE000FCF0A0F211103880BD490880DFF8F4C294
:100AF000BCF80010BC4EB6F9000000FB01F04FF44A
:100B00007A6490FBF4F0B94B80B21880B84964283D
:100B100001D2088002E0B74800880880BCF80210C3
:100B2000B6F90200484390FBF4F05880B248B0F99F
:100B30000010B24BB3F900404C4341F2707194FB8A
:100B4000F1F6AF4C2680B0F902C0B3F9026006FBA3
:100B50000CF696FBF1F66680B0F90460B3F9043048
:100B600003FB06F393FBF1F3A380B0F90640A54B1A
:100B7000B3F9006006FB04F696FBF1F6A24C268062
:100B8000B0F908C0B3F9026006FB0CF696FBF1F66B
:100B90006680B0F90A60B3F9040000FB06F090FB30
:100BA000F1F0A0807888994E00F2111003B23380E2
:100BB000B88800F2111004B27480517831729078C4
:100BC0007072934A01B910B101290AD00AE003EB0F
:100BD000040000EBD0706FF4887101EB60001080AE
:100BE0001CE008B121B105E0A4F21114148015E055
:100BF000012802D0012904D010E0A3F211131380C0
:100C00000CE001280AD183480078052803D28248E5
:100C10000088108002E04FF0140010807F480580AB
:100C20007F480580F0BD7F48416821F4402141F4B0
:100C300080214160416821F4403141F480314160BC
:100C4000416821F4404141F480414160416C21F40C
:100C5000402141F400214164416C21F4403141F4D0
:100C600000314164416C21F4404141F40041416450
:100C70006D48016821F0E0610160016841F40011F4
:100C80000160016821F480310160016821F47F4135
:100C900041F4807101604FF48071C16063484FF48A
:100CA0008001016070472DE9F0413B4C14346088AD
:100CB0002188401A00B200F04CF9A61D3080A088AF
:100CC0006188401A00B200F044F97080A088218841
:100CD000401A00B200F03DF9B0804FF496712E4DED
:100CE000884202DAA08828810CE0B6F90200884226
:100CF00002DA6088288105E0B6F90000884201DA4E
:100D000020882881AF78002637B32748B5F9081026
:100D1000203002680A44026042680A4442608268E5
:100D20000A448260C2681144C160298A01F101014C
:100D300009B22982B1F5805F00DB2E82B5F910106F
:100D40008A057ED14FEAA12150F821204FEA2222C4
:100D5000EA8040F8216074E03548EC782A7900EBAD
:100D60008413B5F9081043F8221090070DD10146FD
:100D700053F820C0614400F10100C0B21028F7D33D
:100D80004FEA2110084921F81400641CE0B2E87011
:100D9000102856D3EE704DE000C0072044C0072055
:100DA00024C107204087000034C507204CC007201D
:100DB000940000104E0200109800001052C007204E
:100DC0009C000010F402001050C0072092C00720C1
:100DD00096000010C700001044020010EE00001042
:100DE0009E00001004C107203E020010F602001011
:100DF000FC020010A2000010AECA07200CC10720A0
:100E0000F4000010FE020010FA0000104ACA072089
:100E1000B0000010320000100AC10720FAC00720FD
:100E200002C1072000C002400040034000E100E092
:100E300034C1072002F10102D0B22871102800D37A
:100E40002E716E7007F1010707F00100A870304A9B
:100E500030B1106820F0FF0000F1040010603DE0A8
:100E6000E978080706D4106820F0FF0000F10100BF
:100E7000106005E0106820F0FF0000F10200106033
:100E80002448036843F080530360036A43F08043BF
:100E90000362036E43F080630366CB070AD04369A5
:100EA00043F0805343618B0709D4436B23F08043A5
:100EB000436308E0436923F080534361F3E7436BE6
:100EC00043F080434363490704D4416F21F08061BC
:100ED000416703E0416F41F080614167106840F075
:100EE00080701060BDE8F0810A48016841F48071AB
:100EF00001600949097821B1416941F4807141617A
:100F00007047416921F4807141617047704700006A
:100F10000040034000C0092000C0072010B50A2887
:100F200003D0BDE8104007F076B90D2007F073F943
:100F3000BDE810400A2007F06EB910B50446E0B2D3
:100F4000FFF7ECFF204610BD4FF01100FF4908727B
:100F50007047002801DA404200B2704770B5FC4E7D
:100F600040F6B8350121B6F90040FA4800224FF4A6
:100F70007A73AC4201DD017002E09C4200DA02703B
:100F8000B6F90E40AC4201DD417002E09C4200DA4D
:100F90004270B6F91040AC4201DD817002E09C4223
:100FA00000DA8270B6F90240AC4201DDC17002E0A5
:100FB0009C4200DAC270B6F90840AC4201DD017112
:100FC00002E09C4200DA0271B6F90640AC4201DD53
:100FD000417102E09C4200DA4271B6F90440AC4231
:100FE00001DD817102E09C4200DA8271B6F90C40A9
:100FF000AC4201DDC17102E09C4200DAC271B6F977
:101000000A40AC4201DD017270BD9C42FCDA027202
:1010100070BD10B5D049086820F0E06008604868ED
:10102000CF4AC0F30B13CD4C107824F8103000F1E8
:101030000100C0B21070032803D2086840F080702D
:10104000086010BD1FB5C7480078F8B1C54A002335
:10105000D83A5179491CC9B209281FD003284ED06B
:1010600004287ED001287DD002287CD005287BD0A2
:1010700006287AD0072879D0082878D00A2877D18E
:1010800004B0B9A0BDE8104007F064B904B007226D
:10109000BDE810401921B7A007F05CB951710529CE
:1010A00000D35371507948B14FF000010A46AD4862
:1010B000A0F11A000378012B08D00AE004B00B223B
:1010C000BDE810402621ABA007F044B94FF0010164
:1010D0000A464378012B04D141F0020102F10102DA
:1010E000D2B28078012804D141F0040102F101025A
:1010F000D2B204B0A2A0BDE8104007F02BB95171E4
:10110000052900D35371507998B3A148028B4FF051
:101110006401B2FBF1F301FB1323027DB2FBF1F496
:1011200001FB142484EA0304027AB2FBF1F301FB0D
:10113000132383EA0403027BB2FBF1F401FB1424C2
:1011400084EA03040279B2FBF1F301FB132383EA7F
:1011500004030278B2FBF1F401FB142181EA0301DC
:1011600008E01FE028E03BE044E057E060E065E095
:101170000FE00FE002780379047BCDE9022104F14E
:101180000104CDE90043037A027D018B81A007F0C1
:10119000E1F81FBD04B00222BDE810400B2175A08C
:1011A00007F0D8B85171052900D3537104B082A05B
:1011B000BDE8104007F0CEB85171052900D3537136
:1011C000507928B104B07FA0BDE8104007F0C2B844
:1011D00004B00222BDE810400C2166A007F0BAB8A6
:1011E0005171052900D3537104B078A0BDE81040B7
:1011F00007F0B0B85171052900D35371507928B167
:1012000004B075A0BDE8104007F0A4B804B00222F5
:10121000BDE81040112157A007F09CB85171052975
:1012200000D3537104B06EA0BDE8104007F092B82F
:1012300004B06DA0BDE8104007F08CB804B06CA0FD
:10124000BDE8104007F086B810B5464C4FF01800C6
:10125000A4F1B8042072207800F1010040B204F833
:101260002009182803DD4FF0FB0084F8200094F9D2
:101270002000002811DB18280FDC2120FEF79CFF3E
:10128000002809D05D480088222805D1354894F906
:10129000201090F90200884210BD411CFCD0811C36
:1012A000FAD0C01CF8D1E07800F10100E07010BD68
:1012B0002DE9F0414FF00000514B01464FF4F4721C
:1012C000195400F1010000B29042F9DB4FF0000226
:1012D0004FF0140C4FF07A0102FB01F002EB820197
:1012E0004FEA810109B202EB82040CEB840724E08F
:1012F0001C4C444E1C34645C04EB440500F10104B6
:1013000016F8158003F8008006EB450004F101068D
:1013100045781D55847806F101059C55C47805F182
:1013200001065C55057906F101049D55457904F1E6
:1013300001001D5501F1010109B28F42D8DC02F113
:10134000010212B2042AC5DBBDE8F0810040024070
:1013500034C5072072CA07200040034014C007208C
:1013600001C00720E400001050524F4245534D5336
:101370000A0000004F4B256443524325640A0000D5
:101380004F505452256443524325640A0000000024
:1013900024400240444154412530326425303264B7
:1013A0002530326425303264253032642530326491
:1013B00043524325640A000054494D455354415259
:1013C000540A000057415445520A00005741545FE7
:1013D0005245540A000000004149520A0000000032
:1013E00041495F5245540A00494E5445520A000093
:1013F000494E54455F5245540A00000028C007205A
:10140000FCC50720488700002DE9F04FCBB0FF490D
:10141000FE48DFF8F89391F9044091F9011009F1C1
:101420001C090A1B00784B1EA9F1F4064FFA83F839
:101430000DAD06F18007F0B3DFF8D0B307287ED0FA
:101440005B46092893F904A00AF1020E0AF1010A89
:1014500076D0012875D0052874D0532873D055282C
:1014600072D0583B4028B3F91430A3F1010CCDF8E9
:1014700028C1DFF89CC3CDF824C166D042287ED0B5
:101480000E287DD00F28FCD03828FAD02128F8D09B
:101490002F2876D0302875D0032874D0042873D034
:1014A0000628FCD00228FAD00828F8D05B465B78E2
:1014B0009B1E5BB200E02EE0B4461128BCF964B07C
:1014C000BCF960907ED0BCF968C012287BD015288A
:1014D00000F02387132800F09387142800F0DD879D
:1014E000DFF828B32A2801F034802B2801F0598036
:1014F000292801F08E8006F1E20A3A2801F0528193
:101500003C2801F0A481272801F0FA81542801F039
:101510002B8201F072BABFA00D90C4A00E90C9A09A
:101520000F90CEA01090D3A01190D8A01290DDA063
:101530001390E2A01490E7A01590ECA006E061E003
:101540006AE0F4E0FDE006E12FE152E31690AF48D7
:10155000012A02DD80F8048002E0A14200DA017174
:1015600090F90400C11C801C55F8213055F820204A
:10157000DDE90D01FFF729F9E24C207A05E091E35E
:10158000E8E3FEE3FEE3FEE3FEE34FF000024FF08C
:101590002501FFF716F8207900225E21FFF711F8E8
:1015A000207800222621FFF70CF8207B00223C2126
:1015B000FFF707F8A08B00227B21FFF702F8217EBE
:1015C000D14801E0F3E3F3E300EB810000223E2188
:1015D000FEF7E1FFB07C88B13A20FEF79DFE4FF0A8
:1015E000200409F800404FF03A00FEF795FE09F894
:1015F00000403A20FEF790FE09F800400220FFF775
:101600005BF886E7C1A3C7A2CCA1D2A0FFF7DDF8A3
:101610000320FFF751F87CE74FF00A007076D3A063
:101620000190D8A00290DDA00390B74800F16100BE
:10163000049001A850F82E3050F82A2050F82410B9
:10164000DCA0FFF7C2F89BF901009BF90410421AD5
:10165000022A04DDA0F102008BF8040003E08842B6
:1016600001DA8BF804000120FFF726F8674C6FF0D1
:1016700003081A3CA078012844D042462121D3A077
:10168000FEF789FF6078012843D042462521CFA08C
:10169000FEF781FF2078012842D042462821CBA0C6
:1016A000FEF779FF5A4C002266344021A079FEF7FC
:1016B00088FFE07900222321FEF783FF207A0022B1
:1016C0002421FEF77EFFE07800225E21FEF779FFFD
:1016D000207900222621FEF774FF607900222A215A
:1016E000FEF76FFF207800222921FEF76AFF60785D
:1016F00000222D21FEF765FFA07800223D21FEF794
:1017000060FF06E76FF002022121B2A0FEF743FF5F
:10171000B8E76FF002022521AEA0FEF73CFFB9E763
:101720006FF002022821ABA0FEF735FFBAE777A3DE
:10173000AAA2B0A1B5A0FFF748F80320FEF7BCFFAE
:10174000E7E672A3B7A2ABA1B0A0FFF73EF8032073
:10175000FEF7B2FFDDE6B9A00D90BEA00E906BA023
:101760000F9055F82E3055F82A2055F82410BFA0B8
:10177000FFF72BF80120FEF79FFFF88D002200EB0A
:10178000800080B22121FEF71CFFB88D00222321AA
:1017900080B2FEF716FFB88D002200EB80002D30DE
:1017A00080B24021FEF70DFFB3E6B6A00D90BBA0BE
:1017B0000E90C0A00F90C5A01090CAA01190CFA00D
:1017C0001290D4A01390D9A01490DEA01590E3A09D
:1017D0001690E8A01790EDA01890F2A01990B6F915
:1017E0006A004AA200F1010145F8212000F102013E
:1017F0000EA245F8212000F103000CA145F82010AD
:1018000004F1030455F82430D8E10000E40000108E
:101810000CCA07202030253A305E3A302620303C72
:101820002F3E20202F307B20000000002020202091
:1018300020202020202020202020202020202020A8
:101840000000000020CFEEEBEDE0FF20EFF0EEE235
:10185000E5F0EAE0202020200000000020CAEEEDA4
:10186000F2F0EEEBFC20E8EDF2E5F0F4E5E9F1E072
:101870000000000020CAEEEDF2F0EEEBFC20EEEFEF
:10188000F2F0EEEDEEE220200000000020D3F1F2B5
:10189000E0EDEEE2EAE020E2F0E5ECE5EDE8202024
:1018A0000000000020C4E0F2F7E8EA20E2EEE7E4FE
:1018B000F3F5E020202020200000000020C4E0F20A
:1018C000F7E8EA20E2EEE4FB202020202020202080
:1018D0000000000020D2E5F1F220E2FBEAEBFEF787
:1018E000E5EDE8FF202020200000000020C7E0E216
:1018F000EEE4F1EAE8E520F3F1F2E0EDEEE2EAE809
:101900000000000020400240488D000020C2FBF58E
:10191000EEE4202020202020202020202020202035
:1019200000000000202020202020C1C8CFCFC5D03B
:10193000C020202020202020000000002020202087
:101940002020CACDCECFCECA20202020202020208B
:101950000000000020CFD0CEC2C5D0CAC020C8CD64
:10196000C4C8CAC0D6C8C8200000000020CEEFF20C
:10197000F03320202020202120202020402324205C
:101980000000000020CEEFF2F032202020202025A1
:10199000202020205E262A200000000020CEEFF22A
:1019A000F03120202020202820202020292D3D201B
:1019B0000000000020CACECDD2D0CECBDC20CECFCE
:1019C000D2D0CECDCEC2202000000000C2DBCACBD8
:1019D0002E000000C2CACB2E0000000020202020D4
:1019E000C4C0D2D7C8CAC020C2CEC4DB20202020A9
:1019F0000000000020202020D2C5CCCFC5D0C0D20E
:101A0000D3D0C020202020200000000020CDC02006
:101A1000CBC5C2CECC20C8CDC4C8CAC0D2CED0C5DA
:101A2000000000002020C4C0D2D7C8CAC020C2CE47
:101A3000C7C4D3D5C0202020000000002046E2E526
:101A4000EDF22EF2E5EAF3F92E20202020202125C8
:101A5000000000002046E2E5EDF22E6D61782E20B8
:101A600028202040252920230000000020202020BD
:101A700020C2C5CDD2C8CBDFD2CED020202020209E
:101A8000000000002020C0C2D2CECCC0D2DB20CDCE
:101A9000C0C3D0D3C7CECA200000000020C0E2F2ED
:101AA000EEECE0F220B9312020202020202021205F
:101AB0000000000020C0E2F2EEECE0F220B932209B
:101AC00020202020202040200000000020C0E2F242
:101AD000EEECE0F220B9332020202020202023202B
:101AE0000000000020C0E2F2EEECE0F220B9342069
:101AF00020202020202024200000000020C0E2F22E
:101B0000EEECE0F220B935202020202020202520F6
:101B10000000000020C0E2F2EEECE0F220B9362036
:101B20002020202020205E200000000020C0E2F2C3
:101B3000EEECE0F220B937202020202020202620C3
:101B40000000000020C0E2F2EEECE0F220B9382004
:101B50002020202020202A200000000020C0E2F2C7
:101B6000EEECE0F220B9392020202020202028208F
:101B70000000000020C0E2F2EEECE0F220B93130CB
:101B800020202020202029200000000020C0E2F298
:101B9000EEECE0F220B931312020202020202B2053
:101BA0000000000020C0E2F2EEECE0F220B9313299
:101BB0002020202020203D200000000055F82E206D
:101BC00055F82A100D98FEF700FE9BF901009BF9CD
:101BD0000410421A022A04DDA0F102008BF804006E
:101BE00003E0884201DA8BF804000120FEF764FD6F
:101BF0008FE433B1012B15D05846A14221DA01718F
:101C000023E0F44BF4A2FAA1FFA0FEF7DEFD4FF0B3
:101C1000000059468BF8010008714FF00300FEF7F1
:101C20004BFD27E0EB4BFEA2F1A1F7A0FEF7CDFDA7
:101C30004FF000008BF804004FF00200FEF73CFD6F
:101C400018E0012A01DD80F8048090F904104A9818
:101C5000814206D1DF4BF2A2E5A1EBA0FEF7B5FD74
:101C600005E0F5A3EEA2E2A1E7A0FEF7AEFD02209B
:101C7000FEF722FD9BF902005C46401C80B2002268
:101C80002121FEF79EFC94F90410F148405C2821C4
:101C9000FEF7E4FD94F904104998085C5B21FEF717
:101CA000DDFD36E433B1012B15D0A14222DA8BF8E9
:101CB000041023E0C74BC8A2CDA1E6A0FEF785FD26
:101CC0004FF000008BF801008BF804004FF0030088
:101CD000FEF7F2FC27E0BF4BD1A2C5A1DDA0FEF7C5
:101CE00074FD4FF000008BF804004FF00200FEF787
:101CF000E3FC18E0012A01DD8BF804809BF9041055
:101D00004A98814206D1B34BC5A2B9A1D1A0FEF732
:101D10005CFD05E0C8A3C2A2B5A1CEA0FEF755FDAB
:101D20000220FEF7C9FC9BF902000022401C80B291
:101D30002121FEF746FC9BF90410C548405C282190
:101D4000FEF78CFD9BF904104998085C5B21FEF7B7
:101D500085FD56E49F4BC5A0153B1A461146FEF77C
:101D600034FDC84C0023082294F90000012180B200
:101D7000FEF7E6FB94F901000023092280B201215D
:101D800003E016E049E052E0D2E0FEF7D9FB94F917
:101D90000200002380B20A220121FEF7D1FB9BF949
:101DA000012004F16C004FF0A401115429E4C7E0B4
:101DB00059E2B4489BF902103438405C552829D0C8
:101DC000B1A00D90834BB6A1153B1A460D98FEF7B6
:101DD000FCFCAC4C0023082294F90000022180B2E4
:101DE000FEF7AEFB94F90100002380B20922022124
:101DF000FEF7A6FB94F90200002380B20A2202211A
:101E0000FEF79EFB9BF9012004F180004FF0A40136
:101E1000115476E4A8A00D90D4E7ADA3B2A2B8A166
:101E200099A0FEF7D2FC0220FEF746FC69E4B079E7
:101E3000401CC0B2B0710F280AD34FF00001B1713D
:101E4000307E00F10100C0B23076032800D3317635
:101E5000604815300D902A380E90307E08B9AEA13A
:101E60000F91012801D1B2A10F91022801D1B6A092
:101E70000F900DA9BAA00EC9FEF7A7FC9BF90100AF
:101E80005E2150B101280BD002280CD003280DD0C0
:101E900004280ED005280FD010E089F82A100DE094
:101EA00089F82D100AE089F8301007E089F833101E
:101EB00004E089F8371001E089F83B10AE4C207837
:101EC0004FF000024FF05E01FEF77BFB207900220D
:101ED0002521FEF776FB207A00223C21FEF771FBDC
:101EE000217D3C480022613800EB81003E21FEF755
:101EF00052FB208BA4F124044FF000024FF07B0131
:101F0000FEF75FFBB07C30B13A20FEF705FA4FF0E8
:101F1000200109F8001094F830002E4900EB400031
:101F20002D3908444FF0FF322621FEF734FB07E439
:101F3000284B153B1A4611460846FEF746FC09E4B5
:101F40000FF2382C4FF00100CDF834C0B9F1000F7A
:101F500005D00FF2402C4FF00200CDF838C0BBF195
:101F6000000F07D00FF24428844600F10100C0B2F0
:101F700045F82C80B6F866C0BCF1000F07D00FF210
:101F80004428844600F10100C0B245F82C800FF2CD
:101F90004C2800F1010C0CF0FF0C45F820800FF2EA
:101FA00054280CF10100C0B245F82C800FF25C28D7
:101FB00000F1010C0CF0FF0C45F82080AFF2B46882
:101FC0000CF10100C0B245F82C80AFF2A07800F10E
:101FD000010C27E1A98D000020C6F3F0EDE0EB2015
:101FE000EFF3F1F22020202020202020000000002C
:101FF0002020202020C1C0D2C0D0C5C8204E212022
:102000002020202000000000C2DBD0C0C2CDC8C20A
:10201000C0DED9C8C520C7C0D0DFC4DB00000000C7
:1020200020282020202020202020202020202020A8
:102030002020202000000000205B202020202020E5
:102040002020202020202020202020200000000010
:102050000BCA0720202020202020D0C0C7D0DFC4FA
:10206000DB20202020202020000000002020C2E2D1
:10207000E5E4E8F2E52020EFE0F0EEEBFC202020A4
:1020800000000000C4000010C4EBFF20E2E2E5E421
:10209000E5EDE8FF20E1E0F2E0F0E5E80000000017
:1020A0002020EDE0E1E5F0E8F2E520EFE0F0EEEBF6
:1020B000FC20202000000000C4EBFF20E2FBE2E552
:1020C000E4E5EDE8FF20E1E0F22E2DE8000000005D
:1020D00020475946503438373554202020202020BE
:1020E000202020200000000020D1E2E8EDF6EEE202
:1020F000EE2DEAE8F1EBEEF2EDE0FF20000000004B
:10210000202020E2FBE1E5E8F2E520E5E520F2E829
:10211000EF2020200000000020202020203C3E2036
:102120002D20E2FBE1EEF020202020200000000026
:102130002020205E76202D20F3F1F2E0EDEEE2EAA1
:10214000E0202020000000002020202020A42020CB
:102150002D20E2FBF5EEE4202020202000000000EE
:1021600020D3D1D2C0CDCEC2CAC02020C2D0C5CCCF
:10217000C5CDC820000000002440024020D1E5F277
:10218000FC20202020202020202020202020202073
:102190000000000020C1E0F2E0F0E5E8202020206F
:1021A00020202020202020200000000020C1CFD1AE
:1021B000202020202020202020202020202020201F
:1021C0000000000020C8EDE2E5F0F2EEF0FB202078
:1021D00020202020202020200000000020CDE0E34F
:1021E000F0F3E7EAE02020202020202020202020FB
:1021F0000000000020C2EDE5F8EDE8E520E4E0F2A3
:10220000F7E8EAE8202020200000000020D1E8EBD9
:10221000EEE2FBE520E2E2EEE4FB2020202020209D
:10222000000000000CF0FF0C45F82080AFF6042001
:1022300045F82C00FE48022A01DD037102E0A142AC
:1022400000DA017190F90400811C55F82130411C1D
:1022500055F8212055F82010F6A0FEF7B6FA012017
:10226000FEF72AFAC9E3AFF2EC084FF00100CDF80F
:102270003480B9F1000F05D0AFF2E8084FF002004A
:10228000CDF83880BBF1000F07D0AFF2E0098046EF
:1022900000F10100C0B245F828900FF2B03900F10A
:1022A000010808F0FF0845F82090BCF1000F08D0A5
:1022B000AFF2C00C404608F1010808F0FF0845F8ED
:1022C00020C0AFF6B81C08F10100C0B245F828C024
:1022D000AFF6A82800F1010C0CF0FF0C45F82080A7
:1022E000AFF6B82045F82C00D148022A01DD037171
:1022F00002E0A14200DA017190F90400811C55F856
:102300002130411C55F8212055F82010C9A0FEF7B6
:102310005CFA0120FEF7D0F96FE3D2A00D900FF226
:102320005C3C4FF00200CDF838C0BBF1000F05D087
:10233000AFF2881C4FF00300CDF83CC00FF25438C8
:1023400000F1010C0CF0FF0C45F82080D7A00CF137
:10235000010808F0FF0845F82C00AFF6502C08F1F2
:102360000100C0B245F828C0AFF6403800F1010CBA
:102370000CF0FF0C45F82080AFF6503045F82C00EB
:10238000DFF8AC82022A02DD88F8043003E0A142C3
:1023900001DA88F8041098F90400811C55F82130FE
:1023A000411C55F8212055F82010A2A0FEF70DFA87
:1023B0000120FEF781F9B8890122212180B2FEF7C0
:1023C00000F9F8890022402180B2FEF7FAF8388A35
:1023D0000122232180B2FEF7F4F8788A00225E21E0
:1023E00080B2FEF7EEF898F9010008B1032893D106
:1023F0000A234FF47A72E521E120FDF79EFEFCE20C
:10240000AFF288200D90AFA04FF002080E90BBF104
:10241000000F04D0AFF26C204FF003080F900FF2C2
:102420002C2908F10100C0B245F82890BCF1000F3A
:1024300007D0AFF24028844600F10100C0B245F851
:102440002C80AFF6383800F1010C0CF0FF0C45F889
:102450002080AFF628480CF10100C0B245F82C806E
:10246000AFF6384C45F820C07148022A01DD0371EF
:1024700002E0A14200DA017190F90400811C55F8D4
:102480002130411C55F8212055F8201069A0FEF795
:102490009CF90120FEF710F9AFE2AFF220384FF0BF
:1024A0000100CDF83480B6F86280B8F1000F05D095
:1024B000AFF220384FF00200CDF83880BBF1000FAA
:1024C00007D0AFF21839804600F10100C0B245F8DC
:1024D0002890AFF2F82900F1010808F0FF0845F84C
:1024E0002090BCF1000F08D0AFF2F82C404608F164
:1024F000010808F0FF0845F820C0AFF6F03C08F1ED
:102500000100C0B245F828C0AFF6E04800F1010C68
:102510000CF0FF0C45F82080AFF6F04045F82C0099
:102520004348022A01DD037102E0A14200DA017191
:1025300090F90400811C55F82130411C55F82120E8
:1025400055F820103BA0FEF740F90120FEF7B4F843
:1025500053E262A00D90AFF64C400E90AFF63450AF
:102560000F90022A02DD8BF8043003E0A14201DA69
:102570008BF804109BF90400811C55F82130411C94
:1025800055F8212055F820105AA0FEF71EF9012019
:10259000FEF792F8F88A0022402180B2FEF711F887
:1025A0002BE25AA00D905FA00E9064A00F90AFF6A2
:1025B000A440109055F82E3055F82A2055F82410D4
:1025C0004CA0FEF702F99BF901009BF90410421A96
:1025D000022A04DDA0F102008BF8040003E0884227
:1025E00001DA8BF804000120FEF766F8388B002230
:1025F000212180B2FDF7E5FF788B0022402180B2D7
:10260000FDF7DFFFB88B0022232180B2FDF7D9FF51
:10261000F3E132A00D90AFF60C500E90AFF6F450EF
:102620000F90022A02DD8BF8043097E092E0000060
:10263000E40000102020202020CAC0CBC8C1D0CE8A
:10264000C2CAC020202020200000000020C2FBF5CC
:10265000EEE4EDFBE520EFE0F0E0ECE5F2F0FB204E
:10266000000000002055E2FBF52E20202020202035
:1026700020202021C2202020000000002049E2FB71
:10268000F52E20202020202020202040C0202020A7
:10269000000000002055E22EE42E202020202020E3
:1026A00020202023C2202020000000002054F1E838
:1026B000F1F2E5ECFB20203D2020205EB0432020FD
:1026C0000000000020C1E0F2E0F0E5FF2020202023
:1026D0002020202020202020000000002055203D28
:1026E000202020202040C220202020202020202028
:1026F00000000000202020CAC0CBC8C1D0CEC2CA72
:10270000C020D1C5D2C82020000000002055F441CF
:10271000202020202020202020202021C220202016
:10272000000000002055F4422020202020202020FE
:1027300020202040C2202020000000002055F4432B
:10274000202020202020202020202023C2202020E4
:1027500000000000A14201DA8BF804109BF904008C
:10276000811C55F82130411C55F8212055F82010C6
:10277000FBA0FEF72AF80120FDF79EFFB7F908003D
:10278000B0F57A7F08DD0A2190FBF1F080B20022DB
:102790004021FDF716FF30E10122402180B2FDF714
:1027A00010FF2AE1F4A00D90F9A00E90FEA00F906A
:1027B000AFF6A8601090AFF68C701190AFF69470E1
:1027C0001290012A02DD8BF8048003E0A14201DAB5
:1027D0008BF804109BF90400411C55F8202055F893
:1027E0002130F7A1FCA0FDF7F0FF0220FDF764FF08
:1027F000FF4C207830B16FF002022121FDA0FDF7DF
:10280000CAFE05E0BAF9000000222121FDF7C8FD4B
:10281000607830B16FF002024021F6A0FDF7BBFEF8
:1028200005E0BAF9020000224021FDF7B9FDA078C9
:1028300030B16FF002022321EEA0FDF7ACFEDCE028
:10284000BAF9040000222321FDF7AAFDD5E0EBA090
:102850000D90F0A00E90F5A00F90AFF6507045F8D7
:102860002C000CF10103F74845F823000CF1020C91
:1028700045F82C00012A02DD8BF8048003E0A14218
:1028800001DA8BF804109BF90400411C55F8202054
:1028900055F82130CAA1D0A0FDF797FF0220FDF71F
:1028A0000BFFD34C207830B16FF002022121D1A070
:1028B000FDF771FE05E0BAF9000000222121FDF7C5
:1028C0006FFD607830B16FF002024021C9A0FDF7C2
:1028D00062FE05E0BAF9020000224021FDF760FD2A
:1028E000A07830B16FF002022321C2A0FDF753FEA1
:1028F00083E0BAF9040000222321FDF751FD7CE0BA
:10290000D1A00D90D6A00E90B94837380078552840
:1029100001D0D3A00D90CB48E03045F8290009F153
:102920000100DFF820C345F820C009F10209604624
:1029300045F82900022A02DD8BF8043003E0A142A9
:1029400001DA8BF804109BF90400811C55F8213042
:10295000411C55F8212055F82010C7A0FDF735FF80
:102960000120FDF7A9FE48E0C9A00D90CEA00E9071
:10297000D3A00F90D8A01090DDA01190E2A01290EB
:10298000B048E0301390E0381490012A02DD8BF853
:10299000048003E0A14201DA8BF804109BF90400E3
:1029A000411C55F8202055F82130DDA1E2A0FDF7AB
:1029B0000CFF0220FDF780FE8D4C00222D342121DA
:1029C0002088FDF7FEFD608800224021FDF7F9FD1B
:1029D000A08800222321FDF7F4FDA41D00222088F9
:1029E0002621FDF7EEFD608800222A21FDF7E9FD92
:1029F000A08800222821FDF7E4FDDFF8F48108F12A
:102A00001D0898F800002E282AD05B286AD05C2880
:102A100069D05E2868D05F2867D0612866D1B6F893
:102A2000740000287ED0CAA00D90B6F87600002869
:102A300079D0CDA00E90D2A00F90D7A010904FF0DB
:102A4000040070767F48717EE03045F8210098F9E7
:102A5000010098F90410884266DA88F80400B6E3A9
:102A600098F90100E8B3012870D002286FD003283C
:102A70006ED004286DD0CE4C05286BD006286AD0C5
:102A8000072869D0082868D00A2867D00B2866D0A4
:102A90000C28C3D16B4BC7A01A461146FDF795FE13
:102AA000788E00230422012180B2FDF749FDB88E03
:102AB00000230422022180B2FDF742FD00230E22F2
:102AC000012196F82A00FDF73BFDC04C00230F22A0
:102AD00020781946FDF734FD00230F22607801218C
:102AE00005E08AE174E374E374E374E374E3FDF7EF
:102AF00027FDA07800230F220221FDF721FDE078B9
:102B000000230F220321FDF71BFD00232079132250
:102B10001946FDF715FD6079002313220121FDF709
:102B20000FFD02E059E359E359E3A0790023132292
:102B30000221FDF705FDE079002313220321FDF7B3
:102B4000FFFC00230A221946F88E41E18FE1B1E132
:102B5000F1E1F9E11FE287E28FE2F2E240E340E3D4
:102B600020CAC0CBC8C1D0CEC2CAC020CDC0C3D03D
:102B7000D3C7CAC8000000002074E2EDE5F82EE2D9
:102B8000EEE7E42E2020202021B0D120000000001C
:102B90002074EEF2F1E5EA20DDCFD32020202020C2
:102BA00040B0D120000000002074EEF2F1E5EA20F0
:102BB0004D53414E2020202023B0D12000000000A2
:102BC00020C4C0D2D7C8CACEC220D2C5CCCFC5D0AF
:102BD000C0D2D3D00000000020CAC0CBC8C1D0CE24
:102BE000C2CAC020C2CDC5D8CDC8D52000000000C3
:102BF000C7000010EDE5E8F1EFF02E002074312061
:102C000020202020202020202020202021B0D12082
:102C100000000000207432202020202020202020CE
:102C20002020202040B0D12000000000207433205C
:102C300020202020202020202020202023B0D12050
:102C4000000000002C18000020C1E0F2E0F0E5FFD9
:102C5000204E3120202020202020202000000000B5
:102C600020C1E0F2E0F0E5FF204E322020202020BD
:102C7000202020200000000020CAC0CBC8C1D0CE38
:102C8000C2CAC020C1C0D2C0D0C5C9200000000047
:102C900020C2E2EEE420F42E412020202021C22098
:102CA000202020200000000020C2E2EEE420F42ECC
:102CB000422020202040C2202020202000000000B0
:102CC00020C2E2EEE420F42E432020202023C22064
:102CD000202020200000000020CFDDD12020F42E75
:102CE000412020202026C22020202020000000009B
:102CF00020CFDDD12020F42E42202020202AC22007
:102D0000202020200000000020CFDDD12020F42E44
:102D1000432020202028C220202020200000000066
:102D2000202020D1C8CBCEC2DBD520C2C2CEC4CE9B
:102D3000C220202000000000202020202020CAC027
:102D4000CBC8C1D0CEC2CAC02020202000000000C5
:102D500020C2EAEBFEF7E5EDEE2020202020202027
:102D6000202020200000000020CAC0CDC0CB2020A1
:102D7000204D4F444255532D544350200000000035
:102D8000204950203030402E3030232E3030242E39
:102D9000303025200000000020C0C4D0C5D120C2A2
:102DA000C5C4CECCCEC3CE2020205E2000000000C3
:102DB00034C50720696361202020202020202020A6
:102DC00020202020202020200000000068CA0720AA
:102DD000323080B2FDF7B4FBF88C00230A220121C7
:102DE00080B2FDF7ADFB78894BB00023BDE8F04F12
:102DF0000A22022180B2FDF7A3BBFAA3FF4A1146C3
:102E0000FFA0FDF7E2FC00230422194640F21B401C
:102E1000FDF796FB00230B22194645F27820FDF7BB
:102E200025FBFD4C0023052201212078FDF788FBBE
:102E3000FA4D00230A222888012180B2FDF780FB89
:102E4000F74800230F2201210078FDF779FB0023CA
:102E5000042202212078FDF773FB28884BB0002361
:102E6000BDE8F04F0922022180B2FDF769BBE34BB8
:102E7000ECA01A461146FDF7A8FC98F902000023C1
:102E800080B21A460121FDF75BFB98F9020000238E
:102E9000401C80B21A460221FDF752FB98F902004D
:102EA0004BB0801CBDE8F04F002380B21A460321CE
:102EB000FDF746BBD14BE1A01A461146FDF785FC54
:102EC00006F1300600230522012116F8070CFDF754
:102ED00037FB708A00230522022180B2FDF730FB08
:102EE000F86C00230522032180B2FDF729FBB08F87
:102EF00000231322194680B2FDF722FB38890023F4
:102F00001322012180B2FDF71BFBF08F0023132257
:102F1000022180B2FDF714FB388E00231322032117
:102F200080B2FDF70DFB4BB00E22BDE8F04F012142
:102F3000C848FDF77BBB4BB0C7A3BDE8F04FCCA2A0
:102F4000AE49D1A0FDF741BCD5A3DBA2AB49E0A0BF
:102F5000FDF73BFC06F144060023F08B01221946E5
:102F600080B2FDF7EDFAE0480023132219460078FD
:102F7000FDF7E6FA388900231322012180B2FDF71C
:102F8000DFFA30884BB00023BDE8F04F0D22194620
:102F900080B2FDF7D5BA994BD4A01A461146FDF779
:102FA00014FC0023208804221946FDF7C9FA608822
:102FB000002304220121FDF7C3FAA0880023042284
:102FC0000221FDF7BDFAE088002304220321FDF76A
:102FD000B7FA0023208909221946FDF7B1FA608962
:102FE000002309220121FDF7ABFAA0890023092261
:102FF0000221FDF7A5FAE089002309220321FDF74C
:103000009FFA0023208A0E221946FDF799FA608A5A
:1030100000230E220121FDF793FAA08A00230E223D
:103020000221FDF78DFAE08A00230E220321FDF72D
:1030300087FA0023208B13221946FDF781FA608B53
:10304000002313220121FDF77BFAA08B002313221A
:103050000221FDF775FAE08B4BB00023BDE8F04F7D
:1030600013220321FDF76CBA4BB0A6A3BDE8F04FC5
:10307000AAA2B0A1B5A0FDF7A8BB604BB9A01A46A3
:103080001146FDF7A2FBBD4D0023132228781946F7
:1030900034F81000FDF754FA68780023132234F84E
:1030A00010000121FDF74CFAA8780023132234F810
:1030B00010000221FDF744FAE8780023132234F8C7
:1030C00010000321FDF73CFAAD4C00230E2294F9C9
:1030D0000000194680B2FDF733FA94F9010000238D
:1030E00080B20E220121FDF72BFA94F90200002391
:1030F00080B20E220221FDF723FA94F90300002387
:1031000080B20E220321FDF71BFA241F0023207832
:103110000A221946FDF714FA607800230A220121D9
:10312000FDF70EFAA07800230A220221FDF708FA23
:10313000E0784BB00023BDE8F04F0A220321FDF7F1
:10314000FFB92E4B1A4611460846FDF73EFB8D4C43
:103150000023022220881946FDF7F2F96088002337
:1031600002220121FDF7ECF90222A088002311467A
:10317000FDF7E6F9E088002302220321FDF7E0F9DC
:103180000023207A04221946FDF7DAF9607A002339
:1031900004220121FDF7D4F9A07A002304220221A0
:1031A000FDF7CEF9E07A002304220321FDF7C8F9E8
:1031B0000023A08907221946FDF7C2F9E089002300
:1031C00007220121FDF7BCF9208A0023DCE091E20F
:1031D00046E18FE109E247E204E275E27BE282E246
:1031E000F2E004E12020202020202A2A2A2A2A2A6C
:1031F0002A2A202020202020000000002C18000077
:103200002A303030302A3030303030302A20202000
:10321000202020200000000025C0072026C0072015
:1032200008000010C1202020202020202020202065
:1032300020202020202020200000000046202020E8
:10324000202020202020202020202020202020207E
:10325000000000007856341220202020202020205A
:1032600020202020202020202020202600000000D8
:10327000202020202020202020202020202020204E
:103280002020205E00000000CAC520202020202031
:1032900020202020202020202020202000000000AE
:1032A00020202020202040202020242020202020FA
:1032B000202020200000000020202020202021208D
:1032C000202023202020202020202020000000007B
:1032D0004C422020202020202020202020202020A0
:1032E000202020200000000024C007202A202020C9
:1032F00020202020202020202020202020202020CE
:10330000000000002020202020202020202020203D
:103310005E202020202020200000000020202020EF
:103320004020202020202520202020202020202078
:103330000000000020202020212020202020242008
:1033400020202020202020200000000036202020E7
:10335000202020202020202020202020202020206D
:1033600000000000372020202020202020202020C6
:1033700020202020202020200000000020870000A6
:10338000D10000104ACA072007220221FDF7D8F811
:10339000608A002307220321FDF7D2F80023208B47
:1033A00013221946FDF7CCF8207D002313220121BA
:1033B000FDF7C6F8B88C4BB00023BDE8F04F1322E0
:1033C000032180B2FDF7BCB8DC4B1A461146AFF2C0
:1033D0000010FDF7FAF998F902004BB0401CBDE867
:1033E000F04F002380B203221946FDF7A9B8D34B52
:1033F0001A461146AFF22810FDF7E7F998F90100D7
:10340000002380B201221946FDF79AF8F88C0023B8
:103410000522194680B2FDF793F8388900230B2264
:10342000194680B2FDF78CF8C54C00230522608A4E
:103430000221FDF785F8207D002308220221FDF7F7
:103440007FF8E08A002305220321FDF779F8607DEB
:103450004BB00023BDE8F04F08220321FDF770B800
:10346000B8A00D90BDA00E90C2A00F90C7A0109064
:10347000CCA01190D1A01290D6A01390DBA01490F4
:10348000E0A01590E5A01690EAA01790EFA0189084
:10349000AA49B6F96400E03145F8201000F10101B5
:1034A000A64A45F8212000F10200114645F82010F7
:1034B00098F9010098F90410A0EB0102012A04DD3B
:1034C000A0F1010088F8040003E0884201DA88F8DE
:1034D000040098F90400411C55F8202055F82130CB
:1034E000E0A1E6A0FDF771F94BB00220BDE8F04F76
:1034F000FDF7E2B8E7A00D90307D20B1EBA00E9073
:10350000F0A00F9003E0F5A00E90FAA00F90FF48F6
:10351000109015381190129098F9010050B30128BD
:1035200028D0022826D04FF0030088F8040098F92C
:103530000400811C55F82130411C55F8212055F814
:103540002010F3A0FDF741F90120FDF7B5F898F937
:1035500002000022401C80B22121FDF732F8B6F8AB
:1035600046000122242180B2FDF72BF898F80100D3
:1035700028B121E04FF0000088F80400D7E798F860
:1035800002100120884002B20A23D021CD20FCF78E
:10359000D4FD28230022C921C820FCF7CEFD0A2330
:1035A000B6F94620BF21BE20FCF7C7FD0A23002242
:1035B000E621E120FCF7C1FDD720FCF7D8FD00286B
:1035C00010D0D8480088D9280CD14FF0030088F8D3
:1035D000010040F6B8300090D3A3D9A2DEA1E4A048
:1035E000FDF729F94BB0BDE8F08FE7A00D90ECA0F6
:1035F0000E90F1A00F90C5481090153811901290C0
:1036000098F9010098F90410421A012A04DDA0F18A
:10361000010088F8040003E0884201DA88F8040019
:1036200098F90400411C55F8202055F82130E8A1F4
:10363000ECA0FDF7CAF80220FDF73EF836F86C0F53
:103640000122212180B2FCF7BCFF708801224021B9
:1036500080B2FCF7B6FFB0884BB00022BDE8F04F57
:10366000232180B2FCF7ADBFB6F8720090B1E2A0A2
:103670000D90E7A00E903148E0300F90E0381090A8
:1036800098F9010098F90410421A012A07DD88F818
:10369000040008E0D8A00D90E3A00E90EBE788426C
:1036A00001DA88F8040098F90400411C55F820203C
:1036B00055F82130E2A1E8A0FDF787F84BB00220D1
:1036C000BDE8F04FFCF7F8BFE9A00D904FF0010006
:1036D0007076FFF7B7B9ECA00E90F1A00F904FF005
:1036E00003007076F5E7411A012903DDA0F101001E
:1036F00088F8040098F90400411C55F8202055F87A
:103700002130EDA1F2A0FDF760F80220FCF7D4FF14
:10371000B6F878000022212180B2FCF752FF98F819
:1037200001006FF00104022807D198F8020020B9C7
:10373000B07C10B122464021D6E1DAE12C1800001D
:10374000E4C5072020C1CFD1204E312020202020E9
:1037500020202020202020200000000020C1CFD1E8
:10376000204E322020202020202020202020202019
:103770000000000020C1CFD1204E33202020202087
:1037800020202020202020200000000020C1CFD1B8
:10379000204E3420202020202020202020202020E7
:1037A0000000000020C1CFD1204E35202020202055
:1037B00020202020202020200000000020C1CFD188
:1037C000204E3620202020202020202020202020B5
:1037D0000000000020C1CFD1204E37202020202023
:1037E00020202020202020200000000020C1CFD158
:1037F000204E382020202020202020202020202083
:103800000000000020C1CFD1204E392020202020F0
:1038100020202020202020200000000020C1CFD127
:10382000204E313020202020202020202020202049
:103830000000000020C1CFD1204E313120202020B7
:1038400020202020202020200000000020C1CFD1F7
:10385000204E313220202020202020202020202017
:103860000000000020C0C2D2CECDCECCCDCEC9202B
:10387000D0C0C1CED2DB202000000000D3D1D2C006
:10388000CDCEC2CAC020CDC0CFD0DFC6C5CDC8DF27
:10389000000000002055E0E2F2EEED203D20202067
:1038A00024C22020202020200000000020F3F1F27C
:1038B000E0EDEEE2E8F2E52055E0E2F2EEED202068
:1038C000000000002020EDE0E6E0F2E8E5EC209AC0
:1038D00020E8EBE8209C20200000000020F3E4E535
:1038E000F0E6E8E2E0E9F2E520A420E4EBFF2020A6
:1038F0000000000020202020E7E0EFEEECE8EDE003
:10390000EDE8FF202020202000000000A98D00000D
:1039100020202020202020C1CFD1204E2120202077
:103920002020200028C0072020202020EFF0EEE8F3
:10393000E7E2E5E4E5EDE0202020202000000000A3
:1039400020E0E2F2EEEDEEECEDEEE920F0E0E1EE6B
:10395000F2FB20200000000020202020EDE0EFF00E
:10396000FFE6E5EDE8FF20202020202000000000F9
:103970002020202020D3F1F2E0EDEEE2EAE020204A
:1039800020202020000000002055E2FBF56D61782A
:1039900020202020202020202021C2200000000004
:1039A0002055E2FBF56D696E20202020202020208C
:1039B0002040C220000000002054E7E4F0E62EE0A2
:1039C000E22E2020202020202023F12E00000000C5
:1039D00020202020CDC0CFD0DFC6C5CDC8DF20201D
:1039E00020202000CACECDD2D0CECBDC20C2DBD569
:1039F000CEC4CDCEC3CE200020C8EDE4E8EAE0F688
:103A0000E8FF20202020202020202020000000008F
:103A100020F0E0E7F0FFE6E5EDEDEEE920E1E0F291
:103A2000E0F0E5E80000000020F3F1EAEEF0E5ED5B
:103A3000EDEEE3EE20E7E0F0FFE4E0200000000020
:103A40002020D4D3CDCAD6C8CECDC0CBDCCDCED1EC
:103A5000D2DC202000000000C4CECFCECFCBCDC81A
:103A6000D2C5CBDCCDCEC520D0C5CBC50000000073
:103A700020C2FBEAEBFEF7E5EDEE2020202020201F
:103A8000202020200000000020CAC0CDC0CB202074
:103A90004D4F444255532D525455202000000000F4
:103AA00020C0C4D0C5D120C2C5C4CECCCEC3CE2088
:103AB0002020212000000000202020202020202085
:103AC000C8CFD1202020202020202020000000006E
:103AD00020C2DBD0C0C2CDC8C2C0CDC8C520D2CEA6
:103AE000CACEC22000000000AFF2CC10FCF753FD9C
:103AF00006E0B6F87A000022402180B2FCF761FDB2
:103B000098F8010002280CD198F80200012808D189
:103B1000B07C30B122462321AFF2FC10FCF73BFD14
:103B200006E0B6F87C000022232180B2FCF749FDB4
:103B300098F8010002280CD198F80200022808D158
:103B4000B07C30B122462421AFF22C20FCF723FDBB
:103B500006E0B6F87E000022242180B2FCF731FD99
:103B600098F8010002280CD198F80200032808D127
:103B7000B07C30B122462521AFF25C20FCF70BFD72
:103B800005E038880022252180B2FCF71AFD7888EC
:103B90004BB00022BDE8F04F5E2180B2FCF711BDB2
:103BA0002DE9F043FB49086A40F400100862486BB5
:103BB00020F400104863086A20F0F8600862F648B4
:103BC000C26CF64B02EA0302C264086C40F48070D7
:103BD0000864486D20F4807048654FF0000000BF15
:103BE00000BF00BF00BF00BF00BF00BF00BF00F1AB
:103BF0000100C0B2C828F2D3086C40F48070086499
:103C0000486D40F480704865486BE54F60F0F8609F
:103C10004FEA90523A65A7F1800338465C7F456DC4
:103C2000987FD97FA2F5407905F07F064FF0010C0F
:103C30004FF00008B9F1FF0901D0AA4219D083F86A
:103C40002180042C00D228B193F8224014B983F8C3
:103C500023C01D77884202D383F823C01E7783F8E0
:103C600022804FF01400D87783F81D8083F81E80DF
:103C70001FE004F10104E4B25C77042C19D383F84B
:103C80001D8000F10100C0B29877884211D31E77E1
:103C900083F81E8083F823C083F822C093F82100A4
:103CA00038B14FEA5100D877022802D84FF002000D
:103CB000D8777A65BDE8F0832DE9FF5FB84E803E86
:103CC00096F8230000287ED0DFF8D4A24FF000053C
:103CD000AAF82850AAF82A50BAF8060030703571B0
:103CE0003146B6F92E000B7F0A2817DAFD2B11D0CA
:103CF0007D2B0FD0FB2B0DD07B2B0BD0F72B09D0BE
:103D0000772B07D0EF2B05D06F2B03D0FE2B01D0E4
:103D10007E2B03D1A3480580A3480570DFF880B24D
:103D2000F92B0BF1580B9BF800C07DD00124E72B39
:103D30007BD0792B02F0D0827A2B77D05A4692F939
:103D400001E092F902200292521E0EF10100AEF142
:103D5000010152B240B249B20392BCF12E0F66D0BB
:103D6000BCF1000F72D0BCF1070F70D04FF47A771E
:103D7000BCF1090F6CD0BCF1010F6AD0BCF1050F8A
:103D800068D0DFF82882DFF82892BCF12F0F74D0BA
:103D9000BCF10E0FFBD0BCF10F0FF8D0BCF1380F07
:103DA000F5D0BCF1210FF2D0BCF1030F72D0BCF101
:103DB000110F70D040F26C78BCF1150F6CD0BCF1D3
:103DC0003A0F6AD000E0FEE3BCF13C0F71D0744AB8
:103DD000BCF1400FB2F914804FFA88F26AD0BCF1FE
:103DE0003E0F68D0BCF1420F7CD0D846BCF13D0FED
:103DF000A0D04FF0030BBCF1360F74D0BCF14E0FC6
:103E000072D0BCF14F0F01F088834FF00209BCF172
:103E1000570F01F09A85BCF1580F01F09886BCF15C
:103E20005B0F01F0E58603E015E02CE036E043E0AF
:103E3000BCF15E0F01F02287BCF15F0F02F00C8035
:103E4000BCF1610F02F06B8002F046BABFE03EE1C8
:103E50004AE196E1A2E1BCF12E0F0FD0DAF858004A
:103E6000CAF85D009AF85C008AF8610000231A46DF
:103E700005212E20FCF794FCE6E79CE10021084692
:103E8000FCF77AFCE0E7CAF84C405321002003F02D
:103E90008FFBD9E784E3FAE3FAE3FAE396F8270025
:103EA00020B186F8275086F82150CDE786F82740C4
:103EB000F9E7EFE3EFE3EFE3EF2B16D0F72B1FD09B
:103EC000BEF1010F27D0BEF1050F52D0584634493C
:103ED000FD2B01F1580191F904104FD0FB2B6AD052
:103EE000FE2BB1E7EEE3EEE3EEE38BF801008BF897
:103EF00004500C2200210BF10100FCF7A7F9A3E705
:103F00008BF801108BF804500C2200210BF10100FA
:103F1000FCF79CF998E7FD2B0BD1039958468BF8D9
:103F200002104FF01E024FF0000100F10200FCF7FA
:103F300098F9307FFB280DD19BF8020000F10100B9
:103F40008BF802004FF01E024FF000010BF102004F
:103F5000FCF787F9307FFE288ED135868BF800502C
:103F60008BF801508BF802508BF803508BF80450FB
:103F70006AE77E2B86D1FCF7C9FF65E7A1F1010155
:103F800001714FF004024FF0000100F10400FCF752
:103F900068F959E700C0092000C00240FF0FC0FFC8
:103FA0008C000010040000100000001000400240CF
:103FB000FCC90720FFE701F1010101714FF0040284
:103FC0004FF0000100F10400FCF74BF93CE7FB2B3C
:103FD0000CD0FD2B13D0EF2B1DD0F72B1ED07B2B3D
:103FE0001FD0672B20D0FE2B27D02DE78BF80100A8
:103FF000092200210BF10100FCF733F924E75846B0
:104000008BF801104FF009024FF0000100F10100A0
:10401000FCF727F918E78BF8015015E78BF80150EA
:1040200012E78BF801500FE796F82B0010B186F8D5
:104030002B5009E786F82B4006E7BEF1000F97D01A
:10404000BEF1010F12D0BEF1020F16D0BEF1030F68
:104050001AD0BEF1040F1ED0BEF1050F22D0BEF162
:10406000070F26D0BEF1080F2AD0EDE600231A462E
:1040700019460720FCF794FBE6E600231A4619468A
:104080000920FCF78DFBDFE600231A4619460320C2
:10409000FCF786FBD8E600231A4619460520FCF7F4
:1040A0007FFBD1E600231A4619460120FCF778FB76
:1040B000CAE600231A4619460A20FCF771FBC3E63C
:1040C00000231A4619460B20FCF76AFBBCE6FE2BC0
:1040D0008BD100231A4619460820FCF761FB012109
:1040E0001420FCF78DF8AFE63846FCF79AF8317FDC
:1040F000FD290CD0FB2919D09BF90100FC4A20B303
:10410000012828D002282CD0032830D09CE69BF828
:104110000100A0F101008BF801004FF003024FF005
:1041200000010BF10100FCF79CF88DE69BF8010003
:1041300000F101008BF801004FF003024FF0000185
:104140000BF10100FCF78DF87EE6907808B19570D0
:104150007AE6947078E6507808B1557074E6547039
:1041600072E6107808B115706EE614706CE6FE29E0
:1041700089D100210846FCF7FFFA0020FCF751F82E
:1041800062E6FE2B86D100231A4619460220FCF770
:1041900007FB01211420FCF733F855E6FE2B87D1ED
:1041A00000231A4619460620FCF7FAFA01211420CA
:1041B000FCF726F848E63220FCF733F8307FEF288A
:1041C0000AD0F72817D0CA49891FFD2822D0FB281A
:1041D0002ED0FE283AD037E69BF8010000F101000E
:1041E0008BF801004FF002024FF000010BF10100CB
:1041F000FCF72CF828E69BF80100A0F101008BF8F1
:1042000001004FF002024FF000010BF10100FCF73A
:104210001DF819E69BF901000A5C02F101020A543B
:1042200008444FF009024FF00001FCF70FF80BE6CD
:104230009BF901000A5CA2F101020A5408444FF004
:1042400009024FF00001FCF701F8FDE591F90100CA
:1042500000EB80004FEA400291F9000091F9021052
:1042600000EBC00303EB001002EB8000084480B2B7
:104270009BF800102F290CD00E297DD00F297CD05F
:104280004FF00A08382979D02C2978D0212977D005
:10429000DAE5974A9BF902103A3A964B12F801C0B8
:1042A000954CDFF85892DFF858A240F2D222BCF1C8
:1042B000550F66D0904272D133F91100552103F0A9
:1042C0009FFE00214FF4817003F09AFE98F82C10A5
:1042D0009BF9020034F9100003F092FE98F83810B0
:1042E0009BF9020039F9100003F08AFEB8F93C107E
:1042F0009BF902003AF9100003F082FE9BF90200DC
:10430000804931F9100045F2555103F079FE9BF9CF
:1043100002007D4931F91000002103F071FE9BF984
:1043200002007A4931F91000002103F069FE0021F2
:104330004FF4797003F02DFE00214FF47E7003F0EE
:1043400028FE00214FF47F7003F023FE002140F28D
:10435000E63003F01EFE002140F2FA3003F019FEB1
:10436000002140F2FE3003F014FE002140F2F6304E
:1043700003F00FFE002106E050E065E081E09FE0E1
:10438000E0E018E00BE04FF47D7003F002FE002146
:104390000846FCF7F1F90020FBF743FF54E5002144
:1043A0000846FCF7E9F95A4B5AA260A11846009753
:1043B000FCF741FA48E5904224D133F91100AA21D3
:1043C00003F01EFE98F82C109BF9020034F910003F
:1043D00003F016FE98F838109BF9020039F9100026
:1043E00003F00EFEB8F93C109BF902003AF91000F8
:1043F00003F006FE00210846FCF7BEF90020FBF79B
:1044000010FF21E500210846FCF7B6F9404B41A218
:1044100046A118460097FCF70EFA15E5B8280BD010
:1044200000210846FCF7A8F9394B3AA23FA11846EB
:104430000097FCF700FA07E500210846FCF79CF915
:104440003846FBF7EEFEFFE4A0F5407169390CD168
:104450000846FCF791F900231A4619461520FCF787
:104460009FF96420FBF7DDFEEEE400210846FCF72F
:1044700083F9274B27A22DA118460097FCF7DBF9FB
:10448000E2E4A0F54071B5390ED10846FCF774F9A5
:1044900000231A4601213920FCF782F986F824808E
:1044A0000020FBF7BEFECFE400210846FCF764F9CC
:1044B000174B18A21DA118460097FCF7BCF9C3E4DE
:1044C000A0F58071273906D18BF801408BF8045094
:1044D00086F82480B8E400210846FCF74DF90C4B1F
:1044E0000CA212A118460097FCF7A5F9ACE4000055
:1044F000CA0000102C8700003087000034870000BD
:10450000288700003C8700003887000024870000CF
:104510002C1800002020202020EDE5E2E5F0EDFB46
:10452000E92121212020202000000000202020203F
:10453000202020CFE0F0EEEBFC20202020202020C7
:1045400000000000A0F54071E7391BD10846FCF7D8
:1045500013F989F8005089F8015089F8025089F858
:10456000035089F8045089F8055089F8065089F8F5
:10457000075089F8095089F80A5042F21070FBF789
:1045800050FE61E400210846FCF7F6F8FA4BAFF262
:104590007C02AFF2680118460097FCF74CF953E42F
:1045A000EF2B18D0F72B1FD0FE2B29D0BEF1000F18
:1045B00031D0BEF1010F5ED0BEF1020F6DD0BEF161
:1045C000030F6BD000E0F0E3BEF1040F67D0BEF143
:1045D000050F76D038E48BF80100052200210BF19D
:1045E0000100FBF73EFE2FE458468BF801104FF018
:1045F00005024FF0000100F10100FBF732FE23E459
:1046000000231A4619460420FCF7CAF80121142099
:10461000FBF7F6FD18E498F828000090FD2B06D073
:104620007D2B04D0FB2B13D07B2B11D020E09DF8E9
:10463000000000F1010000904FF017024FF0000160
:104640006846FBF703FE9DF8000088F828000FE09D
:104650009DF80000A0F1010000904FF017024FF00C
:1046600000016846FBF7F2FD9DF8000088F828007D
:1046700086F8214006E498F824000090FD2B0FD026
:104680007D2B0DD0FB2B20D07B2B1ED02DE0ECE022
:10469000F5E113E3D3E3F2E3F2E329E058E087E046
:1046A0009DF8000000F1010000904FF03B024FF038
:1046B00000016846FBF7CAFD9DF8000088F8240059
:1046C00013E0A2E0FCE3FCE3FCE39DF80000A0F1B2
:1046D000010000904FF03B024FF000016846FBF7ED
:1046E000B5FD9DF8000088F8240086F8214006E416
:1046F00098F82C000090FD2B06D07D2B04D0FB2BCE
:1047000013D07B2B11D020E09DF8000000F10100B8
:1047100000904FF01F024FF001016846FBF796FD35
:104720009DF8000088F82C000FE09DF80000A0F133
:10473000010000904FF01F024FF001016846FBF7A7
:1047400085FD9DF8000088F82C0086F821400FE4D4
:1047500098F838000090FD2B06D07D2B04D0FB2B61
:1047600013D07B2B11D020E09DF8000000F1010058
:1047700000904FF00C024FF001016846FBF766FD18
:104780009DF8000088F838000FE09DF80000A0F1C7
:10479000010000904FF00C024FF001016846FBF75A
:1047A00055FD9DF8000088F8380086F821400DE49A
:1047B000B8F83C0040B20090FD2B06D07D2B04D011
:1047C000FB2B11D07B2B0FD01CE000F101000090DF
:1047D0004FF063024FF000016846FBF737FD9DF98B
:1047E0000000A8F83C000DE0A0F1010000904FF09F
:1047F00063024FF000016846FBF728FD9DF90000B9
:10480000A8F83C0086F8214004E498F830000090B5
:10481000FD2B06D07D2B04D0FB2B13D07B2B11D08E
:1048200020E09DF8000000F1010000904FF006022A
:104830004FF000016846FBF709FD9DF8000088F87D
:1048400030000FE09DF80000A0F1010000904FF053
:1048500006024FF000016846FBF7F8FC9DF80000E7
:1048600088F8300086F8214006E43846FBF7D9FC8A
:10487000307FFB2806D0FD281FD07B2838D0FE28AB
:104880004AD007E49BF80110584601F101018BF86A
:104890000110B6F8601001B10121B6F8642002B130
:1048A00001220A44B6F8661001B101210A44121D22
:1048B0000021401CFBF7D5FC08E49BF8011058468A
:1048C000A1F101018BF80110B6F8601001B10121CE
:1048D000B6F8642002B101220A44B6F8661001B1AC
:1048E00001210A44121D0021401CFBF7BAFC0DE413
:1048F000B6F8600000B10120B6F8641001B10121E2
:104900000144B6F8660008B14FF00100084400F118
:1049100004008BF8010008E49BF9010050B1B6F9DE
:10492000601009B101280FD0B6F9642032B3A9B1E3
:10493000012314E000231A4619462A20FBF730FF12
:104940003846FBF76EFC05E400231A46194627207B
:10495000FBF726FF3846FBF764FC05E400235B1CED
:1049600098420BD100231A4619462420FBF718FF62
:104970003846FBF756FC10E42C180000B6F96630F8
:104980008BB109B1012400E0002412B14FF0010CF9
:1049900001E04FF0000C6444641C844203D13846AB
:1049A000FBF73FFC06E409B1012400E0002412B14A
:1049B0004FF0010C01E04FF0000CA4440BB10124B6
:1049C00000E000246444641C844209D100231A4698
:1049D00019462920FBF7E4FE3846FBF722FC09E4E0
:1049E00009B1012400E0002412B14FF0010C01E0F4
:1049F0004FF0000CA4440BB1012400E000246444F7
:104A0000A41C844209D100231A4619463A20FBF718
:104A1000C7FE3846FBF705FC09E409B1012400E0B4
:104A2000002412B14FF0010C01E04FF0000CA4443F
:104A30000BB1012400E000246444E41C844209D149
:104A400000231A4619465420FBF7AAFE3846FBF706
:104A5000E8FB1DE401B1012102B101220A440BB1BE
:104A6000012100E000211144091D81429AD1002159
:104A70000846FBF781FE0020FBF7D3FB08E438462D
:104A8000FBF7CFFB307FFB2812D0FD2823D07B28FB
:104A900036D09BF901004FF4FA6978B3012864D04D
:104AA000B6F9641009B102286FD041B3012297E032
:104AB0009BF80110584601F101018BF80110B6F87E
:104AC000641009B1012200E00022121D0021401CE7
:104AD000FBF7C7FB62E49BF801105846A1F1010106
:104AE0008BF80110B6F8641009B1012200E0002231
:104AF000121D0021401CFBF7B4FB4FE40AE06EE0FE
:104B0000B6F8640008B14FF0010000F104008BF822
:104B1000010043E4442003F075F900B20190317FB5
:104B2000EF2906D06F2908D0F7290AD077290CD0B1
:104B30000EE000F1010001900AE000F10200019096
:104B400006E0A0F10100019002E0A0F10200019056
:104B50004A46322101A8FBF78FFBBDF9041044201F
:104B600003F04EFA86F8214018E4FB4F388803F032
:104B700049F900B20190317FEF2907D06F2909D0A0
:104B8000F7290BD077290DD00FE01EE000F10100CE
:104B900001900AE000F10200019006E0A0F101009E
:104BA000019002E0A0F10200019047F23052C821CA
:104BB00001A8FBF761FBB7F90000BDF9041003F091
:104BC0001FFA347686F821401BE400231A46194662
:104BD0002420FBF7E5FD3846FBF723FB11E4002218
:104BE000921C90422AD1462003F00CF900B20190A9
:104BF000317FEF2906D06F2908D0F7290AD077290D
:104C00000CD00EE000F1010001900AE000F102007A
:104C1000019006E0A0F10100019002E0A0F1020085
:104C200001904A461E2101A8FBF726FBBDF904109E
:104C3000462003F0E5F986F8214004E409B1012299
:104C400000E00022D21C90422BD1A62003F0DAF81B
:104C500000B20190317FEF2906D06F2908D0F729E3
:104C60000AD077290CD00EE000F1010001900AE093
:104C700000F10200019006E0A0F10100019002E0C5
:104C8000A0F10200019040F6B832414601A8FBF7BE
:104C9000F3FABDF90410A62003F0B2F986F821401A
:104CA0000DE401B10121091D88428DD10021084682
:104CB000FBF762FD0020FBF7B4FA0BE43846FBF784
:104CC000B0FA317FFB290BD0FD2918D09BF90100E8
:104CD00020B301284ED002287BD0032867D005E4FA
:104CE0009BF8010000F101008BF801004FF0030276
:104CF0004FF000010BF10100FBF7B3FA41E49BF820
:104D00000100A0F101008BF801004FF003024FF009
:104D100000010BF10100FBF7A4FA32E4A62003F036
:104D200071F800B20190317FEF2906D06F2908D0C9
:104D3000F7290AD077290CD00EE000F1010001908C
:104D40000AE000F10200019006E0A0F101000190EC
:104D500002E0A0F10200019040F6B832414601A8FD
:104D6000FBF78AFABDF90410A62003F049F986F88A
:104D7000214006E4A82003F045F800B20190317FFD
:104D8000EF2906D06F2908D0F7290AD077290FD04C
:104D900011E000F1010001900DE000F1020001902E
:104DA00009E0A0F10100019005E0F4E311E03CE02E
:104DB000A0F10200019040F6B832414601A8FBF78D
:104DC0005BFABDF90410A82003F01AF986F8214017
:104DD00009E4AA2003F016F800B20190317FEF2910
:104DE00006D06F2908D0F7290AD077290CD00EE019
:104DF00000F1010001900AE000F10200019006E0DC
:104E0000A0F10100019002E0A0F10200019040F643
:104E1000B832414601A8FBF72FFABDF90410AA20C9
:104E200003F0EEF886F8214024E4FE29A1D1012107
:104E30000020FBF7A1FC0020FBF7F3F91AE4384649
:104E4000FBF7EFF9307FFB2809D0FD2819D09BF93B
:104E5000010030B3012853D002287FD0AAE09BF88C
:104E6000010000F101008BF80100B6F868004FF076
:104E7000000142B20BF10100FBF7F3F99AE0AAE05E
:104E8000D0E09BF80100A0F101008BF80100B6F81A
:104E900068004FF0000142B20BF10100FBF7E1F9AD
:104EA00088E0A62002F0AEFF00B20190317FEF292A
:104EB00009D06F290BD0F7290DD077290FD011E039
:104EC000D7E002E17EE100F1010001900AE000F18B
:104ED0000200019006E0A0F10100019002E0A0F1C3
:104EE0000200019040F6B832414601A8FBF7C4F930
:104EF000BDF90410A62003F083F886F8214059E09C
:104F0000A82002F07FFF00B20190317FEF2906D088
:104F10006F2908D0F7290AD077290CD00EE000F1CC
:104F2000010001900AE000F10200019006E0A0F10A
:104F30000100019002E0A0F10200019040F6B832B9
:104F4000414601A8FBF798F9BDF90410A82003F029
:104F500057F886F821402DE044870000FFE7AA209B
:104F600002F050FF00B20190317FEF2906D06F2987
:104F700008D0F7290AD077290CD00EE000F1010003
:104F800001900AE000F10200019006E0A0F10100AA
:104F9000019002E0A0F10200019040F6B8324146D3
:104FA00001A8FBF769F9BDF90410AA2003F028F85D
:104FB00086F821409BF90100B6F96810884209D1B2
:104FC000307FFE28FBD101210020FBF7D5FB00201C
:104FD000FBF727F92FE2FB2B06D0FD2B0CD0FE2B85
:104FE00014D0F72B19D026E28BF8010000210BF129
:104FF0000100FBF736F91EE258468BF801104FF01E
:10500000000100F10100FBF72CF914E2C645E1D1E3
:1050100000210846FBF7B0FB0DE200210846FBF734
:10502000ABFB08E2FB2B06D0FD2B0CD0FE2B14D0E3
:10503000F72B19D0FFE18BF8010000210BF10100E3
:10504000FBF70FF9F7E158468BF801104FF000011C
:1050500000F10100FBF705F9EDE1C645BAD10021E9
:105060000846FBF789FBE6E100210846FBF784FBD5
:10507000E1E1FB2B06D0FD2B0CD0FE2B14D0F72B3F
:105080001ED0D8E18BF8010000210BF10100FBF7E5
:10509000E8F8D0E158468BF801104FF0000100F11C
:1050A0000100FBF7DEF8C6E1C64505D14FF000016F
:1050B0000846FBF761FBBEE18CDC8BF80450BAE1DB
:1050C00000210846FBF758FBB5E13846FBF7A9F885
:1050D000307FFB2809D0FD2820D098F90110B1B30A
:1050E00001294CD0032963D0A5E198F8010000F113
:1050F000010088F801004FF003024FF0000108F1B1
:105100000100FBF7AEF889F8054089F8065098F8D9
:105110000100022885D188F801B08CE198F80100DF
:10512000A0F1010088F801004FF003024FF00001E8
:1051300008F10100FBF795F889F8054089F8065059
:1051400098F80100022887D188F8014073E1FFE751
:10515000EF2802D0F72809D06DE199F8050010B1C9
:1051600089F8055067E189F8054064E199F8050080
:1051700010B189F805505EE189F805405BE1FE2831
:1051800004D0EF2802D0F72809D054E199F806009E
:1051900010B189F806504EE189F806404BE199F8C4
:1051A000060010B189F8065045E189F8064042E151
:1051B000FE2884D100210846FBF7DEFA0020FBF729
:1051C00030F838E13846FBF72CF8307FFB2813D055
:1051D000FD2820D098F9011061B301295BD0022984
:1051E00070D003296FD004296ED005296DD006290F
:1051F0006CD007296BD01EE198F8010000F1010086
:1052000088F801004FF007024FF0000108F101009B
:10521000FBF727F80FE198F80100A0F1010088F8EA
:1052200001004FF007024FF0000108F10100FBF709
:1052300018F800E1EF2806D06F280BD0F72810D01F
:10524000772815D01AE0B6F8480000F10100A6F85A
:10525000480013E0B6F8480000F10200A6F8480044
:105260000CE0B6F84800A0F10100A6F8480005E0FF
:10527000B6F84800A0F10200A6F8480050223221FA
:10528000FB48FAF7F9FFB6F94810D02002F0B8FE53
:1052900086F82140CFE0EF2806D06F280BD0F72802
:1052A00016D077281BD020E0B6F84C0000F10100A2
:1052B000A6F84C0019E0B6F84C0000F10200A6F880
:1052C0004C0012E01FE050E081E0B5E0E6E01AE1BA
:1052D000B6F84C00A0F10100A6F84C0005E0B6F8C5
:1052E0004C00A0F10200A6F84C00E1485122312107
:1052F000001DFAF7C1FFB6F94C10D42002F080FE71
:1053000086F8214097E0EF2806D06F280BD0F728C9
:1053100010D0772815D01AE0B6F84A0000F1010045
:10532000A6F84A0013E0B6F84A0000F10200A6F819
:105330004A000CE0B6F84A00A0F10100A6F84A00C5
:1053400005E0B6F84A00A0F10200A6F84A00C848F5
:105350001E220521801CFAF78FFFB6F94A10D220D1
:1053600002F04EFE86F8214065E0EF2806D06F2857
:105370000BD0F72810D0772815D01AE0B6F84E00D9
:1053800000F10100A6F84E0013E0B6F84E0000F15F
:105390000200A6F84E000CE0B6F84E00A0F10100A5
:1053A000A6F84E0005E0B6F84E00A0F10200A6F8FF
:1053B0004E00AF4851223121801DFAF75DFFB6F94A
:1053C0004E10D62002F01CFE86F8214033E0EF2874
:1053D00006D06F280BD0F72810D0772815D01AE008
:1053E000B6F8500000F10100A6F8500013E0B6F83E
:1053F000500000F10200A6F850000CE0B6F8500092
:10540000A0F10100A6F8500005E0B6F85000A0F1A8
:105410000200A6F85000B6F84E002C21401F02B240
:1054200093480830FAF728FFB6F95010D82002F058
:10543000E7FD86F8214016E2EF2806D06F280BD052
:10544000F72810D0772815D01AE0B6F8520000F1EE
:105450000100A6F8520013E0B6F8520000F1020075
:10546000A6F852000CE0B6F85200A0F10100A6F830
:10547000520005E0B6F85200A0F10200A6F8520072
:105480007B485B2231210A30FAF7F6FEB6F952105A
:10549000DA2002F0B5FD86F82140E4E1EF2806D0DD
:1054A0006F280BD0F72810D0772815D01AE0B6F85F
:1054B000540000F10100A6F8540013E0B6F85400BF
:1054C00000F10200A6F854000CE0B6F85400A0F178
:1054D0000100A6F8540005E0B6F85400A0F102005F
:1054E000A6F85400B6F852002C21401F02B26048C2
:1054F0000C30FAF7C1FEB6F95410DC2002F080FD42
:1055000086F82140AFE1FE2895D100210846FBF73F
:1055100033F90020FAF785FEA5E13846FAF781FE57
:10552000307FFB2819D0FD2826D098F901209AB3A6
:10553000012A63D0022A71D06FF03101032A6ED0A4
:10554000042A6DD0052A6CD0062A6BD0072A6AD0AF
:10555000082A69D0092A68D085E198F8010000F18D
:10556000010088F801004FF009024FF0000108F136
:105570000100FAF776FE76E198F80100A0F101004B
:1055800088F801004FF009024FF0000108F1010016
:10559000FAF767FE67E1F7E3FFE7EF2806D06F2829
:1055A0000BD0F72810D0772815D01AE0B6F84800AD
:1055B00000F10100A6F8480013E0B6F8480000F139
:1055C0000200A6F848000CE0B6F84800A0F101007F
:1055D000A6F8480005E0B6F84800A0F10200A6F8D9
:1055E0004800502232212248FAF746FEB6F9481008
:1055F000D02002F005FD86F8214034E1EF2806D0E6
:105600006F2813D0F72818D077281DD022E0B6F8DD
:105610004C0000F10100A6F84C001BE02AE05AE023
:105620008AE0BAE0EBE01FE150E184E1B6F84C001B
:1056300000F10200A6F84C000CE0B6F84C00A0F116
:105640000100A6F84C0005E0B6F84C00A0F10200FD
:10565000A6F84C00064851223121001DFAF70CFE35
:10566000B6F94C10D42002F0CBFC86F82140FAE0C9
:1056700054000010EF2806D06F280BD0F72810D068
:10568000772815D01AE0B6F84A0000F10100A6F814
:105690004A0013E0B6F84A0000F10200A6F84A00FA
:1056A0000CE0B6F84A00A0F10100A6F84A0005E0B7
:1056B000B6F84A00A0F10200A6F84A003222002102
:1056C000FE48FAF7D9FDB6F94A10D22002F098FC4C
:1056D00086F82140C7E0EF2806D06F280BD0F728C6
:1056E00010D0772815D01AE0B6F85C0000F1010060
:1056F000A6F85C0013E0B6F85C0000F10200A6F822
:105700005C000CE0B6F85C00A0F10100A6F85C00BB
:1057100005E0B6F85C00A0F10200A6F85C00E748DE
:1057200032221230FAF7A8FDB6F95C10F82002F028
:1057300067FC86F8214096E0EF2806D06F280BD052
:10574000F72810D0772815D01AE0B6F85E0000F1DF
:105750000100A6F85E0013E0B6F85E0000F102005A
:10576000A6F85E000CE0B6F85E00A0F10100A6F815
:105770005E0005E0B6F85E00A0F10200A6F85E004B
:10578000CE4832221430FAF777FDB6F95E10FA20CF
:1057900002F036FC86F8214065E0EF2806D06F283D
:1057A0000BD0F72810D0772815D01AE0B6F84E00A5
:1057B00000F10100A6F84E0013E0B6F84E0000F12B
:1057C0000200A6F84E000CE0B6F84E00A0F1010071
:1057D000A6F84E0005E0B6F84E00A0F10200A6F8CB
:1057E0004E00B64851223121001DFAF745FDB6F9A9
:1057F0004E10D62002F004FC86F8214033E0EF285A
:1058000006D06F280BD0F72810D0772815D01AE0D3
:10581000B6F8500000F10100A6F8500013E0B6F809
:10582000500000F10200A6F850000CE0B6F850005D
:10583000A0F10100A6F8500005E0B6F85000A0F174
:105840000200A6F85000B6F84E002C21401F02B20C
:105850009A48801DFAF710FDB6F95010D82002F0D2
:10586000CFFB86F821406FE0EF2806D06F280BD0E1
:10587000F72810D0772815D01AE0B6F8520000F1BA
:105880000100A6F8520013E0B6F8520000F1020041
:10589000A6F852000CE0B6F85200A0F10100A6F8FC
:1058A000520005E0B6F85200A0F10200A6F852003E
:1058B00082485B2231210830FAF7DEFCB6F952103B
:1058C000DA2002F09DFB86F821403DE0EF2806D06B
:1058D0006F280BD0F72810D0772815D01AE0B6F82B
:1058E000540000F10100A6F8540013E0B6F854008B
:1058F00000F10200A6F854000CE0B6F85400A0F144
:105900000100A6F8540005E0B6F85400A0F102002A
:10591000A6F85400B6F852002C21401F02B2674886
:105920000A30FAF7A9FCB6F95410DC2002F068FB43
:1059300086F8214008E0FE2806D100210846FAF743
:105940001BFF0020FAF76DFC59E03846FAF769FCB6
:10595000307FFB2811D0FD281ED098F9011051B3DB
:1059600040F6C412012936D0022975D0032970D01F
:1059700004296FD005296ED041E098F8010000F1AC
:10598000010088F80100707E4FF0000142B208F17A
:105990000100FAF766FC32E098F80100A0F101007E
:1059A00088F80100707E4FF0000142B208F101005A
:1059B000FAF757FC23E0B07D012807D0022808D071
:1059C000B475B17DE82002F01BFB18E086F8169054
:1059D000F7E7B575F5E7B17D41B1EF2810D06F2835
:1059E00015D0F7281AD077281FD024E0FE2806D13A
:1059F00000210846FAF7C0FE0020FAF712FC99E0F1
:105A0000B6F8580000F10100A6F8580013E0B6F807
:105A1000580000F10200A6F858000CE0B6F8580053
:105A2000A0F10100A6F8580005E0B6F85800A0F172
:105A30000200A6F85800214864210E30FAF71CFC39
:105A4000B6F95810EC2002F0DBFA86F8214071E03C
:105A500002E035E065E06EE0EF2806D06F280BD05D
:105A6000F72810D0772815D01AE0B6F85A0000F1C0
:105A70000100A6F85A0013E0B6F85A0000F102003F
:105A8000A6F85A000CE0B6F85A00A0F10100A6F8FA
:105A90005A0005E0B6F85A00A0F10200A6F85A0034
:105AA000064864211030FAF7E7FBB6F95A10EE20E9
:105AB00002F0A6FA86F821403CE0000056000010F3
:105AC000EF2806D06F280BD0F72810D0772815D0F4
:105AD0001AE0B6F8560000F10100A6F8560013E0EF
