:020000040000FA
:10000000280B0010E1000000E5000000E700000000
:10001000E9000000EB000000ED000000000000001F
:10002000000000000000000000000000EF000000E1
:10003000F100000000000000F3000000BD7F0000A0
:10004000F700000085020000B1020000F700000088
:10005000F7000000F7000000F7000000F7000000C4
:10006000F7000000F7000000F7000000F7000000B4
:10007000F7000000F7000000F7000000F7000000A4
:10008000F7000000F7000000F7000000F700000094
:10009000F7000000F7000000910F0000F7000000DB
:1000A000F7000000F7000000F7000000F700000074
:1000B000F7000000F7000000F7000000F700000064
:1000C000F7000000F7000000F7000000DFF80CD098
:1000D00009F0DEFE00480047FF800000280B0010FA
:1000E00005480047FEE7FEE7FEE7FEE7FEE7FEE71E
:1000F000FEE7FEE7FEE7FEE7CD00000030B500209A
:10010000354BA3F1140202F10A04115C51B1255CD4
:10011000A94207D1195C29B1491EC9B2195409B9BC
:1001200000211154115C2154401CC0B20A28ECD3A8
:1001300030BD70B50024284E143E641CE4B2355D19
:100140001DB1854201D00A2CF7D3305522480C301E
:1001500040F82410283040F824203438035570BD6E
:1001600000211D4A143A491CC9B2535C834201D094
:100170000A29F8D3535C834210D117480C3050F849
:10018000213016480360144B343353F82130436058
:1001900000205054104A50540120704700207047EE
:1001A00000210D4A143A491CC9B2535C834201D064
:1001B0000A29F8D3525C82420CD107480C3050F81F
:1001C000212006480260044A343252F8211041606E
:1001D000012070470020704790C5072028C00720E5
:1001E000114A9060117070470F4A9068002807D03C
:1001F000401E906004D11078002140B200F0B8BADF
:1002000070470949C88070470749B1F906000028BE
:1002100008D0401E00B2C880002803D10021084643
:1002200000F0A6BA7047000030C0072090F90030F7
:100230008B4200DA027090F90030934200DD0170C9
:10024000704790F900308B4200DA017090F900108D
:10025000914200DD02707047B0F900308B4200DA45
:100260000180B0F90010914200DD02807047B0F9C2
:1002700000308B4200DA0280B0F90030934200DD9A
:10028000018070474FF04021012008600C48016850
:10029000491C01600B49002008700B48016821F0DF
:1002A000FF01091D0160016841F080710160704724
:1002B00006490120086002484168491C41607047B6
:1002C0000CC1072001C0072000400340008000400F
:1002D00030B50B46014600202022012409E021FA16
:1002E00002F59D4205D303FA02F5491B04FA02F513
:1002F0002844151EA2F10102F1DC30BDFFFFFFFF13
:100300000020FB4A20211154401CC0B2C828FAD357
:10031000704701460020F64A401CC0B2135C8B4275
:1003200001D0C828F8D3704710B50021F14C0A223B
:100330000346B0FBF2F002FB10336354491CC9B210
:100340000529F5D310BDF0B5EB4D0121297005212C
:100350002026E84B00272A7842B15A1812F8014C9F
:1003600024B9814202D902F8016C05E05A1812F84A
:10037000014D303414702F70491EC9B20029EAD1E2
:10038000F0BDFEB503462B27002B02DA584203B21C
:100390002D2700200A246D4693FBF4F604FB163348
:1003A0002B5433B2401C40B20A28F5DB0123002451
:1003B0000920202643B115F800C0BCF1000F03D17D
:1003C000904201DD2E5405E02B5C30332B5400238A
:1003D000641CE4B2401E40B20028EBDA2D2F03D19A
:1003E0002046641CE4B22F546AB160B205E02B18B9
:1003F00013F8013C2B54401E40B29042F7DC2E20F3
:10040000A854641CE4B20846FFF783FF0021B84AF1
:1004100004E0461A6B5C9355491C49B2A142F8DBD3
:10042000FEBDFEB503462B27002B01DA5B422D27CC
:1004300000200A246D461E4693FBF4F304FB13666A
:100440002E54401C40B20A28F5DB01230024092069
:10045000202643B115F800C0BCF1000F03D1904233
:1004600001DD2E5405E02B5C30332B540023641C3B
:10047000E4B2401E40B20028EBDA2D2F03D1204613
:10048000641CE4B22F546AB160B205E02B1813F873
:10049000013C2B54401E40B29042F7DC2E20A85461
:1004A000641CE4B20846FFF734FF0021904A04E0E0
:1004B000461A6B5C9355491C49B2A142F8DBFEBD5C
:1004C0002DE9FE414FF02B0C002802DA40424FF09C
:1004D0002D0C00240A256F46064690FBF5F005FB1F
:1004E00010663E55641C64B20A2CF5DB012500241D
:1004F0000920202645B117F80080B8F1000F03D17C
:10050000984201DD3E5405E03D5C30353D54002508
:10051000641CE4B2401E40B20028EBDABCF12D0F9F
:1005200004D12046641CE4B207F800C06BB160B28D
:1005300005E03D1815F8015C3D54401E40B298425C
:10054000F7DC2E20F854641CE4B201EB810002EBCE
:100550008000C1B20020664A04E00D1A3B5C53558E
:10056000401C40B2A042F8DBBDE8FE8170B50D46EC
:1005700016461C46FFF7D8FE601CC0B2FFF7E3FE2C
:1005800005EB850006EB8000C1B20020594B584DA9
:10059000A04201D21A5C6A5406D31A5C202A03D006
:1005A0004CB16E1806F8012C491EC9B2401CC0B2ED
:1005B0000528EDD370BD6A54F6E730B50446084609
:1005C0001546FFF7A6FEFF2809D0494A04E0431963
:1005D000641CD154401CC0B221780029F7D130BD31
:1005E00070B50D461446FFF79FFE601CC0B2FFF7C2
:1005F000AAFE2846FFF78DFE00213E4A3C4D24B955
:10060000535C202B01D02B5414E0A14202D2535C46
:100610002B540FE008D14FF02E032B5405EB0006AE
:10062000535C06F8013C05E0535C202B02D02E18E9
:1006300006F8013C401EC0B2491CC9B20529DED3F0
:1006400070BD17B501EB810002EB8000C2B29DF8CE
:1006500000302A4803F00F01445C25498C54521E97
:10066000D2B200EB13131B788B54521ED2B29DF8FA
:10067000013003F00F04045D8C54521ED2B200EB23
:1006800013131B788B54521ED2B29DF8023003F024
:100690000F04045D8C54521ED2B200EB13131B786E
:1006A0008B54521ED3B29DF8032002F00F04045D58
:1006B000CC545B1EDBB200EB12100078C8541EBD98
:1006C00030B50F4901240A4B91F9012091F904102A
:1006D0008A4204D100EB800003F8204030BD4D1C5D
:1006E000AA420FD1401C00EB800003F8204030BD2F
:1006F00048010010ECC007200A03001043A90000C5
:10070000140100108D1CAA4205D1801C00EB800052
:1007100003F82040EBE7CD1CAA4205D1C01C00EB3A
:10072000800003F82040E2E70D1DAA4205D1001D1C
:1007300000EB800003F82040D9E74D1DAA4205D107
:10074000401D00EB800003F82040D0E78D1DAA4239
:1007500005D1801D00EB800003F82040C7E7C91DCC
:100760008A42C4D1C01D00EB800003F82040BEE7E0
:10077000704B1A88521E104400B218806E4A00EB6B
:10078000800002446D481368036012790271427858
:1007900011444170704770B5664DB5F90040661C54
:1007A0002E80654D04EB84042544644C26682E603D
:1007B00026792E71207061702271A37070BD2DE9B1
:1007C000F04180460F461646FFF79AFD5C4C002527
:1007D00018F8010B04F8010B6D1CEDB2142DF7D3C2
:1007E000002017F8011B04F8011B401CC0B214289C
:1007F000F7D3002016F8011B04F8011B401CC0B2FF
:100800001428F7D3002013F8011B04F8011B401C27
:10081000C0B21428F7D3BDE8F08110B5029CFFF7F1
:10082000CEFF4648C378827841785B20FFF7B3FF5C
:10083000642094FBF0F0BDE81040C0B2FFF7E1BCCB
:100840002DE9FE430D46400100F5806402A92046D3
:1008500009F05BF901A904F1080009F056F96946AD
:1008600004F10C0009F051F92846FFF752FD20264B
:10087000334C411CC9B226543027481CC0B26754BF
:100880004FF02108411CC9B204F800804FF0400924
:10089000481CC0B204F80190411CC9B22654481C3F
:1008A000C0B26654411CC9B227542322481CC5B2A9
:1008B00062549DF8060000222121FFF791FE9DF869
:1008C000040000222321FFF78BFE9DF80500401E47
:1008D0000C2802D301208DF805009DF80500194968
:1008E000002201EB80004021FFF767FE681CC0B2C8
:1008F0006655411CC9B22754481CC0B204F8018097
:100900003A22411CC9B22254481CC0B26754411C4F
:10091000CDB204F800909DF8000000222121FFF7DD
:100920005FFE9DF8010000224021FFF759FE665549
:10093000BDE8FE834400001083CA072014010010A4
:1009400048010010B8A8000070B5FF4C608A401C38
:1009500000B26082B0F5E16F01DB00206082B4F983
:100960001200B0F5DF6F11D90F2301226421D220CC
:10097000FFF7DFFB0F230022D821D720FFF7D9FB99
:100980000F230022D821DC20FFF7D3FBB4F912009B
:10099000A0F5E061073918D1EC4EED4CED4D3088F3
:1009A0002188884205D0B4F90010B5F9000009F09B
:1009B00021F970886188884207D0B4F90210B5F92E
:1009C0000200BDE8704009F015B970BDF0B5E24B0A
:1009D000B3F90400E149B1F9001041434FF4FA6260
:1009E00091FBF2F1DE4A1180B3F90210DD4AB2F94F
:1009F000002051434FF4FA7491FBF4F1DA4A11806C
:100A0000DA4AB2F90020424392FBF4F2D84D2A8030
:100A1000891AD84A1180D849B1F900104843D749FA
:100A20000988A1F5AA42FA3A04D14FF4C87190FBA3
:100A3000F1F001E090FBF4F0D1490880B3F90A101D
:100A400040F6B734A1F2213001260025CD4AA0425C
:100A500001D2157000E01670CB48B0F90000414398
:100A600044F6206C91FBFCF1A1F21111C74F3980C3
:100A7000B3F90C10A1F22133A34201D2157000E0AA
:100A80001670484390FBFCF0A0F211103880C0496A
:100A90000880DFF800C3BCF80010BF4EB6F90000B4
:100AA00048434FF47A6490FBF4F0BC4B80B218805A
:100AB000BB49642801D2088002E0BA480088088057
:100AC000BCF80210B6F90200484390FBF4F05880DD
:100AD000B548B0F90010B54BB3F900404C4341F2B2
:100AE000707194FBF1F6B24C2680B0F902C0B3F9F4
:100AF000026006FB0CF696FBF1F66680B0F9046026
:100B0000B3F90430734393FBF1F3A380B0F90640CB
:100B1000A84BB3F90060664396FBF1F6A64C26801D
:100B2000B0F908C0B3F9026006FB0CF696FBF1F6CB
:100B30006680B0F90A60B3F90400704390FBF1F0ED
:100B4000A08078889D4E00F2111003B23380B888DF
:100B500000F2111004B27480517831729078707282
:100B6000974A01B910B1012909D009E0181900EB21
:100B7000D0706FF4887101EB600010801BE008B149
:100B800021B105E0A4F21114148014E0012802D070
:100B9000012904D00FE0A3F2111313800BE0012808
:100BA00009D188480078052803D28748008810803A
:100BB00001E0142010808548058085480580F0BD3F
:100BC0008448416821F4402141F48021416041681A
:100BD00021F4403141F480314160416821F44041C9
:100BE00041F480414160416C21F4402141F40021F5
:100BF0004164416C21F4403141F400314164416C65
:100C000021F4404141F4004141647348016821F0FE
:100C1000E0610160016841F400110160016821F4A4
:100C200080310160016821F47F4141F480710160ED
:100C30008115C16069488903016070472DE9F04161
:100C4000414C143460882188401A00B200F040F909
:100C5000A61D3080A0886188401A00B200F038F9E3
:100C60007080A0882188401A00B200F031F9B0806D
:100C70004FF49671344D884202DAA08828810CE046
:100C8000B6F90200884202DA6088288105E0B6F9E8
:100C90000000884201DA20882881AF7800261FB33F
:100CA0002D48B5F90810203002680A4402604268F5
:100CB0000A44426082680A448260C2681144C1608A
:100CC000298A491C09B22982B1F5805F00DB2E8296
:100CD000B5F910108A052AD1891250F82120121274
:100CE000EA8040F8216022E03D48EC782A7900EB68
:100CF0008413B5F9081043F8221090070BD1002196
:100D000053F820C06144401CC0B21028F8D3081129
:100D1000114921F81400641CE0B2E870102806D3D1
:100D2000EE70521CD0B22871102800D32E716E7054
:100D30007F1C07F00100A870274A20B1106820F03E
:100D4000FF00001D4EE04FE000C0072078020010B9
:100D50002AC1072098A200003CC5072056C00720E2
:100D6000C00000108C020010C40000105CC00720FE
:100D7000C8000010080300105AC00720BE0200106F
:100D8000C2000010F3000010820200101E010010CB
:100D9000CA000010F4C0072050C007200C03001048
:100DA00012030010CE000010B6CA0720FCC00720B6
:100DB00024010010140300102A01001052CA072059
:100DC000DC00001036000010FAC00720EAC007203F
:100DD000F2C0072000C002400040034000E100E0F4
:100DE0003CC1072010603BE0E978080705D4106893
:100DF00020F0FF00401C106004E0106820F0FF00AD
:100E0000801C10602348036843F080530360036A2A
:100E100043F080430362036E43F080630366CB07B5
:100E20000AD0436943F0805343618B0709D4436B75
:100E300023F08043436308E0436923F08053436118
:100E4000F3E7436B43F080434363490704D4416FA6
:100E500021F08061416703E0416F41F080614167AB
:100E6000106840F080701060BDE8F08109480168AA
:100E700041F4807101600849097821B1416941F468
:100E8000807141617047416921F48071416170470F
:100E90007047000000C0092000C0072010B50A28D4
:100EA00003D0BDE8104008F09DBF0D2008F09AFF68
:100EB000BDE810400A2008F095BF10B50446E0B226
:100EC000FFF7ECFF204610BDFF4911200872704764
:100ED000002801DA404200B2704770B5FB4E40F680
:100EE000B8350121B6F90040F94800224FF47A7371
:100EF000AC4201DD017002E09C4200DA0270B6F9FA
:100F00000E40AC4201DD417002E09C4200DA4270CA
:100F1000B6F91040AC4201DD817002E09C4200DA7B
:100F20008270B6F90240AC4201DDC17002E09C4221
:100F300000DAC270B6F90840AC4201DD017102E08E
:100F40009C4200DA0271B6F90640AC4201DD417103
:100F500002E09C4200DA4271B6F90440AC4201DD85
:100F6000817102E09C4200DA8271B6F90C40AC4219
:100F700001DDC17102E09C4200DAC271B6F90A409B
:100F8000AC4201DD017270BD9C42FCDA027270BDA0
:100F900010B5D049086820F0E06008604868CF4A82
:100FA000C0F30B13CC4C107824F81030401CC0B2A6
:100FB0001070032803D2086840F08070086010BDEC
:100FC0007FB5C7480178E9B1A0F584720023907914
:100FD000401CC0B20D291DD0032947D004297ED062
:100FE00001297DD002297CD005297BD006297AD120
:100FF0009071052800D3937104B0BAA0BDE8704089
:1010000008F076BF04B00722BDE870401921B7A0F0
:1010100008F06EBF9071052800D39371907938B1B4
:1010200000210022AE481E380378012B08D009E0C9
:1010300004B00B22BDE870402621ACA008F058BFD8
:10104000012101224378012B03D141F00201521CFE
:10105000D2B28078012803D141F00401521CD2B2EF
:1010600004B0A5A0BDE8704008F042BF907105280B
:1010700000D393719079B8B3A34C218B4FF06400E7
:10108000B1FBF0F200FB1213217DB1FBF0F200FB8B
:10109000121282EA0302217AB1FBF0F300FB131370
:1010A00083EA0203217BB1FBF0F200FB121282EA19
:1010B00003022179B1FBF0F300FB131585EA020569
:1010C0002178B1FBF0F200FB121383EA05032278CA
:1010D0002179207B00F101008DE80F0005E013E08D
:1010E0001CE02FE038E006E006E0237A227D218B29
:1010F00086A008F0FDFE7FBD04B00222BDE870406E
:101100000B217AA008F0F4BE9071052800D39371EA
:1011100004B087A0BDE8704008F0EABE90710528D1
:1011200000D39371907928B104B084A0BDE87040D9
:1011300008F0DEBE04B00222BDE870400C216BA0B6
:1011400008F0D6BE9071052800D3937104B07DA03D
:10115000BDE8704008F0CCBE9071052800D39371B3
:10116000907928B104B07AA0BDE8704008F0C0BE04
:1011700004B00222BDE8704011215CA008F0B8BEA6
:101180002DE9F05F0746744C744D754E4FF0FF38F3
:101190004FF4197A4FF4187BDC2F7ED1022198206E
:1011A00008F028FD00219A2008F024FD0021762077
:1011B00008F020FD0121CA2008F01CFD3C21C220BE
:1011C00008F018FD40F69211782008F013FD40F267
:1011D0008541C82008F00EFD4621C62008F00AFD12
:1011E00050217E2008F006FDBB21822008F002FD80
:1011F000BB21842008F0FEFC0021862008F0FAFCC8
:101200001421882008F0F6FC50218C2008F0F2FC14
:1012100032218E2008F0EEFC0121A02008F0EAFC2B
:101220000121A22008F0E6FC0121A42008F0E2FC44
:10123000A021922008F0DEFC40F69809494694204F
:1012400008F0D8FC0321962008F0D4FC3221CC20F1
:1012500008F0D0FC2821CE2008F0CCFC5521BC2081
:1012600008F0C8FC1E21BE2008F0C4FC012180202B
:1012700008F0C0FC4621D02008F0BCFC3C21D42062
:1012800008F0B8FC1921D22008F0B4FC5021D62077
:1012900008F0B0FC4621D82000E0B8E008F0AAFC35
:1012A0005B21DA2008F0A6FC5021DC2008F0A2FC2B
:1012B000B4F90000002108F09DFCB5F90000002100
:1012C00008F098FC4EE00000004002403CC50720BA
:1012D0007ACA07200040034014C0072001C007203D
:1012E0001401001041495F5245540A004F4B2564D8
:1012F00043524325640A00004F5054522564435220
:101300004325640A00000000244002404441544147
:101310002530326425303264253032642530326421
:10132000253032642530326443524325640A00007C
:1013300054494D4553544152540A000057415445B5
:10134000520A00005741545F5245540A0000000001
:101350004149520A00000000A0A20000A8A200001B
:10136000B0A20000B6F90000414608F043FCB4F911
:101370000200002108F03EFCB5F90200002108F04F
:1013800039FCB6F90200414608F034FCB4F9040017
:10139000002108F02FFCB5F90400002108F02AFC18
:1013A000B6F90400414608F025FCB4F90600002116
:1013B00008F020FCB5F90600002108F01BFCB6F986
:1013C0000600414608F016FC0A21504608F012FCBF
:1013D0000B21584608F00EFC40F2BD11C82008F061
:1013E00009FC4946C42008F005FC1421922008F0AD
:1013F00001FC45F211614FF4AA7008F0FBFB0121DA
:10140000CA2008F0F7FBAA21BC2008F0F3FB6E2FDE
:101410007ED10221982008F0EDFB00219A2008F0EF
:10142000E9FB0021762008F0E5FB0121CA2008F045
:10143000E1FB3C21C22008F0DDFB40F24651782060
:1014400008F0D8FB40F2A321C82008F0D3FB4621C6
:10145000C62008F0CFFB50217E2008F0CBFB632193
:10146000822008F0C7FBBB21842008F0C3FB0021C9
:10147000862008F0BFFB1421882008F0BBFB502118
:101480008C2008F0B7FB32218E2008F0B3FB01213D
:10149000A02008F0AFFB0121A22008F0ABFB012146
:1014A000A42008F0A7FBA021922008F0A3FB40F2A3
:1014B000C4473946942008F09DFB0321962008F08C
:1014C00099FB3221CC2008F095FB2821CE2008F092
:1014D00091FB5521BC2008F08DFB1E21BE2008F099
:1014E00089FB0121802008F085FB4621D02008F0EF
:1014F00081FB3C21D42008F07DFB1921D22008F08B
:1015000079FB5021D62008F075FB4621D82000E059
:1015100068E008F06FFB5B21DA2008F06BFB5021DC
:10152000DC2008F067FBB4F90000002108F062FB42
:10153000B5F90000002108F05DFBB6F90000414656
:1015400008F058FBB4F90200002108F053FBB5F98C
:101550000200002108F04EFBB6F90200414608F0F7
:1015600049FBB4F90400002108F044FBB5F904007C
:10157000002108F03FFBB6F90400414608F03AFBB1
:10158000B4F90600002108F035FBB5F9060000218A
:1015900008F030FBB6F90600414608F02BFB0A21A3
:1015A000504608F027FB0B21584608F023FB4FF468
:1015B0001B71C82008F01EFB3946C42008F01AFB36
:1015C0001421922008F016FB45F211614FF4AA7025
:1015D00008F010FB0121CA2008F00CFBAA21BC2056
:1015E00008F008FBFE4DAA21B5F9000008F002FB47
:1015F000FC4C2178FC4EB6F9000008F0FBFA217B88
:10160000FA4FB7F9000008F0F5FAB4F91010DFF856
:10161000E083B8F9000008F0EDFADFF8D893002174
:10162000B9F9000008F0E6FADFF8CCA30021BAF916
:10163000000008F0DFFAB5F90200AA2108F0DAFA92
:101640002178B6F9020008F0D5FA217BB7F902003B
:1016500008F0D0FAB4F91010B8F9020008F0CAFA8C
:10166000B9F90200002108F0C5FABAF90200002118
:1016700008F0C0FA4FF416614FF48C7008F0BAFA13
:1016800014214FF48B7008F0B5FA01214FF48D70DE
:1016900008F0B0FA00214FF48E7008F0ABFA002188
:1016A0004FF4907008F0A6FA00214FF4917008F002
:1016B000A1FA28214FF48F7008F09CFA40F21E51D5
:1016C0004FF4957008F096FABDE8F05F40F24C4197
:1016D0004FF4967008F08EBA10B5C84C18202072DE
:1016E0002078401C40B204F82409182802DDFB20B1
:1016F00084F8240094F92400002811DB18280FDC5A
:101700002120FEF74DFD002809D0BD480088222881
:1017100005D1BA4894F92410E43090F9020010BDC4
:10172000411CFCD0811CFAD0C01CF8D12079401C8F
:10173000207110BDB1490020C03108704870887018
:101740002431487070472DE9F0410020AD4B002155
:101750004FF4F4721954401C00B29042FADB00229C
:101760004FF0140C7A2102FB01F002EB8201890098
:1017700009B202EB82040CEB84071CE0A24CA34EDE
:10178000645C04EB4405441C16F8158003F80080E3
:1017900006EB4500661C45781D558478751C9C55E4
:1017A000C4786E1C5C550579741C9D554579601C88
:1017B0001D55491C09B28F42E0DC521C12B2042AAA
:1017C000D0DBBDE8F0812DE9F04FFDB00521002010
:1017D0008A4F0CAA243F7B791BB18DA101200C916B
:1017E000062197F82D303BB103468FA4401CC0B2B0
:1017F00042F82340491CC9B297F82F303BB1034649
:101800008FA4401CC0B242F82340491CC9B297F8CB
:1018100032303BB1034690A4401CC0B242F8234092
:10182000491CC9B297F83030012B07D1044690A566
:10183000401CC0B242F82450491CC9B2022B07D147
:10184000034691A4401CC0B242F82340491CC9B2CF
:1018500097F83130012B07D1044691A5401CC0B246
:1018600042F82450491CC9B2022B04D192A342F879
:101870002030491CC9B2614E5C36B6F90AB0B6F9DF
:101880000C007C9058443870387A401CC0B23872D2
:101890003EAD142809D300223A72F879401CC0B238
:1018A000F871884200D3FA7104E2DFF85C91DFF846
:1018B0005881A9F13409484699F8001090F904407C
:1018C00090F90100021B431E4FFA83FCF1B34B4613
:1018D0000D2993F904A0D6460AF1020A0EF1010E71
:1018E00060D001295FD005295ED061295DD06329D0
:1018F0005CD0774B7B93A8F1BC034D29B3F9403002
:10190000A3F10109CDF8E89151D0A8F134094F298C
:101910004ED00F294DD010294BD0452949D024292C
:1019200047D03C2946D03D2945D04B465B789B1E8D
:101930005BB2092940D003293FD004293ED00629B3
:101940003CD002293AD0212939D000E0C2E0222936
:1019500036D05A2935D0A8F1BC081229B8F906901A
:1019600030D0B8F90E8013292DD016292CD0142987
:101970002BD015292AD0DFF890B02D29ABF1340BEC
:1019800025D02E2924D02C2923D0312922D00BF187
:101990000A0A47291FD049291ED02A291DD06229A9
:1019A0001CD087E1F7E07CE185E18EE1BCE100E25B
:1019B00025E2FDE3FDE3FDE3FDE3FDE3FDE3FDE300
:1019C000FDE3FDE3FDE3FDE3FDE3FDE3FDE3FDE317
:1019D000FDE3FDE3FDE3FDE3FDE3FDE3FDE30000E7
:1019E00084A200002C40024088A200008CA20000CB
:1019F00080A200007CA2000090A200003000001035
:101A000028C0072004C6072048010010B8A2000023
:101A10002020C0E2E0F0E8FF20E1E0F2E0F0E5E8BD
:101A20002020202000000000202020C0E2E0F0E87C
:101A3000FF2055E2FBF5212121202020000000009D
:101A400020CFE5F0E5E3F0F3E7EAE020EFEE20F267
:101A5000EEEAF3210000000020CFE5F0E5E3F0E539
:101A6000E220F1E8F1F2E5ECFB212020000000008B
:101A7000202020C7E0E2FBF8E5EDEE2055E2FBF583
:101A80002E21202000000000202020C7E0EDE8E605
:101A9000E5EDEE2055E2FBF52E21202000000000B0
:101AA000202020C7E0E2FBF8E5EDEE2055E2F52E20
:101AB0002120202000000000202020C7E0EDE8E6E3
:101AC000E5EDEE2055E2F52E21202020000000005B
:101AD00014CA0720CAA13E91CFA13F91D4A1409141
:101AE000D9A14191DEA14291E3A14391E8A14491A2
:101AF000EDA14591F2A14691012A02DD89F804C0C9
:101B000003E0A04201DA89F8040099F90400C11C3D
:101B1000801C55F8213055F82020DDE93E01FEF704
:101B20004EFEED4C207A4FF000024FF02501FEF7FB
:101B300057FD207900225E21FEF752FD2078002219
:101B40002621FEF74DFD207B00223C21FEF748FDBB
:101B5000A08B00227B21FEF743FD217EDF4800227F
:101B600000EB81003E21FEF728FD787D78B13A2018
:101B7000FEF7CFFB202408F800403A20FEF7C9FB0F
:101B800008F800403A20FEF7C4FB08F800400220A5
:101B9000FEF796FD8EE00A207877D1A00090D6A0BF
:101BA0000190DBA00290CD48613003905DF82A30AF
:101BB0005DF82E205DF82410DBA0FEF700FE99F9F9
:101BC000010099F90410421A022A03DD801E89F8E7
:101BD000040003E0884201DA89F804000120FEF7DE
:101BE0006FFDD74CA078012846D06FF00302212169
:101BF000D4A0FEF7E2FC6078012844D06FF0030225
:101C00002521D0A0FEF7D9FC2078012842D06FF022
:101C100003022821CBA0FEF7D0FCCC4C00224021AF
:101C2000A079FEF7DDFCE07900222321FEF7D8FC45
:101C3000207A00222421FEF7D3FCE07800225E21E6
:101C4000FEF7CEFC207900222621FEF7C9FC607940
:101C500000222A21FEF7C4FC207800222921FEF769
:101C6000BFFC607800222D21FEF7BAFCA07800228C
:101C70003D21FEF7B5FC1DE06FF002022121B4A06A
:101C8000FEF79BFCB7E76FF002022521B0A0FEF73C
:101C900094FCB9E76FF002022821ADA0FEF78DFC9D
:101CA000BBE7ADA3B2A2B8A1BDA0FEF788FD03209B
:101CB000FEF706FDCCE2A8A3BFA2B3A1B8A0FEF731
:101CC0007EFD0320FEF7FCFCC2E2C1A03E90C6A050
:101CD0003F90A1A0409055F82A3055F82E2055F895
:101CE0002410C7A0FEF76BFD0120FEF7E9FC06F10A
:101CF00058064FF0000270884FF0210100EB800081
:101D000080B2FEF76DFC30880022232180B2FEF7FE
:101D100067FC36F85809002200EB80002D3080B2B5
:101D20004021FEF75DFC93E2BBA03E90C0A03F9037
:101D3000C5A04090CAA04190CFA04290D4A04390AB
:101D4000D9A04490DEA04590E3A04690E8A047903B
:101D5000EDA04890F2A04990F7A04A90B6F9120081
:101D60007DA2411C45F82120811C2BA245F8212091
:101D7000C01C29A145F82010E41C55F82A2055F86C
:101D8000243055F82E103E98FEF719FD99F9010000
:101D900099F90410421A022A03DD801E89F8040012
:101DA00003E0884201DA89F804000120FEF788FC8C
:101DB0004EE23BB1012B15D061491E31A0421DDA24
:101DC000087113E2454BE2A26133E7A1ECA0FEF7F4
:101DD000F6FC5B4900201E31487008710320FEF7B5
:101DE0006FFC1EE23D4BECA26133DFA1E4A0FEF7E5
:101DF000E6FC534900201E310871EFE1F2E128E2D0
:101E00002030253A305E3A302620303C2F3E2020CC
:101E10002F307B20000000002020202020202020C8
:101E20002020202020202020202020200000000032
:101E300020CFEEEBEDE0FF20EFF0EEE2E5F0EAE0A0
:101E4000202020200000000020CAEEEDF2F0EEEB92
:101E5000FC20EEEFF2F0EEEDEEE2202000000000BC
:101E600020D3F1F2E0EDEEE2EAE020E2F0E5ECE58D
:101E7000EDE820200000000020C4E0F2F7E8EA20AE
:101E8000E2EEE7E4F3F5E02020202020000000004F
:101E900020C4E0F2F7E8EA20E2EEE4FB2020202074
:101EA000202020200000000020CFF0EEE1EDE0FF38
:101EB00020F1ECF120202020202020200000000034
:101EC00020C7E0E2EEE4F1EAE8E520F3F1F2E0ED2C
:101ED000EEE2EAE80000000020400240B8A800005E
:101EE00020CEEFF2F03320202020202120202020BF
:101EF000402324200000000020CEEFF2F03220200A
:101F000020202025202020205E262A2000000000FE
:101F100020CEEFF2F0312020202020282020202089
:101F2000292D3D200000000020CACECDD2D0CECB3E
:101F3000DC20CECFD2D0CECDCEC2202000000000FB
:101F4000F6000010C2DBCACB2E0000007ACA0720C0
:101F5000C2CACB2E0000000020C2FBF5EEE4202018
:101F600020202020202020202020202000000000F1
:101F700020202020C4C0D2D7C8CAC020C2CEC4DB13
:101F8000202020200000000020202020D2C5CCCF1F
:101F9000C5D0C0D2D3D0C020202020200000000017
:101FA00020CDC020CBC5C2CECC20C8CDC4C8CAC0AD
:101FB000D2CED0C5000000002020C4C0D2D7C8CAED
:101FC000C020C2CEC7C4D3D5C0202020000000004E
:101FD0002046E2E5EDF22EF2E5EAF3F92E2020208C
:101FE00020202125000000002046E2E5EDF22E6DC4
:101FF00061782E2028202040252920230000000081
:102000002020202020C2C5CDD2C8CBDFD2CED02008
:1020100020202020000000002020C0C2D2CECCC052
:10202000D2DB20CDC0C3D0D3C7CECA200000000071
:1020300020C0E2F2EEECE0F220B931202020202096
:10204000202021200000000020C0E2F2EEECE0F2AF
:1020500020B9322020202020202040200000000035
:1020600020C0E2F2EEECE0F220B933202020202064
:10207000202023200000000020C0E2F2EEECE0F27D
:1020800020B934202020202020202420000000001F
:1020900020C0E2F2EEECE0F220B935202020202032
:1020A000202025200000000020C0E2F2EEECE0F24B
:1020B00020B936202020202020205E2000000000B3
:1020C00020C0E2F2EEECE0F220B937202020202000
:1020D000202026200000000020C0E2F2EEECE0F21A
:1020E00020B938202020202020202A2000000000B5
:1020F00020C0E2F2EEECE0F220B9392020202020CE
:10210000202028200000000020C0E2F2EEECE0F2E7
:1021100020B931302020202020202920000000007C
:1021200020C0E2F2EEECE0F220B931312020202094
:1021300020202B200000000020C0E2F2EEECE0F2B4
:1021400020B931322020202020203D200000000036
:1021500020C6F3F0EDE0EB20EFF3F1F22020202099
:1021600020202020000000002020202020C1C0D2FC
:10217000C0D0C5C8204E2120202020200000000013
:10218000C2DBD0C0C2CDC8C2C0DED9C8C520C7C05E
:10219000D0DFC4DB000000002028202020202020E9
:1021A00020202020202020202020202000000000AF
:1021B000ABE0D2E005E10EE1FDE3FDE3FDE3FDE38D
:1021C000FDE3FDE3FDE3FDE3FDE3FDE3FDE3FDE30F
:1021D000FDE3FDE3FDE3FDE3FDE3FDE30220FEF7A8
:1021E0006FFA1EE0012A01DD81F804C091F90410A4
:1021F0007A98814209D19B4BAFF26402AFF2980109
:10220000AFF28400FEF7DBFA08E097A3AFF27802A2
:10221000AFF2AC01AFF29800FEF7D1FA0220FEF760
:102220004FFA974C0022212194F90200401C80B201
:10223000FEF7D6F994F904109248405C2821FEF785
:10224000FFFA94F904107B98085C5B21FEF7F8FA1A
:10225000F5E333B1012B15D0A04222DA89F804004E
:1022600023E0804BAFF21812AFF2041186A0FEF704
:10227000A6FA002089F8010089F804000320FEF77F
:102280001FFA2BE0774BAFF2F002AFF224117EA0E1
:10229000FEF795FA002089F804000220FEF710FAF4
:1022A0001CE0012A01DD89F804C099F904107A982C
:1022B000814208D16B4BAFF22012AFF2541172A0E1
:1022C000FEF77DFA07E068A3AFF23412AFF26811AF
:1022D0006DA0FEF774FA0220FEF7F2F999F90200F8
:1022E0000022401C80B22121FEF77AF999F90410EE
:1022F0006448405C2821FEF7A3FA99F904107B9802
:10230000085C5B21FEF79CFA99E3564B64A0153BF1
:102310001A461146FEF753FA594C0023243C082272
:1023200094F90000012180B2FEF720F994F9010030
:10233000002380B209220121FEF718F994F9020066
:10234000002380B20A220121FEF710F999F9012039
:1023500004F18801A420505471E3494899F902100E
:102360005A38405C552829D053A03E903D4B58A187
:10237000153B1A463E98FEF722FA414C0023243CB6
:10238000082294F90000022180B2FEF7EFF894F9D8
:102390000100002380B209220221FEF7E7F894F938
:1023A0000200002380B20A220221FEF7DFF899F929
:1023B000012004F19C01A420505440E34AA03E9027
:1023C000D4E74FA354A25AA13BA0FEF7F8F902208C
:1023D000FEF776F933E35CA13E9161A13F9166A1DE
:1023E00040916BA14191AFF2904142916EA1439116
:1023F00073A1449178A145917DA1469182A1479115
:1024000087A148918CA1499191A14A9196A14B91A4
:102410009BA14C91A0A14D91A5A14E91AAA14F9134
:10242000AFA15091B4A15191B9A15291BEA15391C4
:10243000C3A15491C8A15591CDA15691D2A1579154
:10244000D7A15891DCA15991E1A15A91E6A15B91E4
:10245000EBA15C91F0A15D91F5A15E91FAA15F9174
:10246000FFA109E219A90000205B202020202020E4
:1024700020202020202020202020202000000000DC
:102480001401001013CA0720202020202020D0C0D3
:10249000C7D0DFC4DB202020202020200000000047
:1024A0002020C2E2E5E4E8F2E52020EFE0F0EEEBE8
:1024B000FC20202000000000C4EBFF20E2E2E5E465
:1024C000E5EDE8FF20E1E0F2E0F0E5E800000000E3
:1024D0002020EDE0E1E5F0E8F2E520EFE0F0EEEBC2
:1024E000FC20202000000000C4EBFF20E2FBE2E51E
:1024F000E4E5EDE8FF20E1E0F22E2DE80000000029
:102500002047594650343837355420202020202089
:10251000202020200000000020D1E2E8EDF6EEE2CD
:10252000EE2DEAE8F1EBEEF2EDE0FF200000000016
:10253000202020E2FBE1E5E8F2E520E5E520F2E8F5
:10254000EF2020200000000020D1F2E0EDE4E0F0D8
:10255000F2EDFBE5202020202020202000000000BC
:1025600020C2F0E5ECFF20E820E4E0F2E0202020AB
:10257000202020200000000020D1F2F0F3EAF2F346
:10258000F0E020202020202020202020000000003B
:1025900020CAEBE8ECE0F2EAEEEDF2F0EEEBFC2024
:1025A000202020200000000020CCEDE5ECEEEDE83E
:1025B000EAE02020202020202020207900000000B8
:1025C00020C7E22EF1E8E3ED2E2020202820202055
:1025D000202020200000000020CEF2EAEBFEF7E5EC
:1025E000EDE8E520F1E8E3EDE0EBE020000000009D
:1025F0002020E0E2E0F0E8E8202020202920202030
:10260000202020200000000020C0CFC220E8F1F2EE
:10261000EEF7EDE8EAEEE2202020202000000000A6
:1026200020CFE0F0E0EBEB2EF0E0E1EEF2E0207AFC
:102630002020202000000000205420EFF0EEE2E5F2
:10264000F0EAE8202020F6E5EFE820200000000076
:1026500020E1E0F2E0F0E5E8202020202071ECE825
:10266000ED2E20200000000020556D61783D2020D7
:10267000202020202021C220202020200000000037
:1026800020556D696E3D202020202020205AC22038
:1026900020202020000000002055E130B03D202007
:1026A000202020202040C2202020202000000000E8
:1026B0002055E13230B03D20202020202023C220B0
:1026C00020202020000000002055F1E8E3ED3D200F
:1026D00020202020205EC22020202020000000009A
:1026E00020556D696E2EF1E5F2E83D202026C220CE
:1026F0002020202000000000205530E13D20202037
:1027000020202020203EC220202020200000000089
:102710002049E1EA2E3D202020202020206AC020F0
:1027200020202020000000002049E72EECE0F52EBC
:102730003D202020204AC020202020200000000032
:1027400020496D6178203D2020202020205D4120FF
:10275000202020200000000020496D696E203D20CF
:1027600020202020207B412020202020000000006D
:102770002055E2FBF02EE7E0F02E3D2020205BC24A
:1027800020202020000000002054E72EE2EAEB2E5B
:10279000E02EF12E2021F12020202020000000003A
:1027A0002074E82E6D61783D202020202024B04345
:1027B00020202020000000002074E82EF1E8E3ED46
:1027C0003D202020207AB04320202020000000005F
:1027D0002074E1E0F22E6D61783D20202062B0434C
:1027E00020202020000000002074E1E0F22EF1E81B
:1027F000E3ED3D202058B0432020202000000000C1
:1028000020C2EDE5F8EDE8E520E4E0F2F7E8EAE8DB
:1028100020202020000000002045746865726E654D
:1028200074202020202020202020202000000000D4
:1028300020C0E4F0E5F120F1F7E5F2F7E8EAE02066
:102840002020202B0000000020CAEEEDF2F0EEEB7D
:10285000FC20F1F02EF2EEF7EAE820200000000064
:1028600020E1E0F2E0F0E5E82020202020202020F8
:1028700020512520000000006091F6A16191AFF683
:1028800028116291F9A16391AFF674216491022A33
:1028900002DD89F8043003E0A04201DA89F804007F
:1028A00099F90400811C55F82130411C55F821206C
:1028B00055F82010F3A0FDF782FF0120FDF700FF7F
:1028C00099F90400132840DAB7F8560030B1002215
:1028D0002821AFF68410FDF770FE04E000222821C5
:1028E000EEA0FDF76AFEB7F8500028B100222921BA
:1028F000ECA0FDF762FE04E000222921EBA0FDF729
:102900005CFEF87E552868D06FF003027921E9A0BB
:10291000FDF753FE37F84A0F0122212180B2FDF75F
:102920005FFE388900225E2180B2FDF759FE78896A
:102930000022262180B2FDF753FEF88A01223E21B3
:10294000A7F14A0780B2FDF74BFE37F84C0F002283
:10295000242180B2FDF744FEB88902226A2180B2A8
:10296000FDF73EFEF88901225D2180B2FDF738FEB9
:10297000388A01227B2180B2FDF732FE788A01225B
:102980004A2180B2FDF72CFEF88A0022212180B274
:10299000FDF726FE388B0022712180B2FDF720FE64
:1029A000788800227A2180B2FDF71AFEB88B0022C7
:1029B000622180B212E043E0BFE0C6E010E10BE22A
:1029C00072E2D7E22DE39EE3CBE3CBE3CBE3CBE3B1
:1029D000CBE3CBE3CBE3CBE3CBE318E0FDF700FEA7
:1029E000F88B0022582180B2FDF7FAFD708E00228C
:1029F0002B2180B2FDF7F4FDB7F92000A7F14C07B9
:102A000088B10022512180B2FDF7EAFD12E06FF09B
:102A100007027921A9A0FDF7D0FD00227921308E8F
:102A2000FDF7DEFD76E76FF001025121AFF6EC20F5
:102A3000FDF7C3FD00227721706FFDF7F2FC18E26D
:102A4000787A401CC0B278720F2808D300217972BE
:102A5000387F401CC0B23877032800D339779A48B2
:102A60003E902A383F90387F08B998A140910128BC
:102A700001D19CA14091022801D1A0A040903EA983
:102A8000A4A00EC9FDF79BFE99F901005E2150B18B
:102A900001280BD002280CD003280DD004280ED01A
:102AA00005280FD010E088F82A100DE088F82D10C6
:102AB0000AE088F8301007E088F8331004E088F85E
:102AC000371001E088F83B10984C20784FF0000256
:102AD0004FF05E01FDF784FD207900222521FDF7EE
:102AE0007FFD207A00223C21FDF77AFD217D76488A
:102AF0000022763800EB81003E21FDF75EFD208B41
:102B0000A4F124044FF000024FF07B01FDF768FDB3
:102B1000787D28B13A20FDF7FCFB202108F8001051
:102B200094F83000684900EB4000423908444FF007
:102B3000FF322621FDF741FD9BE1634B2A3B1A46FC
:102B400011460846FDF73BFE93E179A13E917EA137
:102B50003F9183A1409188A141918DA14291AFF60F
:102B600008414391A04202DA89F8040003E0022AF6
:102B700001DD89F8043099F90400811C55F82130F1
:102B8000411C55F8212055F8201087A0FDF717FEAD
:102B90000120FDF795FDF0880022402180B2FDF76D
:102BA0001FFD70890022212180B2FDF719FD708A76
:102BB0000022242180B2FDF713FDB08900225E219E
:102BC00080B2FDF70DFDF0890022232180B2FDF7D0
:102BD00007FD308A0022242180B2FDF701FD48E183
:102BE00059A13E9176A13F91AFF694414091A04208
:102BF00002DA89F8040003E0022A01DD89F80430D2
:102C000099F90400811C55F82130411C55F8212008
:102C100055F8201064A0FDF7D2FD0120FDF750FD0E
:102C200070890022212180B2FDF7DAFCF0890022B0
:102C3000232180B2FDF7D4FCB08A0022252180B286
:102C4000FDF7CEFC308A0022242180B2FDF7C8FCBB
:102C50000FE1000020D1E5F0E8E9EDFBE9204E208E
:102C600020202020202020770000000020CAE0EB58
:102C7000E8E1F0EEE2EAE8202020202020202020D9
:102C8000000000002020202020D3D1D2C0CDCEC211
:102C9000CAC820202020202000000000C2DBCA2E4D
:102CA00000000000E0E2F2EEEC2E0000F0F3F7EDA1
:102CB0002E000000E2FBEAEB2E000000F7E5F0E555
:102CC000E72079F12E0000002EA90000202020200E
:102CD000203C3E202D20E2FBE1EEF02020202020B1
:102CE000000000002020205E76202D20F3F1F2E08D
:102CF000EDEEE2EAE020202000000000202020206D
:102D000020A420202D20E2FBF5EEE420202020202E
:102D10000000000020D3D1D2C0CDCEC2CAC0202036
:102D2000C2D0C5CCC5CDC820000000002440024060
:102D300020C1E0F2E0F0E5E9202020202020202042
:102D4000202020400000000020C8F1F2EEF7EDE85E
:102D5000EAEEE22020202020202020210000000098
:102D600020C8EDE2E5F0F2EEF0EEE2202020202097
:102D70002020205E0000000020CAEEEDF2F0EEEB15
:102D8000E8F0F3E5ECFBF520202020200000000017
:102D900020E0E2F2EEECE0F2EEE220202020202023
:102DA0002020202400000000202020202020D1D23C
:102DB000D0D3CAD2D3D0C0202020202000000000D1
:102DC00020C4E0F2F7E8EAEEE220F2E5ECEFE5F00D
:102DD0002E20202300000000E6A13E91EBA13F91B0
:102DE000F0A14091F5A14191FAA14291FF4943918F
:102DF000A04202DA89F8040003E0022A01DD89F822
:102E0000043099F90400811C55F82130411C55F813
:102E1000212055F82010F6A0FDF7D1FC0120FDF788
:102E20004FFCF948C078012824D000224021F7A0A7
:102E3000FDF7C3FBF4483730C08808B300222321D4
:102E4000F4A0FDF7BAFBF0483F30C088F0B16FF056
:102E500001025B21AFF2A410FDF7AFFBEA48473057
:102E6000C088D0B16FF001022821AFF2B810FDF791
:102E7000A4FB47E100224021E8A0FDF79EFBD9E733
:102E800000222321E5A0FDF798FBDCE76FF00102AB
:102E90005B21E4A0FDF791FBE0E76FF00102282140
:102EA000E0A0FDF78AFB2DE10FF2803C0121CDF877
:102EB000F8C0B9F1000F04D00FF2883C0221CDF820
:102EC000FCC0BBF1000F06D00FF290388C46491CB5
:102ED000C9B245F82C80DDF8F0C1BCF1000F06D076
:102EE0000FF290388C46491CC9B245F82C800FF27D
:102EF0009C3801F1010C0CF0FF0C45F82180AFF279
:102F000000780CF10101C9B245F82C800FF2943819
:102F100001F1010C0CF0FF0C45F82180AFF6C878E8
:102F20000CF10101C9B245F82C80DFF8908301F162
:102F3000010C0CF0FF0C45F82180414645F82C109F
:102F4000B1491B31022A01DD0B7102E0A04200DA17
:102F5000087191F90400811C55F82130411C55F885
:102F6000212055F82010D6A0FDF729FC0120FDF7FF
:102F7000A7FBC7E00FF2B42C0121CDF8F8C0B9F1DE
:102F8000000F04D00FF2BC2C0221CDF8FCC0BBF125
:102F9000000F06D00FF2C4298C46491CC9B245F86F
:102FA0002C900FF2343901F1010C0CF0FF0C45F8B4
:102FB0002190B8F1000F08D0AFF2BC7861460CF157
:102FC000010C0CF0FF0C45F82180DFF824830CF194
:102FD0000101C9B245F82C80DFF8E08201F1010C53
:102FE0000CF0FF0C45F82180414645F82C1086492D
:102FF0001B31022A01DD0B7102E0A04200DA0871E8
:1030000091F90400811C55F82130411C55F821200C
:1030100055F82010AAA0FDF7D2FB0120FDF750FBC8
:1030200070E0B4A13E910FF2E42C0221CDF8FCC077
:10303000BBF1000F04D00FF2242C0321CDF800C106
:103040000FF2E02801F1010C0CF0FF0C45F8218093
:10305000BAA10CF1010808F0FF0845F82C10DFF8C0
:1030600090C208F10101C9B245F828C0DFF84C82CE
:1030700001F1010C0CF0FF0C45F82180414645F8A8
:103080002C10DFF88481022A08F11B0802DD88F881
:10309000043003E0A04201DA88F8040098F9040043
:1030A000811C55F82130411C55F8212055F820107D
:1030B00083A0FDF784FB0120FDF702FB308F012286
:1030C000212180B2FDF78CFA708F0022402180B25E
:1030D000FDF786FAB08F0122232180B2FDF780FA36
:1030E000F08F00225E2180B2FDF77AFA98F9010094
:1030F00008B1032806D10A234FF47A72E521E120B2
:10310000FDF717F808E249A13E9192A14FF0020C99
:103110003F91BBF1000F03D050A14FF0030C409141
:103120000FF2B4190CF10101C9B245F82C90B8F1B5
:10313000000F06D0AFF638188C46491CC9B245F8C6
:103140002C80DFF8AC8101F1010C0CF0FF0C45F88C
:103150002180DFF868810CF10101C9B245F82C80AB
:1031600004E120E178E19FE1D7E10AE250E2A2E246
:10317000DDE3F9E320F1EEF1F2EEFFEDE8E5202DDD
:1031800020402020202020200000000020E0E2E05D
:10319000F0E8E9EDEEE5202020202020202020206E
:1031A0000000000020F1EEF1F2EEFFEDE8E5202D49
:1031B00020232020202020200000000020D0E5EB4C
:1031C000E52020202020202020202020205B2020FF
:1031D0000000000020C4E8F1EFEBE5E9202020200A
:1031E00020202020202820200000000019A9000015
:1031F000C4C0D2D7C8CA20CFC5D0C5C2CED0C0D7D0
:10320000C8C22E2000000000F9000010F0E0E7EE38
:10321000ECEA2E00EDE5E7E0ECEA2E00E7E0ECEA70
:10322000EDF3F200E2EAEB2E0000000020D1E5F21F
:10323000FC202020202020202020202020202020B2
:103240000000000020C1E0F2E0F0E5E820202020AE
:1032500020202020202020200000000020C1CFD1ED
:10326000202020202020202020202020202020205E
:103270000000000020C8EDE2E5F0F2EEF0FB2020B7
:1032800020202020202020200000000020CDE0E38E
:10329000F0F3E7EAE020202020202020202020203A
:1032A0000000000020D1E8EBEEE2FBE520E2E2EED8
:1032B000E4FB20202020202000000000181E000039
:1032C0002020202020CAC0CBC8C1D0CEC2CAC02076
:1032D000202020200000000020C2FBF5EEE4EDFBE2
:1032E000E520EFE0F0E0ECE5F2F0FB20000000006C
:1032F000581F00002055E2FBF52E20202020202022
:1033000020202021C2202020000000002049E2FBD4
:10331000F52E20202020202020202040C02020200A
:10332000000000002055E22EE42E20202020202046
:1033300020202023C2202020000000002054F1E89B
:10334000F1F2E5ECFB20203D2020205EB043202060
:103350000000000020C1E0F2E0F0E5FF2020202086
:10336000202020202020202000000000C44645F816
:1033700021C0FB49022A01DD0B7102E0A04200DA04
:10338000087191F90400811C55F82130411C55F851
:10339000212055F82010AFF2D800FDF710FA0120D7
:1033A000FDF78EF93FE3AFF27C1C0121CDF8F8C0A8
:1033B000B6F808C0BCF1000F04D0AFF2781C0221AF
:1033C000CDF8FCC0BBF1000F06D0AFF270198C46EF
:1033D000491CC9B245F82C90AFF2501901F1010C0B
:1033E0000CF0FF0C45F82190B8F1000F08D0AFF6B3
:1033F000F03861460CF1010C0CF0FF0C45F821800F
:10340000DFF860830CF10101C9B245F82C80A8F502
:10341000A07801F1010C0CF0FF0C45F82180414629
:1034200045F82C10CE49022A01DD0B7102E0A042C2
:1034300000DA087191F90400811C55F82130411C13
:1034400055F8212055F82010AFF28C10FDF7B7F990
:103450000120FDF735F9E6E2C3A13E91C1493F9154
:10346000A1F5A0714091022A02DD8BF8043003E03F
:10347000A04201DA8BF804009BF90400811C55F886
:103480002130411C55F8212055F82010BCA0FDF733
:1034900096F90120FDF714F9B6F842000022402108
:1034A00080B2FDF79DF8BEE2BBA03E90C0A03F9069
:1034B000C5A04090AB48419055F82A3055F82E20D1
:1034C00055F82410AEA0FDF77AF99BF901009BF99D
:1034D0000410421A022A03DD801E8BF8040003E068
:1034E000884201DA8BF804000120FDF7E9F836F88C
:1034F000440F0022212180B2FDF772F8708800226B
:10350000402180B2FDF76CF8B08800222321A6F19B
:10351000440680B2FDF764F885E293A13E9191499B
:103520003F91A1F5A0714091022A02DD8BF8043091
:1035300003E0A04201DA8BF804009BF90400811C2F
:1035400055F82130411C55F8212055F82010A4A031
:10355000FDF735F90120FDF7B3F8B6F93400B0F501
:103560007A7F08DD0A2190FBF1F080B20022402131
:10357000FDF736F857E20122402180B2FDF730F81E
:1035800051E29DA13E91A2A13F9176494091A1F5C2
:10359000A0714191012A02DD8BF804C003E0A04232
:1035A00001DA8BF804009BF90400411C55F8202037
:1035B00055F821309CA1A2A0FDF701F90220FDF7EA
:1035C0007FF8B6F936004FF47A74A04208DD0A217C
:1035D00090FBF1F080B200224021FDF701F804E0F9
:1035E0000122402180B2FCF7FBFFB6F93800A0426F
:1035F00008DD0A2190FBF1F080B200222321FCF7C4
:10360000EFFF10E20122232180B2FCF7E9FF0AE27A
:1036100091A13E9196A13F919BA140915149419129
:10362000A1F5A07142914391012A02DD8BF804C0FB
:1036300003E0A04201DA8BF804009BF90400411C6E
:1036400055F8202055F8213095A19BA0FDF7B7F83B
:103650000220FDF735F8424C213C207830B16FF064
:10366000020221219AA0FCF7A8FF05E0BAF90000A8
:1036700000222121FCF785FE607830B16FF0020254
:10368000402193A0FCF799FF05E0BAF9020000225F
:103690004021FCF776FEA07830B16FF002022321C2
:1036A0008BA0FCF78AFFBEE1BAF9040000222321B7
:1036B000FCF767FEB7E188A13E918DA13F9192A1F1
:1036C0004091284945F8281008F10103A1F5A0719F
:1036D00045F8231008F1020845F82810012A02DDF8
:1036E0008BF804C003E0A04201DA8BF804009BF9D8
:1036F0000400411C55F8202055F8213068A16EA027
:10370000FDF75DF80220FCF7DBFF154C213C20782B
:1037100030B16FF0020221216DA0FCF74EFF05E0F1
:10372000BAF9000000222121FCF72BFE607830B1AD
:103730006FF00202402166A0FCF73FFF05E0BAF9F6
:10374000020000224021FCF71CFEA07830B16FF08F
:10375000020223215EA0FCF730FF64E1E0E00000FC
:1037600014010010581F00002055203D202020206B
:103770002040C22020202020202020200000000007
:10378000202020CAC0CBC8C1D0CEC2CAC020D1C55B
:10379000D2C82020000000002055F4412020202025
:1037A0002020202020202021C220202000000000F6
:1037B0002055F442202020202020202020202040BE
:1037C000C2202020000000002055F44320202020AB
:1037D0002020202020202023C220202000000000C4
:1037E00020CAC0CBC8C1D0CEC2CAC020CDC0C3D0B1
:1037F000D3C7CAC8000000002055E2FBEFF02E201E
:103800003D202020202040C2202020200000000059
:103810002055F8E8EDFB20203D202020202023C269
:1038200020202020000000002020202020CFC0D019
:10383000C0CCC5D2D0CEC220202020200000000065
:10384000CAC0CBC8C1D0CEC2CAC020C2DBD5CEC48C
:10385000CDDBD520000000002074E2EDE5F82EE27B
:10386000EEE7E42E2020202021B0D120000000002F
:103870002074EEF2F1E5EA20DDCFD32020202020D5
:1038800040B0D120000000002074EEF2F1E5EA2003
:103890004D53414E2020202023B0D12000000000B5
:1038A00020C4C0D2D7C8CACEC220D2C5CCCFC5D0C2
:1038B000C0D2D3D00000000020CAC0CBC8C1D0CE37
:1038C000C2CAC020C2CDC5D8CDC8D52000000000D6
:1038D000EDE5E8F1EFF02E002074312020202020CB
:1038E000202020202020202021B0D1200000000016
:1038F0002074322020202020202020202020202062
:1039000040B0D1200000000020743320202020206F
:10391000202020202020202023B0D12000000000E3
:10392000BAF9040000222321FCF72BFD7BE0ECA177
:103930003E91F1A13F91F6490978552901D0EEA1B8
:103940003E91F44945F82910A1F5A07C09F1010147
:1039500045F821C009F10209614645F82910022AFB
:1039600003DD8BF8043004E014E0A04201DA8BF8A8
:1039700004009BF90400811C55F82130411C55F8C6
:10398000212055F82010E4A0FCF719FF0120FCF7D6
:1039900097FE48E0E6A13E91EBA13F91F0A1409156
:1039A000F5A14191FAA14291FFA14391D9494491D6
:1039B000A1F5A0714591012A02DD8BF804C003E056
:1039C000A04201DA8BF804009BF90400411C55F871
:1039D000202055F82130FAA1FFA0FCF7F0FE0220CC
:1039E000FCF76EFECA4C00226A3421212088FCF7C5
:1039F000F7FD608800224021FCF7F2FDA08800223C
:103A00002321FCF7EDFDA41D002220882621FCF7D0
:103A1000E7FD608800222A21FCF7E2FDA088002251
:103A20002821FCF7DDFDDFF8E88208F15A0898F854
:103A300000003B2828D0332869D00421652867D0AE
:103A4000692866D06A287ED06C287DD06D287CD00D
:103A50006F287BD1F08BF0B3E5A03E90308CD8B3CB
:103A6000E9A03F90EEA04090F3A041907977797F54
:103A7000A84845F8210098F9010098F904108842F7
:103A80007EDA88F80400F9E398F90100F0B3012820
:103A900077D0022876D0032875D0042874D0EC4C57
:103AA000052872D0062871D0072870D008286FD05A
:103AB0000A286ED00B286DD00C28CAD1E54BE6A0A1
:103AC0001A461146FCF77BFE06F136060023042257
:103AD0000121308D01E0D2E3D2E380B2FCF746FD54
:103AE000708D00230422022180B2FCF73FFD0023E9
:103AF0000E22012197F82E00FCF738FDDC4C002344
:103B00000F2220781946FCF731FD03E056E0AAE3C6
:103B1000B7E3B7E3607800230F220121FCF726FD0D
:103B2000A07800230F220221FCF720FDE07800237B
:103B30000F220321FCF71AFD0023207913221946D6
:103B4000FCF714FD03E09EE39EE39EE39EE36079B1
:103B5000002313220121FCF709FDA0790023132281
:103B60000221FCF703FDE079002313220321FCF777
:103B7000FDFC0023B08D0A223230194680B20AE0E3
:103B800085E355E077E0B8E1C0E1E5E14DE255E2DB
:103B9000B8E21DE32EE3FCF7E9FCB08B00230A2218
:103BA000012180B2FCF7E2FC30887DB00023BDE843
:103BB000F04F0A22022180B2FCF7D8BCA54AADA37F
:103BC0001146B2A0FCF7FBFD00230422194640F287
:103BD0001B40FCF7CBFC00230B22194645F2782052
:103BE000FCF76EFCAF4C0023052201212078FCF786
:103BF000BDFCAD4D00230A222888012180B2FCF7CC
:103C0000B5FCAA4800230F2201210078FCF7AEFC86
:103C10000023042202212078FCF7A8FC28887DB02C
:103C20000023BDE8F04F0922022180B2FCF79EBCC0
:103C3000884B9FA01A461146FCF7C1FD98F9020077
:103C4000002380B21A460121FCF790FC98F902008B
:103C50000023401C80B21A460221FCF787FC98F929
:103C600002007DB0801CBDE8F04F002380B21A46F0
:103C70000321FCF77BBC774B93A01A461146FCF757
:103C80009EFD07F12C070023052201217878FCF71F
:103C90006DFCF88C00230522022180B2FCF766FC43
:103CA000F06F00230522032180B2FCF75FFCF08A4D
:103CB00000231322194680B2FCF758FCB08E002373
:103CC0001322012180B2FCF751FC308B0023132218
:103CD000022180B2FCF74AFC002313220321FFE0FB
:103CE00020C1E0F2E0F0E5FF204E3120202020202E
:103CF000202020200000000020C1E0F2E0F0E5FFDD
:103D0000204E3220202020202020202000000000F3
:103D1000BA000010581F000020CAC0CBC8C1D0CEC6
:103D2000C2CAC020C1C0D2C0D0C5C9200000000096
:103D300020C2E2EEE420F42E412020202021C220E7
:103D4000202020200000000020C2E2EEE420F42E1B
:103D5000422020202040C2202020202000000000FF
:103D600020C2E2EEE420F42E432020202023C220B3
:103D7000202020200000000020CFDDD12020F42EC4
:103D8000412020202026C2202020202000000000EA
:103D900020CFDDD12020F42E42202020202AC22056
:103DA000202020200000000020CFDDD12020F42E94
:103DB000432020202028C2202020202000000000B6
:103DC000202020D1C8CBCEC2DBD520C2C2CEC4CEEB
:103DD000C220202000000000202020202020CAC077
:103DE000CBC8C1D0CEC2CAC0202020200000000015
:103DF00020C2EAEBFEF7E5EDEE2020202020202077
:103E0000202020200000000020CAC0CDC0CB2020F0
:103E1000204D4F444255532D544350200000000084
:103E2000204950203030402E3030232E3030242E88
:103E3000303025200000000020C0C4D0C5D120C2F1
:103E4000C5C4CECCCEC3CE2020205E200000000012
:103E50003CC50720181E0000696361202020202037
:103E600020202020202020202020202000000000D2
:103E700070CA07202020202020202A2A2A2A2A2A25
:103E80002A2A202020202020000000002A30303064
:103E9000302A3030303030302A202020202020209E
:103EA0000000000025C0072026C0072008000010E1
:103EB000C120202020202020202020202020202061
:103EC000202020200000000046202020202020204C
:103ED0002020202020202020202020200000000062
:103EE000B6F85C0080B2FCF741FB7DB00E22BDE865
:103EF000F04F0121E648FCF7A4BB7DB0E5A3BDE887
:103F0000F04FEAA2EF49F0A0FCF759BCF4A3FAA2E3
:103F1000EC49FFA0FCF753FC30890023012219462D
:103F200080B2FCF723FB002313221946FE480078D9
:103F3000FCF71CFBB08E00231322012180B2FCF79A
:103F400015FBB7F85A007DB00023BDE8F04F0D22F5
:103F5000194680B2FCF70ABBDA4BF4A01A461146A8
:103F6000FCF72DFC0023208804221946FCF7FEFAFA
:103F70006088002304220121FCF7F8FAA0880023BE
:103F800004220221FCF7F2FAE08800230422032134
:103F9000FCF7ECFA0023208909221946FCF7E6FA1F
:103FA0006089002309220121FCF7E0FAA08900239F
:103FB00009220221FCF7DAFAE08900230922032111
:103FC000FCF7D4FA0023208A0E221946FCF7CEFA19
:103FD000608A00230E220121FCF7C8FAA08A002380
:103FE0000E220221FCF7C2FAE08A00230E220321EE
:103FF000FCF7BCFA0023208B13221946FCF7B6FA13
:10400000608B002313220121FCF7B0FAA08B002360
:1040100013220221FCF7AAFAE08B7DB00023BDE851
:10402000F04F13220321FCF7A1BA7DB0C5A3BDE870
:10403000F04FCAA2CFA1D5A0FCF7C1BBA14BD9A01C
:104040001A461146FCF7BBFBDC4D002313222878EF
:10405000194634F81000FCF789FA68780023132217
:1040600034F810000121FCF781FAA878002313220C
:1040700034F810000221FCF779FAE87800231322C3
:1040800034F810000321FCF771FACD4C00230E2206
:1040900094F90000194680B2FCF768FA94F901001F
:1040A000002380B20E220121FCF760FA94F902008D
:1040B000002380B20E220221FCF758FA94F9030083
:1040C000002380B20E220321FCF750FA0B3C0023A0
:1040D00020780A221946FCF749FA607800230A2260
:1040E0000121FCF743FAA07800230A220221FCF701
:1040F0003DFAE0787DB00023BDE8F04F0A220321AD
:10410000FCF734BA6F4B1A4611460846FCF757FBCA
:10411000AC4C0023022220881946FCF727FA60885D
:10412000002302220121FCF721FA0222A0880023A9
:104130001146FCF71BFAE088002302220321FCF75A
:1041400015FA0023207A04221946FCF70FFA607A48
:10415000002304220121FCF709FAA07A002304229B
:104160000221FCF703FAE07A002304220321FCF782
:10417000FDF90023A08907221946FCF7F7F9E08929
:10418000002307220121FCF7F1F9208A00230722EE
:104190000221FCF7EBF9608A002307220321FCF7D8
:1041A000E5F90023208B13221946FCF7DFF9207D67
:1041B000002313220121FCF7D9F9B6F850007DB095
:1041C0000023BDE8F04F1322032180B2FCF7CEB9E3
:1041D0003C4B4FA01A461146FCF7F1FA98F9020041
:1041E0007DB0401CBDE8F04F002380B20322194689
:1041F000FCF7BCB9334B46A01A461146FCF7DFFA70
:1042000098F90100002380B201221946FCF7AEF9AB
:10421000B6F8520000230522194680B2FCF7A6F931
:10422000B08E00230B22194680B2FCF79FF9664C32
:1042300000230522608A0221FCF798F9207D0023E3
:1042400008220221FCF792F9E08A002305220321CB
:10425000FCF78CF9607D7DB00023BDE8F04F0822AB
:104260000321FCF783B959A03E905EA03F9057A070
:10427000409062A0419055A04290CBE0F5E3F5E379
:10428000F5E3E6E160E3B1E3F2E3F2E3F9E1F1E360
:10429000785634122020202020202020202020208A
:1042A0002020202020202026000000002020202088
:1042B0002020202020202020202020202020205EC0
:1042C00000000000181E0000CAC520202020202069
:1042D000202020202020202020202020000000005E
:1042E00020202020202040202020242020202020AA
:1042F000202020200000000020202020202021203D
:10430000202023202020202020202020000000002A
:104310004C4220202020202020202020202020204F
:10432000202020200000000024C007202A20202078
:10433000202020202020202020202020202020207D
:1043400000000000202020202020202020202020ED
:104350005E2020202020202000000000202020209F
:104360004020202020202520202020202020202028
:1043700000000000202020202120202020202420B8
:104380002020202020202020000000003620202097
:10439000202020202020202020202020202020201D
:1043A0000000000037202020202020202020202076
:1043B00020202020202020200000000074A20000E7
:1043C0000401001052CA0720ECC5072020D0E5EBFD
:1043D000E520E0E2E0F0E8E8202020202020202076
:1043E000000000002031202020202020202020203C
:1043F000202020202020202100000000203220202A
:10440000202020202020202020202020202020408C
:1044100000000000B9A04390AFF250004490BDA04E
:104420004590C2A04690C7A04790CCA04890D1A08C
:104430004990D6A04A90DBA04B90E0A04C90E5A01C
:104440004D90EAA04E90EFA04F90F4A05090F9A0AC
:104450005190B6F90A00FD4A00F1080145F8212003
:10446000491CFBA245F821200A30FFA145F8201085
:1044700098F9010098F90410421A022A03DD801EFF
:1044800088F8040003E0884201DA88F8040098F90B
:104490000400811C55F82130411C55F8212055F8A5
:1044A0002010F7A0FCF78BF90120FCF709F9FA4C72
:1044B0002078012805D1021FE44821210838FCF7A3
:1044C0007CF820786FF00405022808D02A462121C4
:1044D000F2A0FCF772F86078012808D00EE0DB4803
:1044E0006FF0030221211438FCF767F8F3E7D7488F
:1044F0006FF0020240210838FCF75FF8607802286C
:1045000008D02A464021E5A0FCF757F8A0780128FA
:1045100008D00EE0CD486FF0030240211438FCF7BC
:104520004CF8F3E7C9486FF0020223210838FCF782
:1045300044F8A078022808D02A462321D7A0FCF707
:104540003CF8E078012808D00EE0C0486FF0030284
:1045500023211438FCF731F8F3E7BC486FF002026E
:1045600024210838FCF729F8E07802281BD02A46D5
:104570002421CAA0FCF721F898F90100D8B102283B
:1045800030D0042845D006287BD1E078012857D0C8
:104590000228F9D17DB00523BDE8F04F0022682143
:1045A000D220FBF7C6BDA9486FF0030224211438BE
:1045B000FCF703F8E0E7207801280AD00228E3D1CD
:1045C0007DB00523BDE8F04F00226521D220FBF726
:1045D000B0BD7DB00523BDE8F04F01226521D2209A
:1045E000FBF7A7BD607801280AD00228CCD17DB0A6
:1045F0000523BDE8F04F00226621D220FBF799BDCC
:104600007DB00523BDE8F04F01226621D220FBF7E3
:1046100090BDA07801280AD00228B5D17DB005232D
:10462000BDE8F04F00226721D220FBF782BD7DB0AC
:104630000523BDE8F04F01226721D220FBF779BDA9
:104640007DB00523BDE8F04F01226821D220FBF7A1
:1046500070BD94A03E90787EA0B198A03F909DA0A0
:104660004090A2A0419079484290797798F9010052
:1046700098F90410421A022A0CDD801E88F8040002
:104680000CE02FE271483F90A0F5A070409001200F
:104690007877EBE7884201DA88F8040098F904009B
:1046A000811C55F82130411C55F8212055F8201067
:1046B00094A0FCF784F80120FCF702F8787E01282A
:1046C0001AD0022819D04FF0FF32212193A0FBF716
:1046D00074FF37F87C0F0022232180B2FBF780FFA4
:1046E00078880122242180B2FBF77AFF30880122EA
:1046F000252180B27DB015E118E11EE12033202094
:1047000020202020202020202020202020202023A6
:104710000000000020342020202020202020202005
:1047200020202020202020240000000020C1CFD104
:10473000204E31202020202020202020202020203A
:104740000000000020C1CFD1204E322020202020A8
:1047500020202020202020200000000020C1CFD1D8
:10476000204E332020202020202020202020202008
:104770000000000020C1CFD1204E34202020202076
:1047800020202020202020200000000020C1CFD1A8
:10479000204E3520202020202020202020202020D6
:1047A0000000000020C1CFD1204E36202020202044
:1047B00020202020202020200000000020C1CFD178
:1047C000204E3720202020202020202020202020A4
:1047D0000000000020C1CFD1204E38202020202012
:1047E00020202020202020200000000020C1CFD148
:1047F000204E392020202020202020202020202072
:104800000000000020C1CFD1204E313020202020D8
:1048100020202020202020200000000020C1CFD117
:10482000204E313120202020202020202020202038
:104830000000000020C1CFD1204E313220202020A6
:10484000202020202020202000000000581F0000F1
:1048500020CFF0EEE2E5F0EAE02057445428E2ED04
:10486000F3F2F0290000000020CFF0EEE2E5F0EADC
:10487000E02057445428E2EDE5F8ED29000000005F
:104880002020202020202020D2C5D1D2202020206E
:10489000202020200000000004CA0720D0C0C1CE84
:1048A000D72E000020C2FBE2EEE4202020202020B2
:1048B0002020202021202020000000002055EEF2A2
:1048C000EAEB2EED2EEF2EED2E2020202024C2200C
:1048D000000000002055E2EAEB2EED2EEF2EED2E2B
:1048E000202020202025C220000000002054E72E98
:1048F000ED2EEF2EED2E2020202020202023F12E43
:104900000000000020CEF2EAEBFEF7E5EDE8E5203E
:10491000CD2ECF2ECD2E202000000000C2FBEAEBD2
:104920002E000000BDE8F04FFBF75ABE6FF0070203
:104930002121FFA0FBF741FECBE66FF0070221210A
:10494000FFA0FBF73AFEC4E6AFF220203E90AFF2A4
:104950000C203F90AFF2FC104090AFF2E810419075
:10496000AFF2D8104290AFF2C4104390AFF2B4103F
:104970004490AFF2A0104590AFF290104690AFF285
:104980007C104790AFF26C104890AFF258104990ED
:10499000B6F90A00EE4945F82010A1F5A072411CB5
:1049A00045F82120801C114645F8201098F9010097
:1049B00098F90410421A012A03DD401E88F8040009
:1049C00003E0884201DA88F8040098F90400411CE9
:1049D00055F8202055F82130DEA1E4A0FBF7EFFECA
:1049E0007DB00220BDE8F04FFBF76ABEE5A03E9027
:1049F000F87D20B1E9A03F90EEA0409003E0F3A045
:104A00003F90F8A04090FD48419015384290439067
:104A100098F9010078B301282ED002282CD0032069
:104A200088F8040098F90400811C55F82130411CD5
:104A300055F8212055F82010F1A0FBF7C0FE012009
:104A4000FBF73EFE98F902000022401C80B22121B3
:104A5000FBF7C6FDB7F866000122242180B2FBF700
:104A6000BFFD98F8010058B127E0BDE0A9E0AEE035
:104A70003BE077E0B2E0FFE7002088F80400D1E7F0
:104A800098F802100120884002B20A23D021CD20DC
:104A9000FBF74FFB28230022C921C820FBF749FB65
:104AA0000A23B7F96620BF21BE20FBF742FB0A2389
:104AB0000022E621E120FBF73CFBD720FBF750FB6F
:104AC00000280FD0D3480088D9280BD1032088F8BC
:104AD000010040F6B8330093CFA3D5A2DAA1E0A03D
:104AE000FBF79BFE7DB0BDE8F08FE3A03E90E8A011
:104AF0003F90EDA04090C1484190153842904390BE
:104B000098F9010098F90410421A012A03DD401EA9
:104B100088F8040003E0884201DA88F8040098F974
:104B20000400411C55F8202055F82130E4A1E9A0EB
:104B3000FBF745FE0220FBF7C3FDF08A012221218D
:104B400080B2FBF74DFD308B0122402180B2FBF794
:104B500047FD708B7DB00022BDE8F04F232180B26D
:104B6000FBF73EBDB08B90B1DFA03E90E4A03F903C
:104B700077484090A0F5A070419098F9010098F90D
:104B80000410421A012A07DD88F8040008E0D6A0C4
:104B90003E90E1A03F90EBE7884201DA88F80400FC
:104BA00098F90400411C55F8202055F82130E0A167
:104BB000E5A0FBF704FE7DB00220BDE8F04FFBF757
:104BC0007FBDE7A03E9001207877FEF750BFEAA0B6
:104BD0003F90EFA0409003207877F6E7411A012933
:104BE00002DD401E88F8040098F90400411C55F8C5
:104BF000202055F82130ECA1F1A0FBF7E0FD0220C8
:104C0000FBF75EFD708C0022212180B2FBF7E8FCEF
:104C100098F8010002280BD198F8020040B9787D7D
:104C200030B16FF00102402179A0FBF7C6FC05E02E
:104C3000B08C0022402180B2FBF7D2FC98F8010032
:104C400002280CD198F80200012808D1787D30B1F3
:104C50006FF0010223216EA0FBF7AFFC05E0F08CA2
:104C60000022232180B2FBF7BBFC98F80100022848
:104C70000CD198F80200022808D1787D30B16FF08D
:104C80000102242162A0FBF798FC05E0308D002290
:104C9000242180B2FBF7A4FC98F8010002280CD173
:104CA00098F80200032808D1787D30B16FF0010236
:104CB000252157A0FBF781FC05E0708D00222521FE
:104CC00080B2FBF78DFCB08D7DB00022BDE8F04FC7
:104CD0005E2180B2FBF784BC2DE9F043BE49086A2F
:104CE00040F400100862486B20F400104863086A22
:104CF00020F0F8600862B948C26CB94B1A40C2642F
:104D0000086C40F480700864486D20F48070486539
:104D1000002000BF00BF00BF00BF00BF00BF00BF3A
:104D200000BF401CC0B2C828F3D3086C5AE1000091
:104D3000D0E5EBE520E2E5EDF22DF0E0000000002B
:104D4000D0E5EBE520C0C22EC1C0D2320000000089
:104D5000581F000020C0C2D2CECDCECCCDCEC920AF
:104D6000D0C0C1CED2DB202000000000D3D1D2C001
:104D7000CDCEC2CAC020CDC0CFD0DFC6C5CDC8DF22
:104D8000000000002055E0E2F2EEED203D20202062
:104D900024C22020202020200000000020F3F1F277
:104DA000E0EDEEE2E8F2E52055E0E2F2EEED202063
:104DB000000000002020EDE0E6E0F2E8E5EC209ABB
:104DC00020E8EBE8209C20200000000020F3E4E530
:104DD000F0E6E8E2E0E9F2E520A420E4EBFF2020A1
:104DE0000000000020202020E7E0EFEEECE8EDE0FE
:104DF000EDE8FF20202020200000000019A900007D
:104E000020202020202020C1CFD1204E2120202072
:104E10002020200028C0072020202020EFF0EEE8EE
:104E2000E7E2E5E4E5EDE02020202020000000009E
:104E300020E0E2F2EEEDEEECEDEEE920F0E0E1EE66
:104E4000F2FB20200000000020202020EDE0EFF009
:104E5000FFE6E5EDE8FF20202020202000000000F4
:104E60002020202020D3F1F2E0EDEEE2EAE0202045
:104E700020202020000000002055E2FBF56D617825
:104E800020202020202020202021C22000000000FF
:104E90002055E2FBF56D696E202020202020202087
:104EA0002040C220000000002054E7E4F0E62EE09D
:104EB000E22E2020202020202023F12E00000000C0
:104EC00020202020CDC0CFD0DFC6C5CDC8DF202018
:104ED00020202000CACECDD2D0CECBDC20C2DBD564
:104EE000CEC4CDCEC3CE200020C8EDE4E8EAE0F683
:104EF000E8FF20202020202020202020000000008B
:104F000020F0E0E7F0FFE6E5EDEDEEE920E1E0F28C
:104F1000E0F0E5E80000000020F3F1EAEEF0E5ED56
:104F2000EDEEE3EE20E7E0F0FFE4E020000000001B
:104F30002020D4D3CDCAD6C8CECDC0CBDCCDCED1E7
:104F4000D2DC202000000000C4CECFCECFCBCDC815
:104F5000D2C5CBDCCDCEC520D0C5CBC5000000006E
:104F600020C2FBEAEBFEF7E5EDEE2020202020201A
:104F7000202020200000000020CAC0CDC0CB20206F
:104F80004D4F444255532D525455202000000000EF
:104F900020C0C4D0C5D120C2C5C4CECCCEC3CE2083
:104FA0002020212000000000202020202020202080
:104FB000C8CFD12020202020202020200000000069
:104FC00020C2DBD0C0C2CDC8C2C0CDC8C520D2CEA1
:104FD000CACEC2200000000000C0092000C002406C
:104FE000FF0FC0FF40F480700864486D40F480708B
:104FF0004865486BF94F60F0F860820D3A60A7F1A0
:10500000DF0338461C78456858789978A2F54079CE
:1050100005F07F064FF0010C4FF00008A3F12103CB
:10502000B9F1FF0901D0AA421BD083F82580042CD6
:1050300000D230B193F826401CB983F827C083F81A
:105040002050884203D383F827C083F8206083F878
:105050002680142083F8230083F8218083F822809F
:1050600020E0641CE4B283F82140042C1AD383F8B6
:105070002180401CC0B283F82200884212D383F8FA
:10508000206083F8228083F827C083F826C093F835
:10509000250038B1480883F82300022802D80220EE
:1050A00083F823007A60BDE8F0832DE9FE4FCC4FF2
:1050B00097F8270000287ED007F180050026A5F884
:1050C0005460A5F85660288E78707E713946B7F91D
:1050D000360091F820300A2817DAFD2B11D07D2BED
:1050E0000FD0FB2B0DD07B2B0BD0F72B09D0772BC0
:1050F00007D0EF2B05D06F2B03D0FE2B01D07E2BDA
:1051000003D1B8480680B8480670DFF8D0A2F92B62
:105110000AF1080A9AF8002067D00124E72B7AD018
:10512000792B61D07A2B7CD0504690F901E090F930
:1051300002000EF101014FFA81FC0290891E401E0F
:105140004FFA81FB40B23B2A7BD0AAB30D2A71D023
:10515000012A70D0052A6FD0DFF89092DFF8908294
:105160003C2A6AD00F2A68D0102A66D0452A64D01B
:10517000242A62D0092A78D0032A77D0122A76D03E
:10518000162A75D0D146472A73D0492A72D0AAF17F
:1051900088014D2AB1F940A04FFA8AF16BD04B2A11
:1051A0006AD04F2A69D04A2A1ED04FF0050A4FF024
:1051B0000209332A01E0FEE3BEE075D0432A74D031
:1051C000DFF818825C2A08F108086FD05D2A6ED0DB
:1051D000652A6DD0662A6CD0692A6BD06C2A6AD099
:1051E0006D2A69D06F2A68D090E03B2A0ED07B48A8
:1051F0008168C0F80D10017B417400231A46052117
:105200003B20FBF7C8FA81E005E00AE000210846F0
:10521000FBF7AEFA7AE0EC675321002004F006F8C1
:1052200074E097F82B0048B187F82B6087F8256069
:105230006CE006E0ECE034E140E14CE187F82B4023
:10524000F4E7EF2B1AD0F72B23D0BEF1010F35D0A6
:10525000BEF1050F5BD0504660490831FD2B91F936
:10526000041059D0FB2B5FD050E031E3E6E3E7E3D5
:10527000E7E3E7E3E7E3E8E3E8E3E8E38AF801C02C
:105280008AF804600C2200210AF10100FAF7CEFF2F
:105290003CE08AF801B08AF804600C2200210AF18F
:1052A0000100FAF7C3FF31E0F1E3F1E3F1E3F1E3E9
:1052B000F1E3F1E3F1E3F1E3F1E3F1E3FD2B07D1F6
:1052C0008AF802001E2200210AF10200FAF7B9FF53
:1052D00097F82000FB280AD19AF80200401C8AF8AF
:1052E00002001E2200210AF10200FAF7AAFF97F835
:1052F0002000FE280AD13E878AF800608AF8016003
:105300008AF802608AF803608AF8046003E07E2B62
:1053100001D1FBF7BDFD51E0491E017104220021BE
:10532000001DFAF78EFF49E0491C0171042200219B
:10533000001DFAF786FF41E0FB2B0CD0FD2B13D0AC
:10534000EF2B1AD0F72B1BD07B2B1CD0672B1DD03B
:10535000FE2B24D032E050468AF801C004220021FE
:10536000401CFAF76EFF29E050468AF801B004228B
:105370000021401CFAF765FF20E08AF801601DE07B
:105380008AF801601AE08AF8016017E097F83300A4
:1053900010B187F8336011E087F833400EE0BEF1BA
:1053A000000F0BD0BEF1010F09D0BEF1020F0DD0DE
:1053B000BEF1030F1ED0BEF1040F22D070E0002317
:1053C0001A4619460D20FBF7E6F969E000231A4654
:1053D00019460320FBF7DFF962E000000C01001022
:1053E0000C000010040000100000001000400240FB
:1053F00004CA072000231A4619460520FBF7CBF9FB
:105400004EE000231A4619460120FBF7C4F947E095
:105410004FF47A70FAF7F5FE97F82010FD290CD0BA
:10542000FB2916D09AF90100F94AF0B1012822D0DF
:10543000022826D003282AD032E09AF80100401E24
:105440008AF80100032200210AF10100FAF7F9FEAF
:1054500026E09AF80100401C8AF80100032200218E
:105460000AF10100FAF7EDFE1AE0907808B19670A3
:1054700016E0947014E0507808B1567010E0547043
:105480000EE0107808B116700AE0147008E0FE29EA
:1054900006D100210846FBF76BF90020FAF7B1FEB0
:1054A0000BE0FE2B09D100231A4619460220FBF718
:1054B00072F901211420FAF793FE0BE0FE2B09D1BB
:1054C00000231A4619460620FBF765F9012114202E
:1054D000FAF786FE54E23220FAF793FE97F820009E
:1054E000EF280AD0F72814D0C949891FFD281CD0FD
:1054F000FB2825D0FE282ED042E29AF80100401C5D
:105500008AF80100022200210AF10100FAF78EFE5A
:1055100036E29AF80100401E8AF8010002220021BA
:105520000AF10100FAF782FE2AE29AF901000A5C08
:10553000521C0A54084409220021FAF777FE1FE2A0
:105540009AF901000A5C521E0A54084409220021FB
:10555000FAF76CFE14E291F9010000EB80004200C2
:1055600091F9000091F9021000EBC00303EB001069
:1055700002EB8000084480B29AF800103C290AD05F
:105580000F297ED010297DD045297CD039297BD0A8
:1055900024297AD0F4E19E4A9AF902103C3A9D4BB4
:1055A00012F801C09C4C9D4DDFF8748240F2D2226B
:1055B000BCF1550F6AD0904272D133F911005521D8
:1055C00004F018FB00214FF4817004F013FB99F8EC
:1055D0002C109AF9020034F9100004F00BFB99F832
:1055E00038109AF9020035F9100004F003FBB9F9FC
:1055F0003C109AF9020038F9100004F0FBFA9AF90D
:105600000200884931F9100045F2555104F0F2FAD0
:105610009AF90200844931F91000002104F0EAFAF5
:105620009AF90200814931F91000002104F0E2FAF0
:1056300000214FF4797004F0A7FA00214FF47E7036
:1056400004F0A2FA00214FF47F7004F09DFA0021CB
:1056500040F2E63004F098FA002140F2FA3004F00B
:1056600093FA002140F2FE3004F08EFA002140F25D
:10567000F63004F089FA00214FF47D7004F084FACA
:1056800006E050E068E086E0A7E0EBE016E007E027
:1056900000210846FBF76CF80020FAF7B2FD6FE135
:1056A00000210846FBF764F84FF47A730093604BCF
:1056B00060A266A11846FBF7B0F861E1904224D1E0
:1056C00033F91100AA2104F095FA99F82C109AF9EF
:1056D000020034F9100004F08DFA99F838109AF9A4
:1056E000020035F9100004F085FAB9F93C109AF976
:1056F000020038F9100004F07DFA00210846FBF79B
:1057000037F80020FAF77DFD3AE100210846FBF763
:105710002FF84FF47A730093454B46A24BA11846DD
:10572000FBF77BF82CE1B8280DD000210846FBF7E9
:105730001FF84FF47A7300933D4B3EA243A11846E5
:10574000FBF76BF81CE100210846FBF711F84FF45A
:105750007A70FAF756FD13E1A0F5407169390CD162
:105760000846FBF705F800231A4619461620FBF7F2
:1057700012F86420FAF745FD02E100210846FAF725
:10578000F7FF4FF47A730093294B2AA22FA11846F2
:10579000FBF743F8F4E0A0F54071B5390FD10846A6
:1057A000FAF7E6FF00231A4601214620FAF7F3FF35
:1057B0000A2087F828000020FAF723FDE0E0002106
:1057C0000846FAF7D5FF4FF47A730093184B19A2E5
:1057D0001EA11846FBF721F8D2E0A0F58071273909
:1057E00007D18AF801408AF804600A2087F8280067
:1057F000C6E000210846FAF7BBFF4FF47A73009326
:105800000B4B0CA211A11846FBF707F8B8E00000FB
:10581000F600001084A2000088A200008CA2000004
:1058200080A2000094A2000090A2000078A20000D4
:10583000181E00002020202020EDE5E2E5F0EDFB21
:10584000E92121212020202000000000202020200C
:10585000202020CFE0F0EEEBFC2020202020202094
:1058600000000000A0F54071E73921D10846FAF7A1
:105870007FFF00231A4619463320FAF78CFF88F879
:10588000006088F8016088F8026088F8036088F892
:10589000046088F8056088F8066088F8076088F872
:1058A000096088F80A6042F21070FAF7AAFC67E013
:1058B00000210846FAF75CFF4FF47A730093FC4B23
:1058C000AFF29002AFF27C011846FAF7A6FF57E05C
:1058D0004FF47A784046FAF794FC97F820000923B1
:1058E0002322FB284DD0FD287FD07B2865D09AF954
:1058F0000110F1B3012970D0022941D003296DD0E4
:1059000005296CD006296BD007296AD0092969D0EE
:105910000A2968D00B2967D00D297ED00E292FD0F7
:105920000F292DD010292BD0112977D0122976D00C
:10593000132975D0142974D0152973D0162972D063
:10594000172971D018291BD019296ED01A296DD0AA
:105950001B296CD01C296BD01D296AD01E2969D047
:105960001F2968D0202967D0212966D0222966D036
:1059700000E076E0242967D0042965D0252967D086
:1059800077E09AF80100401C41B28AF8011007291B
:1059900002D106208AF804005046082900D143703D
:1059A00090F901100B2901D10A2303710C2901D1AF
:1059B0000D21417002E0F1E317E04FE090F9011092
:1059C000202901D11F230371222900D142702522F1
:1059D0000021401CFAF735FC4BE04BE061E069E048
:1059E000A3E0B2E0C1E0CCE0CEE09AF80100401EB6
:1059F00041B28AF80110082902D107208AF8010073
:105A00009AF8011050460C2900D1437041782129A1
:105A100001D12021417025221BE0E3E010E13DE1AE
:105A20006EE19CE1CAE1F7E124E254E273E2A0E214
:105A3000CDE2FAE227E332E33DE365E3E5E392E317
:105A4000FCE3FCE3FCE3FCE3C7E3FBE3FBE3FBE396
:105A5000CDE30021401CFAF7F4FB0AE08AF80120AC
:105A600007E0FE2805D14046FAF7CBFB0A2087F86D
:105A700028000BE0FE2809D100231A46194603200E
:105A8000FAF789FE4046FAF7BCFB3E7711E0F9E3EE
:105A9000F9E3F9E3F9E3F9E3F9E3F9E3F9E3F9E326
:105AA000F9E3FE2805D100231A4619465C20FAF7CF
:105AB00072FE65E0EF2806D06F2808D0F7280AD0DC
:105AC00077280CD00EE0288E401C28860AE0288E0D
:105AD0000A30288606E0288E401E288602E0288E9E
