:020000040000FA
:10000000280B0010E1000000E5000000E700000000
:10001000E9000000EB000000ED000000000000001F
:10002000000000000000000000000000EF000000E1
:10003000F100000000000000F3000000CB5E0000B3
:10004000F700000085020000B1020000F700000088
:10005000F7000000F7000000F7000000F7000000C4
:10006000F7000000F7000000F7000000F7000000B4
:10007000F7000000F7000000F7000000F7000000A4
:10008000F7000000F7000000F7000000F700000094
:10009000F7000000F7000000FD0E0000F700000070
:1000A000F7000000F7000000F7000000F700000074
:1000B000F7000000F7000000F7000000F700000064
:1000C000F7000000F7000000F7000000DFF80CD098
:1000D00007F046FE00480047E75F0000280B0010CD
:1000E00005480047FEE7FEE7FEE7FEE7FEE7FEE71E
:1000F000FEE7FEE7FEE7FEE7CD00000030B500209A
:10010000354BA3F1140202F10A04115C51B1255CD4
:10011000A94207D1195C29B1491EC9B2195409B9BC
:1001200000211154115C2154401CC0B20A28ECD3A8
:1001300030BD70B50024284E143E641CE4B2355D19
:100140001DB1854201D00A2CF7D3305522480C301E
:1001500040F82410283040F824203438035570BD6E
:1001600000211D4A143A491CC9B2535C834201D094
:100170000A29F8D3535C834210D117480C3050F849
:10018000213016480360144B343353F82130436058
:1001900000205054104A50540120704700207047EE
:1001A00000210D4A143A491CC9B2535C834201D064
:1001B0000A29F8D3525C82420CD107480C3050F81F
:1001C000212006480260044A343252F8211041606E
:1001D000012070470020704788C5072028C00720ED
:1001E000114A9060117070470F4A9068002807D03C
:1001F000401E906004D11078002140B200F05FBA38
:1002000070470949C88070470749B1F906000028BE
:1002100008D0401E00B2C880002803D10021084643
:1002200000F04DBA7047000030C0072090F9003050
:100230008B4200DA027090F90030934200DD0170C9
:10024000704790F900308B4200DA017090F900108D
:10025000914200DD02707047B0F900308B4200DA45
:100260000180B0F90010914200DD02807047B0F9C2
:1002700000308B4200DA0280B0F90030934200DD9A
:10028000018070474FF04021012008600C48016850
:10029000491C01600B49002008700B48016821F0DF
:1002A000FF01091D0160016841F080710160704724
:1002B00006490120086002484168491C41607047B6
:1002C0001403001001C007200040034000800040DC
:1002D00030B50B46014600202022012409E021FA16
:1002E00002F59D4205D303FA02F5491B04FA02F513
:1002F0002844151EA2F10102F1DC30BDFFFFFFFF13
:100300000020F84A20211154401CC0B2C828FAD35A
:10031000704701460020F34A401CC0B2135C8B4278
:1003200001D0C828F8D3704710B50021EE4C0A223E
:100330000346B0FBF2F002FB10336354491CC9B210
:100340000529F5D310BDF0B5E84D0121297005212F
:100350002026E54B00272A7842B15A1812F8014CA2
:1003600024B9814202D902F8016C05E05A1812F84A
:10037000014D303414702F70491EC9B20029EAD1E2
:10038000F0BDFEB503462B27002B02DA584203B21C
:100390002D2700200A246D4693FBF4F604FB163348
:1003A0002B5433B2401C40B20A28F5DB0123002451
:1003B0000920202643B115F800C0BCF1000F03D17D
:1003C000904201DD2E5405E02B5C30332B5400238A
:1003D000641CE4B2401E40B20028EBDA2D2F03D19A
:1003E0002046641CE4B22F546AB160B205E02B18B9
:1003F00013F8013C2B54401E40B29042F7DC2E20F3
:10040000A854641CE4B20846FFF783FF0021B54AF4
:1004100004E0461A6B5C9355491C49B2A142F8DBD3
:10042000FEBD2DE9FE414FF02B0C002802DA4042C0
:100430004FF02D0C00240A256F46064690FBF5F080
:1004400005FB10663E55641C64B20A2CF5DB0125E1
:1004500000240920202645B117F80080B8F1000FCC
:1004600003D1984201DD3E5405E03D5C30353D54FA
:100470000025641CE4B2401E40B20028EBDABCF157
:100480002D0F04D12046641CE4B207F800C06BB104
:1004900060B205E03D1815F8015C3D54401E40B2C5
:1004A0009842F7DC2E20F854641CE4B201EB810082
:1004B00002EB8000C1B200208A4A04E00D1A3B5CC6
:1004C0005355401C40B2A042F8DBBDE8FE8170B538
:1004D0000D4616461C46FFF727FF601CC0B2FFF70B
:1004E00032FF05EB850006EB8000C1B200207E4B99
:1004F0007C4DA04201D21A5C6A5406D31A5C202AB1
:1005000003D04CB16E1806F8012C491EC9B2401C2C
:10051000C0B20528EDD370BD6A54F6E730B5044685
:1005200008461546FFF7F5FEFF2809D06D4A04E09E
:100530004319641CD154401CC0B221780029F7D162
:1005400030BD70B50D461446FFF7EEFE601CC0B21C
:10055000FFF7F9FE2846FFF7DCFE0021624A614DF5
:1005600024B9535C202B01D02B5414E0A14202D2B9
:10057000535C2B540FE008D14FF02E032B5405EBA6
:100580000006535C06F8013C05E0535C202B02D0CA
:100590002E1806F8013C401EC0B2491CC9B20529FC
:1005A000DED370BD17B501EB810002EB8000C2B253
:1005B0009DF800304E4803F00F01445C49498C54CB
:1005C000521ED2B200EB13131B788B54521ED2B2C0
:1005D0009DF8013003F00F04045D8C54521ED2B21A
:1005E00000EB13131B788B54521ED2B29DF80230CD
:1005F00003F00F04045D8C54521ED2B200EB1313AF
:100600001B788B54521ED3B29DF8032002F00F04C6
:10061000045DCC545B1EDBB200EB12100078C854B2
:100620001EBD30B5334901242E4B91F9012091F9BB
:1006300004108A4204D100EB800003F8204030BD52
:100640004D1CAA4205D1401C00EB800003F820405D
:1006500030BD8D1CAA4205D1801C00EB800003F840
:10066000204030BDCD1CAA4205D1C01C00EB80004B
:1006700003F8204030BD0D1DAA4205D1001D00EB3E
:10068000800003F8204030BD4D1DAA4205D1401D19
:1006900000EB800003F8204030BD8D1DAA4205D13B
:1006A000801D00EB800003F8204030BDC91D8A4248
:1006B000FBD1C01D00EB800003F8204030BD0E4B85
:1006C0001A88521E104400B218800C4A00EB8000B9
:1006D0000244084813680360127902714278114499
:1006E0004170704700010010FCC0072001C10720C5
:1006F000F7870000E40000103C0000107BCA0720D0
:1007000070B5674DB5F90040661C2E80654D04EB51
:1007100084042544644C26682E6026792E7120704E
:1007200061702271A37070BD2DE9F04180460F46C3
:100730001646FFF7E5FD5D4C002518F8010B04F89F
:10074000010B6D1CEDB2142DF7D3002017F8011B1F
:1007500004F8011B401CC0B21428F7D3002016F87F
:10076000011B04F8011B401CC0B21428F7D3002061
:1007700013F8011B04F8011B401CC0B21428F7D366
:10078000BDE8F08110B5029CFFF7CEFF4648C37864
:10079000827841784D20FFF7B3FF642094FBF0F09E
:1007A000BDE81040C0B2FFF72CBD2DE9FE430D4659
:1007B000400100F5806402A9204607F00EF901A966
:1007C00004F1080007F009F9694604F10C0007F08C
:1007D00004F92846FFF79DFD2026344C411CC9B280
:1007E00026543027481CC0B267544FF02108411CE2
:1007F000C9B204F800804FF04009481CC0B204F8A8
:100800000190411CC9B22654481CC0B26654411C18
:10081000C9B227542322481CC5B262549DF8060071
:1008200000222121FFF78DFE9DF8040000222321E4
:10083000FFF787FE9DF80500401E0C2802D301201B
:100840008DF805009DF805001949002201EB800094
:100850004021FFF763FE681CC0B26655411CC9B257
:100860002754481CC0B204F801803A22411CC9B286
:100870002254481CC0B26754411CCDB204F8009009
:100880009DF8000000222121FFF75BFE9DF801008A
:1008900000224021FFF755FE6655BDE8FE830000AB
:1008A0003C0000107BCA0720E4000010000100108B
:1008B0006C87000070B5FF4C608A401C00B26082FB
:1008C000B0F5E16F01DB00206082B4F91200B0F5F1
:1008D000DF6F11D90F2301226421D220FFF729FCF9
:1008E0000F230022D821D720FFF723FC0F2300225B
:1008F000D821DC20FFF71DFCB4F91200A0F5E0615F
:10090000073918D1EC4EED4CED4D308821888842E6
:1009100005D0B4F90010B5F9000007F0D3F87088DD
:100920006188884207D0B4F90210B5F90200BDE829
:10093000704007F0C7B870BDF0B5E24BB3F90400E2
:10094000E149B1F9001041434FF4FA6291FBF2F131
:10095000DE4A1180B3F90210DD4AB2F9002051439A
:100960004FF4FA7491FBF4F1DA4A1180DA4AB2F9E1
:100970000020424392FBF4F2D84D2A80891AD84ACB
:100980001180D849B1F900104843D7490988A1F529
:10099000AA42FA3A04D14FF4C87190FBF1F001E099
:1009A00090FBF4F0D1490880B3F90A1040F6B7344F
:1009B000A1F2213001260025CD4AA04201D21570B6
:1009C00000E01670CB48B0F90000414344F6206CBB
:1009D00091FBFCF1A1F21111C74F3980B3F90C1052
:1009E000A1F22133A34201D2157000E016704843F2
:1009F00090FBFCF0A0F211103880C0490880DFF8AD
:100A000000C3BCF80010BF4EB6F9000048434FF4D5
:100A10007A6490FBF4F0BC4B80B21880BB49642828
:100A200001D2088002E0BA4800880880BCF80210B1
:100A3000B6F90200484390FBF4F05880B548B0F98D
:100A40000010B54BB3F900404C4341F2707194FB78
:100A5000F1F6B24C2680B0F902C0B3F9026006FB91
:100A60000CF696FBF1F66680B0F90460B3F9043039
:100A7000734393FBF1F3A380B0F90640A84BB3F99D
:100A80000060664396FBF1F6A64C2680B0F908C0DC
:100A9000B3F9026006FB0CF696FBF1F66680B0F93E
:100AA0000A60B3F90400704390FBF1F0A0807888ED
:100AB0009D4E00F2111003B23380B88800F211107D
:100AC00004B274805178317290787072974A01B98B
:100AD00010B1012909D009E0181900EBD0706FF4AA
:100AE000887101EB600010801BE008B121B105E0C6
:100AF000A4F21114148014E0012802D0012904D0BA
:100B00000FE0A3F2111313800BE0012809D18848EC
:100B10000078052803D287480088108001E014205F
:100B200010808548058085480580F0BD844841686F
:100B300021F4402141F480214160416821F4403199
:100B400041F480314160416821F4404141F48041E9
:100B50004160416C21F4402141F400214164416C29
:100B600021F4403141F400314164416C21F44041B1
:100B700041F4004141647348016821F0E061016083
:100B8000016841F400110160016821F480310160C5
:100B9000016821F47F4141F4807101608115C160D9
:100BA00069488903016070472DE9F041414C1434D4
:100BB00060882188401A00B200F040F9A61D3080FC
:100BC000A0886188401A00B200F038F97080A088CF
:100BD0002188401A00B200F031F9B0804FF49671CC
:100BE000344D884202DAA08828810CE0B6F9020070
:100BF000884202DA6088288105E0B6F90000884260
:100C000001DA20882881AF7800261FB32D48B5F976
:100C10000810203002680A44026042680A444260B8
:100C200082680A448260C2681144C160298A491CF2
:100C300009B22982B1F5805F00DB2E82B5F9101070
:100C40008A052AD1891250F821201212EA8040F830
:100C5000216022E03D48EC782A7900EB8413B5F955
:100C6000081043F8221090070BD1002153F820C040
:100C70006144401CC0B21028F8D30811114921F872
:100C80001400641CE0B2E870102806D3EE70521C09
:100C9000D0B22871102800D32E716E707F1C07F01F
:100CA0000100A870274A20B1106820F0FF00001D45
:100CB0004EE04FE000C0072044C0072024C10720B9
:100CC0006481000034C507204CC007209400001048
:100CD0004E0200109800001052C007209C00001027
:100CE000F402001050C0072092C0072096000010A8
:100CF000C700001044020010EE0000109E0000101B
:100D000004C107203E020010F6020010FC02001091
:100D1000A2000010AECA07200CC10720F40000108A
:100D2000FE020010FA0000104ACA0720B0000010AE
:100D3000320000100AC10720FAC0072002C10720B4
:100D400000C002400040034000E100E034C1072041
:100D500010603BE0E978080705D4106820F0FF0038
:100D6000401C106004E0106820F0FF00801C106040
:100D70002348036843F080530360036A43F08043D1
:100D80000362036E43F080630366CB070AD04369B6
:100D900043F0805343618B0709D4436B23F08043B6
:100DA000436308E0436923F080534361F3E7436BF7
:100DB00043F080434363490704D4416F21F08061CD
:100DC000416703E0416F41F080614167106840F086
:100DD00080701060BDE8F0810948016841F48071BD
:100DE00001600849097821B1416941F4807141618C
:100DF0007047416921F4807141617047704700007C
:100E000000C0092000C0072010B50A2803D0BDE8A3
:100E1000104006F04FBF0D2006F04CFFBDE810401B
:100E20000A2006F047BF10B50446E0B2FFF7ECFF1A
:100E3000204610BDFF49112008727047002801DAD2
:100E4000404200B2704770B5FB4E40F6B835012104
:100E5000B6F90040F94800224FF47A73AC4201DD44
:100E6000017002E09C4200DA0270B6F90E40AC421A
:100E700001DD417002E09C4200DA4270B6F9104098
:100E8000AC4201DD817002E09C4200DA8270B6F96A
:100E90000240AC4201DDC17002E09C4200DAC27047
:100EA000B6F90840AC4201DD017102E09C4200DA73
:100EB0000271B6F90640AC4201DD417102E09C428C
:100EC00000DA4271B6F90440AC4201DD817102E002
:100ED0009C4200DA8271B6F90C40AC4201DDC1716E
:100EE00002E09C4200DAC271B6F90A40AC4201DD70
:100EF000017270BD9C42FCDA027270BD10B5D0491F
:100F0000086820F0E06008604868CF4AC0F30B131F
:100F1000CC4C107824F81030401CC0B2107003285C
:100F200003D2086840F08070086010BD7FB5C748E4
:100F30000078F8B1C54A0023D83A5179491CC9B2A2
:100F400009281FD0032849D004287ED001287DD04D
:100F500002287CD005287BD006287AD0072879D0B3
:100F6000082878D00A2878D104B0B9A0BDE870402C
:100F700006F026BF04B00722BDE870401921B7A0D3
:100F800006F01EBF5171052900D35371507938B155
:100F900000210022AD481A380378012B08D009E05F
:100FA00004B00B22BDE870402621ACA006F008BFBB
:100FB000012101224378012B03D141F00201521C8F
:100FC000D2B28078012803D141F00401521CD2B280
:100FD00004B0A5A0BDE8704006F0F2BE517105292D
:100FE00000D353715079B8B3A34C218B4FF06400F8
:100FF000B1FBF0F200FB1213217DB1FBF0F200FB1C
:10100000121282EA0302217AB1FBF0F300FB131300
:1010100083EA0203217BB1FBF0F200FB121282EAA9
:1010200003022179B1FBF0F300FB131585EA0205F9
:101030002178B1FBF0F200FB121383EA050322785A
:101040002179207B00F1010008E018E021E034E084
:101050003DE050E059E05EE009E007E08DE80F0078
:10106000237A227D218B85A006F0AAFE7FBD04B0E5
:101070000222BDE870400B2178A006F0A1BE51719C
:10108000052900D3537104B085A0BDE8704006F077
:1010900097BE5171052900D35371507928B104B01E
:1010A00082A0BDE8704006F08BBE04B00222BDE80D
:1010B00070400C2169A006F083BE5171052900D350
:1010C000537104B07BA0BDE8704006F079BE517149
:1010D000052900D35371507928B104B078A0BDE838
:1010E000704006F06DBE04B00222BDE870401121D0
:1010F0005AA006F065BE5171052900D3537104B0A2
:1011000071A0BDE8704006F05BBE04B070A0BDE801
:10111000704006F055BE04B06FA0BDE8704006F008
:101120004FBE10B5494C1820B83C20722078401CA6
:1011300040B204F82009182802DDFB2084F82000C2
:1011400094F92000002810DB18280EDC2120FFF77E
:1011500027F8002808D063480088222804D13B489B
:1011600094F9201090F9020010BD411CFCD0811CA4
:10117000FAD0C01CF8D1E078401CE07010BD2DE919
:10118000F0410020584B00214FF4F4721954401CD8
:1011900000B29042FADB00224FF0140C7A2102FBDD
:1011A00001F002EB8201890009B202EB82040CEB30
:1011B00084071DE0254C4D4E1C34645C04EB440553
:1011C000441C16F8158003F8008006EB4500661CE9
:1011D00045781D558478751C9C55C4786E1C5C55EB
:1011E0000579741C9D554579601C1D55491C09B233
:1011F0008F42DFDC521C12B2042ACFDBBDE8F08143
:101200002DE9F04FCBB011491048DFF8409091F92B
:10121000044091F9011009F11C090A1B00784B1ECA
:10122000A9F1F4064FFA83F80DAD06F1800700B17D
:101230005EE0C0E00040024034C5072072CA0720CB
:101240000040034014C0072001C00720E400001044
:1012500050524F4245534D530A0000004F4B2564F6
:1012600043524325640A00004F50545225644352B0
:101270004325640A000000002440024044415441D8
:1012800025303264253032642530326425303264B2
:10129000253032642530326443524325640A00000D
:1012A00054494D4553544152540A00005741544546
:1012B000520A00005741545F5245540A0000000092
:1012C0004149520A0000000041495F5245540A005A
:1012D000494E5445520A0000494E54455F52455408
:1012E0000A00000028C00720FCC507206C81000010
:1012F000DFF804B4072878D05B46092893F904A0E6
:10130000D6460AF1020A0EF1010E6FD001286ED006
:1013100005286DD053286CD055286BD0583B4028F9
:10132000B3F91430A3F1010CCDF828C1DFF8CCC318
:10133000CDF824C17ED042287DD00E287CD00F2845
:101340007AD0382878D0212876D02F2875D0302828
:1013500074D0032873D0042872D0062870D00228D5
:101360006ED008286CD05B46B4465B78BCF964B09C
:101370009B1EBCF960905BB211287ED0BCF968C09E
:1013800012287BD015287AD0132879D0142878D049
:10139000DFF864B32A2875D02B2874D0292873D09D
:1013A00006F1E20A3A2870D03C286FD027286ED088
:1013B00054286DD09DE3D2A00D90D7A00E90DCA054
:1013C0000F90E1A01090E6A01190EBA01290F0A079
:1013D0001390F5A01490FAA01590FFA01690C6489F
:1013E000012A08DD80F8048008E085E08EE015E140
:1013F0001EE127E150E1A14200DA017190F90400F9
:10140000C11C801C55F8213055F82020DDE90D0164
:10141000FFF78AF9F64C207A4FF000024FF02501D1
:10142000FFF78FF8207900225E21FFF78AF82078F5
:10143000002206E05EE3B2E3FEE3FEE3FEE3FEE34A
:10144000FEE32621FFF77DF8207B00223C21FFF7F9
:1014500078F8A08B00227B21FFF773F8217EE54806
:10146000002200EB81003E21FFF758F8B07CE0B18C
:101470003A20FEF74EFF20240BE0FEE3FEE3FEE3FE
:10148000FEE3FEE3FEE3FEE3FEE3FEE3FEE3FEE354
:10149000FEE309F800403A20FEF73BFF09F8004060
:1014A0003A20FEF736FF09F800400220FFF7B9F8AE
:1014B000D1480088A0F5FE405838002800DA002006
:1014C00000EB80004000FF2190FBF1F0002306229A
:1014D000012180B2FEF7FBFFC84802231022B0F9B9
:1014E000140000EB800041003E2091FBF0F080B240
:1014F0000121FEF7ECFFFCE2C1A3C7A2CCA1D2A060
:10150000FFF712F90320FFF78CF8F2E20A20707659
:10151000D3A00190D8A00290DDA00390B54861301F
:10152000049001A850F82A3050F82E2050F82410CA
:10153000DDA0FFF7F9F89BF901009BF90410421AAE
:10154000022A03DD801E8BF8040003E0884201DAE2
:101550008BF804000120FFF764F8674C6FF0030874
:101560001A3CA078012844D042462121D4A0FEF79D
:10157000D5FF6078012843D042462521D0A0FEF750
:10158000CDFF2078012842D042462821CCA0FEF78A
:10159000C5FF5A4C002266344021A079FEF7D1FFE6
:1015A000E07900222321FEF7CCFF207A00222421BB
:1015B000FEF7C7FFE07800225E21FEF7C2FF207928
:1015C00000222621FEF7BDFF607900222A21FEF7C6
:1015D000B8FF207800222921FEF7B3FF60780022AF
:1015E0002D21FEF7AEFFA07800223D21FEF7A9FFD6
:1015F0007FE26FF002022121B3A0FEF78FFFB8E770
:101600006FF002022521B0A0FEF788FFB9E76FF066
:1016100002022821ACA0FEF781FFBAE778A3ACA2B2
:10162000B1A1B7A0FFF780F80320FEF7FAFF60E250
:1016300073A3B9A2ACA1B2A0FFF776F80320FEF71E
:10164000F0FF56E2BAA00D90BFA00E906CA00F90D4
:1016500055F82A3055F82E2055F82410C0A0FFF771
:1016600063F80120FEF7DDFFF88D002200EB80001B
:1016700080B22121FEF765FFB88D0022232180B2C0
:10168000FEF75FFFB88D002200EB80002D3080B2A6
:101690004021FEF756FF2CE2B7A00D90BCA00E90A3
:1016A000C1A00F90C6A01090CBA01190D0A0129016
:1016B000D5A01390DAA01490DFA01590E4A01690A6
:1016C000E9A01790EEA01890F3A01990B6F96A005F
:1016D0004BA2411C45F82120811CF5A245F8212090
:1016E000C01CF3A145F82010E41C55F82A2055F839
:1016F000243055F82E10E7E1E40000100CCA072052
:101700002030253A305E3A302620303C2F3E2020D3
:101710002F307B200000000020202020202020EC03
:10172000C020202020202E2020C2202000000000E9
:1017300020CFEEEBEDE0FF20EFF0EEE2E5F0EAE0A7
:10174000202020200000000020CAEEEDF2F0EEEB99
:10175000FC20E8EDF2E5F0F4E5E9F1E0000000003E
:1017600020CAEEEDF2F0EEEBFC20EEEFF2F0EEED43
:10177000EEE220200000000020D3F1F2E0EDEEE2E6
:10178000EAE020E2F0E5ECE5EDE8202000000000D2
:1017900020C4E0F2F7E8EA20E2EEE7E4F3F5E02027
:1017A000202020200000000020C4E0F2F7E8EA201A
:1017B000E2EEE4FB2020202020202020000000007A
:1017C00020D2E5F1F220E2FBEAEBFEF7E5EDE8FFDF
:1017D000202020200000000020C7E0E2EEE4F1EA33
:1017E000E8E520F3F1F2E0EDEEE2EAE800000000C7
:1017F000204002406C8700001CC1072034C5072030
:1018000020C2FBF5EEE420202020202020202020F4
:101810002020202000000000202020202020C1C8FF
:10182000CFCFC5D0C02020202020202000000000E5
:10183000202020202020CACDCECFCECA202020209C
:10184000202020200000000020CFD0CEC2C5D0CA6A
:10185000C020C8CDC4C8CAC0D6C8C8200000000077
:1018600020CEEFF2F0332020202020212020202045
:10187000402324200000000020CEEFF2F032202090
:1018800020202025202020205E262A200000000085
:1018900020CEEFF2F0312020202020282020202010
:1018A000292D3D200000000020CACECDD2D0CECBC5
:1018B000DC20CECFD2D0CECDCEC220200000000082
:1018C000C2DBCACB2E000000C2CACB2E0000000033
:1018D00020202020C4C0D2D7C8CAC020C2CEC4DBBA
:1018E000202020200000000020202020D2C5CCCFC6
:1018F000C5D0C0D2D3D0C0202020202000000000BE
:1019000020CDC020CBC5C2CECC20C8CDC4C8CAC053
:10191000D2CED0C5000000002020C4C0D2D7C8CA93
:10192000C020C2CEC7C4D3D5C020202000000000F4
:101930002046E2E5EDF22EF2E5EAF3F92E20202032
:1019400020202125000000002046E2E5EDF22E6D6A
:1019500061782E2028202040252920230000000027
:101960002020202020C2C5CDD2C8CBDFD2CED020AF
:1019700020202020000000002020C0C2D2CECCC0F9
:10198000D2DB20CDC0C3D0D3C7CECA200000000018
:1019900020C0E2F2EEECE0F220B93120202020203D
:1019A000202021200000000020C0E2F2EEECE0F256
:1019B00020B93220202020202020402000000000DC
:1019C00020C0E2F2EEECE0F220B93320202020200B
:1019D000202023200000000020C0E2F2EEECE0F224
:1019E00020B93420202020202020242000000000C6
:1019F00020C0E2F2EEECE0F220B9352020202020D9
:101A0000202025200000000020C0E2F2EEECE0F2F1
:101A100020B936202020202020205E200000000059
:101A200020C0E2F2EEECE0F220B9372020202020A6
:101A3000202026200000000020C0E2F2EEECE0F2C0
:101A400020B938202020202020202A20000000005B
:101A500020C0E2F2EEECE0F220B939202020202074
:101A6000202028200000000020C0E2F2EEECE0F28E
:101A700020B9313020202020202029200000000023
:101A800020C0E2F2EEECE0F220B93131202020203B
:101A900020202B200000000020C0E2F2EEECE0F25B
:101AA00020B931322020202020203D2000000000DD
:101AB0002020202020202020202020202020202026
:101AC00020202020000000000D98FEF72DFE9BF93D
:101AD00001009BF90410421A022A03DD801E8BF8D4
:101AE000040003E0884201DA8BF804000120FEF7CD
:101AF00098FD33E333B1012B13D05846A1421DDAD0
:101B000001711FE0F34BF4A2F9A1FFA0FEF70CFE58
:101B1000002059468BF8010008710320FEF781FD73
:101B200025E0EC4BFEA2F2A1F7A0FEF7FDFD00219F
:101B30008BF804100220FEF774FD18E0012A01DD85
:101B400080F8048090F904104A98814206D1E14B54
:101B5000F3A2E7A1ECA0FEF7E7FD05E0F6A3F0A2F3
:101B6000E3A1E9A0FEF7E0FD0220FEF75AFD9BF994
:101B700002005C46401C80B200222121FEF7E1FCFD
:101B800094F90410F248405C2821FEF70EFE94F907
:101B900004104998085C5B21FEF707FEDEE233B1D2
:101BA000012B13D0A1421EDA8BF804101FE0C94BA1
:101BB000C9A2CFA1E7A0FEF7B7FD00208BF8010076
:101BC0008BF804000320FEF72CFD25E0C14BD4A2C6
:101BD000C7A1E0A0FEF7A8FD00208BF804000220BA
:101BE000FEF71FFD18E0012A01DD8BF804809BF948
:101BF00004104A98814206D1B64BC9A2BCA1D5A017
:101C0000FEF792FD05E0CCA3C5A2B9A1D1A0FEF7D5
:101C10008BFD0220FEF705FD9BF902000022401C0F
:101C200080B22121FEF78DFC9BF90410C848405C6E
:101C30002821FEF7BAFD04E00BE03EE070E079E019
:101C4000F6E09BF904104998085C5B21FEF7ADFDB6
:101C500084E2A04BC5A0153B1A461146FEF764FD71
:101C6000C84C0023082294F90000012180B2FEF73D
:101C70002EFC94F9010080B20BE0E1E06FE2C5E2D6
:101C800035E380E3D8E3FDE3FDE3FDE3FDE3FDE3BE
:101C9000FDE3002309220121FEF719FC94F902005B
:101CA000002380B20A220121FEF711FC9BF90120DA
:101CB00004F16C01A420505450E2B2489BF9021088
:101CC0003438405C552828D0AFA00D90814BB4A18A
:101CD000153B1A460D98FEF727FDAA4C0023082253
:101CE00094F90000022180B2FEF7F1FB94F90100A3
:101CF000002380B209220221FEF7E9FB94F90200D9
:101D0000002380B20A220221FEF7E1FB9BF90120A9
:101D100004F18000A421115420E2A7A00D90D5E782
:101D2000ABA3B1A2B6A198A0FEF7FEFC0220FEF77D
:101D300078FC13E2B079401CC0B2B0710F2808D310
:101D40000021B171307E401CC0B23076032800D330
:101D50003176604815300D902A380E90307E08B9E3
:101D6000ADA10F91012801D1B1A10F91022801D19C
:101D7000B5A00F900DA9BAA00EC9FEF7D5FC9BF92E
:101D800001005E2150B101280BD002280CD003289D
:101D90000DD004280ED005280FD010E089F82A10A5
:101DA0000DE089F82D100AE089F8301007E089F875
:101DB000331004E089F8371001E089F83B10AE4C8D
:101DC00020784FF000024FF05E01FEF7BAFB207959
:101DD00000222521FEF7B5FB207A00223C21FEF7E8
:101DE000B0FB217D3B480022613800EB81003E21A1
:101DF000FEF794FB208BA4F124044FF000024FF077
:101E00007B01FEF79EFBB07C28B13A20FEF781FAF9
:101E1000202109F8001094F830002E4900EB400012
:101E20002D3908444FF0FF322621FEF777FB95E16C
:101E3000284B153B1A4611460846FEF775FC8DE106
:101E40000FF2382C0120CDF834C0B9F1000F04D0C6
:101E50000FF2402C0220CDF838C0BBF1000F06D0A5
:101E60000FF248288446401CC0B245F82C80B6F8D2
:101E700066C0BCF1000F06D00FF248288446401C13
:101E8000C0B245F82C800FF2542C00F1010808F084
:101E9000FF0845F820C097A008F1010C0CF0FF0CDA
:101EA00045F828000FF264280CF10100C0B245F893
:101EB0002C80AFF2B46800F1010C0CF0FF0C45F877
:101EC0002080AFF214480CF10100C0B245F82C801C
:101ED00028E10000CD87000020C6F3F0EDE0EB2004
:101EE000EFF3F1F22020202020202020000000002D
:101EF0002020202020C1C0D2C0D0C5C8204E212023
:101F00002020202000000000C2DBD0C0C2CDC8C20B
:101F1000C0DED9C8C520C7C0D0DFC4DB00000000C8
:101F200020282020202020202020202020202020A9
:101F30002020202000000000205B202020202020E6
:101F40002020202020202020202020200000000011
:101F50000BCA0720202020202020D0C0C7D0DFC4FB
:101F6000DB20202020202020000000002020C2E2D2
:101F7000E5E4E8F2E52020EFE0F0EEEBFC202020A5
:101F800000000000C4000010C4EBFF20E2E2E5E422
:101F9000E5EDE8FF20E1E0F2E0F0E5E80000000018
:101FA0002020EDE0E1E5F0E8F2E520EFE0F0EEEBF7
:101FB000FC20202000000000C4EBFF20E2FBE2E553
:101FC000E4E5EDE8FF20E1E0F22E2DE8000000005E
:101FD00020475946503438373554202020202020BF
:101FE000202020200000000020D1E2E8EDF6EEE203
:101FF000EE2DEAE8F1EBEEF2EDE0FF20000000004C
:10200000202020E2FBE1E5E8F2E520E5E520F2E82A
:10201000EF2020200000000020202020203C3E2037
:102020002D20E2FBE1EEF020202020200000000027
:102030002020205E76202D20F3F1F2E0EDEEE2EAA2
:10204000E0202020000000002020202020A42020CC
:102050002D20E2FBF5EEE4202020202000000000EF
:1020600020D3D1D2C0CDCEC2CAC02020C2D0C5CCD0
:10207000C5CDC820000000002440024020D1E5F278
:10208000FC20202020202020202020202020202074
:102090000000000020C1E0F2E0F0E5E82020202070
:1020A00020202020202020200000000020C1CFD1AF
:1020B0002020202020202020202020202020202020
:1020C0000000000020C8EDE2E5F0F2EEF0FB202079
:1020D00020202020202020200000000020CDE0E350
:1020E000F0F3E7EAE02020202020202020202020FC
:1020F0000000000020C2EDE5F8EDE8E520E4E0F2A4
:10210000F7E8EAE8202020200000000020D1E8EBDA
:10211000EEE2FBE520E2E2EEE4FB2020202020209E
:1021200000000000AFF2786C45F820C0FC48022A9D
:1021300001DD037102E0A14200DA017190F90400AF
:10214000811C55F82130411C55F8212055F82010EC
:10215000F4A0FEF7E9FA0120FEF763FAC8E3AFF254
:10216000E4080120CDF83480B9F1000F04D0AFF2BB
:10217000DC080220CDF83880BBF1000F06D0AFF2AA
:10218000D4098046401CC0B245F828900FF2AC3903
:1021900000F1010808F0FF0845F82090BCF1000F9D
:1021A00008D0AFF2B00C404608F1010808F0FF0873
:1021B00045F820C0AFF6B81C08F10100C0B245F8E0
:1021C00028C0AFF2147800F1010C0CF0FF0C45F8B8
:1021D0002080AFF2247045F82C00D148022A01DD9E
:1021E000037102E0A14200DA017190F90400811C40
:1021F00055F82130411C55F8212055F82010C9A070
:10220000FEF792FA0120FEF70CFA71E3D1A00D90CF
:102210000FF2583C0220CDF838C0BBF1000F04D0BB
:10222000AFF2781C0320CDF83CC00FF2583800F113
:10223000010C0CF0FF0C45F820800FF260380CF117
:102240000100C0B245F82C80AFF64C2800F1010C1B
:102250000CF0FF0C45F82080AFF2AC780CF10100D7
:10226000C0B245F82C80AFF2B87C45F820C0DFF84A
:10227000B082022A02DD88F8043003E0A14201DACC
:1022800088F8041098F90400811C55F82130411C8D
:1022900055F8212055F82010A2A0FEF745FA01209C
:1022A000FEF7BFF9B8890122212180B2FEF749F972
:1022B000F8890022402180B2FEF743F9388A0122D2
:1022C000232180B2FEF73DF9788A00225E2180B298
:1022D000FEF737F998F9010008B1032806D10A235F
:1022E0004FF47A72E521E120FDF723FF00E3AFF21E
:1022F00074200D90AFA04FF002080E90BBF1000FBC
:1023000004D0AFF258204FF003080F900FF22C29A1
:1023100008F10100C0B245F82890BCF1000F06D0CA
:10232000AFF230288446401CC0B245F82C80AFF68E
:10233000303800F1010C0CF0FF0C45F82080AFF6AE
:1023400090080CF10100C0B245F82C80AFF6A00C4B
:1023500045F820C07248022A01DD037102E0A14263
:1023600000DA017190F90400811C55F82130411CFC
:1023700055F8212055F820106AA0FEF7D5F9012064
:10238000FEF74FF9B4E2AFF20C380120CDF83480FB
:10239000B6F86280B8F1000F04D0AFF2083802201E
:1023A000CDF83880BBF1000F06D0AFF2003980467F
:1023B000401CC0B245F82890AFF2E02900F10108B6
:1023C00008F0FF0845F82090BCF1000F08D0AFF2EC
:1023D000DC2C404608F1010808F0FF0845F820C051
:1023E000AFF6E43C08F10100C0B245F828C0AFF6F2
:1023F000401800F1010C0CF0FF0C45F82080AFF6FE
:10240000501045F82C004648022A01DD037102E015
:10241000A14200DA017190F90400811C55F82130C5
:10242000411C55F8212055F820103EA0FEF77CF9FC
:102430000120FEF7F6F85BE264A00D90AFF6404095
:102440000E90AFF694100F90022A02DD8BF8043044
:1024500003E0A14201DA8BF804109BF90400811C0F
:1024600055F82130411C55F8212055F820105DA069
:10247000FEF75AF90120FEF7D4F8F88A002240212D
:1024800080B205E007E03DE004E158E1B3E1E6E1B8
:10249000FEF757F82CE259A00D905EA00E9063A0B5
:1024A0000F90AFF6A440109055F82A3055F82E2022
:1024B00055F824104BA0FEF737F99BF901009BF962
:1024C0000410421A022A03DD801E8BF8040003E088
:1024D000884201DA8BF804000120FEF7A2F8388B5D
:1024E0000022212180B2FEF72CF8788B00224021B7
:1024F00080B2FEF726F8B88B0022232180B2FEF7C7
:1025000020F8F5E131A00D90AFF60C500E90AFF62B
:1025100060200F90022A02DD8BF8043096E091E0F3
:10252000E40000102020202020CAC0CBC8C1D0CE9B
:10253000C2CAC020202020200000000020C2FBF5DD
:10254000EEE4EDFBE520EFE0F0E0ECE5F2F0FB205F
:10255000000000002055E2FBF52E20202020202046
:1025600020202021C2202020000000002049E2FB82
:10257000F52E20202020202020202040C0202020B8
:10258000000000002055E22EE42E202020202020F4
:1025900020202023C2202020000000002054F1E849
:1025A000F1F2E5ECFB20203D2020205EB04320200E
:1025B0000000000020C1E0F2E0F0E5FF2020202034
:1025C0002020202020202020000000002055203D39
:1025D000202020202040C220202020202020202039
:1025E00000000000202020CAC0CBC8C1D0CEC2CA83
:1025F000C020D1C5D2C82020000000002055F441E1
:10260000202020202020202020202021C220202027
:10261000000000002055F44220202020202020200F
:1026200020202040C2202020000000002055F4433C
:10263000202020202020202020202023C2202020F5
:1026400000000000A14201DA8BF804109BF904009D
:10265000811C55F82130411C55F8212055F82010D7
:10266000FBA0FEF761F80120FDF7DBFFB7F90800DA
:10267000B0F57A7F08DD0A2190FBF1F080B20022EC
:102680004021FDF75EFF33E10122402180B2FDF7DA
:1026900058FF2DE1F4A00D90F9A00E90FEA00F9030
:1026A000AFF6A4601090AFF6F8301190AFF600408E
:1026B0001290012A02DD8BF8048003E0A14201DAC6
:1026C0008BF804109BF90400411C55F8202055F8A4
:1026D0002130F7A1FCA0FEF727F80220FDF7A1FFAB
:1026E000FF4C207830B16FF002022121FDA0FDF7F0
:1026F00015FF05E0BAF9000000222121FDF741FE97
:10270000607830B16FF002024021F6A0FDF706FFBD
:1027100005E0BAF9020000224021FDF732FEA07860
:1027200030B16FF002022321EEA0FDF7F7FEDFE0EB
:10273000BAF9040000222321FDF723FED8E0EBA024
:102740000D90F0A00E90F5A00F90AFF64C7045F8EC
:102750002C00AFF6A4400CF1010345F82300AFF6BE
:10276000B0400CF1020C45F82C00012A02DD8BF878
:10277000048003E0A14201DA8BF804109BF9040005
:10278000411C55F8202055F82130C9A1CEA0FDF7F5
:10279000CBFF0220FDF745FFD14C207830B16FF020
:1027A00002022121CFA0FDF7B9FE05E0BAF9000031
:1027B00000222121FDF7E5FD607830B16FF00202C3
:1027C0004021C8A0FDF7AAFE05E0BAF902000022E8
:1027D0004021FDF7D6FDA07830B16FF00202232131
:1027E000C0A0FDF79BFE83E0BAF90400002223217C
:1027F000FDF7C7FD7CE0CFA00D90D4A00E90B848A7
:1028000037380078552801D0D0A00D90D54845F82C
:102810002900AFF6645C09F1010045F820C0AFF66D
:10282000705009F1020945F82900022A02DD8BF8EF
:10283000043003E0A14201DA8BF804109BF9040094
:10284000811C55F82130411C55F8212055F82010E5
:10285000C5A0FDF769FF0120FDF7E3FE48E0C8A031
:102860000D90CDA00E90D2A00F90D7A01090DCA01C
:102870001190E1A01290BB481390AFF6CC50149089
:10288000012A02DD8BF8048003E0A14201DA8BF813
:1028900004109BF90400411C55F8202055F8213004
:1028A000DBA1E1A0FDF740FF0220FDF7BAFE8C4C52
:1028B00000222D3421212088FDF743FE608800226C
:1028C0004021FDF73EFEA08800222321FDF739FEBE
:1028D000A41D002220882621FDF733FE60880022F7
:1028E0002A21FDF72EFEA08800222821FDF729FECF
:1028F0007B4C1D3420782E2825D05B2866D05C28A0
:102900007ED05E287DD05F287CD061287BD1B6F850
:102910007400F0B3CAA00D90B6F87600D0B3CEA084
:102920000E90D3A00F90D8A0109004207076717EE6
:102930008C4845F8210094F9010094F9041088426C
:102940007BDA2071B7E394F90100F0B3012875D068
:10295000022874D0032873D0042872D0052871D0BF
:10296000062870D007286FD008286ED00A286DD0AE
:102970000B286CD00C28C9D1AFF6CC63AFF6D0626F
:10298000AFF6D461C6A0FDF7CFFE002304220121DB
:1029900001E091E391E3788E80B2FDF798FDB88E67
:1029A00000230422022180B2FDF791FD00230E22B4
:1029B000012196F82A00FDF78AFDBF4C00230F2263
:1029C00020781946FDF783FD01E08AE176E360781F
:1029D00000230F220121FDF77AFDA07800230F22AA
:1029E0000221FDF774FDE07800230F220321FDF79B
:1029F0006EFD0023207913221946FDF768FD03E0E0
:102A00005DE35DE35DE35DE3607900231322012173
:102A1000FDF75DFDA079002313220221FDF757FD8C
:102A2000E079002313220321FDF751FD0023F88EE6
:102A30000A223230194680B240E144E38BE1ADE135
:102A4000EDE1F5E11BE284E28CE2F0E23CE33CE301
:102A500020CAC0CBC8C1D0CEC2CAC020CDC0C3D04E
:102A6000D3C7CAC8000000002074E2EDE5F82EE2EA
:102A7000EEE7E42E2020202021B0D120000000002D
:102A80002074EEF2F1E5EA20DDCFD32020202020D3
:102A900040B0D120000000002074EEF2F1E5EA2001
:102AA0004D53414E2020202023B0D12000000000B3
:102AB00020C4C0D2D7C8CACEC220D2C5CCCFC5D0C0
:102AC000C0D2D3D00000000020CAC0CBC8C1D0CE35
:102AD000C2CAC020C2CDC5D8CDC8D52000000000D4
:102AE000C7000010EDE5E8F1EFF02E002074312072
:102AF00020202020202020202020202021B0D12094
:102B000000000000207432202020202020202020DF
:102B10002020202040B0D12000000000207433206D
:102B200020202020202020202020202023B0D12061
:102B30000000000020C1E0F2E0F0E5FF204E31206F
:102B400020202020202020200000000020C1E0F2D2
:102B5000E0F0E5FF204E3220202020202020202001
:102B6000000000000018000020CAC0CBC8C1D0CEB1
:102B7000C2CAC020C1C0D2C0D0C5C9200000000058
:102B800020C2E2EEE420F42E412020202021C220A9
:102B9000202020200000000020C2E2EEE420F42EDD
:102BA000422020202040C2202020202000000000C1
:102BB00020C2E2EEE420F42E432020202023C22075
:102BC000202020200000000020CFDDD12020F42E86
:102BD000412020202026C2202020202000000000AC
:102BE00020CFDDD12020F42E42202020202AC22018
:102BF000202020200000000020CFDDD12020F42E56
:102C0000432020202028C220202020200000000077
:102C1000202020D1C8CBCEC2DBD520C2C2CEC4CEAC
:102C2000C220202000000000202020202020CAC038
:102C3000CBC8C1D0CEC2CAC02020202000000000D6
:102C400020C2EAEBFEF7E5EDEE2020202020202038
:102C5000202020200000000020CAC0CDC0CB2020B2
:102C6000204D4F444255532D544350200000000046
:102C7000204950203030402E3030232E3030242E4A
:102C8000303025200000000020C0C4D0C5D120C2B3
:102C9000C5C4CECCCEC3CE2020205E2000000000D4
:102CA0006963612020202020202020202020202057
:102CB000202020200000000068CA0720FDF707FC44
:102CC000F88C00230A22012180B2FDF700FC7889EC
:102CD0004BB00023BDE8F04F0A22022180B2FDF77D
:102CE000F6BBFAA3FF4A1146FFA0FDF71DFD002326
:102CF0000422194640F21B40FDF7E9FB00230B229A
:102D0000194645F27820FDF78CFBFD4C0023052287
:102D100001212078FDF7DBFBFA4D00230A222888E9
:102D2000012180B2FDF7D3FBF74800230F220121D8
:102D30000078FDF7CCFB0023042202212078FDF768
:102D4000C6FB28884BB00023BDE8F04F09220221C2
:102D500080B2FDF7BCBBE34BECA01A461146FDF771
:102D6000E3FC94F90200002380B21A460121FDF72A
:102D7000AEFB94F902000023401C80B21A460221E7
:102D8000FDF7A5FB94F902004BB0801CBDE8F04FA5
:102D9000002380B21A460321FDF799BBD14BE1A075
:102DA0001A461146FDF7C0FC06F130060023052245
:102DB000012116F8070CFDF78AFB708A0023052213
:102DC000022180B2FDF783FBF86C0023052203216A
:102DD00080B2FDF77CFBB08F00231322194680B22E
:102DE000FDF775FB388900231322012180B2FDF71E
:102DF0006EFBF08F00231322022180B2FDF767FBE8
:102E0000388E00231322032180B2FDF760FB4BB004
:102E10000E22BDE8F04F0121C848FDF7C3BB4BB0FF
:102E2000C7A3BDE8F04FCCA2AE49D1A0FDF77CBC52
:102E3000D5A3DBA2AB49E0A0FDF776FC06F1440682
:102E40000023F08B0122194680B2FDF740FBE048D9
:102E50000023132219460078FDF739FB3889002337
:102E60001322012180B2FDF732FB30884BB00023E2
:102E7000BDE8F04F0D22194680B2FDF728BB994BF3
:102E8000D4A01A461146FDF74FFCD84C002304226B
:102E900020881946FDF71BFB6088002304220121CE
:102EA000FDF715FBA088002304220221FDF70FFB8C
:102EB000E088002304220321FDF709FB0023208979
:102EC00009221946FDF703FB60890023092201212D
:102ED000FDF7FDFAA089002309220221FDF7F7FA88
:102EE000E089002309220321FDF7F1FA0023208A5B
:102EF0000E221946FDF7EBFA608A00230E2201210B
:102F0000FDF7E5FAA08A00230E220221FDF7DFFA81
:102F1000E08A00230E220321FDF7D9FA0023208B3B
:102F200013221946FDF7D3FA608B002313220121E7
:102F3000FDF7CDFAA08B002313220221FDF7C7FA7B
:102F4000E08B4BB00023BDE8F04F13220321FDF7C7
:102F5000BEBA4BB0A6A3BDE8F04FABA2B0A1B6A0DD
:102F6000FDF7E2BB5F4BBAA01A461146FDF7DCFB4A
:102F7000BD4D9E4C002328781322194634F81000CA
:102F8000FDF7A5FA68780023132234F81000012118
:102F9000FDF79DFAA8780023132234F810000221CF
:102FA000FDF795FAE8780023132234F81000032186
:102FB000FDF78DFAAD4C00230E2294F9000019465E
:102FC00080B2FDF784FA94F90100002380B20E224A
:102FD0000121FDF77CFA94F90200002380B20E2251
:102FE0000221FDF774FA94F90300002380B20E2247
:102FF0000321FDF76CFA241F002320780A221946CA
:10300000FDF765FA607800230A220121FDF75FFAD7
:10301000A07800230A220221FDF759FAE0784BB08C
:103020000023BDE8F04F0A220321FDF750BA2D4BD3
:103030001A4611460846FDF777FB8D4C0023022205
:1030400020881946FDF743FA6088002302220121F7
:10305000FDF73DFA0222A08800231146FDF737FA5A
:10306000E088002302220321FDF731FA0023207AB1
:1030700004221946FDF72BFA607A0023042201216D
:10308000FDF725FAA07A002304220221FDF71FFA9A
:10309000E07A002304220321FDF719FA0023A08916
:1030A00007221946FDF713FAE089002307220121C0
:1030B000FDF70DFADEE07CE269E26EE248E18AE1CA
:1030C000FCE137E2F7E16FE2F6E008E120202020A2
:1030D00020202A2A2A2A2A2A2A2A202020202020A0
:1030E00000000000B01A00002A303030302A3030A2
:1030F000303030302A202020202020200000000006
:1031000025C0072026C0072008000010C12020206D
:1031100020202020202020202020202020202020AF
:1031200000000000462020202020202020202020F9
:10313000202020202020202000000000785634127B
:10314000202020202020202020202020202020207F
:1031500020202026000000002020202020202020E9
:1031600020202020202020202020205E00000000A1
:10317000CAC5202020202020202020202020202000
:10318000202020200000000020202020202040209F
:1031900020202420202020202020202000000000AB
:1031A000202020202020212020202320202020201B
:1031B00020202020000000004C4220202020202041
:1031C000202020202020202020202020000000007F
:1031D00024C007202A20202020202020202020205A
:1031E00020202020202020200000000034C50720BF
:1031F0002020202020202020202020205E20202091
:10320000202020200000000020202020402020201E
:103210002020252020202020202020200000000029
:103220002020202021202020202024202020202099
:1032300020202020000000003620202020202020F8
:1032400020202020202020202020202000000000FE
:103250003720202020202020202020202020202057
:10326000202020200000000044810000D100001038
:103270004ACA0720208A002307220221FDF727F9E6
:10328000608A002307220321FDF721F90023208B08
:1032900013221946FDF71BF9207D0023132201217B
:1032A000FDF715F9B88C4BB00023BDE8F04F1322A1
:1032B000032180B2FDF70BB9D84B1A461146AFF285
:1032C0000810FDF731FA94F902004BB0401CBDE83C
:1032D000F04F002380B203221946FDF7F8B8CF4B18
:1032E0001A461146AFF23010FDF71EFA94F90100AC
:1032F000002380B201221946FDF7E9F8F88C00237B
:103300000522194680B2FDF7E2F8388900230B2226
:10331000194680B2FDF7DBF8C14C00230522608A14
:103320000221FDF7D4F8207D002308220221FDF7B9
:10333000CEF8E08A002305220321FDF7C8F8607D5E
:103340004BB00023BDE8F04F08220321FDF7BFB8C2
:10335000B4A00D90B9A00E90BEA00F90C3A0109085
:10336000C8A01190CDA01290D2A01390D7A0149015
:10337000DCA01590E1A01690E6A01790EBA01890A5
:10338000B6F96400EF4945F82010411CA34A45F8FE
:103390002120801C114645F8201094F9010094F971
:1033A0000410421A012A02DD401E207102E0884208
:1033B00000DA207194F90400411C55F8202055F8DA
:1033C0002130E1A1E6A0FDF7AFF94BB00220BDE846
:1033D000F04FFDF726B9E8A00D90307D20B1ECA0AC
:1033E0000E90F1A00F9003E0F5A00E90FAA00F90C0
:1033F000FF48109015381190129094F9010038B3DD
:10340000012825D0022823D00320207194F904003C
:10341000811C55F82130411C55F8212055F8201009
:10342000F4A0FDF781F90120FDF7FBF894F9020003
:103430000022401C80B22121FDF783F8B6F8460037
:103440000122242180B2FDF77CF8607818B11EE0DB
:1034500000202071DAE7A1780120884002B20A2317
:10346000D021CD20FCF765FE28230022C921C820E9
:10347000FCF75FFE0A23B6F94620BF21BE20FCF709
:1034800058FE0A230022E621E120FCF752FED72055
:10349000FCF766FE00280ED0DB480088D9280AD148
:1034A0000320607040F6B8330093D8A3DDA2E3A1F7
:1034B000E8A0FDF767F94BB0BDE8F08FEBA00D90E9
:1034C000F0A00E90F5A00F90C948109015381190FB
:1034D000129094F9010094F90410421A012A02DDB5
:1034E000401E207102E0884200DA207194F9040045
:1034F000411C55F8202055F82130EEA1F2A0FDF72F
:1035000013F90220FDF78DF836F86C0F0122212106
:1035100080B2FDF716F870880122402180B2FDF7D5
:1035200010F8B0884BB00022BDE8F04F232180B2E4
:10353000FDF707B8B6F8720080B1E8A00D90EDA0D5
:103540000E9080480F903548109094F9010094F93E
:103550000410421A012A06DD207107E0DFA00D9059
:10356000EAA00E90EDE7884200DA207194F9040099
:10357000411C55F8202055F82130EAA1EFA0FDF7B5
:10358000D3F84BB00220BDE8F04FFDF74AB8F1A0E8
:103590000D9001207076FFF7CAB9F4A00E90F9A043
:1035A0000F9003207076F6E7411A012901DD401ED5
:1035B000207194F90400411C55F8202055F8213061
:1035C000F6A1FCA0FDF7B0F80220FDF72AF8B6F846
:1035D00078000022212180B2FCF7B3FF60786FF001
:1035E0000105022809D1A07838B9B07C28B12A4653
:1035F000402184A0FCF792FF06E0B6F87A00002292
:10360000402180B2FCF79DFF6078022804D1A078A9
:10361000012801D1B07CD9E1E0E10000B01A00003E
:10362000E4C5072020C1CFD1204E3120202020200A
:1036300020202020202020200000000020C1CFD109
:10364000204E32202020202020202020202020203A
:103650000000000020C1CFD1204E332020202020A8
:1036600020202020202020200000000020C1CFD1D9
:10367000204E342020202020202020202020202008
:103680000000000020C1CFD1204E35202020202076
:1036900020202020202020200000000020C1CFD1A9
:1036A000204E3620202020202020202020202020D6
:1036B0000000000020C1CFD1204E37202020202044
:1036C00020202020202020200000000020C1CFD179
:1036D000204E3820202020202020202020202020A4
:1036E0000000000020C1CFD1204E39202020202012
:1036F00020202020202020200000000020C1CFD149
:10370000204E31302020202020202020202020206A
:103710000000000020C1CFD1204E313120202020D8
:1037200020202020202020200000000020C1CFD118
:10373000204E313220202020202020202020202038
:10374000000000000018000020C0C2D2CECDCECCB8
:10375000CDCEC920D0C0C1CED2DB202000000000D9
:10376000D3D1D2C0CDCEC2CAC020CDC0CFD0DFC64B
:10377000C5CDC8DF000000002055E0E2F2EEED20EC
:103780003D20202024C220202020202000000000F6
:1037900020F3F1F2E0EDEEE2E8F2E52055E0E2F2AE
:1037A000EEED2020000000002020EDE0E6E0F2E851
:1037B000E5EC209A20E8EBE8209C202000000000A7
:1037C00020F3E4E5F0E6E8E2E0E9F2E520A420E415
:1037D000EBFF20200000000020202020E7E0EFEE9B
:1037E000ECE8EDE0EDE8FF202020202000000000C4
:1037F000CD87000020202020202020C1CFD1204EC6
:10380000212020202020200028C007202020202048
:10381000EFF0EEE8E7E2E5E4E5EDE020202020200F
:103820000000000020E0E2F2EEEDEEECEDEEE9202B
:10383000F0E0E1EEF2FB202000000000202020203C
:10384000EDE0EFF0FFE6E5EDE8FF2020202020206E
:10385000000000002020202020D3F1F2E0EDEEE275
:10386000EAE0202020202020000000002055E2FB7C
:10387000F56D617820202020202020202021C220EA
:10388000000000002055E2FBF56D696E202020202D
:10389000202020202040C220000000002054E7E427
:1038A000F0E62EE0E22E2020202020202023F12E02
:1038B0000000000020202020CDC0CFD0DFC6C5CD25
:1038C000C8DF202020202000CACECDD2D0CECBDC35
:1038D00020C2DBD5CEC4CDCEC3CE200020C8EDE4BF
:1038E000E8EAE0F6E8FF2020202020202020202009
:1038F0000000000020F0E0E7F0FFE6E5EDEDEEE986
:1039000020E1E0F2E0F0E5E80000000020F3F1EA59
:10391000EEF0E5EDEDEEE3EE20E7E0F0FFE4E02091
:10392000000000002020D4D3CDCAD6C8CECDC0CB55
:10393000DCCDCED1D2DC202000000000C4CECFCE22
:10394000CFCBCDC8D2C5CBDCCDCEC520D0C5CBC565
:103950000000000020C2FBEAEBFEF7E5EDEE2020C0
:1039600020202020202020200000000020CAC0CDE0
:10397000C0CB20204D4F444255532D52545520204A
:103980000000000020C0C4D0C5D120C2C5C4CECC28
:10399000CEC3CE20202021200000000020202020A7
:1039A00020202020C8CFD12020202020202020200F
:1039B0000000000020C2DBD0C0C2CDC8C2C0CDC84C
:1039C000C520D2CECACEC2200000000030B12A46A7
:1039D0002321AFF2D010FCF7A1FD06E0B6F87C0081
:1039E0000022232180B2FCF7ACFD607802280BD1C5
:1039F000A078022808D1B07C30B12A462421AFF249
:103A0000FC10FCF78BFD06E0B6F87E0000222421B6
:103A100080B2FCF796FD607802280BD1A0780328CD
:103A200008D1B07C30B12A462521AFF22820FCF71E
:103A300075FD05E038880022252180B2FCF781FD64
:103A400078884BB00022BDE8F04F5E2180B2FCF7D1
:103A500078BD2DE9F043F849086A40F40010086287
:103A6000486B20F400104863086A20F0F860086290
:103A7000F248C26CF24B1A40C264086C40F4807089
:103A80000864486D20F480704865002000BF00BFC6
:103A900000BF00BF00BF00BF00BF00BF401CC0B2DE
:103AA000C828F3D3086C40F480700864486D40F473
:103AB00080704865486BE34F60F0F860820D3A65AE
:103AC000A7F1800338465C7F456D987FD97FA2F5CA
:103AD000407905F07F064FF0010C4FF00008B9F176
:103AE000FF0901D0AA4218D083F82180042C00D20B
:103AF00028B193F8224014B983F823C01D77884277
:103B000002D383F823C01E7783F822801420D8774D
:103B100083F81D8083F81E801BE0641CE4B25C7790
:103B2000042C16D383F81D80401CC0B298778842BD
:103B30000FD31E7783F81E8083F823C083F822C03A
:103B400093F8210028B14808D877022801D802202C
:103B5000D8777A65BDE8F0832DE9FE4FB94E803EF7
:103B600096F8230000287ED0DFF8D8920025A9F827
:103B70002850A9F82A50B9F806003070357131463E
:103B8000B6F92E000B7F0A2817DAFD2B11D07D2BFA
:103B90000FD0FB2B0DD07B2B0BD0F72B09D0772B25
:103BA00007D0EF2B05D06F2B03D0FE2B01D07E2B3F
:103BB00003D1A5480580A5480570DFF888A2F92B38
:103BC0000AF1580A9AF800C07CD00124E72B7AD079
:103BD000792B76D07A2B77D0514691F901B091F9B3
:103BE00002100BF101004FFA80FE0291801E491E67
:103BF00040B249B2BCF12E0F67D0BCF1000F77D0B4
:103C0000BCF1070F75D0BCF1090F73D0BCF1010FE7
:103C100071D0BCF1050F6FD08D4FDFF83882BCF149
:103C20002F0F6AD0BCF10E0F67D0BCF10F0F64D01C
:103C3000BCF1380F61D0BCF1210F5ED0BCF1030F95
:103C400070D0BCF1110F6ED040F26C77BCF1150F43
:103C50006AD0BCF13A0F68D0BCF13C0F7DD0794AF4
:103C6000B2F9147000E0F3E37AB2BCF1400F75D002
:103C7000BCF13E0F73D0BCF1420F71D05746BCF17E
:103C80003D0F1ED04FF0030ABCF1360F69D0BCF1D6
:103C90004E0F67D0BCF14F0F70D04FF00208BCF14F
:103CA000570F6CD0BCF1580F6AD0BCF15B0F68D0D5
:103CB000BCF15E0F71D0BCF15F0F6FD0BCF1610F32
:103CC0006DD093E002E01EE024E032E0BCF12E0F64
:103CD00014D0D9F85800C9F85D0099F85C0089F84B
:103CE000610000231A4605212E20FCF709FD7DE026
:103CF00092E01FE12BE172E17EE18AE100210846BA
:103D0000FCF7DDFC72E0C9F84C405321002003F0C1
:103D1000F5F96BE096F8270040B186F8275086F851
:103D2000215063E069E3F6E3F7E3F7E386F8274021
:103D3000F5E7EF2B17D0F72B24D0BBF1010F2FD0D5
:103D4000BBF1050F53D050463E495831FD2B91F938
:103D5000041051D0FB2B57D048E0FAE3FAE3FAE322
:103D6000FAE3FAE3FAE38AF801E08AF804500C2255
:103D700000210AF10100FCF759FA37E0EFE3EFE325
:103D8000EFE3EFE38AF801008AF804500C220021E7
:103D90000AF10100FCF74AFA28E0F4E3F4E3F4E363
:103DA000FD2B07D150468AF802101E220021801CEC
:103DB000FCF747FA307FFB280AD19AF80200401C32
:103DC0008AF802001E2200210AF10200FCF739FAEB
:103DD000307FFE280AD135868AF800508AF80150D3
:103DE0008AF802508AF803508AF8045003E07E2BC8
:103DF00001D1FDF703F86BE0491E01710422002197
:103E0000001DFCF71EFA63E0491C01710422002129
:103E1000001DFCF716FA5BE0FB2B1DD0FD2B24D018
:103E2000EF2B2BD0F72B2CD07B2B2DD0672B2ED02C
:103E3000FE2B35D04CE0000000C0092000C002403D
:103E4000FF0FC0FF8C0000100400001000000010E5
:103E500000400240FCC9072050468AF801E00922D0
:103E60000021401CFCF7EDF932E08AF8010009223C
:103E700000210AF10100FCF7E4F929E08AF8015079
:103E800026E08AF8015023E08AF8015020E096F8F5
:103E90002B0010B186F82B501AE086F82B4017E063
:103EA000BBF1000F14D0BBF1010F12D0BBF1020F18
:103EB00016D0BBF1030F1AD0BBF1040F1ED0BBF11B
:103EC000050F22D0BBF1070F26D0BBF1080F2AD077
:103ED0003CE000231A4619460720FCF711FC35E0A8
:103EE00000231A4619460920FCF70AFC2EE000239D
:103EF0001A4619460320FCF703FC27E000231A4664
:103F000019460520FCF7FCFB20E000231A46194661
:103F10000120FCF7F5FB19E000231A4619460A2098
:103F2000FCF7EEFB12E000231A4619460B20FCF7C3
:103F3000E7FB0BE0FE2B09D100231A4619460820A7
:103F4000FCF7DEFB01211420FCF74AF946E04FF4B0
:103F50007A70FCF756F9317FFD290CD0FB2916D079
:103F60009AF90100FF4AF0B1012822D0022826D098
:103F700003282AD032E09AF80100401E8AF8010096
:103F8000032200210AF10100FCF75BF926E09AF810
:103F90000100401C8AF80100032200210AF10100FF
:103FA000FCF74FF91AE0907808B1957016E094701C
:103FB00014E0507808B1557010E054700EE010789D
:103FC00008B115700AE0147008E0FE2906D100213E
:103FD0000846FCF774FB0020FCF713F90BE0FE2BFE
:103FE00009D100231A4619460220FCF789FB01215A
:103FF0001420FCF7F5F80BE0FE2B09D100231A463C
:1040000019460620FCF77CFB01211420FCF7E8F898
:104010000BE23220FCF7F5F8307FEF280AD0F728C2
:1040200014D0D049891FFD281CD0FB2825D0FE289C
:104030002ED0FAE19AF80100401C8AF80100022211
:1040400000210AF10100FCF7F1F8EEE19AF8010015
:10405000401E8AF80100022200210AF10100FCF74B
:10406000E5F8E2E19AF901000A5C521C0A5408449E
:1040700009220021FCF7DAF8D7E19AF901000A5C7D
:10408000521E0A54084409220021FCF7CFF8CCE163
:1040900091F9010000EB8000420091F9000091F9D4
:1040A000021000EBC00303EB001002EB8000084499
:1040B00080B29AF800102F290BD00E297DD00F293D
:1040C0007CD00A2738297AD02C2979D0212978D098
:1040D000ABE1A44A9AF902103A3AA34B12F801C094
:1040E000A24CDFF88C82DFF88C9240F2D222BCF135
:1040F000550F67D0904271D133F91100552103F06B
:10410000E1FC00214FF4817003F0DCFC17F82C1F58
:104110009AF9020034F9100003F0D4FC397B9AF9C3
:10412000020038F9100003F0CDFCB7F910109AF92D
:10413000020039F9100003F0C5FC9AF902008E491B
:1041400031F9100045F2555103F0BCFC9AF9020018
:104150008A4931F91000002103F0B4FC9AF90200F9
:10416000874931F91000002103F0ACFC00214FF425
:10417000797003F071FC00214FF47E7003F06CFC49
:1041800000214FF47F7003F067FC002140F2E6301D
:1041900003F062FC002140F2FA3003F05DFC0021E4
:1041A00040F2FE3003F058FC002140F2F63003F0FC
:1041B00053FC00214FF47D7006E051E069E087E098
:1041C000A7E0BFE018E009E003F046FC0021084644
:1041D000FCF775FA0020FCF714F826E100210846E8
:1041E000FCF76DFA4FF47A730093664B66A26CA1EC
:1041F0001846FCF7C7FA18E1904223D133F91100B1
:10420000AA2103F05FFC17F82C1F9AF9020034F979
:10421000100003F057FC397B9AF9020038F91000BE
:1042200003F050FCB7F910109AF9020039F91000A8
:1042300003F048FC00210846FCF741FA0020FBF798
:10424000E0FFF2E000210846FCF739FA4FF47A73F8
:1042500000934C4B4CA252A11846FCF793FAE4E0B1
:10426000B8280DD000210846FCF729FA4FF47A73DC
:104270000093444B44A24AA11846FCF783FAD4E0C9
:1042800000210846FCF71BFA4FF47A70FBF7B9FFE0
:10429000CBE0A0F5407169390CD10846FCF70FFA64
:1042A00000231A4619461520FCF72AFA6420FBF76A
:1042B000A8FFBAE000210846FCF701FA4FF47A7330
:1042C0000093304B30A236A11846FCF75BFAACE005
:1042D000A0F54071B5390ED10846FCF7F0F900237E
:1042E0001A4601213920FCF70BFA86F824700020C9
:1042F000FBF787FF99E000210846FCF7E0F94FF44F
:104300007A7300931F4B20A225A11846FCF73AFAB6
:104310008BE0A0F58071273906D18AF801408AF830
:10432000045086F8247080E000210846FCF7C7F9A5
:104330004FF47A730093134B13A219A11846FCF79C
:1043400021FA72E0A0F54071E73946D10846FCF742
:10435000B6F988F8005088F8015088F8025088F8BB
:10436000035029E0CA000010508100005481000071
:10437000588100004C810000608100005C810000D9
:1043800048810000B01A00002020202020EDE5E246
:10439000E5F0EDFBE9212121202020200000000094
:1043A00020202020202020CFE0F0EEEBFC20202059
:1043B000202020200000000088F8045088F80550D4
:1043C00088F8065088F8075088F8095088F80A508D
:1043D00042F21070FBF715FF27E000210846FCF7BA
:1043E0006EF94FF47A730093FA4BAFF26402AFF2B6
:1043F00050011846FCF7C6F917E0EF2B16D0F72B43
:104400001DD0FE2B25D0BBF1000F2DD0BBF1010F2D
:1044100054D0BBF1020F7BD0BBF1030F79D0BBF1BD
:10442000040F77D0BBF1050F76D000E250468AF832
:1044300001E005220021401CFBF703FFF7E18AF8A9
:104440000100052200210AF10100FBF7FAFEEEE16E
:10445000FAE300231A4619460420FCF751F901211A
:104460001420FBF7BDFEE2E197F828000090FD2B39
:1044700006D07D2B04D0FB2B10D07B2B0ED01AE066
:104480009DF80000401C0090172200216846FBF7B1
:10449000CDFE9DF8000087F828000CE09DF8000094
:1044A000401E0090172200216846FBF7BFFE9DF8D2
:1044B000000087F8280086F82140B8E197F824002A
:1044C0000090FD2B06D07D2B04D0FB2B10D07B2B36
:1044D0000ED01AE09DF80000401C00903B22002105
:1044E0006846FBF7A3FE9DF8000087F824000CE067
:1044F0009DF80000401E00903B2200216846FBF71B
:1045000095FE9DF8000087F8240086F821408EE192
:1045100005E03BE064E0B1E086E0BBE1C7E297F88C
:104520002C000090FD2B06D07D2B04D0FB2B1AD045
:104530007B2B18D024E09DF80000401C00901F2227
:1045400001216846FBF772FE9DF8000087F82C00F9
:1045500016E05AE3EFE3F1E3F1E3F1E3F1E3F1E332
:10456000F1E3F1E3F1E39DF80000401E00901F220B
:1045700001216846FBF75AFE9DF8000087F82C00E1
:1045800086F8214053E1FEE3FEE3FEE397F83800AE
:104590000090FD2B06D07D2B04D0FB2B10D07B2B65
:1045A0000ED01AE09DF80000401C00900C22012162
:1045B0006846FBF73BFE9DF8000087F838000CE0EA
:1045C0009DF80000401E00900C2201216846FBF778
:1045D0002DFE9DF8000087F8380086F8214026E17E
:1045E000B88F40B20090FD2B06D07D2B04D0FB2B62
:1045F0000DD07B2B0BD014E0401C009063220021D7
:104600006846FBF713FE9DF90000B88709E0401EDD
:104610000090632200216846FBF708FE9DF9000028
:10462000B88786F8214002E197F830000090FD2B12
:1046300006D07D2B04D0FB2B10D07B2B0ED01AE0A4
:104640009DF80000401C0090062200216846FBF700
:10465000EDFD9DF8000087F830000CE09DF80000AB
:10466000401E0090062200216846FBF7DFFD9DF802
:10467000000087F8300086F82140D8E04FF47A74C3
:104680002046FBF7BEFD307FFB2806D0FD281ED05C
:104690007B283AD0FE284AD0C9E09AF8011050464B
:1046A000491C8AF80110B6F8601001B10121B6F872
:1046B000642002B101220A44B6F8661001B101215A
:1046C0000A44121D0021401CFBF7BBFDAFE09AF825
:1046D0000100401E8AF80100B6F8600008B101210F
:1046E00000E00021B6F8640008B1012200E00022D9
:1046F0008818B6F8661001B101214218121D002178
:104700000AF10100FBF79DFD91E0B6F8600000B1F1
:104710000120B6F8641001B101210144B6F8660029
:1047200000B101200844001D8AF801007FE09AF9D9
:10473000010050B1B6F9601009B101280FD0B6F9E7
:10474000642022B3A9B1012314E000231A461946BC
:104750002A20FBF7D5FF2046FBF753FD67E0002337
:104760001A4619462720FBF7CBFF2046FBF749FDE9
:104770005DE000235B1C984209D100231A461946CC
:104780002420FBF7BDFF2046FBF73BFD4FE0B6F9C9
:1047900066308BB109B1012700E0002712B14FF05C
:1047A000010C01E04FF0000C67447F1C874203D1ED
:1047B0002046FBF726FD3AE009B1012700E000277B
:1047C00012B14FF0010C01E04FF0000CBC441BB1E2
:1047D000012702E0B01A0000002767447F1C8742CF
:1047E00009D100231A4619462920FBF789FF2046E4
:1047F000FBF707FD1BE009B1012700E0002712B11C
:104800004FF0010C01E04FF0000CBC440BB101274C
:1048100000E000276744BF1C874209D100231A46E5
:1048200019463A20FBF76CFF2046FBF7EAFC30E024
:1048300009B1012700E0002712B14FF0010C01E09F
:104840004FF0000CBC440BB1012700E00027674487
:10485000FF1C874209D100231A4619465420FBF752
:104860004FFF2046FBF7CDFC13E001B1012102B15F
:1048700001220A440BB1012100E000211144091D6D
:10488000814206D100210846FBF719FF0020FBF703
:10489000B8FC0BE14FF47A784046FBF7B2FC307F6E
:1048A000FB2812D0FD2822D07B2832D09AF90100B3
:1048B0004FF4FA69A8B301285CD0B6F9641009B1C5
:1048C000022870D071B301228BE09AF80110504693
:1048D000491C8AF80110B6F8641009B1012200E001
:1048E0000022121D0021401CFBF7ABFCDEE09AF811
:1048F00001105046491E8AF80110B6F8641009B13B
:10490000012200E00022121D0021401CFBF799FC4F
:10491000CCE0B6F8640000B10120001D8AF8010067
:10492000C4E000E05CE0442002F0DBFF00B2019054
:10493000317FEF2906D06F2907D0F72908D07729D2
:1049400009D00AE0401C019007E0801C019004E0BF
:10495000401E019001E0801E01904A46322101A8CC
:10496000FBF77AFCBDF90410442003F0ABF886F89D
:1049700021409BE0F04F388802F0B3FF00B2019075
:10498000317FEF2906D06F2907D0F72908D0772982
:104990000AD00BE0401C019008E0801C019005E06B
:1049A000401E019002E011E0801E019047F230525B
:1049B000C82101A8FBF750FCB7F90000BDF90410AD
:1049C00003F080F8347686F821406FE000231A4621
:1049D00019462420FBF794FE4046FBF712FC65E0E5
:1049E0000022921C904226D1462002F07AFF00B2AB
:1049F0000190317FEF2906D06F2907D0F72908D021
:104A0000772909D00AE0401C019007E0801C019042
:104A100004E0401E019001E0801E01904A461E21E4
:104A200001A8FBF719FCBDF90410462003F04AF871
:104A300086F821403AE009B1012200E00022D21CB0
:104A4000904227D1A62002F04CFF00B20190317FA6
:104A5000EF2906D06F2907D0F72908D0772909D088
:104A60000AE0401C019007E0801C019004E0401E19
:104A7000019001E0801E019040F6B832394601A84D
:104A8000FBF7EAFBBDF90410A62003F01BF886F83B
:104A900021400BE001B10121091D884206D100210E
:104AA0000846FBF70CFE0020FBF7ABFBACE04FF435
:104AB0007A70FBF7A6FB317FFB290BD0FD2915D0BF
:104AC0009AF90100F0B1012844D002286AD00328E5
:104AD00077D099E09AF80100401C8AF8010003227F
:104AE00000210AF10100FBF7ACFB8DE09AF8010010
:104AF000401E8AF80100032200210AF10100FBF7A1
:104B0000A0FB81E0A62002F0ECFE00B20190317F14
:104B1000EF2906D06F2907D0F72908D0772909D0C7
:104B20000AE0401C019007E0801C019004E0401E58
:104B3000019001E0801E019040F6B832394601A88C
:104B4000FBF78AFBBDF90410A62002F0BBFF86F834
:104B5000214059E0A82002F0C4FE00B20190317F4C
:104B6000EF2906D06F2907D0F72908D0772909D077
:104B70000AE0401C019007E0801C019004E0401E08
:104B8000019001E0801E019040F6B832394601A83C
:104B9000FBF762FBBDF90410A82002F093FF86F832
:104BA000214031E0AA2002F09CFE00B20190317F4A
:104BB000EF2907D06F2908D0F72909D077290AD023
:104BC0000BE018E0401C019007E0801C019004E01D
:104BD000401E019001E0801E019040F6B832394637
:104BE00001A8FBF739FBBDF90410AA2002F06AFF07
:104BF00086F8214008E0FE2906D101210020FBF7BC
:104C00005EFD0020FBF7FDFAC3E04FF47A70FBF77E
:104C1000F8FA307FFB2809D0FD2816D09AF9010058
:104C200008B3012847D002286DD09EE09AF8010011
:104C3000401C8AF80100B6F86800002142B20AF16F
:104C40000100FBF7FEFA90E0FCE39AF80100401E39
:104C50008AF80100B6F86800002142B20AF10100AA
:104C6000FBF7EFFA81E0A62002F03BFE00B20190D4
:104C7000317FEF2906D06F2907D0F72908D077298F
:104C800009D00AE0401C019007E0801C019004E07C
:104C9000401E019001E0801E019040F6B832394676
:104CA00001A8FBF7D9FABDF90410A62002F00AFF0B
:104CB00086F8214059E0A82002F013FE00B20190CE
:104CC000317FEF2906D06F2907D0F72908D077293F
:104CD00009D00AE0401C019007E0801C019004E02C
:104CE000401E019001E0801E019040F6B832394626
:104CF00001A8FBF7B1FABDF90410A82002F0E2FE0A
:104D000086F8214031E0AA2002F0EBFD00B20190CC
:104D1000317FEF2906D06F2907D0F72908D07729EE
:104D200014D015E0401C019012E0801C01900FE0AF
:104D3000401E01900CE02DE0688100004FE073E020
:104D40009CE009E18CE2F4E3F4E3F4E3801E0190DB
:104D500040F6B832394601A8FBF77EFABDF90410D7
:104D6000AA2002F0AFFE86F821409AF90100B6F9B8
:104D7000681088420DD1307FFE280AD10121002021
:104D8000FBF79DFC02E0F6E3F6E3F6E30020FBF719
:104D900038FA1EE0FB2B06D0FD2B0CD0FE2B12D0D8
:104DA000F72B17D015E050468AF801E00021401C8F
:104DB000FBF747FA0DE08AF8010000210AF1010033
:104DC000FBF73FFA05E0BB4503D100210846FBF79E
:104DD00076FC23E000210846FBF771FC1EE0FB2B6C
:104DE00006D0FD2B0CD0FE2B12D0F72B17D015E0E0
:104DF00050468AF801E00021401CFBF722FA0DE042
:104E00008AF8010000210AF10100FBF71AFA05E017
:104E1000BB4503D100210846FBF751FC28E00021E7
:104E20000846FBF74CFC23E0FB2B06D0FD2B0CD0F7
:104E3000FE2B12D0F72B1CD01AE050468AF801E066
:104E40000021401CFBF7FDF912E08AF80100002167
:104E50000AF10100FBF7F5F90AE0BB4505D14FF077
:104E600000010846FBF72BFC02E001DC8AF8045045
:104E700026E000210846FBF722FC21E04FF47A707F
:104E8000FBF7BFF9307FFB2809D0FD2819D097F92F
:104E9000011039B301293CD0032953D010E07878B0
:104EA000401C787003220021781CFBF7CAF988F8AF
:104EB000054088F806507878022801D187F801A0CB
:104EC0000FE07878401E787003220021781CFBF7F1
:104ED000B8F988F8054088F806507878022800D19B
:104EE0007C7038E0EF2802D0F72809D033E098F83A
:104EF000050010B188F805502DE088F805402AE03B
:104F000098F8050010B188F8055024E088F80540AD
:104F100021E0FE2804D0EF2802D0F72809D01AE0BB
:104F200098F8060010B188F8065014E088F806409A
:104F300011E098F8060010B188F806500BE088F8E8
:104F4000064008E0FE2806D100210846FBF7B7FB23
:104F50000020FBF756F982E14FF47A70FBF751F924
:104F6000307FFB2813D0FD281AD097F9011001B328
:104F700001294BD002297DD0032976D0042975D090
:104F8000052974D0062973D0072972D067E1787893
:104F9000401C787007220021781CFBF752F95EE173
:104FA0007878401E787007220021781CFBF749F9B9
:104FB00055E1EF2806D06F280AD0F7280ED07728C1
:104FC00012D016E0B6F84800401CA6F8480010E0E1
:104FD000B6F84800801CA6F848000AE0B6F8480079
:104FE000401EA6F8480004E0B6F84800801EA6F867
:104FF000480050223221FC48FBF72EF9B6F9481040
:10500000D02002F05FFD86F8214028E1EF2806D08D
:105010006F280AD0F7280ED0772812D016E0B6F8FD
:105020004C00401CA6F84C0010E0B6F84C00801C68
:10503000A6F84C000AE0B6F84C00401EA6F84C005A
:1050400004E0B6F84C00801EA6F84C00E648512259
:105050003121001DFBF700F9B6F94C10D42002F005
:1050600031FD86F82140FAE004E031E05EE08EE0B8
:10507000BBE0EBE0EF2806D06F280AD0F7280ED06F
:10508000772812D016E0B6F84A00401CA6F84A006D
:1050900010E0B6F84A00801CA6F84A000AE0B6F80C
:1050A0004A00401EA6F84A0004E0B6F84A00801EF6
:1050B000A6F84A00CC481E220521801CFBF7CCF83C
:1050C000B6F94A10D22002F0FDFC86F82140C6E075
:1050D000EF2806D06F280AD0F7280ED0772812D0F4
:1050E00016E0B6F84E00401CA6F84E0010E0B6F8E8
:1050F0004E00801CA6F84E000AE0B6F84E00401E96
:10510000A6F84E0004E0B6F84E00801EA6F84E0049
:10511000B54851223121801DFBF79EF8B6F94E109B
:10512000D62002F0CFFC86F8214098E0EF2806D088
:105130006F280AD0F7280ED0772812D016E0B6F8DC
:105140005000401CA6F8500010E0B6F85000801C3B
:10515000A6F850000AE0B6F85000401EA6F850002D
:1051600004E0B6F85000801EA6F85000B6F84E00D5
:105170002C21401F02B29C480830FBF76DF8B6F9AD
:105180005010D82002F09EFC86F8214067E0EF28FE
:1051900006D06F280AD0F7280ED0772812D016E054
:1051A000B6F85200401CA6F8520010E0B6F85200C3
:1051B000801CA6F852000AE0B6F85200401EA6F87D
:1051C000520004E0B6F85200801EA6F8520086484D
:1051D0005B2231210A30FBF73FF8B6F95210DA2092
:1051E00002F070FC86F8214039E0EF2806D06F28E5
:1051F0000AD0F7280ED0772812D016E0B6F854005F
:10520000401CA6F8540010E0B6F85400801CA6F824
:1052100054000AE0B6F85400401EA6F8540004E01A
:10522000B6F85400801EA6F85400B6F852002C219F
:10523000401F02B26C480C30FBF70EF8B6F9541060
:10524000DC2002F03FFC86F8214008E0FE2806D171
:1052500000210846FBF733FA0020FAF7D2FFECE111
:105260004FF47A70FAF7CDFF307FFB2819D0FD2874
:1052700020D097F9012032B3012A51D0022A7DD0E3
:105280006FF03101032A7AD0042A79D0052A78D028
:10529000062A77D0072A76D0082A75D0092A74D032
:1052A000CBE17878401C787009220021781CFAF74D
:1052B000C8FFC2E17878401E787009220021781C6E
:1052C000FAF7BFFFB9E1EF2806D06F280AD0F72818
:1052D0000ED0772812D016E0B6F84800401CA6F889
:1052E000480010E0B6F84800801CA6F848000AE024
:1052F000B6F84800401EA6F8480004E0B6F848009A
:10530000801EA6F84800502232213748FAF7A4FF41
:10531000B6F94810D02002F0D5FB86F821408CE188
:10532000EF2806D06F280AD0F7280ED0772812D0A1
:1053300016E0B6F84C00401CA6F84C0010E0B6F899
:105340004C00801CA6F84C000AE0B6F84C00401E49
:10535000A6F84C0004E0B6F84C00801EA6F84C00FD
:10536000214851223121001DFAF776FFB6F94C1081
:10537000D42002F0A7FB86F821405EE106E035E08C
:1053800061E08DE0BAE0EDE01DE14DE1EF2806D0EF
:105390006F280AD0F7280ED0772812D016E0B6F87A
:1053A0004A00401CA6F84A0010E0B6F84A00801CEB
:1053B000A6F84A000AE0B6F84A00401EA6F84A00DD
:1053C00004E0B6F84A00801EA6F84A0006483222D9
:1053D0000021801CFAF740FFB6F94A10D22002F0F3
:1053E00071FB86F8214028E154000010EF2806D018
:1053F0006F280AD0F7280ED0772812D016E0B6F81A
:105400005C00401CA6F85C0010E0B6F85C00801C54
:10541000A6F85C000AE0B6F85C00401EA6F85C0046
:1054200004E0B6F85C00801EA6F85C003222F84862
:10543000FAF712FFB6F95C10F82002F043FB86F889
:105440002140FAE0FEE3EF2806D06F280AD0F728C3
:105450000ED0772812D016E0B6F85E00401CA6F8F1
:105460005E0010E0B6F85E00801CA6F85E000AE060
:10547000B6F85E00401EA6F85E0004E0B6F85E00D6
:10548000801EA6F85E00E2483222801CFAF7E4FE95
:10549000B6F95E10FA2002F015FB86F82140CCE048
:1054A000EF2806D06F280AD0F7280ED0772812D020
:1054B00016E0B6F84E00401CA6F84E0010E0B6F814
:1054C0004E00801CA6F84E000AE0B6F84E00401EC2
:1054D000A6F84E0004E0B6F84E00801EA6F84E0076
:1054E000CB48512231210E38FAF7B6FEB6F94E10EC
:1054F000D62002F0E7FA86F821409EE0EF2806D099
:105500006F280AD0F7280ED0772815D019E0B6F802
:105510005000401CA6F8500013E0B6F85000801C64
:10552000A6F850000DE0B6F85000401EA6F8500056
:1055300007E083E06EE1AFE1B6F85000801EA6F808
:105540005000B6F84E002C21401F02B2B0480C3873
:10555000FAF782FEB6F95010D82002F0B3FA86F8B6
:1055600021406AE0EF2809D06F280DD0F72811D02C
:10557000772815D019E0CBE19FE2EFE2B6F85200B0
:10558000401CA6F8520010E0B6F85200801CA6F8A5
:1055900052000AE0B6F85200401EA6F8520004E09D
:1055A000B6F85200801EA6F8520099485B223121BD
:1055B0000A38FAF751FEB6F95210DA2002F082FAF0
:1055C00086F8214039E0EF2806D06F280AD0F72866
:1055D0000ED0772812D016E0B6F85400401CA6F87A
:1055E000540010E0B6F85400801CA6F854000AE0FD
:1055F000B6F85400401EA6F8540004E0B6F8540073
:10560000801EA6F85400B6F852002C21401F02B2AA
:105610007F480838FAF720FEB6F95410DC2002F073
:1056200051FA86F8214008E0FE2806D100210846FC
:10563000FBF745F80020FAF7E4FD50E04FF47A70EC
:10564000FAF7DFFD307FFB2811D0FD2819D097F93C
:10565000011001B340F6C41201292CD0022963D0F5
:10566000032970D004296FD005296ED037E07878EF
:10567000401C7870707E002142B2781CFAF7E1FD80
:105680002DE07878401E7870707E002142B2781C40
:10569000FAF7D7FD23E0B07D012807D0022808D013
:1056A000B475B17DE82002F00DFAF8E386F81680B3
:1056B000F7E7B575F5E7B17D41B1EF2810D06F2858
:1056C00014D0F72818D077281CD020E0FE2806D167
:1056D00000210846FAF7F3FF0020FAF792FDDEE317
:1056E000B6F85800401CA6F8580010E0B6F858006C
:1056F000801CA6F858000AE0B6F85800401EA6F82C
:10570000580004E0B6F85800801EA6F8580040483B
:105710006421001FFAF7A0FDB6F95810EC2002F042
:10572000D1F986F82140BAE3EF2806D06F280DD0D2
:10573000F72811D0772815D019E0B6F85A00401C88
:10574000A6F85A0013E01FE04CE055E0B6F85A0006
:10575000801CA6F85A000AE0B6F85A00401EA6F8C7
:105760005A0004E0B6F85A00801EA6F85A002848ED
:105770006421801EFAF770FDB6F95A10EE2002F08F
:10578000A1F986F821408AE3EF2806D06F280AD0D5
:10579000F7280ED0772812D016E0B6F85600401C35
:1057A000A6F8560010E0B6F85600801CA6F8560081
:1057B0000AE0B6F85600401EA6F8560004E0B6F817
:1057C0005600801EA6F8560011483C220A21801F70
:1057D000FAF742FDB6F95610F02002F073F986F898
:1057E00021405CE3FE2806D100210846FAF767FF56
:1057F0000020FAF706FD52E3F17D29BBFE2823D1F4
:1058000000210846FAF75BFF0020FAF7FAFC46E3AE
:1058100068000010F84AB2F86420921E52B2FD2BC4
:105820000CD0FB2B11D07B2B18D0EF2B18D0F72BE3
:105830001FD0FE2B24D07E2B27D030E33846B97002
:105840000021801CFAF7FDFC29E302993846491C27
:10585000B9700021801CFAF7F4FC20E3BA701EE353
:10586000384687F801E003220021401CFAF7E9FCE2
:1058700015E3787003220021781CFAF7E2FC0EE3AE
:1058800000210846FAF71BFF09E3DC48017809B15B
:10589000057004E3047002E34FF47A70FAF7B1FC88
:1058A000307FFD280CD0FB2815D097F90110002976
:1058B00023DBB6F9642091421FDAFE2816D0EEE20F
:1058C0007878401E7870B6F86400002142B2781CE7
:1058D000FAF7B7FCE3E27878401C7870B6F8640019
:1058E000002142B2781CFAF7ACFCD8E200227B78A7
:1058F00011465C20FAF704FFD1E2B6F96420914228
:1059000005D1FE2803D100210846FAF7D8FEC6E2E9
:105910004FF47A70FAF775FC307FFB280ED0FD2823
:1059200015D07B281CD097F9011003291BD0052224
:1059300019B3012959D0022970D0B0E27878401CFF
:10594000787003220021781CFAF77BFCA7E27878B4
:10595000401E787003220021781CFAF772FC9EE248
:1059600087F801A09BE2FE2806D100210846FAF73D
:10597000A6FE0020FAF745FC91E2EF2806D06F283A
:105980000AD0F72812D0772816D01EE0B6F86C009F
:10599000401CA6F86C0018E0B6F96C0090FBF2F021
:1059A000401C00EB8000A6F86C000EE0B6F86C001E
:1059B000401EA6F86C0008E0B6F96C0090FBF2F00F
:1059C000401E00EB8000A6F86C008B4840F6B83211
:1059D0000A216C30FAF740FCB6F96C104FF4957060
:1059E00002F070F886F8214059E2EF2806D06F28BF
:1059F0000AD0F72813D0772817D01FE0B6F86E002A
:105A0000401CA6F86E0019E0B6F96E0090FBF2F0AB
:105A1000401C00EB8000A6F86E000FE01EE0B6F818
:105A20006E00401EA6F86E0008E0B6F96E0090FB0E
:105A3000F2F0401E00EB8000A6F86E006E4840F6C3
:105A4000B8320A216E30FAF707FCB6F96E104FF43F
:105A5000967002F037F886F8214020E2EF2806D051
:105A60006F280AD0F7280ED0772812D016E0B6F8A3
:105A70007000401CA6F8700010E0B6F87000801CA2
:105A8000A6F870000AE0B6F87000401EA6F8700094
:105A900004E0B6F87000801EA6F870005648642234
:105AA00005217030FAF7D8FBB6F970104FF49770F3
:105AB00002F008F886F82140F1E14FF47A70FAF725
:105AC000A0FB307FFB2809D0FD2810D07B2817D001
:105AD00097F90110022916D0F9B1E0E17878801C1D
